:020000040800F2
:1000000030070020A10100084D2B0008DD2A000860
:10001000492B00087108000849370008000000005B
:10002000000000000000000000000000252D000876
:10003000790A000800000000BD2B0008792E000896
:10004000BB010008BB010008BB010008BB010008A0
:10005000BB010008BB010008BB010008BB01000890
:10006000BB010008BB010008BB010008BB01000880
:10007000BB010008BB010008BB010008BB01000870
:10008000BB010008BB010008BB010008BB01000860
:10009000BB010008BB010008BB010008BB01000850
:1000A000BB010008BB010008BB010008BB01000840
:1000B000BB010008BB010008BB010008BB01000830
:1000C000BB010008BB010008BB010008BB01000820
:1000D000BB01000851360008CD360008BB010008FE
:1000E000BB010008BB010008BB010008BB01000800
:1000F000BB010008BB010008BB010008BB010008F0
:10010000BB010008BB010008BB010008BB010008DF
:10011000BB010008BB010008BB010008BB010008CF
:10012000BB010008BB010008BB010008BB010008BF
:10013000BB010008BB010008BB010008BB010008AF
:10014000BB010008BB010008BB010008BB0100089F
:10015000BB010008BB010008BB010008BB0100088F
:10016000BB010008BB010008BB010008BB0100087F
:10017000BB010008BB010008BB0100080000000033
:10018000BB010008BB010008DFF810D000F00CFB39
:1001900000F050F800480047413D000830070020BB
:1001A0000648804706480047FEE7FEE7FEE7FEE711
:1001B000FEE7FEE7FEE7FEE7FEE7FEE7812E00082A
:1001C000890100082DE9F05F0546002092469B4614
:1001D00088460646814640241BE02846414647465D
:1001E000224600F0ACF953465A46C01A914110D34A
:1001F00011461846224600F093F92D1A67EB0108C4
:100200004F4622460120002100F08AF917EB000931
:100210004E41201EA4F10104DFDC484631462A4647
:100220004346BDE8F09F421C10F8011B0029FBD19A
:10023000801A704770B5054C054D04E020460168F2
:1002400008448047241DAC42F8D170BD505B0008C3
:10025000585B00082DE9FE4F804681EA0300C00F7D
:100260000C46009021F0004123F00045B8EB02005D
:10027000A94105D24046214690461C460B460246FF
:1002800023F00040104347D0270DC7F30A00C3F303
:100290000A510290401A019040286BDAC3F3130010
:1002A00040F4801B0098924620B10023D2EB030A51
:1002B00063EB0B0B01985946C0F14002504600F029
:1002C0002FF906460D4650465946019A00F047F967
:1002D00010EB08006141002487EA115284EAE773B9
:1002E0001A4340D0009A62B3019A012A4FEA07529A
:1002F00015DC001B61EB02014FF0004202EA0752DD
:10030000CDE90042001C41F5801132462B4600F039
:1003100047F903B0BDE8F08F40462146F9E7001BDE
:1003200061EB0201001C41F5801300185B412018AD
:10033000A2F5001747EB030140EAD570B6196D41ED
:1003400011E06D084FEA360645EAC0754FEA0752DC
:10035000001B61EB0201001C41F5801149084FEAC6
:1003600030000019514132462B4603B0BDE8F04F32
:1003700000F007B90098012240000023D0EB0202F0
:1003800063EBE073009821464FEAE074B8EB00009D
:1003900061EB0401E9E783F000435BE781F0004192
:1003A00058E72DE9FE4F81EA030404F0004421F0F0
:1003B000004100944FF0000B23F0004350EA010489
:1003C0005ED052EA03045BD0C3F30A54C1F30A556A
:1003D0002C44A4F2F3340194A0FB0254C1F31301A2
:1003E00041F48011C3F3130343F4801301FB02446F
:1003F00000FB034E840A970A44EA815447EA835774
:10040000A4FB076802958D0A05FB07854FEA932C2C
:1004100004FB0C542705029D4FEA065847EA16379D
:10042000B5EB08056EEB070C870E920E47EA8117B5
:1004300042EA8312A7FB0201B6EB0B0164EB000456
:100440002B0D43EA0C335E1844EB1C50DA46514640
:10045000E7FB0201C5F313044FEA0B3343EA1453DD
:100460004FEA0432019C43EA0603A4F10C0402940F
:10047000009CCDE900B400F093F803B0BDE8F08F24
:1004800000200146F9E70EB5C10F80EAE07008448C
:10049000CA07002140F233438DE80E000A460B469E
:1004A00000F07EF803B000BD0EB540F2334102917A
:1004B0000021CDE900110A460B4600F071F803B0A7
:1004C00000BDC1F30A5210B5C1F3130140F2FF336E
:1004D00041F480119A4201DA002010BD40F233430A
:1004E0009A42A2F2334203DC524200F028F810BDD7
:1004F000904010BD30B50B4601460020202201245B
:1005000009E021FA02F59D4205D303FA02F5491BE1
:1005100004FA02F52844151EA2F10102F1DC30BDF7
:10052000202A04DB203A00FA02F1002070479140B3
:10053000C2F1200320FA03F3194390407047202AA8
:1005400004DB203A21FA02F00021704721FA02F37D
:10055000D040C2F120029140084319467047202A3A
:1005600006DBCB17203A41FA02F043EAE07306E0DB
:1005700041FA02F3D040C2F12002914008431946EB
:10058000704710B5141E73F1000408DA401C41F1E5
:10059000000192185B411A4301D120F0010010BD07
:1005A0002DE9F04D92469B4611B1B1FA81F202E07D
:1005B000B0FA80F220329046FFF7B2FF04460F46B1
:1005C00040EA0A0041EA0B0153465A46084313D059
:1005D000114653EA010019D0C8F140025046FFF716
:1005E000AEFF05460E46504659464246FFF798FF75
:1005F000084305D0012004E020463946BDE8F08DCF
:100600000020054346EAE0762C4337430A98630509
:10061000E40AA0EB08000022FD0A44EA47540A302D
:1006200002D500200146E9E7010510196941DDE91D
:10063000084500196941BDE8F04DA2E72DE9F04DEC
:1006400081EA030404F0004B21F0004514464FF00A
:10065000000A23F0004150EA050220D054EA0102CA
:100660001DD0C5F30A570246C5F31303C1F31300A7
:10067000C1F30A5640F4801543F48013A7EB060833
:10068000101BD64608F2FD3873EB050002D308F1C3
:10069000010801E092185B41B8F1000F03DA002075
:1006A0000146BDE8F08D00204FF4801106468446D7
:1006B0000EE0171B73EB050705D3121B63EB050355
:1006C00006434CEA010C49084FEA300092185B419E
:1006D00050EA0107EDD152EA030012D082EA040089
:1006E00083EA0501084305D0101BAB4106D2012265
:1006F000002306E000224FF0004302E06FF0010209
:1007000053101AEB06004CEB085110EB0A0041EBBA
:100710000B01BDE8F04DFFF734BF70B521F0004389
:1007200003430CD0C1F30A550024D5EB040564EB58
:100730000403D617AD1AB34102DB0020014670BD99
:10074000201841EB025170BDC1F30A52C1F31301ED
:1007500040F2FF3341F480119A4202DA0020014650
:10076000704740F233439A42A2F2334202DC5242D3
:10077000FFF7E5BEFFF7D4BE30B5041E71F10004EB
:1007800004DB4FF00044404264EB0101141E73F19E
:10079000000405DB1C464FF00043524263EB0403A8
:1007A000994208BF904230BD064C074D06E0E06814
:1007B00040F0010394E8070098471034AC42F6D3A8
:1007C000FFF7E6FC305B0008505B00082DE9F04DB8
:1007D00000231A461B1A8A4103DB00200146BDE8AC
:1007E000F08DC1F30A52C1F3130141F480154FF0AB
:1007F000000BD10702D100186D41521E002704469C
:1008000040F2FF11384601EB620A3E46804602463E
:1008100000204FF48011FFF792FEC2197141BB18FE
:1008200046EB0100B4EB030C75EB000C04D3E41AA7
:1008300065EB000517460E46241908F101006D41CD
:1008400080463428E3DDF91946EB0600091BA84170
:1008500003D24FF0FF32134601E0002213461BEB98
:10086000070046EB0A51BDE8F04DFFF78ABE0000D5
:10087000FFE7FEE780B502F033F900F029F840F217
:100880006020C2F2000000F063FD58B1FFE740F2C3
:100890004400C2F2000045F6ED11C0F6000103F07D
:1008A00085FBFFE740F26020C2F20000022100F069
:1008B0006BF958B1FFE740F24400C2F2000045F680
:1008C000C911C0F6000103F071FBFFE780BD000015
:1008D00080B58AB000210591069101200790009112
:1008E000019102910391049108900E20099040F229
:1008F0006020C2F20000694600F028FA58B1FFE714
:1009000040F24400C2F2000045F6A111C0F6000119
:1009100003F04CFBFFE70AB080BD000080B586B055
:10092000049040F26020C2F2000040F22802C2F2BD
:100930000002002101AB00F0DBFA20B1FFE700204C
:100940008DF8170049E040F22800C2F2000001696A
:10095000049AD170C068022804D1FFE704990120ED
:10096000887003E0049900208870FFE740F22800B7
:10097000C2F2000000680499088000200390FFE79D
:10098000039840F22801C2F20001096988420BD2A3
:10099000FFE7039A01A8805C049911440871FFE7FE
:1009A000039801300390EBE740F24400C2F20000EC
:1009B00045F63021C0F6000103F0F8FA049B1888D0
:1009C0009978DA78043303F02DFA40F22800C2F265
:1009D000000000698DF81700FFE79DF8170006B0CA
:1009E00080BD000080B58AB008900020009007907C
:1009F0000690059004900390029001900899098850
:100A0000029104900898807818B1FFE702200590C1
:100A100002E000200590FFE70898C07806900020CB
:100A20008DF81C000898021D40F26020C2F2000000
:100A300002A901AB00F0D2F820B1FFE700208DF849
:100A4000270015E040F24400C2F2000045F61121F3
:100A5000C0F6000103F0AAFABDF80800089B9978D7
:100A6000069A043303F0DEF901208DF82700FFE732
:100A70009DF827000AB080BD70470000000000000C
:100A800080B58AB009900020079040F28C10C2F225
:100A9000000000888DF823009DF82300013806909F
:100AA000FFE70698002843D4FFE79DF82310069837
:100AB000C0430844FFF7E7FC41EC110B9FED300BFE
:100AC00003F04AFB8DED000B069940F2C400C2F220
:100AD0000000405C3038FFF7D6FC41EC100B8DED88
:100AE000020B0798FFF7E0FC9DED001B9DED020B4C
:100AF00041EC120B8DED042B51EC110B53EC102B30
:100B0000FFF74FFC9DED040B41EC110B51EC110B69
:100B100053EC102BFFF79EFB41EC100B51EC100B2C
:100B2000FFF7CFFC0790FFE7069801380690B8E77B
:100B3000099845F65721C0F6000103F023FA0998F9
:100B4000079903F0C5F9FFE709980068006800F00D
:100B500040010120B0EB911F01D0FFE7F4E745F61B
:100B60005220C0F6000003F0B9FA40F28C11C2F234
:100B700000010020088007980AB080BD00BF00BFB8
:100B8000000000000000244084B00290019102980F
:100B900090F820008DF803009DF80300012805D08F
:100BA000FFE79DF8030002280AD1FFE7019A0298A7
:100BB000016848691043486100208DF80F0008E083
:100BC0000299486A40F48020486201208DF80F00A5
:100BD000FFE79DF80F0004B07047000088B0069052
:100BE000059104920393069890F820008DF8070071
:100BF00006980068806800900598806808B9FFE74B
:100C000000E0FFE79DF80700012806D0FFE79DF808
:100C10000700022840F08D80FFE79DF803004007A1
:100C200000280CD4FFE79DF803000007002806D435
:100C3000FFE79DF80300C006002871D5FFE7009884
:100C4000C0F3016002900298032809D3FFE70699D8
:100C5000486A40F40000486201208DF81F0071E0EE
:100C6000029901208840039908600598806868B956
:100C7000FFE705980168C06840EA41500699096895
:100C8000029A01EB0211C1F880010EE005994A6851
:100C90008868C96840EAC200084306990968029A50
:100CA00001EB0211C1F88001FFE705980069069980
:100CB0000968029A01EB0211C1F884010598007DD0
:100CC00001280CD1FFE706980068029900EB01119A
:100CD000D1F8840140F48070C1F88401FFE70498E2
:100CE000406806990968029A01EB0211C1F88C016B
:100CF0000498006806990968029A01EB0211C1F88C
:100D0000880106980068029900EB0111D1F8800172
:100D100040F00100C1F8800100208DF81F0011E0B3
:100D20000699486A40F40010486201208DF81F00BF
:100D300008E00699486A40F48020486201208DF856
:100D40001F00FFE79DF81F0008B0704786B00490B1
:100D50000391049800680190049890F820008DF8A1
:100D600003009DF80300012806D0FFE79DF803006B
:100D7000022840F0B080FFE746F20040C4F20000D5
:100D800001900199D1F8000240F00100C1F8000281
:100D90000199D1F8000220F47C50C1F800020398B8
:100DA000426A0199D1F8000240EA0220C1F800022B
:100DB0000398406900F01F01012088400290029AC8
:100DC0000199D1F81C029043C1F81C020398C06934
:100DD000F0B9FFE7029A0199D1F80C029043C1F8EB
:100DE0000C02039A9088D168526940EA0140019947
:100DF00001EBC201C1F84002039A10889168526960
:100E000040EA0140019901EBC201C1F84402FFE749
:100E10000398C06901281ED1FFE7029A0199D1F811
:100E20000C021043C1F80C02039A908811685269B1
:100E300040EA0140019901EBC201C1F84002039A66
:100E400090899168526940EA0140019901EBC20121
:100E5000C1F84402FFE70398806940B9FFE7029AAE
:100E60000199D1F804029043C1F8040207E0029A04
:100E70000199D1F804021043C1F80402FFE7039876
:100E8000006940B9FFE7029A0199D1F81402904332
:100E9000C1F8140207E0029A0199D1F81402104334
:100EA000C1F81402FFE70398006A012808D1FFE7A0
:100EB000029A0199D1F81C021043C1F81C02FFE705
:100EC0000199D1F8000220F00100C1F800020020D1
:100ED0008DF8170008E00499486A40F480204862C1
:100EE00001208DF81700FFE79DF8170006B0704746
:100EF00086B00490039102920193049890F8200028
:100F00008DF803009DF80300012806D0FFE79DF847
:100F10000300022840F0D780FFE7039880B9FFE77D
:100F200004980068C068800748B9FFE70499486AD8
:100F300040F40010486201208DF81700CCE00FE06B
:100F4000049800680069800748B9FFE70499486A77
:100F500040F40010486201208DF81700BCE0FFE764
:100F600004980068039900EB0110D0F8B00100F07C
:100F70000400029988600298806858B9FFE70498D5
:100F80000068039900EB0110D0F8B001400D029900
:100F900008600AE004980068039900EB0110D0F89B
:100FA000B001C00802994860FFE7049800680399FF
:100FB00000EB0110D0F8B001C0F340000299C86006
:100FC00004980068039900EB0110D0F8B40100F018
:100FD0000F000299086104980068039900EB011062
:100FE000D0F8B40180B2000A0299886104980068C0
:100FF000039900EB0110D0F8B401000C029948618C
:1010000004980068039900EB0110D0F8B801019929
:10101000087004980068039900EB0110D0F8B8013B
:10102000000A0199487004980068039900EB0110C8
:10103000D0F8B801000C01998870049800680399F1
:1010400000EB0110D0F8B801000E0199C8700498A7
:101050000068039900EB0110D0F8BC0101990871F8
:1010600004980068039900EB0110D0F8BC01000A55
:101070000199487104980068039900EB0110D0F8B9
:10108000BC01000C0199887104980068039900EB79
:101090000110D0F8BC01000E0199C871039838B94D
:1010A000FFE704980168C86840F02000C86006E0C7
:1010B00004980168086940F020000861FFE70020FB
:1010C0008DF8170008E00499486A40F480204862CF
:1010D00001208DF81700FFE79DF8170006B0704754
:1010E00080B584B00290029820B9FFE701208DF806
:1010F0000F00E0E0029890F8200020B9FFE7029886
:1011000000F0DEF8FFE702980168086820F00200AE
:10111000086000F069FB0190FFE7029800684068F2
:101120008007002815D5FFE700F05EFB0199401A03
:101130000B280DD3FFE70299486A40F4003048625B
:101140000299052081F8200001208DF80F00B2E0FF
:10115000E3E702980168086840F00100086000F0C9
:1011600043FB0190FFE7029800684068C007A8B9F8
:10117000FFE700F039FB0199401A0B280DD3FFE778
:101180000299486A40F4003048620299052081F8CB
:10119000200001208DF80F008DE0E4E70298007E2A
:1011A000012807D1FFE702980168086840F0800035
:1011B000086006E002980168086820F08000086076
:1011C000FFE70298407E012807D1FFE702980168F7
:1011D000086840F04000086006E00298016808686E
:1011E00020F040000860FFE70298807E012807D1C8
:1011F000FFE702980168086840F02000086006E0F8
:1012000002980168086820F020000860FFE7029853
:10121000C07E012807D1FFE702980168086820F026
:101220001000086006E002980168086840F01000AD
:101230000860FFE70298007F012807D1FFE70298C6
:101240000168086840F00800086006E0029801683C
:10125000086820F008000860FFE70298407F012836
:1012600007D1FFE702980168086840F004000860B1
:1012700006E002980168086820F004000860FFE7B3
:10128000029B19685A689868D3F80CC040EA0C00B1
:10129000D3F810C040EA0C005B691843013A1043D0
:1012A000C861029900204862029A012182F8201048
:1012B0008DF80F00FFE79DF80F0004B080BD00001F
:1012C00080B588B0079000200690059004900390A8
:1012D00002900798006846F20041C4F2000188427B
:1012E00033D1FFE7FFE70020019043F64000C4F24E
:1012F0000200016841F000710160006800F00070B8
:1013000001900198FFE7FFE70020009043F63000CE
:10131000C4F20200016841F001010160006800F0C0
:10132000010000900098FFE74FF4C05002900220A7
:101330000390012104910590092006900020C4F239
:10134000020002A900F06CF8FFE708B080BD0000C1
:1013500080B584B00290029890F8200001282FD127
:10136000FFE70299022081F82000029801680868CE
:1013700020F00100086000F037FA0190FFE70298C2
:1013800000684068C007A8B1FFE700F02DFA019996
:10139000401A0B280DD3FFE70299486A40F4003049
:1013A00048620299052081F8200001208DF80F0085
:1013B0000FE0E4E70299002048628DF80F0008E092
:1013C0000299486A40F40020486201208DF80F001D
:1013D000FFE79DF80F0004B080BD000082B00090D0
:1013E000009890F83500022807D0FFE70099802088
:1013F000486501208DF807000EE00099052081F86E
:10140000350000980168086820F001000860FFE7D7
:1014100000208DF80700FFE79DF8070002B0704735
:101420008EB00D900C9100200A90099008900B90BE
:10143000FFE70B980F2800F2CD81FFE70B99012001
:1014400088400A900C9800680A9908400990099809
:101450000A99884240F0B981FFE70C984068022859
:1014600005D0FFE70C984068122826D1FFE70D98B9
:101470000B996FF0030202EA51010844006A0890D8
:101480000B9800F0070081000F2000FA01F1089886
:10149000884308900C9800690B9901F007018900B6
:1014A00000FA01F108980843089008980D990B9BE1
:1014B00002EA530211440862FFE70D9800680890A1
:1014C0000B984100032000FA01F108988843089026
:1014D0000C98406800F003000B99490000FA01F1F4
:1014E00008980843089008980D9908600C9840687F
:1014F00001280FD0FFE70C98406802280AD0FFE7C8
:101500000C984068112805D0FFE70C984068122815
:101510002FD1FFE70D98806808900B9841000320B9
:1015200000FA01F10898884308900C98C0680B995C
:10153000490000FA01F108980843089008980D99AD
:1015400088600D98406808900B99012000FA01F11D
:101550000898884308900C984068C0F300100B99D5
:1015600000FA01F108980843089008980D9948601E
:10157000FFE70D98C06808900B984100032000FA1F
:1015800001F10898884308900C9880680B994900ED
:1015900000FA01F108980843089008980D99C8606E
:1015A0000C98C079C006002840F10E81FFE7FFE7E4
:1015B0000020079043F64400C4F20200016841F4A1
:1015C00080410160006800F4804007900798FFE7C1
:1015D0000B9820F0030043F60801C4F201014058C3
:1015E00008900B9800F0030081000F2000FA01F131
:1015F0000898884308900D980021C4F2020188429F
:1016000003D1FFE7002006905EE00D9840F2004114
:10161000C4F20201884203D1FFE70120059050E0A7
:101620000D9840F60001C4F20201884203D1FFE7A1
:101630000220049042E00D9840F60041C4F20201FD
:10164000884203D1FFE70320039034E00D9841F274
:101650000001C4F20201884203D1FFE70420029096
:1016600026E00D9841F20041C4F20201884203D104
:10167000FFE70520019018E00D9841F60001C4F243
:101680000201884203D1FFE7062000900AE00D998D
:1016900041F60042C4F202020820914208BF07202E
:1016A0000090FFE700980190FFE701980290FFE7A4
:1016B00002980390FFE703980490FFE704980590D1
:1016C000FFE705980690FFE70698C0B20B9901F076
:1016D0000301890000FA01F108980843089008986E
:1016E0000B9921F0030143F60802C4F2010288506D
:1016F00043F60040C4F20100006808900999089878
:10170000884308900C988079C00728B1FFE70999B1
:10171000089808430890FFE7089843F60041C4F290
:101720000101086043F60440C4F20100006808901B
:1017300009990898884308900C98807980070028B8
:1017400005D5FFE70999089808430890FFE708982E
:1017500043F60441C4F20101086043F60840C4F2B4
:1017600001000068089009990898884308900C982F
:101770008079C006002805D5FFE709990898084335
:101780000890FFE7089843F60841C4F20101086099
:1017900043F60C40C4F201000068089009990898CB
:1017A000884308900C9880798006002805D5FFE7CB
:1017B0000999089808430890FFE7089843F60C41F8
:1017C000C4F201010860FFE7FFE7FFE70B98013073
:1017D0000B902EE60EB0704742F20000CEF20400ED
:1017E0000068000C7047000040F22830C2F2000090
:1017F0000068704740F21C00C2F20000027840F21C
:101800002831C2F2000108681044086070470000E7
:1018100080B543F60041C4F20201086840F400704C
:101820000860086840F480600860052000F066F8F1
:101830000F2000F005F800F03BF8002080BD00000C
:1018400080B582B0009040F21000C2F20000006843
:1018500040F21C01C2F200010A784FF47A71B1FB28
:10186000F2F1B0FBF1F000F04FFD20B1FFE70120F5
:101870008DF8070018E000980F280DD8FFE70099B1
:101880004FF0FF30002200F01FF8009840F22001D6
:10189000C2F20001086003E001208DF8070003E0B8
:1018A00000208DF80700FFE79DF8070002B080BD1B
:1018B0007047000080B582B08DF807009DF90700E1
:1018C00002F0E0F802B080BD80B586B08DF8170058
:1018D000049103920020029002F0ECF802909DF92E
:1018E0001700019002980499039A01F031F901461A
:1018F000019802F0E7F806B080BD000080B582B024
:101900000190019802F000F902B080BD80B584B06A
:1019100002900191029820B9FFE701208DF80F0095
:101920001DE1019843F60041C4F20201096801F08B
:101930000F01884212D9FFE7019943F60040C4F233
:1019400002000170006800F00F000199884204D085
:10195000FFE701208DF80F0001E1FFE70298007812
:10196000800700282AD5FFE7029800784007002862
:1019700009D5FFE743F60801C4F20201086840F404
:10198000E0500860FFE7029800780007002809D5BA
:10199000FFE743F60801C4F20201086840F4604022
:1019A0000860FFE743F60801C4F20201086820F06E
:1019B000F000029A926810430860FFE702980078EE
:1019C000C00700286ED0FFE702984068012811D1B7
:1019D000FFE743F60000C4F20200006800F40031A3
:1019E0000020B0EB514F04D1FFE701208DF80F002C
:1019F000B5E02CE002984068022805D0FFE7029885
:101A00004068032811D1FFE743F60000C4F202004A
:101A1000006800F000710020B0EB516F04D1FFE7C7
:101A200001208DF80F009AE010E043F60000C4F2A8
:101A30000200006800F002010020B0EB510F04D159
:101A4000FFE701208DF80F0089E0FFE7FFE743F68D
:101A50000801C4F20201086820F00300029A5268EB
:101A600010430860FFF7C0FE0090FFE743F6080050
:101A7000C4F20200006800F00C0002994968B0EB63
:101A8000810F0ED0FFE7FFF7AFFE0099401A41F239
:101A90008931884204D3FFE703208DF80F005EE010
:101AA000E4E7FFE7019843F60041C4F20201096848
:101AB00001F00F01884212D2FFE7019943F600407E
:101AC000C4F202000170006800F00F000199884222
:101AD00004D0FFE701208DF80F0040E0FFE70298F7
:101AE0000078400700280CD5FFE743F60801C4F250
:101AF0000201086820F4E050029AD268104308609E
:101B0000FFE702980078000700280DD5FFE743F6AD
:101B10000801C4F20201086820F46040029A1269C8
:101B200040EAC2000860FFE700F048F843F6080109
:101B3000C4F202010968C9B20A0945F65811C0F693
:101B40000001895CC84040F21001C2F20001086047
:101B50000F20FFF775FE00208DF80F00FFE79DF8BE
:101B60000F0004B080BD000040F21000C2F200007F
:101B70000068704780B5FFF7F7FF43F60801C4F22D
:101B800002010968C1F3822245F66811C0F600011E
:101B9000895CC84080BD000080B5FFF7E5FF43F6D3
:101BA0000801C4F20201096889B24A0B45F66811BE
:101BB000C0F60001895CC84080BD000080B586B0D9
:101BC0000020059004900390029043F60800C4F2B0
:101BD0000200006800F00C000146019140B1FFE7EF
:101BE000019804280AD0FFE7019808280CD04FE09C
:101BF00042F20040C0F2F40002904FE041F20020B7
:101C0000C0F27A00029049E043F60400C4F20200F8
:101C1000016801F03F01059100684002002813D5DA
:101C2000FFE743F60400C4F202000068C0F3881026
:101C300041F20021C0F27A01A0FB0101059A0023C4
:101C4000FEF7C0FA049012E043F60400C4F202006A
:101C50000068C0F3881042F20041C0F2F401A0FB1A
:101C60000101059A0023FEF7ADFA0490FFE743F661
:101C70000400C4F20200006800F44031022000EBCE
:101C8000D130039004980399B0FBF1F0029005E085
:101C900042F20040C0F2F4000290FFE7029806B062
:101CA00080BD000080B586B00490049820B9FFE79D
:101CB00001208DF8170009E304980078C007002878
:101CC00000F0A580FFE743F60800C4F202000068B8
:101CD00000F00C00042813D0FFE743F60800C4F21C
:101CE0000200006800F00C0008281ED1FFE743F650
:101CF0000400C4F2020000684002002815D5FFE786
:101D000043F60000C4F20200006800F40031002035
:101D1000B0EB514F08D0FFE70498406820B9FFE7C7
:101D200001208DF81700D1E270E0FFE704984068C9
:101D3000B0F5803F09D1FFE743F60001C4F202018C
:101D4000086840F48030086020E004984068B0F5EE
:101D5000A02F0DD1FFE743F60001C4F2020108688D
:101D600040F480200860086840F4803008600CE08F
:101D700043F60001C4F20201086820F480300860D4
:101D8000086820F480200860FFE7FFE7FFE7049879
:101D90004068E8B1FFE7FFF727FD0390FFE743F650
:101DA0000000C4F20200006800F400310020B0EB33
:101DB000514F0CD1FFE7FFF717FD0399401A652833
:101DC00004D3FFE703208DF817007FE2E7E71CE06C
:101DD000FFF70AFD0390FFE743F60000C4F202009C
:101DE000006800F400310020B0EB514F0CD0FFE749
:101DF000FFF7FAFC0399401A652804D3FFE7032094
:101E00008DF8170062E2E7E7FFE7FFE7FFE70498D6
:101E100000788007002840F19680FFE743F608002D
:101E2000C4F20200006810F00C0F13D0FFE743F675
:101E30000800C4F20200006800F00C0008282CD151
:101E4000FFE743F60400C4F20200006840020028E5
:101E500023D4FFE743F60000C4F20200006800F05C
:101E600002010020B0EB510F09D0FFE70498C068D1
:101E7000012804D0FFE701208DF8170026E243F681
:101E80000001C4F20201086820F0F800049A126907
:101E900040EAC2000860FFE754E00498C06870B3ED
:101EA000FFE70021C4F2472101200860FFF79CFCF6
:101EB0000390FFE743F60000C4F20200006800F060
:101EC00002010020B0EB510F0CD1FFE7FFF78CFCB3
:101ED0000399401A032804D3FFE703208DF8170065
:101EE000F4E1E7E743F60001C4F20201086820F0DC
:101EF000F800049A126940EAC200086021E000215B
:101F0000C4F2472100200860FFF76EFC0390FFE752
:101F100043F60000C4F20200006800F00201002055
:101F2000B0EB510F0CD0FFE7FFF75EFC0399401AAE
:101F3000032804D3FFE703208DF81700C6E1E7E785
:101F4000FFE7FFE7FFE704980078000700284BD57C
:101F5000FFE70498406918B3FFE740F68061C4F2D8
:101F6000472101200860FFF73FFC0390FFE743F69D
:101F70007400C4F20200006800F002010020B0EB1F
:101F8000510F0CD1FFE7FFF72FFC0399401A0328EC
:101F900004D3FFE703208DF8170097E1E7E722E07D
:101FA00040F68061C4F2472100200860FFF71CFC66
:101FB0000390FFE743F67400C4F20200006800F0EB
:101FC00002010020B0EB510F0CD0FFE7FFF70CFC33
:101FD0000399401A032804D3FFE703208DF8170064
:101FE00074E1E7E7FFE7FFE704980078400700287F
:101FF00040F1CE80FFE700208DF80B0043F6400053
:10200000C4F202000068C000002815D4FFE7FFE713
:102010000020019043F64000C4F20200016841F044
:1020200080510160006800F0805001900198FFE746
:1020300001208DF80B00FFE747F20000C4F200001A
:102040000068C005002822D4FFE747F20001C4F26F
:102050000001086840F480700860FFF7C5FB03903A
:10206000FFE747F20000C4F200000068C005002846
:102070000CD4FFE7FFF7B8FB0399401A032804D3F9
:10208000FFE703208DF8170020E1EAE7FFE7FFE70D
:1020900004988068012809D1FFE743F67001C4F273
:1020A0000201086840F0010008601FE004988068A1
:1020B00005280DD1FFE743F67001C4F2020108685C
:1020C00040F004000860086840F0010008600CE07F
:1020D00043F67001C4F20201086820F001000860B4
:1020E000086820F004000860FFE7FFE7FFE70498B6
:1020F0008068F8B1FFE7FFF777FB0390FFE743F64F
:102100007000C4F20200006800F002010020B0EB91
:10211000510F0ED1FFE7FFF767FB0399401A41F219
:102120008931884204D3FFE703208DF81700CDE002
:10213000E5E71EE0FFF758FB0390FFE743F670006A
:10214000C4F20200006800F002010020B0EB510F61
:102150000ED0FFE7FFF748FB0399401A41F289319F
:10216000884204D3FFE703208DF81700AEE0E5E7CF
:10217000FFE79DF80B00012809D1FFE743F6400176
:10218000C4F20201086820F080500860FFE7FFE712
:1021900004988069002800F09580FFE743F6080066
:1021A000C4F20200006800F00C00082800F08580EE
:1021B000FFE70498806902285CD1FFE76021C4F240
:1021C000472100200860FFF70FFB0390FFE743F66D
:1021D0000000C4F20200006800F000710020B0EBC3
:1021E000516F0CD0FFE7FFF7FFFA0399401A03285D
:1021F00004D3FFE703208DF8170067E0E7E70499B1
:10220000C869D1F820C04B6A8A6A40EA0C0040EAEB
:102210008310D2034FF6FF739A43A2F58032104326
:10222000C96A40EA016043F60401C4F20201086091
:102230006021C4F2472101200860FFF7D5FA03901E
:10224000FFE743F60000C4F20200006800F00071EE
:102250000020B0EB516F0CD1FFE7FFF7C5FA0399EF
:10226000401A032804D3FFE703208DF817002DE060
:10227000E7E721E06021C4F2472100200860FFF772
:10228000B3FA0390FFE743F60000C4F202000068CF
:1022900000F000710020B0EB516F0CD0FFE7FFF7AA
:1022A000A3FA0399401A032804D3FFE703208DF80B
:1022B00017000BE0E7E7FFE703E001208DF81700C8
:1022C00004E0FFE700208DF81700FFE79DF81700F6
:1022D00006B080BD81B000900098042809D1FFE7C6
:1022E0004EF21001CEF20001086840F004000860D0
:1022F00008E04EF21001CEF20001086820F0040060
:102300000860FFE701B0704780B582B00190019886
:1023100000F088FD02B080BD81B0009001B0704730
:1023200083B00290002001900090029890F839004C
:102330000190029890F83A0000909DF804009DF8F2
:102340000010084303B0704780B586B0059005982B
:1023500000680068049005980068C06803900598BC
:10236000006840690290002001900090049800F0FD
:102370000F000190019888B9FFE79DF810008006D2
:1023800000280AD5FFE79DF80C008006002804D538
:10239000FFE7059800F042FED2E0FFE70198002831
:1023A00000F0AE80FFE79DF80800C00738B9FFE7EE
:1023B000BDF80C0010F4907F00F0A280FFE79DF8BC
:1023C0001000C00758B1FFE79DF80D00C00730B1FD
:1023D000FFE70599C86B40F00100C863FFE79DF86F
:1023E0001000400700280BD5FFE79DF80800C00744
:1023F00030B1FFE70599C86B40F00200C863FFE702
:102400009DF81000800700280BD5FFE79DF8080015
:10241000C00730B1FFE70599C86B40F00400C863FE
:10242000FFE79DF81000000700280BD5FFE79DF897
:102430000800C00730B1FFE70599C86B40F00800FD
:10244000C863FFE70598C06B002858D0FFE79DF8E8
:102450001000800600280AD5FFE79DF80C008006D2
:10246000002804D5FFE7059800F0D8FDFFE70598A0
:1024700000684069C0F3801000900598C06B0007A9
:10248000002803D4FFE7009888B3FFE7059800F021
:102490009DFD0598006840694006002822D5FFE7A9
:1024A00005980168486920F0400048610598406B34
:1024B00098B1FFE70598416B42F6AD70C0F6000099
:1024C00008650598406BFEF789FF28B1FFE705987E
:1024D000406B016D8847FFE703E00598FFF71CFF9D
:1024E000FFE703E00598FFF717FFFFE706E0059811
:1024F000FFF712FF05990020C863FFE7FFE71FE021
:102500009DF81000000600280AD5FFE79DF80C0092
:102510000006002804D5FFE7059800F0FBFF0FE058
:102520009DF81000400600280AD5FFE79DF80C0032
:102530004006002804D5FFE7059800F05BFDFFE7A3
:1025400006B080BD80B582B00090009820B9FFE74A
:1025500001208DF807003EE00098806908B1FFE790
:1025600000E0FFE7009890F8390040B9FFE70099D4
:10257000002081F83800009800F032F8FFE7009959
:10258000242081F8390000980168C86820F40050C0
:10259000C860009800F0BAFD00980168086920F44E
:1025A0009040086100980168486920F02A0048615D
:1025B00000980168C86840F40050C8600099002085
:1025C000C863009A202182F83910009A82F83A10E4
:1025D0008DF80700FFE79DF8070002B080BD0000FE
:1025E00080B590B00F900F98006841F20001C4F2DE
:1025F0000101884245D1FFE7FFE70020099043F63B
:102600003000C4F20200016841F00101016000687D
:1026100000F0010009900998FFE7FFE7002008900B
:1026200043F64400C4F20200016841F01001016069
:10263000006800F0100008900898FFE74FF4007061
:102640000A9002200B9001210C910D9007200E9012
:102650000020C4F2020003900AA90491FEF7E0FEF4
:10266000039804994FF480620A92FEF7D9FE252060
:102670000590FFF71FF9059803221146FFF724F98B
:10268000FFE70F98006844F20041C4F2000188425D
:1026900043D1FFE7FFE70020079043F63000C4F284
:1026A0000200016841F001010160006800F00100D2
:1026B00007900798FFE7FFE70020069043F64000E9
:1026C000C4F20200016841F400310160006800F4C6
:1026D000003006900698FFE704200A9002200B9035
:1026E00001210C910D9007200E900020C4F20200F1
:1026F00000900AA90191FEF793FE00980199082223
:102700000A92FEF78DFE26200290FFF7D3F802987A
:1027100003221146FFF7D8F8FFE710B080BD000094
:1027200084B002900191ADF80220029890F83A002E
:1027300020284AD1FFE7019820B1FFE7BDF8020049
:1027400020B9FFE701208DF80F0042E0FFE7029873
:1027500090F83800012804D1FFE702208DF80F001F
:1027600037E00299012081F83800FFE7FFE7019880
:1027700002998862BDF8020002998885BDF80200BE
:102780000299C88502990020C8630299222081F825
:102790003A00FFE70299002081F83800FFE702982D
:1027A0000168C86840F48070C86002980168486990
:1027B00040F00100486102980168C86840F02000BC
:1027C000C86000208DF80F0003E002208DF80F0094
:1027D000FFE79DF80F0004B07047000081B0009043
:1027E0000098006841F20001C4F2010188425FD103
:1027F000FFE740F28C10C2F20000008800040028BD
:1028000055D4FFE740F28C10C2F20000008840046B
:10281000002819D5FFE740F25820C2F200000078E6
:102820000A2807D0FFE740F28C11C2F20001002015
:10283000088008E040F28C11C2F20001088840F4E0
:1028400000400880FFE731E040F25820C2F200006B
:1028500000780D2809D1FFE740F28C11C2F2000187
:10286000088840F4804008801FE040F25820C2F2FF
:102870000000017840F28C10C2F2000003886FF370
:102880009F3340F2C402C2F20002D15401880131E8
:1028900001800088C82807DBFFE740F28C11C2F2F4
:1028A000000100200880FFE7FFE7FFE7FFE75EE0A9
:1028B00040F25620C2F2000000880004002855D4DF
:1028C000FFE740F25620C2F20000008840040028D2
:1028D00019D5FFE740F25920C2F2000000780A281B
:1028E00007D0FFE740F25621C2F200010020088025
:1028F00008E040F25621C2F20001088840F400408E
:102900000880FFE731E040F25920C2F20000007871
:102910000D2809D1FFE740F25621C2F200010888D4
:1029200040F4804008801FE040F25920C2F20000CD
:10293000017840F25620C2F2000003886FF39F3303
:1029400040F28E12C2F20002D1540188013101809E
:102950000088C82807DBFFE740F25621C2F20001D9
:1029600000200880FFE7FFE7FFE7FFE7FFE701B090
:102970007047000080B588B006900591ADF8122030
:10298000039300200190069890F83900202840F029
:102990009980FFE7059820B1FFE7BDF8120020B944
:1029A000FFE701208DF81F0090E0FFE7069890F800
:1029B0003800012804D1FFE702208DF81F0085E0D0
:1029C0000699012081F83800FFE7FFE7069900200B
:1029D000C8630699212081F83900FEF705FF0190B0
:1029E000BDF8120006998884BDF812000699C884C3
:1029F000FFE70698C08C002847D0FFE70699C88CEF
:102A00000138C88406988068B0F5805F25D1FFE75B
:102A10000698019B03996A4611608021002200F00C
:102A2000C9FD20B1FFE703208DF81F004EE0059897
:102A30000290029800886FF35F2006990968486049
:102A40000698006920B9FFE705980230059003E079
:102A5000059801300590FFE716E00698019B039961
:102A60006A4611608021002200F0A4FD20B1FFE73A
:102A700003208DF81F0029E00598411C059100787E
:102A8000069909684860FFE7B3E70698019B039938
:102A90006A4611604021002200F08CFD20B1FFE762
:102AA00003208DF81F0011E00699202081F83900DD
:102AB000FFE70699002081F83800FFE700208DF835
:102AC0001F0003E002208DF81F00FFE79DF81F00A4
:102AD00008B080BD81B0009001B07047FFE7FEE70D
:102AE00010B588B040F26020C2F2000046F200410A
:102AF000C4F2000101600199029A039BDDF810C045
:102B0000DDF814E0069C8461C0F814E0C0F810C041
:102B1000C360826041600799C16103214160002167
:102B20008160C1604FF4C02202614FF4A002426193
:102B30000176417681760122C27601774177FEF7F0
:102B4000CFFA08B010BD0000FFE7FEE770470000B5
:102B500088B0079006910592079800F0070004904E
:102B60000498C0F10700052803D3FFE70420019073
:102B700004E00498C0F107000190FFE7019803907A
:102B800004980430062803D8FFE70020009003E0F3
:102B9000049803380090FFE7009802900698039984
:102BA000012202FA01F101390840029B984005997F
:102BB0009A40013A1140084308B07047704700003E
:102BC00080B586B08DF816008DF81510049200209F
:102BD0000390029001909DF8152040F20801C2F286
:102BE000000101EB420131F8021C9DF8162011444E
:102BF000ADF804108DF806009DF815000138014667
:102C00000091032834D80099DFE801F0020D142761
:102C100002208DF8070004988DF808000498000A37
:102C20008DF8090024E001208DF8070004988DF844
:102C300008001DE004208DF8070004988DF80800B6
:102C40000498000A8DF80900BDF812008DF80A00FA
:102C50009DF813008DF80B000AE002208DF80700A4
:102C600004988DF808000498000A8DF80900FFE721
:102C700001A8FDF7B7FE20B1FFE701208DF817008E
:102C800003E000208DF81700FFE79DF8170006B05D
:102C900080BD000080B586B08DF81600ADF8141028
:102CA0008DF81320039300200290019000909DF86E
:102CB000161001F5C061ADF800108DF80200082073
:102CC0008DF803009DF813008DF807009DF815009E
:102CD0008DF80600BDF814008DF8050023208DF84E
:102CE00004009DF80F008DF80B00BDF80E008DF864
:102CF0000A000398000A8DF8090003988DF808006F
:102D00006846FDF76FFE20B1FFE701208DF8170040
:102D100003E000208DF81700FFE79DF8170006B0CC
:102D200080BD00007047000080B582B00190009126
:102D3000019801F08FF9009801F0AEF902B080BD62
:102D400080B598B0179016911592149300208DF8C5
:102D50004F00FFE70020019043F64000C4F202005C
:102D6000016841F080510160006800F080500190DE
:102D70000198FFE7FFE70020009047F20000C4F24F
:102D80000000016841F480410160006800F4804067
:102D900000900098FFE7012007904FF480300890E2
:102DA00002200D904FF480000E9016980F90179807
:102DB0001090159811901498129007A8FEF772FFC2
:102DC0008DF84F009DF84F0010B1FFE7FFE7FEE7D9
:102DD0000F20029002200390002004904FF4A05096
:102DE00005904FF48050069002A80521FEF78EFD55
:102DF0008DF84F009DF84F0010B1FFE7FFE7FEE7A9
:102E0000FEF7EAFC41F20101884209D1FFE743F6EF
:102E10000041C4F20201086840F480700860FFE7D6
:102E200018B080BD80B582B0009000980138B0F134
:102E3000807F03D3FFE70120019019E0009801385B
:102E40004EF21401CEF2000108604FF0FF300F2166
:102E500000F038FE4EF21801CEF2000100200860AA
:102E60004EF21002CEF20002072111600190FFE73E
:102E7000019802B080BD000080B5FEF7BBFC80BDAC
:102E80004EF68851CEF20001086840F470000860E8
:102E900043F60002C4F20202106840F00100106024
:102EA00043F60801C4F202010020086011684FF6E1
:102EB000FF73CFF6F6631940116043F60403C4F2C2
:102EC000020343F21001C2F200411960116821F4BB
:102ED0008021116043F60C01C4F2020108604EF635
:102EE0000851CEF200014FF000600860704700000A
:102EF00080B58AB08DF827008DF826100020089044
:102F00000790069005900490039002909DF826107B
:102F100040F21400C2F2000000EB410030F8020C55
:102F20009DF827100844ADF8180001208DF81A000C
:102F30009DF82600013801460191032814D8019913
:102F4000DFE801F002060A0E02208DF81B000BE0FC
:102F500004208DF81B0007E004208DF81B0003E01F
:102F600002208DF81B00FFE706A8FDF73BFDC8B166
:102F7000FFE70A2000F06EFE03A8FDF7CFFC80B14A
:102F8000FFE79DF812309DF813009DF814109DF88E
:102F90001520000640EA034040EA0220084402905F
:102FA000FFE7FFE702980AB080BD000080B582B05D
:102FB00001900198806B009000990020C8850099CD
:102FC000C8840098FFF7A8F902B080BD81B00090D6
:102FD00000980168C86820F49070C8600098016883
:102FE000486920F0010048610099202081F83A00EA
:102FF00001B0704780B582B0019001980168C8683F
:1030000020F04000C8600199202081F83900019823
:10301000FFF760FD002002B080BD000080B584B0E5
:103020000290029890F83A00222866D1FFE70298B1
:103030008068B0F5805F1FD1FFE70298806A019039
:103040000298006960B9FFE70298006840686FF372
:103050005F20019908800299886A023088620AE03C
:10306000029800684068C0B2019908800299886A95
:1030700001308862FFE718E00298006948B9FFE76D
:10308000029800684068029B996A4A1C9A6208701C
:103090000AE002980068406800F07F00029B996A8D
:1030A0004A1C9A620870FFE7FFE70299C88D013851
:1030B000C8850004E8B9FFE702980168C86820F0F5
:1030C0002000C86002980168C86820F48070C86059
:1030D00002980168486920F00100486102992020A7
:1030E00081F83A000298FFF779FB00208DF80F0075
:1030F00007E000208DF80F0003E002208DF80F009C
:10310000FFE79DF80F0004B080BD0000B0B59EB091
:103110001D901D980068006920F440501D9A1168A8
:10312000D268104308611D9988680B694A69C969AA
:103130001843104308431C901D980068C06849F26A
:103140000C6188431C9908431D990968C8601D9843
:103150000068406920F440701D9A1168926910431C
:1031600048611D98C069B0F5004F40F0EA80FFE764
:103170001D98006841F20001C4F20101884209D0A3
:10318000FFE71D98006841F20041C4F20101884246
:103190006BD1FFE7FEF700FD1921179148431D99F8
:1031A00049684900B0FBF1F048F21F51C5F2EB113C
:1031B0001991A0FB01016FF00F0000EA5100169079
:1031C000FEF7EAFC179948431D9949684900B0FB8E
:1031D000F1F01590FEF7E0FCDDF854C0179B199A4A
:1031E0000146169859431D9B5B685B00B1FBF3F1E8
:1031F000A1FB0231490964231A9301FB13C3322155
:10320000189101EBC301A1FB0212F82101EA52114E
:1032100000EB41001B90FEF7BFFC179948431D9936
:1032200049684900B0FBF1F4FEF7B6FCDDF85CC07C
:10323000189A199BDDF868E001461B9801FB0CFC0D
:103240001D9D29686D686D00BCFBF5FCACFB035C43
:103250004FEA5C1C0CFB1E4C02EBCC02A2FB0332BF
:10326000C2F34212104488606AE0FEF783FC192121
:10327000109148431D9949684900B0FBF1F048F2AC
:103280001F51C5F2EB111291A0FB01016FF00F006D
:1032900000EA51000F90FEF76DFC109948431D990C
:1032A00049684900B0FBF1F00E90FEF763FCDDF8D1
:1032B00038C0109B129A01460F9859431D9B5B68BA
:1032C0005B00B1FBF3F1A1FB0231490964231393C5
:1032D00001FB13C33221119101EBC301A1FB0212C7
:1032E000F82101EA521100EB41001490FEF742FC74
:1032F000109948431D9949684900B0FBF1F4FEF765
:1033000039FCDDF840C0119A129BDDF84CE0014613
:10331000149801FB0CFC1D9D29686D686D00BCFBB9
:10332000F5FCACFB035C4FEA5C1C0CFB1E4C02EB97
:10333000CC02A2FB0332C2F3421210448860FFE7C2
:10334000E6E01D98006841F20001C4F201018842E4
:1033500009D0FFE71D98006841F20041C4F2010165
:1033600088426AD1FFE7FEF717FC1921099148430B
:103370001D9949688900B0FBF1F048F21F51C5F270
:10338000EB110B91A0FB01016FF00F0000EA51005F
:103390000890FEF701FC099948431D994968890086
:1033A000B0FBF1F00790FEF7F7FBDDF81CC0099BBE
:1033B0000B9A0146089859431D9B5B689B00B1FB23
:1033C000F3F1A1FB0231490964230C9301FB13C300
:1033D00032210A9101EB0311A1FB0212F02101EA53
:1033E000521108440D90FEF7D7FB099948431D99E7
:1033F00049688900B0FBF1F4FEF7CEFBDDF824C08C
:103400000A9A0B9BDDF830E001460D9801FB0CFC9D
:103410001D9D29686D68AD00BCFBF5FCACFB035C31
:103420004FEA5C1C0CFB1E4C02EB0C12A2FB03329D
:10343000C2F343121044886069E0FEF79BFB192138
:10344000029148431D9949688900B0FBF1F048F2A8
:103450001F51C5F2EB110491A0FB01016FF00F00A9
:1034600000EA51000190FEF785FB029948431D993F
:1034700049688900B0FBF1F00090FEF77BFBDDF8B6
:1034800000C0029B049A0146019859431D9B5B684A
:103490009B00B1FBF3F1A1FB0231490964230593C1
:1034A00001FB13C33221039101EB0311A1FB0212B3
:1034B000F02101EA521108440690FEF75BFB0299E5
:1034C00048431D9949688900B0FBF1F4FEF752FBAF
:1034D000DDF808C0039A049BDDF814E00146069865
:1034E00001FB0CFC1D9D29686D68AD00BCFBF5FC63
:1034F000ACFB035C4FEA5C1C0CFB1E4C02EB0C1299
:10350000A2FB0332C2F3431210448860FFE7FFE7D7
:103510001EB0B0BD83B00190019890F83900212809
:1035200040D1FFE701988068B0F5805F19D1FFE7CF
:103530000198006A0090009800886FF35F2001995D
:10354000096848600198006928B9FFE70199086A8D
:103550000230086204E00199086A01300862FFE75E
:1035600008E0019A106A411C11620078019909680B
:103570004860FFE70199C88C0138C884000468B925
:10358000FFE701980168C86820F08000C8600198D2
:103590000168C86840F04000C860FFE700208DF86F
:1035A0000B0003E002208DF80B00FFE79DF80B00F5
:1035B00003B0704780B586B0DDF820C00490039159
:1035C0008DF80B200193FFE70498006800680399C9
:1035D0000840401AB0FA80F040099DF80B1088426C
:1035E0002ED1FFE70898013048B3FFE7089840B1B3
:1035F000FFE7FEF7F9F80199401A089988421DD9AA
:10360000FFE704980168C86820F4D070C860049887
:103610000168486920F0010048610499202081F880
:103620003900049981F83A00FFE70499002081F8F5
:103630003800FFE703208DF8170005E0FFE7C3E738
:1036400000208DF81700FFE79DF8170006B080BD39
:1036500080B582B000200090019040F24400C2F298
:103660000000FEF771FE00980190FFE740F2440071
:10367000C2F20000FEF754FE20280AD0FFE70198AE
:10368000013001900198B0F1FF3F01D9FFE700E060
:10369000ECE700200190FFE740F24400C2F2000096
:1036A00040F25821C2F200010122FFF739F850B16F
:1036B000FFE70198013001900198B0F1FF3F01D977
:1036C000FFE700E0E8E702B080BD000080B582B00F
:1036D00000200090019040F28400C2F20000FEF74A
:1036E00033FE00980190FFE740F28400C2F2000030
:1036F000FEF716FE20280AD0FFE70198013001905E
:103700000198B0F1FF3F01D9FFE700E0ECE70020AE
:103710000190FFE740F28400C2F2000040F259211C
:10372000C2F200010122FEF7FBFF50B1FFE7019852
:10373000013001900198B0F1FF3F01D9FFE700E0AF
:10374000E8E702B080BD0000FFE7FEE780B500F0CB
:10375000F9F900F027FA00F03DFA00F053FA80BDC5
:1037600080B500F007FA80BD80B582B00190019865
:10377000009000780321FFF7BBFB0099886002B03E
:1037800080BD000080B584B0029002980190FFF7E0
:10379000EBFF0198806820B9FFE701208DF80F004A
:1037A00003E000208DF80F00FFE79DF80F0004B044
:1037B00080BD000080B586B0844609980898CDF891
:1037C00014C00491039202938DF8070005980090AD
:1037D000049900F06DF80098039900F01DF8009826
:1037E000029900F03FF8009800F000F900989DF869
:1037F0000710099A00F0D0F80098007F28B1FFE781
:1038000000983F2100F078F804E000987F2100F054
:1038100073F8FFE706B080BD80B584B003900291D5
:103820000398019040F24400C2F2000045F6A02146
:10383000C0F6000100F0BAFB019902984861FFE769
:10384000019908784B6946F283010022FFF722FABA
:10385000012801D0FFE7F3E70A2000F0FBF904B0EC
:1038600080BD000080B584B0039002910398019060
:1038700040F24400C2F2000045F6B921C0F6000152
:1038800000F094FB019902988861FFE7019908789C
:103890008B6946F284010022FFF7FCF9012801D070
:1038A000FFE7F3E70A2000F0D5F904B080BD00007F
:1038B00080B584B0039002910398019040F24400D7
:1038C000C2F2000045F6E621C0F6000100F06EFBF2
:1038D00001990298C860FFE701990878CA68032136
:1038E000FFF76EF9012801D0FFE7F5E70A2000F0A5
:1038F000B1F904B080BD000080B584B00390ADF88C
:103900000A1003980190FFE701980078BDF80A209B
:103910000121FFF755F9012801D0FFE7F4E70A205C
:1039200000F098F904B080BD80B584B0039003988E
:10393000C16842698369EE464FF0000CCEF804C0BE
:103940004FF0010CCEF800C0FFF734FF04B080BD8B
:1039500080B584B003908DF80B10039901919DF808
:103960000B00487040F24400C2F2000045F68D2181
:10397000C0F6000100F01AFBFFE7019908784A78C9
:103980000221FFF71DF9012801D0FFE7F5E70A2022
:1039900000F060F904B080BD80B584B003908DF86C
:1039A0000B1001920398009040F24400C2F2000014
:1039B00045F6D221C0F6000100F0F8FA009901980E
:1039C00048609DF80B000877FFE7009908784B687E
:1039D00046F27A010022FFF75DF9012801D0FFE7E6
:1039E000F3E70A2000F036F904B080BD80B582B05C
:1039F0000190019800900121FFF7AAFF40F24400D6
:103A0000C2F2000045F67421C0F6000100F0CEFAC3
:103A100000980F21FFF770FF0A2000F01BF902B099
:103A200080BD000080B584B084460B98DDF828E0A6
:103A3000DDF824E0DDF820E0DDF81CE0DDF818E03A
:103A4000CDF80CC08DF80B108DF80A2001938DF87D
:103A5000030003989DF80B1001709DF80A10417047
:103A600001994160069981600799C16008990161D7
:103A7000099941610A9981619DF80310017704B0A9
:103A800080BD000081B08DF803009DF9030000287F
:103A90000ED4FFE79DF9031001F01F0201209040B2
:103AA0004A094EF20011CEF2000141F82200FFE770
:103AB00001B070474EF60C50CEF200000068C0F323
:103AC0000220704782B08DF8070000919DF9070031
:103AD00000280AD4FFE7009800019DF907104EF274
:103AE0000042CEF2000288540BE0009800019DF8DD
:103AF000071001F00F014EF61452CEF20002885466
:103B0000FFE702B07047000083B00290029800F017
:103B1000070000904EF60C51CEF2000108680190AB
:103B200001984FF6FF02104001900198009A40EA78
:103B300002200022C0F2FA5210430190019808605E
:103B400003B0704780B586B068460122426142F2F8
:103B500010710161C160002383604FF47A7141608C
:103B6000036040F2A820C2F200001146FFF75AFF9E
:103B700006B080BD80B586B068460122426142F23F
:103B800010710161C160002383604FF47A7141605C
:103B9000036040F20830C2F200000321FFF742FF49
:103BA00006B080BD80B586B068460122426142F20F
:103BB00010710161C160002383604FF47A7141602C
:103BC000036040F2C820C2F200000221FFF72AFF82
:103BD00006B080BD80B586B068460122426142F2DF
:103BE00010710161C160002383604FF47A714160FC
:103BF000036040F28820C2F200000321FFF712FFA9
:103C000006B080BD80B586B068460122426142F2AE
:103C100010710161C160002383604FF47A714160CB
:103C2000036040F2E820C2F200000421FFF7FAFE30
:103C300006B080BD80B582B08DF807000420FEF785
:103C400049FB9DF8070040F25C21C2F200010860C8
:103C500002B080BD80B582B0ADF8060000200090B3
:103C6000FFE70098BDF80610884209D2FFE74FF43D
:103C70007A7000F007F8FFE7009801300090F0E755
:103C800002B080BD86B00590002001904EF2140075
:103C9000CEF2000000680090059840F25C21C2F26C
:103CA00000010968484304904EF21800CEF200006B
:103CB00000680390FFE74EF21800CEF200000068A3
:103CC00002900298039988421ED0FFE70298039958
:103CD000884207D2FFE703980299411A01980844E5
:103CE000019008E000980299401A03990144019854
:103CF00008440190FFE702980390019804998842D4
:103D000001D3FFE701E0FFE7D5E706B07047000009
:103D100082B001900091FFE741F20000C4F201007F
:103D200000684006002801D4FFE7F5E79DF804008D
:103D300041F20401C4F201010860019802B0704729
:103D400080B588B000200790ADF80E00FDF760FD4B
:103D50004FF4A870082102220723FEF7F1FFA820E4
:103D6000FFF768FF4FF4E1310846FEF7DDFFFCF78F
:103D700081FDFFE740F28C10C2F2000000880004D1
:103D800000281ED5FFE740F24400C2F20000FCF715
:103D900077FE029002980190012808D0FFE7019871
:103DA00002280BD0FFE70198032808D008E041F66D
:103DB0004010C0F2010000F013F901E0FFE7FFE757
:103DC00028E0BDF80E000130ADF80E00BDF80E0081
:103DD0004BF65002C0F21E5245F62941CCF28F211B
:103DE00000FB01204FEAF0004AF61461C0F24711CF
:103DF00088420BD8FFE740F24400C2F2000045F6CB
:103E00007011C0F6000100F0D1F8FFE70A20FFF7BB
:103E100021FFFFE704A8FCF781FD0A20FFF71AFF46
:103E2000A8E7000080B588B0ADF81E008DF81D1021
:103E300006920593BDF81E1040F24400C2F2000045
:103E4000029000F083F8029845F66A21C0F600015E
:103E5000039100F097F802989DF81D1000F038F8D3
:103E60000298039900F08EF800200490FFE7049870
:103E7000069988421AD2FFE705980499415C40F2FE
:103E80004400C2F20000019045F66F22C0F6000225
:103E900000F042F8019845F66A21C0F6000100F0F2
:103EA00071F8FFE7049801300490E0E740F2440025
:103EB000C2F2000045F65521C0F6000100F062F89C
:103EC00040F28C11C2F200010020088008B080BDD1
:103ED00080B58CB00B900A910A9A45F66821C0F61D
:103EE00000010DF10F00019000F008F901980B9905
:103EF0000291FCF798F901990246029892B2642364
:103F0000FEF738FD0B9845F65521C0F6000100F08C
:103F100039F80CB080BD000080B58CB00B900A91D0
:103F2000099209990A9A0DF10B00009000F0E6F849
:103F300000980B990191FCF776F9009902460198D7
:103F400092B26423FEF716FD0CB080BD80B58CB034
:103F50000B900A910A9A45F66C21C0F600010DF10A
:103F60000F00019000F0CAF801980B990291FCF73C
:103F70005AF901990246029892B26423FEF7FAFCBC
:103F80000CB080BD80B584B003900291039801907D
:103F900002980090FCF747F900990246019892B206
:103FA0006423FEF7E7FC04B080BD000080B584B058
:103FB000039002910398019002980090FCF733F966
:103FC00000990246019892B26423FEF7D3FC03984D
:103FD00045F65521C0F60001FFF7D4FF04B080BDBF
:103FE00080B584B0039040F24400C2F2000045F670
:103FF000FA21C0F60001FFF7D9FF40F20830C2F203
:104000000000FFF7BFFB38B9FFE740F20830C2F20B
:104010000000FFF789FCFFE740F24400C2F2000015
:1040200045F61031C0F60001FFF7C0FF40F208303E
:10403000C2F20000426983690399EC46CCF804108F
:104040000121CCF8001040F6B831FFF7B3FB04B003
:1040500080BD000080B582B0019040F24400C2F201
:104060000000009041F20001C4F2010101600199D9
:10407000416000218160C160016181610C21416169
:10408000FEF760FA009840F25821C2F200010122C6
:10409000FEF746FB02B080BD80B582B0019040F2D1
:1040A0008400C2F20000009044F20041C4F200011A
:1040B00001600199416000218160C16001618161FD
:1040C0000C214161FEF73EFA009840F25921C2F2FC
:1040D00000010122FEF724FB02B080BD0FB4054BA6
:1040E00010B503A9044A029801F00EF810BC5DF85F
:1040F00014FB0000113D0008000000200FB4084B25
:1041000010B504A902AA039800F0FEFF044602A914
:10411000002001F090FB204610BC5DF814FB00006D
:104120003758000803B401984100009850EAC120B4
:1041300018BF04204A0D18BF40F0010040F2FF7282
:10414000B2EB515F08BF40F00200012808BF052014
:1041500002B07047000000002DE9F04D2DED040B7A
:104160002DED0E8B94B0DDE92350259CDDF888A061
:1041700025F0004624F00048BAF1000F14BF0121D9
:10418000002101EB4502FC4953184A1093422AD3FF
:10419000002814BF0123002303EB44030B44F74919
:1041A0008B4220D358EA00019FEDF5AB76D0DFF8C3
:1041B000D8B35D4503D1BAF1000F05D188E0BAF15B
:1041C000000F08BF002100D0012101EB450111F5CE
:1041D000001F08D8002814BF0121002101EB440171
:1041E00011F5001F0BD99DED241B9DED220B14B082
:1041F000BDEC0E8B04B0BDE8F04D00F071BE0027A1
:10420000002DBCBFE149884521DAE1498845A8BFB6
:1042100002271CDAC3451ADCDE4901EB28511429B8
:1042200008DDC1F1340220FA02F101FA02F2824201
:104230000DD108E058B9C1F1140228FA02F101FACF
:1042400002F2424503D101F00101C1F1020756EA31
:104250000A0124D1002C22DA002D18BF022F01D030
:10426000012F0AD0022000F087FE14B0BDEC0E8BA7
:1042700004B0BDE8F04D00F01BBE022000F07CFE53
:1042800000F016FE51EC100B81F0004141EC100BD8
:1042900014B0BDEC0E8B04B0BDE8F08D18E09FEDBE
:1042A000BE9B9FEDBF8B002871D1B848804522D1BD
:1042B00005F1804010F5801008BFBAF1000F07D05B
:1042C000B3450ADC002CA8BF9DED240BE0DA0DE01D
:1042D000B0EE4A0AF0EE6A0ADAE7002C06DA9DED43
:1042E000240B51EC100B81F000416FE0AE48784494
:1042F00090ED000BCCE7D8454DD1002C48DA2EB11B
:1043000086423AD1BAF1000F42D126E0BAF1000F4D
:1043100013D0022000F030FE00F0FEFD8DED020B08
:104320009DED220B8DED000B10EE900A039961F3C9
:104330001E0003909DED020BAAE78DED029B9DED03
:10434000220B19EE901A10EE900A8DED000B61F31E
:104350001E0003909DED020B9AE78DED028B9DED03
:10436000220B18EE901A10EE900A8DED000B61F3FF
:104370001E0003909DED020B8AE709DA9DED220BEA
:1043800051EC1A0B53EC102BFCF758F91EE020E00F
:104390009DED220B7CE786421BDAB4F1804F0DD0F5
:1043A000A4F10050B0F1FF5013D1002D11DB9DEDB1
:1043B000220B51EC100B01F04FFA07E09DED220BA0
:1043C00053EC102B51EC100B00F0CABC41EC100B5D
:1043D0005EE79DED220B51EC100B01F031FABAF1C2
:1043E000000FCDE90A0142D19FED710B46B3A6F152
:1043F000E040B0F17F600CD05E4538D1002D00DA8E
:10440000A7B3022F0CBF01204FF0FF30FCF73BF8A1
:10441000DCE7002D01DD002C0DDA002D01DD002C84
:104420001FDB002D16DA002C14DB012F08BF9FEDD7
:10443000620B3FF42DAFB0EE490AF0EE690A27E7B0
:10444000022F18BF002D0CD0012F0AD1002DFFF62E
:104450001FAF06E0002DB8BF002C08DA012F3FF493
:1044600017AFB0EE480AF0EE680A11E71BE0012032
:1044700000EBE57050EA070115D0791EB0EE4A8ACC
:10448000F0EE6A8A084308BF9FED4D8B4E48002529
:10449000804570DD4D494E48884514DDB0420DDB46
:1044A000002C19DB2FE0012000F066FD14B0BDECFC
:1044B0000E8B04B0BDE8F04D00F01EBDB34502DC2C
:1044C000002C09DC1FE0864202DA002C1BDA03E034
:1044D0005E452BDD002C16DD022000F04DFD00F0C6
:1044E0001BFD8DED020B53EC192B51EC180BFBF758
:1044F00058FFCDE900010399019861F31E00039074
:104500009DED020BC4E6022000F036FD00F014FD24
:1045100010EE901A18EE900A8DED020B8DED008BC7
:1045200061F31E0003909DED020BB1E69DED0A0BB9
:1045300053EC1A2B51EC100BFBF72DFF9FED260BC4
:10454000CDE90A0153EC102B9DED0A0B51EC100B39
:10455000FBF727FF9FED221B53EC112BFBF71EFFF0
:104560009DED0A1B53EC112BFBF71BFF9FED1E1B50
:1045700053EC112B3CE08CE0FFFF1F00FFFF0F000E
:10458000000000000000F03F0000F03F0000F07F5E
:104590000000404301FCFFFF000000000000F07F2E
:1045A00000000000000000005E1600000000000097
:1045B0000000000000000080000000000000F0FF8C
:1045C000000000000000F0BF0000E0410000F043E8
:1045D000FFFFEF3F00000000000000000000D03FA0
:1045E000555555555555D53F000000000000E03F9A
:1045F000FBF7D4FE9DED0A0B41EC190B53EC102B8D
:1046000051EC100BFBF7CDFE53EC192BFBF7C9FE59
:104610009DED0A0B41EC1B0B53EC102B9FEDFE0B99
:1046200051EC100BFBF7BDFE41EC190B9FEDFC0BA1
:1046300051EC1B0B53EC102BFBF7B3FE41EC1B0BA7
:104640009FEDF90B53EC102B9DED0A0B51EC100B69
:10465000FBF7A7FE53EC1B2BFBF79DFE41EC1B0B5E
:1046600051EC190B53EC1B2BFBF7F4FD0490CDE937
:1046700004519DED040B53EC192B51EC100BFBF77F
:104680008AFE53EC1B2BFBF789FE41EC100B00F06C
:10469000A9B90020B6F5801F0EDA9FEDE50B53ECAB
:1046A000102B9DED0A0B51EC100BFBF77AFECDE9B8
:1046B0000A016FF034000E4600EB2650A0F2FF37DF
:1046C000C6F31300DC4940F07F6646F0405688424E
:1046D000D8BF002408DDD9498142C8BF012403DCCA
:1046E0000024A6F580167F1CD548784400EBC4084A
:1046F0000B9698ED000B53EC102B9DED0A0B51EC33
:10470000100BFBF748FE98ED000B41EC1B0B53EC34
:10471000102B9DED0A0B51EC100BFBF79BFD41ECB0
:10472000100B51EC1A0B53EC102BFBF787FF41ECED
:104730001C0B51EC1B0B53EC1C2BFBF732FE41EC1A
:10474000190BC0488DED0E9B78440E9590ED000B33
:104750004FF0005040EA660000EB84408DED120BF4
:1047600000F50020139098ED000B53EC102B9DEDFD
:10477000120B51EC100BFBF70EFE9DED0A1B53ECD8
:10478000112BFBF70BFE41EC100B53EC102B9DEDA6
:104790000E0B51EC100BFBF704FE9DED120B41ECE0
:1047A0001D0B53EC102B9DED0E0B51EC100BFBF77A
:1047B000F8FD53EC1B2BFBF7F1FD53EC1D2BFBF726
:1047C000EAFD53EC1C2BFBF7ECFD41EC1C0B53EC0E
:1047D000192B51EC190BFBF7E4FD41EC1B0B9A482C
:1047E0000621B0EE4B0AF0EE6B0A784400F0E4FAD2
:1047F000B0EE401AF0EE601AB0EE41DAF0EE61DA97
:1048000053EC1B2B51EC1B0BFBF7CBFD53EC1D2B7F
:10481000FBF7C7FD9DED0E0B41EC1B0B53EC192B69
:1048200051EC100BFBF716FD53EC1C2BFBF7B9FDFD
:1048300053EC1B2BFBF70EFD9DED0E0B41EC1B0B00
:1048400053EC102B51EC100BFBF7ABFD41EC1D0BA7
:1048500053EC1D2B9FED7EEB51EC1E0BFBF7FAFC8E
:1048600053EC1B2BFBF7F6FC1290CDE912519DED9A
:10487000120B53EC1E2B51EC100BFBF78CFD53EC81
:104880001D2BFBF788FD53EC1B2BFBF787FD9DEDE4
:10489000120B41EC1D0B53EC102B9DED0E0B51EC4C
:1048A000100BFBF77EFD41EC1B0B53EC192B51EC6D
:1048B0001D0BFBF776FD9DED120B41EC190B53EC34
:1048C000102B51EC1C0BFBF76CFD53EC192BFBF779
:1048D000C1FC41EC190B51EC1B0B53EC192BFBF7F2
:1048E000B9FC0490CDE904519DED040B53EC1B2B56
:1048F00051EC100BFBF74FFD53EC192BFBF74EFD62
:104900009DED040B41EC190B53EC102B9FED520B5A
:1049100051EC100BFBF745FD41EC1B0B9FED500BD1
:1049200051EC190B53EC102BFBF73BFD9DED040BE9
:1049300041EC190B53EC102B9FED4B0B51EC100B72
:10494000FBF72FFD53EC192BFBF784FC41EC100B0C
:104950004748784400EBC40090ED001B51EC100B6D
:1049600053EC112BFBF776FC41EC190B3846FBF7A7
:104970008AFDCDE90A0153EC192B51EC1B0BFBF717
:1049800069FC41EC100B3B48784400EBC40451EC4B
:10499000100B94ED001B53EC112BFBF75BFC9DED12
:1049A0000A1B53EC112BFBF755FC0490CDE9045185
:1049B0009DED0A0B53EC102B9DED040B51EC100BED
:1049C000FBF7E9FC94ED001B53EC112BFBF7E3FC28
:1049D00053EC1B2BFBF7DFFC53EC192BFBF7DEFC36
:1049E00041EC100B9DED241B53EC102B8DED001BA7
:1049F00000959DED240B51EC100BFBF7D2FC9DEDC7
:104A0000000B41EC190B53EC102B9DED240B51ECDA
:104A1000100BFBF7C0FC2FE0000000604715F73FCC
:104A2000FE822B654715F73F44DF5DF80BAE543E21
:104A300000000000000040438E9803007AB60B008F
:104A4000DA110000041200000A110000000000004A
:104A50000000000000000840000000E009C7EE3F31
:104A6000FD033ADC09C7EE3FF5015B14E02F3EBEC3
:104A7000920F00004C0F00009DED041B53EC112B16
:104A8000FBF78FFC53EC192BFBF7E4FB9DED040BBC
:104A900041EC190B53EC102B9DED000B51EC100B5E
:104AA000FBF77FFCCDE904019DED040B51EC190BE4
:104AB00053EC102BFBF7CEFBCDE902010C46AA49C3
:104AC0008C422FDB611A084318D19DED040B53EC87
:104AD000102B9DED020B51EC100BFBF75CFC41EC35
:104AE0001B0B9FEDA30B51EC190B53EC102BFBF799
:104AF000B1FB53EC1B2BFBF73FFE2DD2022000F045
:104B00003BFA00F009FA10EE901A18EE900A8DEDBB
:104B1000020B8DED008B61F31E0003909DED020BE7
:104B2000FFF7B6BB944A24F00041914214D3934955
:104B3000214408437FF4E7AC9DED040B53EC102BAC
:104B40009DED020B51EC100BFBF725FC53EC192BE0
:104B5000FBF712FE7FF6D7AC24F000408849894A63
:104B6000002601EB205182422BDA481C4FF48011C1
:104B700021FA00F02044844AC0F30A517A44A1F299
:104B8000FF3192ED000B814A8DED0A0BCA4020EAFD
:104B90000202C0F3130040F48010C1F1140120FAA6
:104BA00001F60B92002CB8BF76429DED0A0B53EC38
:104BB000102B9DED040B51EC100BFBF7ECFBCDE93A
:104BC00004019DED040B51EC190B53EC102BFBF77A
:104BD00041FB9FED6F0B0A90CDE90A5153EC102B6E
:104BE0009DED0A0B51EC100BFBF7DBFB41EC1B0BB3
:104BF0009FED690B53EC102B9DED0A0B51EC100B44
:104C0000FBF7CFFB9DED040B41EC1C0B53EC102B81
:104C10009DED0A0B51EC100BFBF7BDFB53EC192B70
:104C2000FBF7BCFB9FED5E1B53EC112BFBF7B9FBB5
:104C300053EC1C2BFBF70EFB41EC190B51EC1B0B3F
:104C400053EC192BFBF706FBCDE902019DED020B9E
:104C500053EC1B2B51EC100BFBF79DFB53EC192B6A
:104C6000FBF79CFB9DED020B41EC190B53EC102B59
:104C700051EC100BFBF795FBCDE90A014A489DED7D
:104C80000A0B0521784400F097F89DED0A1B51ECC2
:104C9000100B53EC112BFBF784FB9DED021B53EC27
:104CA000112BFBF77BFBCDE904019DED020B53ECCF
:104CB000192B51EC100BFBF774FB53EC192BFBF782
:104CC000C9FA9FED3B0B41EC190B53EC102B9DEDFA
:104CD000040B51EC100BFBF75EFB9DED040B41EC5C
:104CE0001B0B53EC102B9DED020B51EC100BFBF743
:104CF00058FB53EC1B2BFBF7A1FC53EC192BFBF7D8
:104D00004AFB9DED021B53EC112BFBF744FB53ECCC
:104D10001A2BFBF743FBCDE9020101EB065001150D
:104D20000029C8BF039015DC9DED020B324651EC03
:104D3000100BFBF7F2FCFFF7F5F9042808BF00F0B1
:104D4000FBF832469DED020B51EC100BFBF7E5FC36
:104D5000CDE902019DED020B51EC180B53EC102B29
:104D6000FBF71FFBFFF732BB000090400000000084
:104D7000FE822B654715973C00CC904000346F3F76
:104D800001FCFFFF0000E03FD00D0000FFFF0F001F
:104D900000000000432EE63F396CA80C615C20BE89
:104DA000EF39FAFE422EE63FA00C000000000000A2
:104DB000000000000000004070B504462DED028B9D
:104DC0004D1E00EBC500B0EE408AF0EE608A90ED1B
:104DD000000B35F0060017D053EC182B51EC100BDC
:104DE000FBF7DFFA41EC100B6D1E04EBC50090EDF4
:104DF000001B51EC100B53EC112BFBF72BFA41EC81
:104E0000100B35F00600E7D1022D36D0042D1CD052
:104E1000062D1CBFBDEC028B70BD53EC182B51EC62
:104E2000100BFBF7BEFA94ED0A1B53EC112BFBF7AA
:104E300011FA53EC182BFBF7B4FA94ED081B53EC62
:104E4000112BFBF707FA41EC100B53EC182B51EC2C
:104E5000100BFBF7A6FA94ED061B53EC112BFBF796
:104E6000F9F953EC182BFBF79CFA94ED040B53EC77
:104E7000102BFBF7EFF941EC100B53EC182B51EC16
:104E8000100BFBF78EFA94ED021B53EC112BFBF782
:104E9000E1F953EC182BFBF784FA94ED001B53EC6B
:104EA000112BFBF7D7F9BDEC028B41EC100B70BD59
:104EB0009FED070B10B553EC102B9FED070B51EC3A
:104EC000100BFBF7BBFB41EC100B10BD000000000A
:104ED0000000000000000000000000000000F03FA3
:104EE00010B553EC112B51EC100BFBF7B3F941EC5F
:104EF000100B10BD000000009FED050B10B553EC2A
:104F0000102B51EC100BFBF799FB41EC100B10BD73
:104F100000000000000000009FED050B10B553ECF1
:104F2000102B51EC100BFBF73CFA41EC100B10BDB1
:104F300000000000000000709FED050B10B553EC61
:104F4000102B51EC100BFBF72CFA41EC100B10BDA1
:104F5000000000000000001002E008C8121F08C195
:104F6000002AFAD170477047002001E001C1121FEA
:104F7000002AFBD17047000001490860704700001B
:104F8000040000202DE9FF5F82B00021DDE904303C
:104F9000020DDDF840B0034318D044F61050A2F2E1
:104FA000FF3242431514119801281FD0A5EB0B00C6
:104FB000401C5FEA000A4FF000064E4FDFF83891C0
:104FC000B046504615D5CAF1000413E011980124EB
:104FD0004AA3012801D16FEA0B010298119AC0E996
:104FE0000031C0E9024206B0BDE8F09FCBF10000FD
:104FF000DFE704460021404A491842EB0450CDE95E
:10500000001012E0E00707D032463B4640464946D2
:10501000FBF7C7F98046894632463B46104619469B
:10502000FBF7BFF906460F466410002CEAD1DDE914
:105030000401DDE90023BAF1000F06DAFBF7B1F94C
:1050400042464B46FBF7ADF905E0FBF7F7FA42465F
:105050004B46FBF7F3FA04460E460022284BFBF7BB
:105060008BFB03D84FF0FF30014607E00022254BB1
:1050700020463146FBF7EEF8FBF766FB102409E00B
:10508000002C0ADB0A220023FBF79CF8039B30323A
:105090001A55641E50EA0102F2D1641C039AC4F14D
:1050A00011031444119A012A03D0012208430DD19F
:1050B0000AE0084304D000204FF0110B119072E772
:1050C000A3EB0B056D1E0DE05B4504DD4FF0000208
:1050D00005F1010504E003DA4FF00002A5F1010536
:1050E000002AECD002981199C0E90231C0E90045CC
:1050F00079E70000000014400000F03F300000009D
:105100000000F0430000E03F2DE9FF4F95B09B46C3
:105110008946064600250FE2252877D10024274638
:10512000F84A0121059400E0044316F8013F203BB2
:1051300001FA03F01042F7D130782A2811D06FF02D
:105140002F033078A0F13002092A16D8059A44F0CE
:10515000020402EB820203EB42021044761C05902B
:10516000EFE759F8042B0592002A03DA504244F481
:105170000054059044F00204761C30782E2816D195
:1051800016F8010F44F004042A280DD06FF02F0206
:105190003078A0F13003092B09D807EB870302EB25
:1051A0004303C718761CF3E759F8047B761C307864
:1051B0006C280FD006DC4C2817D068280DD06A2840
:1051C00014D104E0742810D07A280FD10DE044F4F3
:1051D00000140AE044F4801401E044F440147278AE
:1051E000824202D104F58014761C761C3078662841
:1051F0000BD013DC582877D009DC002875D045285F
:10520000F6D04628F4D047281AD19DE118E063284B
:1052100035D0642879D0652812D195E1702873D0F3
:1052200008DC6728F1D069286FD06E280DD06F2870
:1052300006D1B5E073282CD0752875D0782874D0A5
:105240005A46179990476D1C75E1C4F30250022825
:1052500009D003280DD0D9F8001004280DD00D6016
:1052600009F1040967E1D9F80010EA17C1E9005211
:10527000F6E7D9F800100D80F2E70D70F0E719F8A5
:10528000041B8DF8001000208DF80100EA46012073
:1052900003E059F804AB4FF0FF3061074FF0000115
:1052A00002D40DE008F101018846B9420FDA8045C9
:1052B000F8DB1AF808100029F4D108E008F1010120
:1052C00088468142FADB1AF808100029F6D10598C1
:1052D0005B46A0EB080721463846179A00F094FA7F
:1052E000284400EB080507E04DE029E10DE01AF83D
:1052F000010B5A4617999047B8F10108F7D25B465F
:1053000021463846179A13E142E00A220092C4F37C
:1053100002524FF0000A022A08D059F804CB032A9F
:105320004FEAEC710AD00DE029E02AE009F107010B
:1053300021F00702F2E802C1914609E00FFA8CFC65
:105340004FEAEC71042A03D14FFA8CFC4FEAEC715E
:10535000002907DA0A460021DCF1000C61EB0201AA
:105360002D2202E0220504D52B228DF804200122F3
:1053700003E0E20701D02022F7E7904659E00A2136
:1053800002E010220DE010214FF0000A00910BE026
:1053900010224FF0000A44F004040827009203E0B2
:1053A00008224FF0000A0092C4F30252022A05D0EC
:1053B00059F804CB0021032A08D009E009F10701BC
:1053C00021F00702F2E802C1914605E01FFA8CFCC9
:1053D000042A01D10CF0FF0C4FF00008220728D559
:1053E000702806D0009B83F0100353EA0A0305D00F
:1053F0000EE040228DF80420012208E05CEA010260
:1054000006D030228DF804208DF805000222904647
:10541000009B83F0080353EA0A030AD15CEA010205
:1054200001D1620705D530228DF804204FF0010824
:105430007F1E582804D034A003900EA802900DE0DF
:1054400036A0F9E753466046009AFAF7BBFE844659
:105450000398825C0298401E029002705CEA010090
:10546000F0D1029806A9081A00F1200A600702D5B7
:1054700024F4803400E00127574502DDA7EB0A0041
:1054800000E0002000EB0A01009005984144401A1A
:105490000590E00306D45B462146179A059800F074
:1054A000B3F90544002706E001A85A46C05D1799E4
:1054B00090476D1C7F1C4745F6DBE0030CD55B462F
:1054C0002146179A059800F09FF9054404E0302022
:1054D0005A46179990476D1C0099481E0090002964
:1054E000F5DC08E0029802995A460078491C0291BE
:1054F000179990476D1CBAF10001AAF1010AF1DC7D
:1055000065E1000009280100303132333435363787
:1055100038396162636465660000000030313233FF
:10552000343536373839414243444546000000009F
:1055300000F058F90544761C307800287FF4ECAD73
:1055400019B02846BDE8F08F620700D4062709F19C
:10555000070222F0070CFCE80223E14603F00048B2
:105560005FEA080C02D00FF2702C0DE05FEA045CD9
:1055700002D50FF2682C07E05FEAC47C02D00FF27C
:10558000602C01E0AFF2700C4FF0FF3823F00043C5
:10559000CDF850C065280CD006DC452809D0462837
:1055A0001DD047283DD13DE0662818D067287ED120
:1055B00038E00021112F01DB112000E0781CCDE93B
:1055C000000106A90EA8FFF7DDFCDDE90F010E9A28
:1055D00003910021009207F1010A04914DE04FF080
:1055E00000400097CDE9011006A90EA8FFF7CAFCFC
:1055F000DDE90F0203920E9B11990022DDF80CA049
:105600000093049211B9791C00EB010AB7EB0A0070
:1056100004D4C0F1FF3007F1010A0490AAEB07009F
:10562000019044E0012F00DA01270021112F01DD54
:10563000112000E03846CDE9000106A90EA8FFF7C9
:10564000A1FCDDE90F010E9A039100210491009263
:10565000BA4621070CD40399514500DA8A46BAF1BB
:10566000010F05DD009AAAF10101515C302908D033
:10567000B84202DA10F1040F06DA0121CDE9011077
:1056800015E0AAF10101E9E7002805DC04990144CD
:105690000491AAEB000102E0411C514500DD8A465D
:1056A0000499401A401C01904FF0004002902007DE
:1056B00004D40198504501DBCDF8048000208DF81A
:1056C0004F0002980DF14F07B0F1004F25D02B206D
:1056D0000E9002984FF0020800280CDA4042029027
:1056E0002D200E9007E00A210298FAF703FF3031CF
:1056F000029007F8011DB8F10001A8F10108F2DCE1
:1057000002980028EFD1791E0E980870307800F0CA
:10571000200040F0450007F8020D12A8C01B00F160
:1057200007081498007800B1012000EB0A010198E5
:1057300001EBE07105984144401A401E0590E003DA
:1057400006D45B462146179A059800F05DF805449B
:105750001498007818B15A46179990476D1CE003C9
:1057600024D55B462146179A059800F04DF805446C
:105770001CE00498002807DBDDE90301884203DD13
:105780000098405C179901E0179930205A469047DD
:10579000049805F10105401C04900198401E0190F9
:1057A00004D12E205A46179990476D1CBAF100017A
:1057B000AAF1010ADDDC05E017F8010B5A4617993A
:1057C00090476D1CB8F10001A8F10108F4DC5B46BC
:1057D0002146179A0598ABE62D0000002B0000002B
:1057E000200000002DE9F041044600251E46174622
:1057F000880404D405E039462020B0476D1C641E9F
:10580000F9D52846BDE8F0812DE9F0410446002590
:105810001E469046C80301D5302700E020278804A3
:1058200004D505E041463846B0476D1C641EF9D5E5
:105830002846BDE8F0810A68531C0B601070704761
:1058400082B0CDE9000121F0004001909DED000BF8
:1058500002B051EC100B704700B52DED048B83B0F6
:1058600041EC190BFAF7B2FF41EC180B18EE100AD5
:1058700018EE901A8DED008B002818BF0120084308
:1058800020F00040C0F17F6000F1E040C00F14D074
:1058900019EE101A19EE900A8DED009B002918BF21
:1058A0000121084320F00040C0F17F6000F1E0409A
:1058B000C00F04BF0120FFF75FFB51EC180B03B0D2
:1058C000BDEC048B00BD0000000000000000F03FB4
:1058D000000000000000F83F000000000000000091
:1058E0000000004003B8E23F00000000000000009C
:1058F00006D0CF43EBFD4C3E033333333333E33F2A
:10590000FFAB6FDBB66DDB3F4D268F515555D53F55
:1059100001411DA96074D13F65DBC9934A86CD3F23
:10592000EF4E454A287ECA3F3E5555555555C53F11
:1059300093BDBE166CC166BF2CDE25AF6A56113F03
:10594000F16BD2C541BDBBBED0A4BE726937663E05
:105950000000000000000000000000000000000047
:105960000102030406070809000000000102030405
:10597000506C6561736520456E746572207468654E
:105980002050726F737468657469632041726D2072
:105990004D6F76656D656E7420436F6D6D616E64DD
:1059A000005468652043414E2066696C746572201E
:1059B000636F6E66696720686173206E6F7420661E
:1059C000696E6973686564210043414E2052582016
:1059D0006E6F74696669636174696F6E2068617364
:1059E000206E6F74206F70656E6564210054686569
:1059F0002043414E207065726970686572616C2049
:105A0000686173206E6F74207374617274656421B1
:105A10000043414E204D6573736167652073656E69
:105A200064207375636365737366756C6C792100AC
:105A300043414E204D6573736167652072656365F0
:105A4000697665207375636365737366756C6C79CD
:105A500021000D0A0D0A00526563656976652043D1
:105A60006F6D6D616E643A00256420002578002515
:105A700030327800537769746368206F6E20616EEE
:105A80006420656E61626C65202E2E2E0053657455
:105A9000204F7065726174696F6E204D6F64650090
:105AA0005365742050726F66696C6520416363654D
:105AB0006C65726174696F6E005365742050726F0B
:105AC00066696C6520446563656C65726174696FB5
:105AD0006E005365742054617267657420506F7353
