:020000040800F2
:1000000030400120A5010008453700089D35000853
:1000100041370008450A0008254600080000000096
:1000200000000000000000000000000091380008FF
:100030003513000800000000D1370008AD3C00086F
:10004000BF010008BF010008BF010008BF01000890
:10005000BF010008BF010008BF010008BF01000880
:10006000BF010008BF010008BF010008BF01000870
:10007000BF010008BF010008BF010008BF01000860
:10008000BF010008BF010008BF010008BF01000850
:10009000BF010008BF010008BF010008BF01000840
:1000A000BF010008BF010008BF010008BF01000830
:1000B000BF010008BF010008BF010008BF01000820
:1000C000BF010008BF010008BF010008BF01000810
:1000D000BF0100081545000895450008BF0100084C
:1000E000BF010008BF010008BF010008BF010008F0
:1000F000BF010008BF010008BF010008BF010008E0
:10010000BF010008BF010008BF010008BF010008CF
:10011000453D0008BF010008BF010008BF010008FD
:10012000BF010008BF010008BF010008BF010008AF
:10013000BF010008BF010008BF010008BF0100089F
:10014000BF010008BF010008BF010008BF0100088F
:10015000BF010008BF010008BF010008BF0100087F
:10016000BF010008BF010008BF010008BF0100086F
:10017000BF010008BF010008BF0100080000000027
:10018000BF010008BF010008DFF814D000F08EFBAB
:1001900000F076F800480047FD59000800F09CFB8D
:1001A000304001200648804706480047FEE7FEE74A
:1001B000FEE7FEE7FEE7FEE7FEE7FEE7FEE7FEE717
:1001C000D53C0008890100082DE9F05F05460020B4
:1001D00092469B4688460646814640241BE02846B8
:1001E00041464746224600F04DFA53465A46C01A49
:1001F000914110D311461846224600F034FA2D1AC8
:1002000067EB01084F4622460120002100F02BFA3F
:1002100017EB00094E41201EA4F10104DFDC484623
:1002200031462A464346BDE8F09F40EA01039B075A
:1002300003D009E008C9121F08C0042AFAD203E05B
:1002400011F8013B00F8013B521EF9D27047D2B2BF
:1002500001E000F8012B491EFBD270470022F6E7AF
:1002600010B513460A4604461946FFF7F0FF20462C
:1002700010BD421C10F8011B0029FBD1801A7047E9
:1002800070B5054C054D03E0206820448047241DCF
:10029000AC42F9D170BD0000C8AC0008D4AC000875
:1002A0000B460146184600F00FBA2DE9FE4F804676
:1002B00081EA0300C00F0C46009021F0004123F0BA
:1002C0000045B8EB0200A94105D2404621469046C0
:1002D0001C460B46024623F00040104347D0270D32
:1002E000C7F30A00C3F30A510290401A0190402854
:1002F0006BDAC3F3130040F4801B0098924620B1E0
:100300000023D2EB030A63EB0B0B01985946C0F1B3
:100310004002504600F0A7F906460D4650465946A1
:10032000019A00F0BFF910EB08006141002487EA50
:10033000115284EAE7731A4340D0009A62B3019ADB
:10034000012A4FEA075215DC001B61EB02014FF056
:10035000004202EA0752CDE90042001C41F580113B
:1003600032462B4600F00DFA03B0BDE8F08F404650
:100370002146F9E7001B61EB0201001C41F58013E7
:1003800000185B412018A2F5001747EB030140EA73
:10039000D570B6196D4111E06D084FEA360645EA91
:1003A000C0754FEA0752001B61EB0201001C41F5CA
:1003B000801149084FEA30000019514132462B465E
:1003C00003B0BDE8F04F00F0CDB900980122400025
:1003D0000023D0EB020263EBE073009821464FEA62
:1003E000E074B8EB000061EB0401E9E783F000433F
:1003F0005BE781F0004158E72DE9FE4F81EA0304F5
:1004000004F0004421F0004100944FF0000B23F071
:10041000004350EA01045ED052EA03045BD0C3F308
:100420000A54C1F30A552C44A4F2F3340194A0FBFE
:100430000254C1F3130141F48011C3F3130343F4D5
:10044000801301FB024400FB034E840A970A44EA2E
:10045000815447EA8357A4FB076802958D0A05FB80
:1004600007854FEA932C04FB0C542705029D4FEAA5
:10047000065847EA1637B5EB08056EEB070C870EF2
:10048000920E47EA811742EA8312A7FB0201B6EBFC
:100490000B0164EB00042B0D43EA0C335E1844EBB4
:1004A0001C50DA465146E7FB0201C5F313044FEA3C
:1004B0000B3343EA14534FEA0432019C43EA060328
:1004C000A4F10C040294009CCDE900B400F059F9A9
:1004D00003B0BDE8F08F00200146F9E72DE9F04DAB
:1004E00081EA030404F0004B21F0004514464FF06C
:1004F000000A23F0004150EA050220D054EA01022C
:100500001DD0C5F30A570246C5F31303C1F3130008
:10051000C1F30A5640F4801543F48013A7EB060894
:10052000101BD64608F2FD3873EB050002D308F124
:10053000010801E092185B41B8F1000F03DA0020D6
:100540000146BDE8F08D00204FF480110646844638
:100550000EE0171B73EB050705D3121B63EB0503B6
:1005600006434CEA010C49084FEA300092185B41FF
:1005700050EA0107EDD152EA030012D082EA0400EA
:1005800083EA0501084305D0101BAB4106D20122C6
:10059000002306E000224FF0004302E06FF001026A
:1005A00053101AEB06004CEB085110EB0A0041EB1C
:1005B0000B01BDE8F04D00F0D5B80EB5C10F80EAD3
:1005C000E0700844CA07002140F233438DE80E0072
:1005D0000A460B4600F0D5F803B000BD00F000421B
:1005E00030F000400AD0C10D01F56071C0F3160073
:1005F00042EA0151C20840071143704700200146FA
:10060000704701F0004330B421F0004150EA01028C
:1006100006D00A0DA2F56072C1F31301002A02DCB4
:1006200030BC00207047440F44EAC104C100E01808
:1006300030BC00EBC25000F05EB830B50B4601464E
:1006400000202022012409E021FA02F59D4205D371
:1006500003FA02F5491B04FA02F52844151EA2F11B
:100660000102F1DC30BD202A04DB203A00FA02F15D
:10067000002070479140C2F1200320FA03F3194390
:1006800090407047202A04DB203A21FA02F0002132
:10069000704721FA02F3D040C2F120029140084392
:1006A00019467047202A06DBCB17203A41FA02F0A0
:1006B00043EAE07306E041FA02F3D040C2F12002BF
:1006C00091400843194670472DE9F0410746154609
:1006D0000E46102009F0CCFE04000AD06760C4E981
:1006E000026500F0F5F80168216004600020BDE8B3
:1006F000F0810120FBE70029A8BF7047401C49009A
:1007000008BF20F00100704710B4B0FA80FC00FA76
:100710000CF050EA010404BF10BC704749B1CCF1A1
:10072000200421FA04F411FA0CF118BF012121432D
:100730000843A3EB0C01CB1D4FEA00614FEA1020E8
:1007400042BF002010BC704700EBC350104400298A
:10075000A4BF10BC7047401C490008BF20F0010036
:1007600010BC704710B5141E73F1000408DA401C69
:1007700041F1000192185B411A4301D120F00100C0
:1007800010BD2DE9F04D92469B4611B1B1FA81F2B0
:1007900002E0B0FA80F220329046FFF764FF044690
:1007A0000F4640EA0A0041EA0B0153465A46084305
:1007B00013D0114653EA010019D0C8F14002504647
:1007C000FFF760FF05460E46504659464246FFF782
:1007D0004AFF084305D0012004E020463946BDE821
:1007E000F08D0020054346EAE0762C4337430A9813
:1007F0006305E40AA0EB08000022FD0A44EA47541E
:100800000A3002D500200146E9E7010510196941C7
:10081000DDE9084500196941BDE8F04DA2E770B572
:1008200021F0004303430CD0C1F30A550024D5EB5B
:10083000040564EB0403D617AD1AB34102DB0020B4
:10084000014670BD201841EB025170BDC1F30A5240
:10085000C1F3130140F2FF3341F480119A4202DAEE
:1008600000200146704740F233439A42A2F23342DD
:1008700002DC5242FFF706BFFFF7F5BE30B5041E9B
:1008800071F1000404DB4FF00044404264EB0101CD
:10089000141E73F1000405DB1C464FF00043524266
:1008A00063EB0403994208BF904230BD064C074DEC
:1008B00006E0E06840F0010394E807009847103430
:1008C000AC42F6D3FFF764FCA8AC0008C8AC000843
:1008D00000487047080000202DE9F0410646FFF768
:1008E000F7FF8046454613E016B1E068B0420ED1EE
:1008F00020682860D4E90101D8F8007088472046B4
:1009000009F08EFDD8F80000B842EBD100E0254692
:100910002C68002CE8D1BDE8F0812DE9F04D0023D2
:100920001A461B1A8A4103DB00200146BDE8F08D00
:10093000C1F30A52C1F3130141F480154FF0000BCB
:10094000D10702D100186D41521E0027044640F223
:10095000FF11384601EB620A3E46804602460020FF
:100960004FF48011FFF78EFEC2197141BB1846EBA0
:100970000100B4EB030C75EB000C04D3E41A65EB37
:10098000000517460E46241908F101006D41804606
:100990003428E3DDF91946EB0600091BA84103D210
:1009A0004FF0FF32134601E0002213461BEB070015
:1009B00046EB0A51BDE8F04DFFF7D4BE704700008A
:1009C00080B588B002200790FFE740F6DC30C2F225
:1009D00000000021017034210122069008461146D2
:1009E00003F062FE64210590084604F06BFF06994F
:1009F0000A78002A04900AD0FFE74AF6CC00C0F635
:100A0000000008F059F9039003F000F817E0079888
:100A100001380790FFE707980028D6D1FFE74AF68C
:100A20004B40C0F6000008F047F94AF62C4EC0F6DD
:100A3000000E0290704608F03FF90190FFE708B001
:100A400080BD0000FFE7FEE780B502F0C9FD00F0C1
:100A50002BF840F61410C2F2000000F0F3FF00285B
:100A60000BD0FFE740F27050C2F200004AF2E4718E
:100A7000C0F6000105F048F8FFE740F61410C2F296
:100A80000000022100F08EFD00280BD0FFE740F2AD
:100A90007050C2F200004AF2C071C0F6000105F0C9
:100AA00033F8FFE780BD000080B58AB000200590D4
:100AB000069001210791009001900290039004900C
:100AC00008910E20099040F61410C2F20000694609
:100AD00000F096FD00280BD0FFE740F27050C2F204
:100AE00000004AF29871C0F6000105F00DF8FFE72A
:100AF0000AB080BD0000000080B5B2B00A460346CF
:100B00003190309100202F901F921E93FFE72F9875
:100B10001B303099002288421D9223DAFFE731987A
:100B20002F99405C002148281D911BD0FFE7319888
:100B30002F99084440780021AA281D9112D0FFE780
:100B400031982F990844807E00210D281D9109D0ED
:100B5000FFE731982F990844C07E0A3818BF01205A
:100B60001D90FFE71D98C007002804D0FFE72F98CD
:100B700001302F90CBE7FFE72F981B3030990022F0
:100B800088421C9224DAFFE731982F99405C0021BB
:100B900048281C911CD1FFE731982F9908444078D0
:100BA0000021AA281C9113D1FFE731982F990844FE
:100BB000807E00210D281C910AD1FFE731982F99E2
:100BC0000844C07E0A38B0FA80F040091C90FFE764
:100BD0001C98C007002800F06F81FFE700202690D6
:100BE000FFE726981B280EDCFFE731982F99405C21
:100BF000269928AA5054FFE72698013026902F986E
:100C000001302F90EDE700202590FFE7259803287D
:100C10000BDCFFE7259828A90144897827AA1154FD
:100C2000FFE7259801302590F0E72798FFF7D6FCDD
:100C300041EC100B9FEDA21B53EC112B51EC100B50
:100C4000FFF7DAFB41EC100B51EC100BFFF7D9FC6E
:100C500040F27011C2F20001086000202490FFE70A
:100C6000249803280BDCFFE7249828A901448979FC
:100C700027AA1154FFE7249801302490F0E7279821
:100C8000FFF7ACFC41EC100B9FED8D1B53EC112BCF
:100C900051EC100BFFF7B0FB41EC100B51EC100BBB
:100CA000FFF7AFFC40F27011C2F200014860002073
:100CB0002390FFE7239803280BDCFFE7239828A95C
:100CC0000144897A27AA1154FFE723980130239021
:100CD000F0E72798FFF782FC41EC100B9FED781BA3
:100CE00053EC112B51EC100BFFF786FB41EC100B72
:100CF00051EC100BFFF785FC40F27011C2F20001BD
:100D0000886000202290FFE7229803280BDCFFE791
:100D1000229828A90144897B27AA1154FFE7229829
:100D200001302290F0E72798FFF758FC41EC100BB8
:100D30009FED631B53EC112B51EC100BFFF75CFB89
:100D400041EC100B51EC100BFFF75BFC40F2701103
:100D5000C2F20001C86000202190FFE7219803281B
:100D60000BDCFFE7219828A90144897C27AA1154AC
:100D7000FFE7219801302190F0E72798FFF72EFC3C
:100D800041EC100B9FED4E1B53EC112B51EC100B53
:100D9000FFF732FB41EC100B51EC100BFFF731FC6D
:100DA00040F27011C2F20001086100202090FFE7BC
:100DB000209803280BDCFFE7209828A90144897DAF
:100DC00027AA1154FFE7209801302090F0E72798D8
:100DD000FFF704FC41EC100B9FED391B53EC112B7A
:100DE00051EC100BFFF708FB41EC100B51EC100B12
:100DF000FFF707FC40F27011C2F2000148614AF6A9
:100E00004A00C0F600001B9107F056FF1B990A68C4
:100E10004B68D1F808E0D1F80CC01A90104619932D
:100E2000CDF860E0CDF85CC0FFF7D8FB41EC100BCB
:100E300019988DED140BFFF7D1FB41EC100B1898AE
:100E40008DED120BFFF7CAFB41EC100B17988DEDDF
:100E5000100BFFF7C3FB41EC100B1B9800698DEDE5
:100E60000E0BFFF7BBFB41EC100B1B9840698DED9F
:100E70000C0BFFF7B3FB41EC100B684680ED080B41
:100E80009DED0C0B80ED060B9DED0E0B80ED040B24
:100E90009DED100B80ED020B9DED120B80ED000B14
:100EA0009DED140B53EC102B4AF68C00C0F600009D
:100EB00007F002FF0B905FE632B080BD00BF00BFBD
:100EC0001F85EB51B89E234080B5A4B040F6DC30BE
:100ED000C2F200000078002800F00481FFE7002043
:100EE0002290219020902390FFE7239802286FDC26
:100EF000FFE7239840F6BC21C2F2000101EB40025B
:100F0000B2F97A2000EE102AB8EEC00A9FED761AE8
:100F100080EE010A9FED752A20EE020A40F240128F
:100F2000C2F2000202EB800080ED060A239801EB7A
:100F30004001B1F96E1000EE101AB8EEC00A80EE52
:100F4000010A9FED6B1A20EE010A02EB800080ED92
:100F5000030A05F0DDFE1F901F98002822D0FFE74E
:100F6000239840F24011C2F2000101EB800191EDA3
:100F7000030A20AA02EB800090ED001A30EE410A2D
:100F80001F9844F6D352C1F26202A0FB02029209FA
:100F900001EE102AB8EE411A80EE010A81ED000A36
:100FA0001E90FFE705F09EFEDDF88CE040F2401059
:100FB000C2F2000000EB8E0090ED030A20A800EBC7
:100FC0008E0080ED000AFFE72398013023908CE724
:100FD00040F24010C2F20000C168026943691D90EE
:100FE00008461C921B93FFF7F9FA41EC100B1C9872
:100FF0008DED180BFFF7F2FA41EC100B1B988DEDFD
:10100000160BFFF7EBFA41EC100B684680ED020B74
:101010009DED160B80ED000B9DED180B53EC102B86
:101020004AF61640C0F6000007F046FE1D990A6811
:101030004B68D1F808E0159010461493CDF84CE0B9
:10104000FFF7CCFA41EC100B14988DED100BFFF765
:10105000C5FA41EC100B13988DED0E0BFFF7BEFA9D
:1010600041EC100B684680ED020B9DED0E0B80ED00
:10107000000B9DED100B53EC102B4AF6EA30C0F636
:10108000000007F019FE1D998A69CB69D1F820E0AC
:101090000D9010460C93CDF82CE0FFF79FFA41EC31
:1010A000100B0C988DED080BFFF798FA41EC100B24
:1010B0000B988DED060BFFF791FA41EC100B68468B
:1010C00080ED020B9DED060B80ED000B9DED080BF6
:1010D00053EC102B4AF6FF30C0F6000007F0ECFD91
:1010E0000590FFE724B080BD0000004700003443B6
:1010F0000000FA4480B592B013468C4686468DF8BF
:10110000470010910F9200200E900D900C900B90C4
:1011100010980A9010980630099004200C909DF8C1
:101120004700503801460F280893CDF81CC0CDF871
:1011300018E0059142D80599DFE801F01A081D1161
:1011400022272A2D303336404040403934200E903B
:1011500003200C9040200D9001200B902FE03D20AB
:101160000E9003200C902E200D9001200B9026E075
:1011700030200E9023E037200E9003200F901EE0C9
:101180003A200E9003200F9019E041200E9016E0B7
:1011900045200E9013E049200E9010E04D200E9057
:1011A0000DE051200E900AE055200E9007E040F629
:1011B000E440C2F2000000680E9000E046E00F98A4
:1011C000032805D1FFE703200C9000200B90FFE7D8
:1011D0000C9800281BD0FFE70E9840F6BC21C2F205
:1011E000000101EB40000A990C9A5200FFF71DF82C
:1011F00040F63421C2F2000109680E9ADDF830E0B1
:101200000490104603917146039A9047FFE70B98AC
:1012100000281BD0FFE70D9840F6BC21C2F2000168
:1012200001EB400009990B9A5200FEF7FEFF40F6D1
:101230003421C2F2000109680D9ADDF82CE0029019
:10124000104601917146019A9047FFE712B080BDA8
:1012500083B001468DF80B009DF80B0040F63E026E
:10126000C2F20002137803F1010C82F800C040F2D0
:101270004472C2F20002D05410785528019107D070
:10128000FFE740F63E00C2F20000002101704EE090
:1012900040F63E00C2F2000000780A2801DCFFE7B9
:1012A00045E040F24470C2F2000040780146512807
:1012B000009108D0FFE70098522813D0FFE700986C
:1012C00053281ED02CE040F24470C2F20000D0F847
:1012D0000210D0F8060040F6EC42C2F20002506064
:1012E00011601DE040F24470C2F20000D0F802101C
:1012F000D0F8060040F6FC42C2F2000250601160D5
:101300000EE040F24470C2F20000D0F80210D0F8B3
:10131000060040F6F442C2F2000250601160FFE79E
:1013200040F63E00C2F2000000210170FFE703B06A
:10133000704700007047000080B59CB00A46034625
:10134000179016910320139000208DF84B008DF814
:101350004A0040F23870C2F2000000886FF39F30FC
:10136000ADF85600BDF85600013814901192109354
:10137000FFE714980028C0F2DC80FFE7149840F2E1
:101380007061C2F20001085C202800F0C080FFE715
:10139000149840F27061C2F20001085C2D285ED002
:1013A000FFE7149840F27061C2F20001085C2E2839
:1013B00055D0FFE7BDF8560001381499401A9DF842
:1013C0004B10401A9DF84A10401A0A2119911890A2
:1013D0001998FFF7F2F841EC100B18988DED0E0BF1
:1013E000FFF7EBF841EC110B9DED0E0B07F0A0FCA5
:1013F000149840F27061C2F20001085C30388DED43
:101400000C0BFFF7DAF841EC100B9DED0C1B51ECC7
:10141000110B53EC102BFEF7EFFF41EC100B16985D
:10142000139950F821200B9010468DED080B079171
:10143000FFF7D4F841EC100B9DED081B53EC112B7A
:1014400051EC100BFEF731FF41EC100B51EC100B7F
:10145000FFF7D7F80B99079A41F8220056E0149845
:1014600040F27061C2F20001085C2D280BD1FFE749
:101470001698139900EB810090ED000AB1EE400A36
:1014800080ED000A41E0BDF8560001381499401A79
:101490009DF84B10401A8DF84A001698139950F891
:1014A0002100FFF79BF841EC100B9DF84A004042E9
:1014B0000A211B911A901B988DED040BFFF77DF804
:1014C00041EC100B1A988DED020BFFF776F841EC0A
:1014D000110B9DED020B07F02BFC9DED041B51EC55
:1014E000110B53EC102BFEF787FF41EC100B51EC66
:1014F000100BFFF786F81699139A41F822009DF811
:101500004A0001308DF84A00FFE7FFE70CE013982E
:1015100001381390BDF856001499401A8DF84B000D
:1015200000208DF84A00FFE7FFE714980138149077
:101530001FE717984AF60801C0F6000104F0CCFA3C
:1015400000201490FFE7149803280EDCFFE717989B
:101550001699149A01EB820191ED000A04F088FAC1
:10156000FFE7149801301490EDE7FFE71798006843
:10157000006800F040000121B1EB901F01D0FFE7AF
:10158000F4E74AF6E400C0F6000007F095FB40F2ED
:10159000387EC2F2000E0021AEF8001001901CB09F
:1015A00080BD000086B00A4603460490039104986B
:1015B00090F820008DF80B009DF80B000128019297
:1015C000009305D0FFE79DF80B0002280AD1FFE742
:1015D0000398049909684A691043486100208DF80E
:1015E000170008E00498416A41F48021416201201B
:1015F0008DF81700FFE79DF8170006B07047000050
:1016000088B00A4603460690059106980068039044
:10161000069890F820008DF80B009DF80B0001282B
:101620000192009306D0FFE79DF80B00022840F0DE
:10163000B880FFE746F20040C4F200000390039830
:10164000D0F8001241F00101C0F800120398D0F860
:10165000001221F47C51C0F800120598406A0399E9
:10166000D1F8002242EA0020C1F800020598406942
:1016700000F01F00012101FA00F004900498039982
:10168000D1F81C2222EA0000C1F81C020598C069AA
:1016900000281FD1FFE704980399D1F80C2222EA11
:1016A0000000C1F80C0205988188C268406941EACF
:1016B0000241039A02EBC000C0F84012059801886D
:1016C0008268406941EA0241039A02EBC000C0F817
:1016D0004412FFE70598C06901281ED1FFE704986E
:1016E0000399D1F80C221043C1F80C0205988188A7
:1016F0000268406941EA0241039A02EBC000C0F867
:101700004012059881898268406941EA0241039A42
:1017100002EBC000C0F84412FFE70598806900287A
:1017200009D1FFE704980399D1F8042222EA0000C6
:10173000C1F8040207E004980399D1F80422104389
:10174000C1F80402FFE705980069002809D1FFE706
:1017500004980399D1F8142222EA0000C1F8140277
:1017600007E004980399D1F814221043C1F8140239
:10177000FFE70598006A012808D1FFE7049803995C
:10178000D1F81C221043C1F81C02FFE70398D0F8DF
:10179000001221F00101C0F8001200208DF81F0096
:1017A00008E00698416A41F48021416201208DF8E9
:1017B0001F00FFE79DF81F0008B0704780B584B098
:1017C0000146029002980028009104D1FFE7012011
:1017D0008DF80F00E6E0029890F82000002804D170
:1017E000FFE7029800F0E2F8FFE70298006801685E
:1017F00021F00201016000F0A5FB0190FFE70298D3
:10180000006840688007002817D5FFE700F09AFBC2
:10181000DDF804E0A0EB0E000B280DD3FFE70298E3
:10182000416A41F4003141620298052180F820109C
:1018300001208DF80F00B5E0E1E70298006801682B
:1018400041F00101016000F07DFB0190FFE702988B
:1018500000684068C007002817D1FFE700F072FB5E
:10186000DDF804E0A0EB0E000B280DD3FFE7029893
:10187000416A41F4003141620298052180F820104C
:1018800001208DF80F008DE0E1E70298007E01282D
:1018900007D1FFE702980068016841F0800101600C
:1018A00006E002980068016821F080010160FFE70E
:1018B0000298407E012807D1FFE70298006801687E
:1018C00041F04001016006E002980068016821F0E3
:1018D00040010160FFE70298807E012807D1FFE701
:1018E00002980068016841F02001016006E002985A
:1018F0000068016821F020010160FFE70298C07EC6
:10190000012807D1FFE702980068016821F0100163
:10191000016006E002980068016841F01001016072
:10192000FFE70298007F012807D1FFE702980068CF
:10193000016841F00801016006E002980068016852
:1019400021F008010160FFE70298407F012807D1DC
:10195000FFE702980068016841F00401016006E0B9
:1019600002980068016821F004010160FFE7029815
:10197000016842688368D0F80CC043EA0C03D0F8D1
:1019800010C043EA0C0340691843013A1043C86190
:101990000298002141620298012280F820208DF8EF
:1019A0000F10FFE79DF80F0004B080BD80B58CB02C
:1019B00001460B9000200A9009900890079006902D
:1019C0000B98006846F20042C4F200029042039174
:1019D00035D1FFE7FFE70020059043F64000C4F251
:1019E0000200016841F000710160006800F00070C1
:1019F000059005980290FFE7FFE70020049043F66A
:101A00003000C4F20200016841F001010160006889
:101A100000F00100049004980190FFE74FF4C050DB
:101A200006900220079001210891099009200A9050
:101A30000020C4F2020006A900F072F8FFE70CB023
:101A400080BD000080B584B001460290029890F8F5
:101A500020000128009132D1FFE70298022180F88E
:101A6000201002980068016821F00101016000F077
:101A700069FA0190FFE7029800684068C0070028F3
:101A800017D0FFE700F05EFADDF804E0A0EB0E00EF
:101A90000B280DD3FFE70298416A41F400314162FF
:101AA0000298052180F8201001208DF80F000FE02A
:101AB000E1E70298002141628DF80F1008E00298DA
:101AC000416A41F40021416201208DF80F00FFE7D7
:101AD0009DF80F0004B080BD83B0014601900198CD
:101AE00090F835000228009107D0FFE70198802187
:101AF000416501208DF80B000EE00198052180F86A
:101B0000351001980068016821F001010160FFE7CC
:101B100000208DF80B00FFE79DF80B0003B0704725
:101B200091B00A46034610900F9100200D900C9042
:101B30000B900E9009920893FFE70E980F2800F281
:101B4000D481FFE70E98012101FA00F00D900F9863
:101B500000680D9908400C900C980D99884240F04F
:101B6000BF81FFE70F984068022805D0FFE70F9874
:101B70004068122826D1FFE710980E996FF00302F3
:101B800002EA51010844006A0B900E9800F0070029
:101B900080000F2101FA00F00B9921EA00000B9060
:101BA0000F9800690E9901F00701890088400B9990
:101BB00008430B900B9810990E9B02EA53021144B4
:101BC0000862FFE7109800680B900E984000032110
:101BD00001FA00F00B9921EA00000B900F98406881
:101BE00000F003000E99490088400B9908430B90C0
:101BF0000B98109908600F98406801280FD0FFE7F4
:101C00000F98406802280AD0FFE70F984068112813
:101C100005D0FFE70F98406812282FD1FFE71098F2
:101C200080680B900E984000032101FA00F00B9998
:101C300021EA00000B900F98C0680E994900884077
:101C40000B9908430B900B98109988601098406886
:101C50000B900E98012101FA00F00B9921EA000087
:101C60000B900F984068C0F300100E9988400B99B4
:101C700008430B900B9810994860FFE71098C068D4
:101C80000B900E984000032101FA00F00B9921EA15
:101C900000000B900F9880680E99490088400B99BE
:101CA00008430B900B981099C8600F984068C000CB
:101CB000002840F11481FFE7FFE700200A9043F677
:101CC0004400C4F20200016841F4804101600068F0
:101CD00000F480400A900A980790FFE70E9820F0E1
:101CE000030043F60801C4F2010140580B900E981E
:101CF00000F0030080000F2101FA00F00B9921EAA7
:101D000000000B9010980021C4F20201884203D118
:101D1000FFE7002006905EE0109840F20041C4F218
:101D20000201884203D1FFE70120059050E010989E
:101D300040F60001C4F20201884203D1FFE702200D
:101D4000049042E0109840F60041C4F2020188423B
:101D500003D1FFE70320039034E0109841F2000123
:101D6000C4F20201884203D1FFE70420029026E07A
:101D7000109841F20041C4F20201884203D1FFE70A
:101D80000520019018E0109841F60001C4F202010C
:101D9000884203D1FFE7062000900AE0109841F640
:101DA0000041C4F202010822884208BF07220092C3
:101DB000FFE700980190FFE701980290FFE7029883
:101DC0000390FFE703980490FFE704980590FFE76E
:101DD00005980690FFE70698C0B20E9901F003013E
:101DE000890088400B9908430B900B980E9921F0BD
:101DF000030143F60802C4F20102885043F6004092
:101E0000C4F2010000680B900C980B9921EA0000C5
:101E10000B900F984068C003002805D5FFE70C9889
:101E20000B9908430B90FFE70B9843F60041C4F26F
:101E30000101086043F60440C4F2010000680B9001
:101E40000C980B9921EA00000B900F9840688003D2
:101E5000002805D5FFE70C980B9908430B90FFE786
:101E60000B9843F60441C4F20101086043F60840B0
:101E7000C4F2010000680B900C980B9921EA000055
:101E80000B900F984068C002002805D5FFE70C981A
:101E90000B9908430B90FFE70B9843F60841C4F2F7
:101EA0000101086043F60C40C4F2010000680B9089
:101EB0000C980B9921EA00000B900F984068800263
:101EC000002805D5FFE70C980B9908430B90FFE716
:101ED0000B9843F60C41C4F201010860FFE7FFE7ED
:101EE000FFE70E9801300E9027E611B07047000012
:101EF00080B585B013468C4686460490ADF80E102A
:101F00008DF80D209DF80D0000280293CDF804C037
:101F1000CDF800E005D0FFE7BDF80E000499886118
:101F200005E0BDF80E00000404998861FFE705B0E4
:101F300080BD000042F20000CEF204000068000CF8
:101F40007047000043F60C10C2F2010000687047B1
:101F500080B582B043F60040C4F20200016841F44B
:101F600000710160016841F480610160052000F0AA
:101F700079F80F2000F006F8019000F03FF80020FB
:101F800002B080BD80B584B00146029040F2A0004E
:101F9000C2F20000006840F2B902C2F200021278F8
:101FA0004FF47A73B3FBF2F2B0FBF2F0019100F060
:101FB00097FD002804D0FFE701208DF80F0018E0FE
:101FC00002980F280DD8FFE702994FF0FF3000224A
:101FD00000F022F8029840F2BC01C2F20001086051
:101FE00003E001208DF80F0003E000208DF80F00C2
:101FF000FFE79DF80F0004B080BD000070470000AF
:1020000080B582B001468DF807009DF90700009168
:1020100003F084FA02B080BD80B58AB013468C46C6
:1020200086468DF8270008910792002006900593B8
:10203000CDF810C0CDF80CE003F08CFA06909DF9B5
:1020400027000699089A079B0290084611461A46EF
:1020500001F07AFB029901900846019903F082FA97
:102060000AB080BD80B582B0014601900198009110
:1020700003F0C4FA02B080BD80B588B00A460346BA
:1020800006900591069800280392029304D1FFE779
:1020900001208DF81F0024E1059843F60041C4F2A9
:1020A0000201096801F00F01884212D9FFE7059883
:1020B00043F60041C4F202010870086800F00F0006
:1020C0000599884204D0FFE701208DF81F0008E140
:1020D000FFE706980068800700282AD5FFE70698E2
:1020E00000684007002809D5FFE743F60800C4F25E
:1020F0000200016841F4E0510160FFE706980068C2
:102100000007002809D5FFE743F60800C4F20200E3
:10211000016841F460410160FFE743F60800C4F242
:102120000200016821F0F001069A926811430160F3
:10213000FFE706980068C007002870D0FFE7069800
:102140004068012811D1FFE743F60000C4F2020005
:10215000006800F400300021B1EB504F04D1FFE7DC
:1021600001208DF81F00BCE02CE006984068022892
:1021700005D0FFE706984068032811D1FFE743F632
:102180000000C4F20200006800F000700021B1EB12
:10219000506F04D1FFE701208DF81F00A1E010E08F
:1021A00043F60000C4F20200006800F002000021C3
:1021B000B1EB500F04D1FFE701208DF81F0090E034
:1021C000FFE7FFE743F60800C4F20200016821F0D0
:1021D0000301069A526811430160FFF7B3FE0490B1
:1021E000FFE743F60800C4F20200006800F00C00AC
:1021F00006994968B0EB810F10D0FFE7FFF7A2FE08
:10220000DDF810E0A0EB0E0041F2893E704504D3EA
:10221000FFE703208DF81F0063E0E2E7FFE7059882
:1022200043F60041C4F20201096801F00F0188423F
:1022300012D2FFE7059843F60041C4F2020108708C
:10224000086800F00F000599884204D0FFE70120DC
:102250008DF81F0045E0FFE706980068400700285A
:102260000CD5FFE743F60800C4F20200016821F430
:10227000E051069AD26811430160FFE706980068B2
:10228000000700280DD5FFE743F60800C4F202005E
:10229000016821F46041069A126941EAC2010160B5
:1022A000FFE700F053F843F6080EC4F2020EDEF822
:1022B00000E05FFA8EFE4FEA1E1E4AF2E051C0F6C1
:1022C000000111F80E10C84040F2A001C2F2000156
:1022D00008600F20FFF756FE00218DF81F100190B7
:1022E000FFE79DF81F0008B080BD000040F2A0008D
:1022F000C2F200000068704780B5FFF7F7FF43F6B1
:10230000080EC4F2020EDEF800E0CEF3822E4AF28E
:10231000F051C0F6000111F80E10C84080BD000059
:1023200080B5FFF7E3FF43F6080EC4F2020EDEF8B5
:1023300000E01FFA8EFE4FEA5E3E4AF2F051C0F610
:10234000000111F80E10C84080BD000080B586B0B5
:102350000020059004900390029043F60800C4F218
:102360000200006800F00C0001460028019108D02E
:10237000FFE7019804280AD0FFE7019808280CD04D
:102380004FE042F20040C0F2F40002904FE041F210
:102390000020C0F27A00029049E043F60400C4F243
:1023A0000200016801F03F01059100684002002829
:1023B00013D5FFE743F60400C4F202000068C0F33F
:1023C000881041F20021C0F27A01A0FB0101059AB8
:1023D0000023FDF7F9FE049012E043F60400C4F276
:1023E00002000068C0F3881042F20041C0F2F4011C
:1023F000A0FB0101059A0023FDF7E6FE0490FFE72C
:1024000043F60400C4F20200006800F440300221E8
:1024100001EBD030039004980399B0FBF1F00290E7
:1024200005E042F20040C0F2F4000290FFE702989B
:1024300006B080BD80B588B0014606900698002899
:10244000029104D1FFE701208DF81F0027E30698D1
:102450000068C007002800F0AB80FFE743F60800E3
:10246000C4F20200006800F00C00042813D0FFE75B
:1024700043F60800C4F20200006800F00C000828CF
:102480001FD1FFE743F60400C4F2020000684002D7
:10249000002816D5FFE743F60000C4F202000068EA
:1024A00000F400300021B1EB504F09D0FFE706984F
:1024B0004068002804D1FFE701208DF81F00EEE2FC
:1024C00075E0FFE706984068B0F5803F09D1FFE767
:1024D00043F60000C4F20200016841F4803101605B
:1024E00020E006984068B0F5A02F0DD1FFE743F635
:1024F0000000C4F20200016841F48021016001681B
:1025000041F4803101600CE043F60000C4F20200A7
:10251000016821F480310160016821F480210160AB
:10252000FFE7FFE7FFE70698406800281FD0FFE7B6
:10253000FFF708FD0590FFE743F60000C4F2020034
:10254000006800F400300021B1EB504F0ED1FFE7DE
:10255000FFF7F8FCDDF814E0A0EB0E00652804D3CB
:10256000FFE703208DF81F0099E2E5E71EE0FFF783
:10257000E9FC0590FFE743F60000C4F202000068A2
:1025800000F400300021B1EB504F0ED0FFE7FFF711
:10259000D9FCDDF814E0A0EB0E00652804D3FFE7BA
:1025A00003208DF81F007AE2E5E7FFE7FFE7FFE78A
:1025B000069800688007002840F19B80FFE743F6FB
:1025C0000800C4F20200006810F00C0F13D0FFE7FF
:1025D00043F60800C4F20200006800F00C0008286E
:1025E0002CD1FFE743F60400C4F202000068400269
:1025F000002823D4FFE743F60000C4F2020000687D
:1026000000F002000021B1EB500F09D0FFE706985F
:10261000C068012804D0FFE701208DF81F003EE2CA
:1026200043F60000C4F20200016821F0F801069AA6
:10263000126941EAC2010160FFE759E00698C068EB
:10264000002830D0FFE70020C4F2472001210160BC
:10265000FFF778FC0590FFE743F60000C4F20200A4
:10266000006800F002000021B1EB500F0ED1FFE72F
:10267000FFF768FCDDF814E0A0EB0E00032804D39C
:10268000FFE703208DF81F0009E2E5E743F60000AD
:10269000C4F20200016821F0F801069A126941EAC9
:1026A000C201016023E00020C4F247200021016044
:1026B000FFF748FC0590FFE743F60000C4F2020074
:1026C000006800F002000021B1EB500F0ED0FFE7D0
:1026D000FFF738FCDDF814E0A0EB0E00032804D36C
:1026E000FFE703208DF81F00D9E1E5E7FFE7FFE7EB
:1026F000FFE7069800680007002850D5FFE7069816
:102700004069002825D0FFE740F68060C4F24720EA
:1027100001210160FFF716FC0590FFE743F6740006
:10272000C4F20200006800F002000021B1EB500F7B
:102730000ED1FFE7FFF706FCDDF814E0A0EB0E007A
:10274000032804D3FFE703208DF81F00A7E1E5E786
:1027500024E040F68060C4F2472000210160FFF7CA
:10276000F1FB0590FFE743F67400C4F20200006835
:1027700000F002000021B1EB500F0ED0FFE7FFF791
:10278000E1FBDDF814E0A0EB0E00032804D3FFE723
:1027900003208DF81F0082E1E5E7FFE7FFE70698D9
:1027A00000684007002840F1D680FFE700208DF840
:1027B000130043F64000C4F202000068C000002885
:1027C00016D4FFE7FFE70020039043F64000C4F271
:1027D0000200016841F080510160006800F0805003
:1027E000039003980190FFE701208DF81300FFE7A5
:1027F00047F20000C4F200000068C005002824D49D
:10280000FFE747F20000C4F20000016841F4807164
:102810000160FFF797FB0590FFE747F20000C4F265
:1028200000000068C00500280ED4FFE7FFF78AFB10
:10283000DDF814E0A0EB0E00032804D3FFE703202B
:102840008DF81F002BE1E8E7FFE7FFE706988068B7
:10285000012809D1FFE743F67000C4F202000168C5
:1028600041F0010101601FE00698806805280DD144
:10287000FFE743F67000C4F20200016841F0040172
:102880000160016841F0010101600CE043F6700055
:10289000C4F20200016821F001010160016821F029
:1028A00004010160FFE7FFE7FFE706988068002862
:1028B00021D0FFE7FFF746FB0590FFE743F67000E6
:1028C000C4F20200006800F002000021B1EB500FDA
:1028D00010D1FFE7FFF736FBDDF814E0A0EB0E00A8
:1028E00041F2893E704504D3FFE703208DF81F00B5
:1028F000D5E0E3E720E0FFF725FB0590FFE743F68F
:102900007000C4F20200006800F002000021B1EB88
:10291000500F10D0FFE7FFF715FBDDF814E0A0EB38
:102920000E0041F2893E704504D3FFE703208DF885
:102930001F00B4E0E3E7FFE79DF81300012809D189
:10294000FFE743F64000C4F20200016821F0805125
:102950000160FFE7FFE706988069002800F09B8090
:10296000FFE743F60800C4F20200006800F00C0024
:10297000082800F08B80FFE706988069022860D164
:10298000FFE76020C4F2472000210160FFF7DAFA78
:102990000590FFE743F60000C4F20200006800F073
:1029A00000700021B1EB506F0ED0FFE7FFF7CAFABD
:1029B000DDF814E0A0EB0E00032804D3FFE70320AA
:1029C0008DF81F006BE0E5E70698C169026A436A6B
:1029D000D0F828C0114341EA83114FEACC324FF6B8
:1029E000FF739A43A2F580321143C06A41EA006046
:1029F00043F60401C4F2020108606020C4F24720DB
:102A000001210160FFF79EFA0590FFE743F6000001
:102A1000C4F20200006800F000700021B1EB506FBA
:102A20000ED1FFE7FFF78EFADDF814E0A0EB0E0001
:102A3000032804D3FFE703208DF81F002FE0E5E70C
:102A400023E06020C4F2472000210160FFF77AFAFA
:102A50000590FFE743F60000C4F20200006800F0B2
:102A600000700021B1EB506F0ED0FFE7FFF76AFA5C
:102A7000DDF814E0A0EB0E00032804D3FFE70320E9
:102A80008DF81F000BE0E5E7FFE703E001208DF87C
:102A90001F0004E0FFE700208DF81F00FFE79DF80E
:102AA0001F0008B080BD000082B00146019001986F
:102AB0000428009109D1FFE74EF21000CEF2000089
:102AC000016841F00401016008E04EF21000CEF20E
:102AD0000000016821F004010160FFE702B07047C7
:102AE00080B582B0014601900198009101F082F812
:102AF00002B080BD82B001460190009102B07047E3
:102B000084B001460390002002900190039890F851
:102B100039000290039890F83A0001909DF808005F
:102B20009DF804201043009104B0704780B58CB02C
:102B300001460B900B98006800680A900B9800689B
:102B4000C06809900B9800684069089000200790C1
:102B500006900A9800F00F0007900798002805914A
:102B600012D1FFE79DF82800800600280BD5FFE76B
:102B70009DF824008006002805D5FFE70B9801F09A
:102B800067F90490E0E0FFE70798002800F0BA80BA
:102B9000FFE79DF82000C007002807D1FFE7BDF838
:102BA000240010F4907F00F0AD80FFE79DF828002E
:102BB000C00700280CD0FFE79DF82500C0070028BB
:102BC00006D0FFE70B98C16B41F00101C163FFE73D
:102BD0009DF82800400700280CD5FFE79DF820004D
:102BE000C007002806D0FFE70B98C16B41F0020137
:102BF000C163FFE79DF82800800700280CD5FFE798
:102C00009DF82000C007002806D0FFE70B98C16B95
:102C100041F00401C163FFE79DF828000007002888
:102C20000CD5FFE79DF82000C007002806D0FFE77D
:102C30000B98C16B41F00801C163FFE70B98C06BB3
:102C400000285ED0FFE79DF82800800600280BD5FD
:102C5000FFE79DF824008006002805D5FFE70B98C4
:102C600001F0F6F80390FFE70B9800684069C0F3A5
:102C7000801006900B98C06B0007002804D4FFE773
:102C80000698002833D0FFE70B9801F0B5F80B98B1
:102C9000006840694006002824D5FFE70B980068CB
:102CA000416921F0400141610B98406B002814D02C
:102CB000FFE70B98406B43F6D551C0F60001016564
:102CC0000B98406BFEF708FF002805D0FFE70B9834
:102CD000406B016D8847FFE703E00B98FFF70AFFA1
:102CE000FFE703E00B98FFF705FFFFE708E00B980D
:102CF000FFF700FF0B984FF0000EC0F83CE0FFE735
:102D0000FFE721E09DF82800000600280BD5FFE72B
:102D10009DF824000006002805D5FFE70B9801F078
:102D200047FB029010E09DF82800400600280BD5D4
:102D3000FFE79DF824004006002805D5FFE70B9823
:102D400001F070F80190FFE70CB080BD80B584B051
:102D50000146029002980028019104D1FFE701206A
:102D60008DF80F0041E002988069002801D0FFE74C
:102D700000E0FFE7029890F83900002808D1FFE74B
:102D80000298002180F83810029800F033F8FFE72D
:102D90000298242180F8391002980068C16821F453
:102DA0000051C160029801F0CFF8029800680169F3
:102DB00021F49041016102980068416921F02A01E3
:102DC000416102980068C16841F40051C1600298F5
:102DD0000021C16302984FF0200E80F839E002987C
:102DE00080F83AE08DF80F10FFE79DF80F0004B06F
:102DF00080BD000080B5A6B00146259025980068EA
:102E000041F20002C4F20102904217914AD1FFE759
:102E1000FFE700201F9043F63000C4F20200016873
:102E200041F001010160006800F001001F901F984F
:102E30001690FFE7FFE700201E9043F64400C4F21F
:102E40000200016841F010010160006800F010000C
:102E50001E901E981590FFE74FF4007020900220FE
:102E60002190012122912390072024900020C4F278
:102E7000020020A914901391FEF752FE4FF48060D7
:102E8000209014981399FEF74BFE25201290FFF71F
:102E9000B7F803201299119008461199119AFFF77B
:102EA000BBF8FFE72598006844F20041C4F2000136
:102EB000884248D1FFE7FFE700201D9043F630002D
:102EC000C4F20200016841F001010160006800F0F5
:102ED00001001D901D981090FFE7FFE700201C9057
:102EE00043F64000C4F20200016841F40031016081
:102EF000006800F400301C901C980F90FFE704203D
:102F000020900220219001212291239007202490DB
:102F10000020C4F2020020A90E900D91FEF700FEE1
:102F2000082020900E980D99FEF7FAFD26200C90AF
:102F3000FFF766F803200C990B9008460B990B9A43
:102F4000FFF76AF8FFE72598006844F60001C4F22D
:102F5000000188424BD1FFE7FFE700201B9043F6BA
:102F60004000C4F20200016841F480210160006861
:102F700000F480201B901B980A90FFE7FFE70020D9
:102F80001A9043F63000C4F20200016841F00201D9
:102F90000160006800F002001A901A980990FFE79B
:102FA0004FF48060209002202190012122912390F3
:102FB0000720249040F20040C4F2020020A90890AB
:102FC0000791FEF7ADFD4FF4006020900898079937
:102FD000FEF7A6FD27200690FFF712F803200699BA
:102FE000059008460599059AFFF716F8FFE725981A
:102FF000006844F60041C4F20001884242D1FFE774
:10300000FFE70020199043F63000C4F20200016887
:1030100041F004010160006800F004001990199863
:103020000490FFE7FFE70020189043F64000C4F249
:103030000200016841F400210160006800F40020F2
:10304000189018980390FFE74FF4406020900220FA
:1030500021900121229123900820249040F6000025
:10306000C4F2020020A9FEF75BFD34200290FEF7B7
:10307000C7FF03200299019008460199019AFEF7C3
:10308000CBFFFFE726B080BDB0B58CB09C4696461E
:103090000C4605460A900991ADF8222007930020BE
:1030A00005900A9890F83A002028CDF810C0CDF885
:1030B0000CE00294019540F0A580FFE709980028F4
:1030C00005D0FFE7BDF82200002804D1FFE701206A
:1030D0008DF82F009AE0FFE70A9890F83800012851
:1030E00004D1FFE702208DF82F008FE00A9801211C
:1030F00080F83810FFE7FFE70A980021C1630A98BB
:10310000222180F83A10FEF71DFF0590BDF822003D
:103110000A998885BDF822000A99C885FFE70A98B0
:10312000C08D002860D0FFE70A98C18D0139C185A4
:103130000A988068B0F5805F2DD1FFE70A98059B5B
:1031400007996A4611602021002201F085F90028C4
:1031500004D0FFE703208DF82F0057E00998069070
:103160000A98006900280BD1FFE70A9800684068B8
:103170006FF35F200699088009980230099009E0F2
:103180000A9800684068C0B2069908800998013022
:103190000990FFE727E00A98059B07996A461160A6
:1031A0002021002201F058F9002804D0FFE7032075
:1031B0008DF82F002AE00A980069002808D1FFE75F
:1031C0000A980068406809994A1C0992087009E049
:1031D0000A980068406800F07F0009994A1C09922B
:1031E0000870FFE7FFE79AE70A98202180F83A1075
:1031F000FFE70A98002180F83810FFE700208DF8DB
:103200002F0003E002208DF82F00FFE79DF82F002C
:103210000CB0B0BD80B587B013468C46864605908D
:103220000491ADF80E20059890F83A0020280293FA
:10323000CDF804C0CDF800E04CD1FFE70498002899
:1032400005D0FFE7BDF80E00002804D1FFE70120FC
:103250008DF81B0042E0FFE7059890F83800012840
:1032600004D1FFE702208DF81B0037E0059801210B
:1032700080F83810FFE7FFE7049805998862BDF8E9
:103280000E0005998885BDF80E000599C88505983A
:103290000021C1630598222180F83A10FFE70598C4
:1032A000002180F83810FFE705980068C16841F4F4
:1032B0008071C16005980068416941F00101416178
:1032C00005980068C16841F02001C16000208DF8B8
:1032D0001B0003E002208DF81B00FFE79DF81B0098
:1032E00007B080BD80B584B00146039003980068A4
:1032F00041F20002C4F20102904202915FD1FFE765
:1033000040F23870C2F2000000880004002855D452
:10331000FFE740F23870C2F2000000884004002845
:1033200019D5FFE740F63F00C2F2000000780A28F6
:1033300007D0FFE740F23870C2F2000000210180A0
:1033400008E040F23870C2F20000018841F4004108
:103350000180FFE731E040F63F00C2F20000007854
:103360000D2809D1FFE740F23870C2F20000018851
:1033700041F4804101801FE040F63F00C2F20000AE
:10338000007840F23871C2F200010A886FF39F3270
:1033900040F27063C2F2000398540888013008803C
:1033A0000888C82807DBFFE740F23870C2F2000047
:1033B00000210180FFE7FFE7FFE7FFE725E0039833
:1033C000006844F20041C4F20001884209D1FFE7DD
:1033D00040F64000C2F200000078FDF739FF01908E
:1033E00012E00398006844F60041C4F200018842EC
:1033F00009D1FFE740F60910C2F20000007801F0A1
:10340000C7F90090FFE7FFE7FFE704B080BD0000C9
:10341000B0B58CB09C4696460C4605460A9009917C
:10342000ADF822200793002005900A9890F8390003
:103430002028CDF810C0CDF80CE00294019540F0A2
:103440009F80FFE70998002805D0FFE7BDF822001C
:10345000002804D1FFE701208DF82F0094E0FFE75A
:103460000A9890F83800012804D1FFE702208DF86F
:103470002F0089E00A98012180F83810FFE7FFE764
:103480000A980021C1630A98212180F83910FEF7BB
:1034900059FD0590BDF822000A998884BDF82200E4
:1034A0000A99C884FFE70A98C08C00284AD0FFE731
:1034B0000A98C18C0139C1840A988068B0F5805F90
:1034C00027D1FFE70A98059B07996A46116080217A
:1034D000002200F0C1FF002804D0FFE703208DF890
:1034E0002F0051E009980690069800886FF35F203E
:1034F0000A99096848600A980069002804D1FFE722
:1035000009980230099003E0099801300990FFE71B
:1035100017E00A98059B07996A46116080210022EE
:1035200000F09AFF002804D0FFE703208DF82F0059
:103530002AE00998411C099100780A9909684860B5
:10354000FFE7B0E70A98059B07996A46116040219A
:10355000002200F081FF002804D0FFE703208DF84F
:103560002F0011E00A98202180F83910FFE70A980F
:10357000002180F83810FFE700208DF82F0003E0CD
:1035800002208DF82F00FFE79DF82F000CB0B0BD92
:1035900082B001460190009102B07047FFE7FEE75C
:1035A00080B582B000F05AF940F2AE0EC2F2000EC1
:1035B0007046CDF804E000F0AFF940F2A400C2F28A
:1035C000000000F0A9F9019800F0A6F94AF6700091
:1035D000C0F6000005F070FB009002B080BD000056
:1035E00010B588B040F61410C2F2000046F2004157
:1035F000C4F2000101600199029A039BDDF810C03A
:10360000DDF814E0069C8461C0F814E0C0F810C036
:10361000C360826041600799C1610321416000215C
:103620008160C1604FF4C02202614FF4A002426188
:103630000176417681760122C27601774177FEF7E5
:10364000BDF8009008B010BD80B592B00020119078
:1036500010900F900E900D90FFE700200C9043F615
:103660003000C4F20200016841F00401016000680A
:1036700000F004000C900C980790FFE7FFE7002093
:103680000B9043F63000C4F20200016841F0800163
:103690000160006800F080000B900B980690FFE737
:1036A000FFE700200A9043F63000C4F202000168F0
:1036B00041F002010160006800F002000A900A98DF
:1036C0000590FFE7FFE70020099043F63000C4F2C1
:1036D0000200016841F040010160006800F0400014
:1036E000099009980490FFE7FFE70020089043F64F
:1036F0003000C4F20200016841F00101016000687D
:1037000000F00100089008980390FFE741F60000E0
:10371000C4F202004FF480710022029001910092E5
:10372000FEF7E6FB01980D9001210E9100990F9193
:1037300010910DA90298FEF7F3F912B080BD0000B8
:10374000FFE7FEE77047000080B58BB013468C465C
:1037500086460A90099108920A9800F0070007909F
:103760000798C0F1070005280493CDF80CC0CDF8E8
:1037700008E003D3FFE70420019004E00798C0F1BC
:1037800007000190FFE7019806900798043006288B
:1037900003D8FFE70020009003E00798033800906B
:1037A000FFE70098059009980699012202FA01F1B5
:1037B0000139084005998840089B02FA01F1013956
:1037C000194008430BB080BD00000000000000005D
:1037D000EFF30980BFF36F8F154B1A681EF0100FBF
:1037E00008BF20ED108A20E9F04F10602DE9090094
:1037F0004FF0500080F31188BFF34F8FBFF36F8FEE
:1038000004F01AF84FF0000080F31188BDE80900B9
:1038100019680868B0E8F04F1EF0100F08BFB0EC50
:10382000108A80F30988BFF36F8F704700BF00BF15
:10383000400A002080B582B00120019002F042F8D9
:1038400041F60000C4F202004FF480710022FEF73E
:103850004FFB019802F036F802B080BD80B582B00F
:103860000120019002F02EF841F60000C4F202009F
:103870004FF48071019AFEF73BFB019802F022F8A9
:1038800002B080BD80B5FFF7D5FF80BD000000000D
:10389000074B19680868B0E8F04F80F30988BFF358
:1038A0006F8F4FF0000080F31188704700BF00BF9A
:1038B000400A002080B586B00A4603460590049170
:1038C00003920293FFE740F23060C2F2000000680A
:1038D0000068C0B20021B1EBD01F01D1FFE7F2E7D1
:1038E0000599BDF8102040F23060C2F20000642358
:1038F000FFF78EFD0190FFE740F23060C2F200005A
:1039000000680068C0B20021B1EBD01F01D1FFE711
:10391000F2E706B080BD000080B584B00146039098
:10392000039840F2F052C2F2000202901046029A4E
:103930000191114602F0D0F804B080BD86B00A466D
:103940000346059004910020039002920193FFE743
:1039500003980499884239D2FFE7059836280090E9
:1039600008D0FFE7009839280DD0FFE700983F28DE
:1039700012D01AE040F6DC30C2F20000017841F0CB
:10398000010101701AE040F6DC30C2F2000001785B
:1039900041F00201017011E040F6DC30C2F200009B
:1039A000017841F00401017008E040F6DC30C2F219
:1039B0000000017841F080010170FFE705980130B7
:1039C0000590FFE7039801300390C1E706B0704708
:1039D000B0B588B09C4696460C46054607900691C1
:1039E000059204930798CDF80CC0CDF808E0019437
:1039F000009503F0A1F9069803F0C6F9059803F0C5
:103A0000EBF9049803F00EFA08B0B0BD80B58EB0A3
:103A10004AF66140C0F6000005F04EF94AF6E90E9C
:103A2000C0F6000E0D90704605F046F94AF6752E68
:103A3000C0F6000E0C90704605F03EF94AF6853E41
:103A4000C0F6000E0B90704605F036F94AF64D2E82
:103A5000C0F6000E0A90704605F02EF94AF6D52EF3
:103A6000C0F6000E0990704605F026F94AF6881E49
:103A7000C0F6000E0890704605F01EF94AF6BB1E0F
:103A8000C0F6000E0790704605F016F94AF6183E8B
:103A9000C0F6000E0690704605F00EF94AF64F3E4D
:103AA000C0F6000E0590704605F006F94AF6EC1EC9
:103AB000C0F6000E0490704605F0FEF84AF6A32EFC
:103AC000C0F6000E0390704605F0F6F84AF6FE2E9A
:103AD000C0F6000E0290704605F0EEF84AF6371E6A
:103AE000C0F6000E0190704605F0E6F800900EB0AA
:103AF00080BD0000B0B59EB09C4696460C4605467B
:103B00001D901C911B921A9300208DF86700CDF830
:103B100014C0CDF810E003940295FFE70020079051
:103B200043F64000C4F20200016841F08051016098
:103B3000006800F08050079007980190FFE7FFE7CA
:103B40000020069047F20000C4F20000016841F432
:103B500080410160006800F4804006900698009063
:103B6000FFE701200D904FF480300E90022013905B
:103B70004FF4800014901C9815901D9816901B9877
:103B800017901A9818900DA8FEF754FC8DF867004E
:103B90009DF86700002802D0FFE7FFE7FEE70F204F
:103BA00008900220099000200A904FF4A0500B903A
:103BB0004FF480500C9008A80521FEF75DFA8DF8AF
:103BC00067009DF86700002802D0FFE7FFE7FEE7E7
:103BD000FEF7B0F941F2010E704509D1FFE743F657
:103BE0000040C4F20200016841F480710160FFE707
:103BF0001EB0B0BD80B584B0014602900298013875
:103C0000B0F1807F019103D3FFE7012003901BE017
:103C1000029801384EF21401CEF2000108604FF014
:103C2000FF300F2101F09EFC4EF21800CEF2000092
:103C3000002101604EF21000CEF200004FF0070E9E
:103C4000C0F800E00391FFE7039804B080BD0000D6
:103C500080B584B00146029002980138B0F1807FAF
:103C6000019103D3FFE7012003901BE00298013884
:103C70004EF21401CEF2000108604FF0FF300F2128
:103C800001F096FC4EF21800CEF200000021016017
:103C90004EF21000CEF200004FF0070EC0F800E028
:103CA0000391FFE7039804B080BD000080B582B0A7
:103CB00004F0E6FB012804D0FFE703F0ADFF01901C
:103CC000FFE740F61010C2F2000001680131016008
:103CD00002B080BD4EF68850CEF20000016841F47B
:103CE0007001016043F60000C4F20200016841F077
:103CF0000101016043F60801C4F2020100220A60DA
:103D000001684FF6FF73CFF6F6631940016043F682
:103D10000401C4F2020143F21003C2F200430B603B
:103D2000016821F48021016043F60C00C4F2020016
:103D300002604EF60850CEF200004FF000610160C4
:103D40007047000080B582B00020019040F23060E2
:103D5000C2F20000FEF7EAFEFFE740F23060C2F276
:103D60000000FEF7CDFE20280AD0FFE701980130C1
:103D700001900198B0F1FF3F01D9FFE700E0ECE7C7
:103D800000200190FFE740F23060C2F2000040F6F0
:103D90000911C2F200010122FFF73CFA00280AD003
:103DA000FFE70198013001900198B0F1FF3F01D980
:103DB000FFE700E0E7E740F23060C2F20000016890
:103DC0006FF020020A6000686FF00801016002B025
:103DD00080BD000080B584B0014603900398806BDD
:103DE000029002980022C2850298C2840298019132
:103DF000FEF780FE04B080BD82B0014601900198BC
:103E00000068C26822F49072C2600198006842693A
:103E100022F0010242610198202280F83A200091AC
:103E200002B0704780B582B00146019001980068E9
:103E3000C26822F04002C2600198202280F8392036
:103E400001980091FFF7A4FB002002B080BD0000A4
:103E500080B584B001460290029890F83A0022287A
:103E6000009169D1FFE702988068B0F5805F20D1AA
:103E7000FFE70298806A01900298006900280CD13F
:103E8000FFE70298006840686FF35F20019908809F
:103E90000298816A023181620AE0029800684068F3
:103EA000C0B2019908800298816A01318162FFE7FE
:103EB00019E002980069002809D1FFE7029800681C
:103EC000406802998A6A531C8B6210700AE002985B
:103ED0000068406800F07F0002998A6A531C8B6278
:103EE0001070FFE7FFE70298C18D0139C185080412
:103EF00000281DD1FFE702980068C16821F0200169
:103F0000C16002980068C16821F48071C1600298A4
:103F10000068416921F0010141610298202180F887
:103F20003A100298FFF7DEF900208DF80F0007E045
:103F300000208DF80F0003E002208DF80F00FFE74E
:103F40009DF80F0004B080BD70B5B8B00146379041
:103F500037980068006920F44050379A1368D26897
:103F600010431861379882680369D0F814C0C0699B
:103F70001A4342EA0C021043369037980068C06832
:103F800049F20C629043369A1043379A1268D06017
:103F900037980068406920F44070379A1368926936
:103FA000104358613798C069B0F5004F359140F023
:103FB0000081FFE73798006841F20001C4F2010177
:103FC000884209D0FFE73798006841F20041C4F207
:103FD0000101884276D1FFE7FEF7A2F94FF0190EF2
:103FE00000FB0EF0379949684900B0FBF1F048F248
:103FF0001F51C5F2EB11A0FB01026FF00F0303EAA2
:104000005202CDF8D0E0339132903192FEF788F928
:1040100034994843379A52685200B0FBF2F030901E
:10402000FEF77EF934994843379A52685200B0FB44
:10403000F2F0339AA0FB02035B094FF0640EDDF847
:10404000C0C003FB1EC34FF0320C0CEBC303A3FB39
:104050000234F82505EA5414319D05EB44042F90F1
:10406000CDF8B8E0CDF8B4C02C932B94FEF758F9F6
:1040700034994843379A52685200B0FBF2F02A90C4
:10408000FEF74EF934994843379A13685268520044
:10409000B0FBF2F0339AA0FB020C4FEA5C1CDDF897
:1040A000B8E02A9C0CFB1E4C2D9C04EBCC0CACFB0A
:1040B00002C5C5F342152B9E35449D602990CDF86D
:1040C000A0C075E0FEF718F94FF0190E00FB0EF0D6
:1040D000379949684900B0FBF1F048F21F51C5F229
:1040E000EB11A0FB01026FF00F0303EA5202CDF8BF
:1040F0009CE0269125902492FEF7FEF827994843EC
:10410000379A52685200B0FBF2F02390FEF7F4F8B1
:1041100027994843379A52685200B0FBF2F0269A2A
:10412000A0FB02035B094FF0640EDDF88CC003FBBB
:104130001EC34FF0320C0CEBC303A3FB0234F82573
:1041400005EA5414249D05EB44042290CDF884E044
:10415000CDF880C01F931E94FEF7CEF827994843F0
:10416000379A52685200B0FBF2F01D90FEF7C4F887
:1041700027994843379A136852685200B0FBF2F00F
:10418000269AA0FB020C4FEA5C1CDDF884E01D9C23
:104190000CFB1E4C209C04EBCC0CACFB02C5C5F305
:1041A00042151E9E35449D601C90CDF86CC0FFE703
:1041B000FCE03798006841F20001C4F20101884236
:1041C00009D0FFE73798006841F20041C4F20101CD
:1041D000884275D1FFE7FEF7A3F84FF0190E00FBF8
:1041E0000EF0379949688900B0FBF1F048F21F5191
:1041F000C5F2EB11A0FB01026FF00F0303EA5202BC
:10420000CDF868E0199118901792FEF789F81A997D
:104210004843379A52689200B0FBF2F01690FEF7CE
:104220007FF81A994843379A52689200B0FBF2F02F
:10423000199AA0FB02035B094FF0640EDDF858C029
:1042400003FB1EC34FF0320C0CEB0313A3FB023431
:10425000F02505EA5414179D2C441590CDF850E034
:10426000CDF84CC012931194FEF75AF81A994843AE
:10427000379A52689200B0FBF2F01090FEF750F8B7
:104280001A994843379A136852689200B0FBF2F0CB
:10429000199AA0FB020C4FEA5C1CDDF850E0109C60
:1042A0000CFB1E4C139C04EB0C1CACFB02C5C5F3B1
:1042B0004315119E35449D600F90CDF838C074E0D1
:1042C000FEF71AF84FF0190E00FB0EF03799496807
:1042D0008900B0FBF1F048F21F51C5F2EB11A0FBD1
:1042E00001026FF00F0303EA5202CDF834E00C91A3
:1042F0000B900A92FEF700F80D994843379A5268DE
:104300009200B0FBF2F00990FDF7F6FF0D994843DB
:10431000379A52689200B0FBF2F00C9AA0FB0203AD
:104320005B094FF0640EDDF824C003FB1EC34FF0A1
:10433000320C0CEB0313A3FB0234F02505EA5414F2
:104340000A9D2C440890CDF81CE0CDF818C00593C8
:104350000494FDF7D1FF0D994843379A52689200B3
:10436000B0FBF2F00390FDF7C7FF0D994843379A71
:10437000136852689200B0FBF2F00C9AA0FB020C9A
:104380004FEA5C1CDDF81CE0039C0CFB1E4C069CF9
:1043900004EB0C1CACFB02C5C5F34315049E35446D
:1043A0009D600290CDF804C0FFE7FFE738B070BD14
:1043B00084B001460290029890F8390021280091BB
:1043C00042D1FFE702988068B0F5805F1AD1FFE71D
:1043D0000298006A0190019800886FF35F200299AB
:1043E0000968486002980069002805D1FFE7029833
:1043F000016A0231016204E00298016A013101623E
:10440000FFE708E00298016A4A1C026208780299F4
:1044100009684860FFE70298C18C0139C18408042B
:1044200000280DD1FFE702980068C16821F08001E3
:10443000C16002980068C16841F04001C160FFE7B7
:1044400000208DF80F0003E002208DF80F00FFE739
:104450009DF80F0004B0704770B58AB0DDF838C021
:104460009E4614460D460646089007918DF81B207F
:104470000593CDF810C0CDF80CE00294019500969C
:10448000FFE708980068006807990840401AB0FAEA
:1044900080F040099DF81B10884233D1FFE70E9849
:1044A000013000282DD0FFE70E9800280BD0FFE741
:1044B000FDF748FDDDF814E0A0EB0E00DDF838E074
:1044C00070451DD9FFE708980068C16821F4D071D4
:1044D000C16008980068416921F0010141610898B4
:1044E000202180F83910089880F83A10FFE70898E2
:1044F000002180F83810FFE703208DF8270005E041
:10450000FFE7BEE700208DF82700FFE79DF82700B2
:104510000AB070BD80B582B00020019040F27051A9
:10452000C2F2000100900846FEF700FB00980190DF
:10453000FFE740F27050C2F20000FEF7E1FA2028D7
:104540000AD0FFE70198013001900198B0F1FF3FD8
:1045500001D9FFE700E0ECE700200190FFE740F21F
:104560007050C2F2000040F63F01C2F20001012289
:10457000FEF750FE00280AD0FFE7019801300190B5
:104580000198B0F1FF3F01D9FFE700E0E7E702B093
:1045900080BD000080B582B00020019040F2B05094
:1045A000C2F20000FEF7C2FAFFE740F2B050C2F2DA
:1045B0000000FEF7A5FA20280AD0FFE70198013095
:1045C00001900198B0F1FF3F01D9FFE700E0ECE76F
:1045D00000200190FFE740F2B050C2F2000040F628
:1045E0004001C2F200010122FEF714FE00280AD0A9
:1045F000FFE70198013001900198B0F1FF3F01D928
:10460000FFE700E0E7E740F2B050C2F200000168C7
:104610006FF020020A6000686FF00801016002B0CC
:1046200080BD0000FFE7FEE783B0014601900198DE
:104630000028009104D1FFE76FF00500029008E028
:10464000019840F63021C2F200010860002002907B
:10465000FFE7029803B0704785B00A46034603900F
:104660008DF80B10039804280192009304D3FFE700
:104670006FF00500049014E0039840F6E041C2F2A8
:10468000000108609DF80B0040F2B801C2F2000181
:10469000087040F6E840C2F2000000210160049179
:1046A000FFE7049805B0704780B58AB00A46034614
:1046B000089007910898079908449028039202935C
:1046C00004D3FFE76FF00500099045E040F6E040B5
:1046D000C2F200000068002831D1FFE707980528E2
:1046E00004D3FFE76FF00500099035E040F638206D
:1046F000C2F200000068002804D1FFE76FF0040058
:10470000099029E0FF208DF81000AA208DF81100F3
:1047100027208DF8120008988DF813000898000AD9
:104720008DF8140040F63820C2F20000006804A999
:104730000522019008461146019A904703E06FF068
:104740000500099008E0089840F6E441C2F2000133
:10475000086000200990FFE709980AB080BD0000BA
:1047600083B00146019001980028009104D1FFE731
:104770006FF00500029008E0019840F63421C2F283
:104780000001086000200290FFE7029803B0704724
:1047900080B58AB001468DF8270040F63420C2F279
:1047A000000000680028049101D1FFE792E09DF825
:1047B000270040F6E841C2F200010A68531C0B6072
:1047C00040F6DD31C2F20001885440F6E040C2F20A
:1047D0000000006800286DD1FFE740F6DD30C2F22E
:1047E00000000078552811D0FFE740F6E840C2F2FB
:1047F0000000016801390160026840F6DD30C2F254
:104800000000411CFBF711FD039063E040F6E84017
:10481000C2F2000000680B284BD3FFE740F6DD3002
:10482000C2F200000A21029000F056FE8DF8170037
:104830009DF81700029991F80AE0704511D0FFE742
:1048400040F6E840C2F200000168013901600268E8
:1048500040F6DD30C2F20000411CFBF7E6FC01909F
:1048600038E040F6DD30C2F200008178C27841EADB
:104870000221ADF818100179427941EA0221ADF820
:104880001A108179C27941EA0221ADF81C10017A2F
:10489000427A41EA0221ADF81E10407806A90422AE
:1048A000FCF728FC40F6E840C2F20000002101605D
:1048B000FFE7FFE740F6E840C2F200000068B0F50D
:1048C000807F07D1FFE740F6E840C2F200000021F8
:1048D0000160FFE70AB080BD83B0014601900198F6
:1048E0000028009104D1FFE76FF00500029008E076
:1048F000019840F63821C2F20001086000200290C1
:10490000FFE7029803B0704780B500F097FE00F013
:10491000E7FE00F015FF00F043FF00F075FF80BDDB
:1049200080B500F099FE00F0E7FE00F015FF00F002
:1049300047FF00F073FF00F089FF80BD80B500F0F5
:10494000ABFE80BD80B588B001460790069102F0AD
:1049500053FB40F23810C2F2000069464860032061
:10496000086044F6D110C0F600004AF26F71C0F63C
:10497000000196224FF0000E7346CDF814E003F0CC
:1049800021FD40F26811C2F200016A465160022125
:10499000116044F66D31C0F600014AF27C72C0F637
:1049A00000024FF480730490084611461A46059B96
:1049B00003F008FD40F26C51C2F200010968039057
:1049C000084602F0D7FC02F043FB08B080BD0000AF
:1049D00080B592B0014611900020ADF842000691DA
:1049E000FFE702F009FB40F2387EC2F2000EBEF88B
:1049F00000E04FEA0E4EBEF1000F40F19080FFE75D
:104A000000200A9009900890079040F27051C2F27D
:104A1000000107AA059008461146FCF78DFC059891
:104A20008DF82F00FFE79DF82F0002281BDCFFE721
:104A300040F23C70C2F2000000689DF82F1007AAF7
:104A400002EB810100220492049B03F0F1F99DF82E
:104A50002F100CAA42F82100FFE79DF82F0001302B
:104A60008DF82F00DFE740F23C10C2F20000006832
:104A700007A90C3100220392039B03F0D9F90F9090
:104A80000C9801281CD1FFE70D98012818D1FFE7E9
:104A90000E98012814D1FFE740F27050C2F20000D6
:104AA0004AF2EE61C0F6000101F02EF840F26C10FF
:104AB000C2F200000068012102F066FF02900AE0E5
:104AC00040F27050C2F200004AF24B61C0F60001A1
:104AD00001F01AF8FFE70F98012814D1FFE740F220
:104AE0007050C2F200004AF21671C0F6000101F0E7
:104AF0000BF840F26C10C2F200000068022102F0D4
:104B000043FF01900AE040F27050C2F200004AF206
:104B10007061C0F6000100F0F7FFFFE720E0BDF88C
:104B200042000130ADF84200BDF8420048F21F518A
:104B3000C5F2EB11A0FB01129209C82302FB13007E
:104B4000002800910BD1FFE740F27050C2F2000044
:104B50004AF23E71C0F6000100F0D6FFFFE7FFE722
:104B600002F076FA022002F0C9FB3AE780B590B075
:104B700001460F900691FEF713FDFEF783FE00201D
:104B80005021FFF769FD43F6B501C0F6000105901D
:104B90000846FFF7A1FE43F63D11C0F60001049060
:104BA0000846FFF7DDFD45F6C501C0F6000103909C
:104BB0000846FFF739FD0290FBF702FFFFE702F01E
:104BC0001BFA40F2F050C2F2000040F64101C2F27E
:104BD000000196221423FEF757FA002808D1FFE7B8
:104BE00040F64100C2F200009621FBF785FFFFE787
:104BF00040F26410C2F20000006840F27011C2F28C
:104C00000001143100220192019B03F011F90128E7
:104C10000BD1FFE740F27050C2F200004AF2C161CE
:104C2000C0F6000100F070FF0AE040F27050C2F2DE
:104C300000004AF22161C0F6000100F065FFFFE7C5
:104C4000FCF742F94FF0000ECDF820E0FFE708989E
:104C5000022841DCFFE70898002807D1FFE740F26F
:104C60004010C2F20000006A079017E0089801287F
:104C700007D1FFE740F24010C2F200004069079000
:104C80000BE00898022807D1FFE740F24010C2F27B
:104C9000000080680790FFE7FFE7FFE79DED070A48
:104CA00008980CA901EB800080ED000A40F2641026
:104CB000C2F200000068089A01EB82010022009213
:104CC000009B03F0B5F8089909AA42F82100FFE714
:104CD000089801300890BAE70998012813D1FFE736
:104CE0000A9801280FD1FFE70B9801280BD1FFE7A5
:104CF00040F27050C2F200004AF29561C0F6000125
:104D000000F002FF0AE040F27050C2F200004AF2E6
:104D1000F851C0F6000100F0F7FEFFE702F098F945
:104D2000642002F0EBFA4AE782B001460190019854
:104D30000022C4F2201202604FF080424260002242
:104D4000C4F2482282604FF07E52C2604FF47A7201
:104D5000826140F6B832426100220261009102B0E5
:104D6000704700002DE9F04F95B00DF1380CDDF8DB
:104D700090E0B0EE401AF0EE601A239C229D219E36
:104D8000209FDDF87C80DDF878909A4693460C9061
:104D900008460B900C980A900C9813908DF84B10C5
:104DA0008DF84A2011938CED000B8DF837E01399A4
:104DB0009DF84B200A709DF84A204A70119A4A606B
:104DC0001E9A8A601F9ACA60209A0A61219A4A61D3
:104DD000229A8A61239ACA619CED000B81ED080B2F
:104DE0009DF8372081F8282008468DED081B079490
:104DF000069505960497CDF80C80CDF80890CDF86F
:104E000004A0CDF800B015B0BDE8F08F70B582B049
:104E10000146019001980822026040F21402C2F299
:104E200000021368D2F804C0D2F808E0D46815690B
:104E30005669866145610461C0F80CE0C0F808C09D
:104E400043609269C26140F23002C2F2000213680C
:104E5000D2F804C0D2F808E0D468156956694663F0
:104E60000563C462C0F828E0C0F824C003629269F8
:104E7000826340F24C02C2F200021368D2F804C00E
:104E8000D2F808E0D468156956690665C56484647B
:104E9000C0F844E0C0F840C0C3639269426540F284
:104EA0006802C2F200021368D2F804C0D2F808E027
:104EB000D46815695669C66685664466C0F860E0C0
:104EC000C0F85CC083659269026740F28402C2F256
:104ED00000021368D2F804C0D2F808E0D46815695B
:104EE0005669C0F88860C0F88450C0F88040C0F8A7
:104EF0007CE0C0F878C043679269C0F88C2040F22B
:104F0000C802C2F200021368D2F804C0D2F808E066
:104F1000D46815695669C0F80461C0F80051C0F83A
:104F2000FC40C0F8F8E0C0F8F4C0C0F8F030926976
:104F3000C0F8082140F2E402C2F200021368D2F87D
:104F400004C0D2F808E0D46815695669C0F8206139
:104F5000C0F81C51C0F81841C0F814E1C0F810C1E5
:104F6000C0F80C319269C0F8242140F20012C2F25C
:104F700000021368D2F804C0D2F808E0D4681569BA
:104F80005669C0F83C61C0F83851C0F83441C0F8E7
:104F900030E1C0F82CC1C0F828319269C0F8402136
:104FA00040F21C12C2F200021368D2F804C0D2F818
:104FB00008E0D46815695669C0F85861C0F85451C2
:104FC000C0F85041C0F84CE1C0F848C1C0F84431C5
:104FD0009269C0F85C216FF00202C0F860216FF0A6
:104FE0000102C0F864214FF0FF32C0F868210022AE
:104FF000C0F86C210123C0F870310223C0F874316D
:105000000323C0F87831D0F87831C0F87C31D0F87B
:105010007831C0F88031D0F87831C0F88431D0F8D8
:105020007831C0F88831D0F87431C0F88C31D0F8BC
:105030006C31C0F89031D0F86C31C0F89431D0F8B0
:105040007831C0F89831D0F87831C0F89C31D0F878
:105050007831C0F8A031D0F87431C0F8A431D0F85C
:105060007431C0F8A831D0F86C31C0F8AC31D0F848
:105070006C31C0F8B031D0F87831C0F8B431D0F824
:105080007431C0F8B831D0F87431C0F8BC31D0F800
:105090007031C0F8C031D0F86C31C0F8C431D0F8EC
:1050A0006831C0F8C831D0F86431C0F8CC31D0F8DC
:1050B0007431C0F8D031D0F87431C0F8D431D0F8A0
:1050C0007031C0F8D831D0F86C31C0F8DC31D0F88C
:1050D0006831C0F8E031D0F86431C0F8E431D0F87C
:1050E0006431C0F8E831D0F87031C0F8EC31D0F854
:1050F0007031C0F8F031D0F86C31C0F8F431D0F82C
:105100006431C0F8F831D0F86431C0F8FC31D0F81F
:105110006431C0F80032D0F86031C0F80432D0F801
:105120006C31C0F80832D0F86C31C0F80C32D0F8CD
:105130006C31C0F81032D0F86431C0F81432D0F8B5
:105140006031C0F81832D0F86031C0F81C32D0F8A5
:105150006031C0F82032D0F86C31C0F82432D0F879
:105160006831C0F82832D0F86031C0F82C32D0F85D
:105170006031C0F83032D0F86031C0F83432D0F845
:105180006031C0F83832D0F86031C0F83C32D0F825
:105190007831C0F84032D0F87831C0F84432D0F8D5
:1051A0007831C0F84832D0F87831C0F84C32D0F8B5
:1051B0007431C0F85032D0F86C31C0F85432D0F8A5
:1051C0006C31C0F85832D0F87831C0F85C32D0F881
:1051D0007831C0F86032D0F87831C0F86432D0F855
:1051E0007431C0F86832D0F87431C0F86C32D0F83D
:1051F0006C31C0F87032D0F86C31C0F87432D0F82D
:105200007831C0F87832D0F87431C0F87C32D0F8F8
:105210007431C0F88032D0F87031C0F88432D0F8E0
:105220006C31C0F88832D0F86831C0F88C32D0F8D0
:105230006431C0F89032D0F87431C0F89432D0F8AC
:105240007431C0F89832D0F87031C0F89C32D0F880
:105250006C31C0F8A032D0F86831C0F8A432D0F870
:105260006431C0F8A832D0F86431C0F8AC32D0F85C
:105270007031C0F8B032D0F87031C0F8B432D0F824
:105280006C31C0F8B832D0F86431C0F8BC32D0F814
:105290006431C0F8C032D0F86431C0F8C432D0F8FC
:1052A0006031C0F8C832D0F86C31C0F8CC32D0F8D8
:1052B0006C31C0F8D032D0F86C31C0F8D432D0F8AC
:1052C0006431C0F8D832D0F86031C0F8DC32D0F8A0
:1052D0006031C0F8E032D0F86031C0F8E432D0F884
:1052E0006C31C0F8E832D0F86831C0F8EC32D0F850
:1052F0006031C0F8F032D0F86031C0F8F432D0F844
:105300006031C0F8F832D0F86031C0F8FC32D0F823
:105310006031C0F80033D0F87831C0F80433D0F8E9
:105320007831C0F80833D0F87831C0F80C33D0F8B1
:105330007831C0F81033D0F87431C0F81433D0F895
:105340006C31C0F81833D0F86C31C0F81C33D0F889
:105350007831C0F82033D0F87831C0F82433D0F851
:105360007831C0F82833D0F87431C0F82C33D0F835
:105370007431C0F83033D0F86C31C0F83433D0F821
:105380006C31C0F83833D0F87831C0F83C33D0F8FD
:105390007431C0F84033D0F87431C0F84433D0F8D9
:1053A0007031C0F84833D0F86C31C0F84C33D0F8C5
:1053B0006831C0F85033D0F86431C0F85433D0F8B5
:1053C0007431C0F85833D0F87431C0F85C33D0F879
:1053D0007031C0F86033D0F86C31C0F86433D0F865
:1053E0006831C0F86833D0F86431C0F86C33D0F855
:1053F0006431C0F87033D0F87031C0F87433D0F82D
:105400007031C0F87833D0F86C31C0F87C33D0F804
:105410006431C0F88033D0F86431C0F88433D0F8F8
:105420006431C0F88833D0F86031C0F88C33D0F8DC
:105430006C31C0F89033D0F86C31C0F89433D0F8A8
:105440006C31C0F89833D0F86431C0F89C33D0F890
:105450006031C0F8A033D0F86031C0F8A433D0F880
:105460006031C0F8A833D0F86C31C0F8AC33D0F854
:105470006831C0F8B033D0F86031C0F8B433D0F838
:105480006031C0F8B833D0F86031C0F8BC33D0F820
:105490006031C0F8C033D0F86031C0F8C433C0F810
:1054A0009020C0F89420C0F89820C0F8B820C0F828
:1054B0009C20C0F8A020C0F8A420C0F8A820C0F804
:1054C000CC20009102B070BD82B0014601900198DD
:1054D000009102B07047000086B00A46034605906E
:1054E000049100208DF80B00039001920093FFE7D8
:1054F0000398049988420DD2FFE705980399405C10
:105500009DF80B1008448DF80B00FFE7039801305D
:105510000390EDE79DF80B0006B0704782B001469E
:105520008DF807009DF90700002800910FDBFFE7C9
:105530009DF9070000F01F01012202FA01F1400964
:105540004EF20012CEF2000242F82010FFE702B045
:10555000704700004EF60C50CEF200000068C0F319
:105560000220704784B00A4603468DF80F0002916E
:105570009DF90F000028019200930ADBFFE70298D3
:1055800000019DF90F104EF20042CEF20002885445
:105590000BE0029800019DF80F1001F00F014EF68C
:1055A0001452CEF200028854FFE704B070470000A6
:1055B00084B00A4603468DF80F0002919DF90F0052
:1055C0000028019200930ADBFFE7029800019DF991
:1055D0000F104EF20042CEF2000288540BE0029807
:1055E00000019DF80F1001F00F014EF61452CEF29B
:1055F00000028854FFE704B07047000084B0014601
:105600000390039800F0070001904EF60C50CEF284
:10561000000002680292029A4FF6FF031A400292BB
:10562000029A019B42EA03220023C0F2FA531A4372
:105630000292029A0260009104B0704780B5032084
:105640000421002202F008FB40F23C71C2F200018A
:10565000086080BD0000000080B588B06846012168
:10566000816142F21072426100230361C260836073
:1056700040F6B8324260036040F67010C2F200009B
:105680009FED030B0791079AFFF76CFB08B080BDF5
:10569000000000000000000080B588B068460121CD
:1056A000816142F21072426100230361C260836033
:1056B00040F6B8324260036040F60020C2F20000BB
:1056C00003229FED050B07911146079AFFF74AFB4E
:1056D00008B080BD00BF00BF000000000000000057
:1056E00080B503200421002202F0B6FA40F2407196
:1056F000C2F20001086080BD80B588B06846012113
:10570000816142F21072426100230361C2608360D2
:1057100040F6B8324260036040F6A010C2F20000CA
:1057200002229FED050B07911146079AFFF71AFB1E
:1057300008B080BD00BF00BF0000000000000000F6
:1057400080B501200421002202F086FA40F23C11CB
:10575000C2F20001086080BD80B588B068460121B2
:10576000816142F21072426100230361C260836072
:1057700040F6B8324260036040F64010C2F20000CA
:1057800003229FED050B07911146079AFFF7EAFAEE
:1057900008B080BD00BF00BF000000000000000096
:1057A00080B582B0042000220190019902F054FAE1
:1057B00040F26411C2F20001086002B080BD000036
:1057C00080B588B068460121816142F21072426161
:1057D00000230361C260836040F6B8324260036018
:1057E00040F6D010C2F2000004229FED050B079195
:1057F0001146079AFFF7B6FA08B080BD00BF00BF98
:10580000000000000000000080B502F0A7F840F2A0
:105810006C1EC2F2000ECEF8000080BD80B582B0D2
:1058200040F2A410C2F200000190FFF7EFFA45F237
:10583000C940C0F6000040F20002C0F60002019923
:10584000FAF72EFD009002B080BD000080B540F256
:105850008810C2F20000FFF767FA80BD80B584B0FF
:1058600001468DF80F0004200191FDF71DF99DF808
:105870000F0040F60C11C2F2000108609DF80F0005
:10588000029002984FF47A714843029040F60A1051
:10589000C2F20000012101804EF21000CEF20000A1
:1058A000016841F00201016002994EF2140ECEF23D
:1058B000000ECEF80010016841F00101016004B053
:1058C00080BD000080B582B00146ADF806000091B1
:1058D00002F0D6FD012824D0FFE7BDF8060040F60F
:1058E0000A11C2F20001098888420CDBFFE7BDF80B
:1058F000060040F60A11C2F200010988B0FBF1F07F
:1059000001F0FCFCFFE740F60A10C2F2000000883C
:10591000BDF80610B1FBF0F202FB1010ADF8060066
:10592000FFE7BDF806004FF47A71484300F002F833
:1059300002B080BD87B001460690002002904EF272
:105940001400CEF2000000680190069840F60C1298
:10595000C2F200021268504305904EF21800CEF2D7
:105960000000006804900091FFE74EF21800CEF2AC
:105970000000006803900398049988421ED0FFE756
:1059800003980499884207D2FFE704980399401AC4
:1059900002990844029008E001980399401A04997A
:1059A0000844029908440290FFE703980490029883
:1059B0000599884201D3FFE701E0FFE7D5E707B08B
:1059C0007047000084B00A4603460390029101929A
:1059D0000093FFE741F20000C4F2010000684006B6
:1059E000002801D4FFE7F5E79DF80C0041F204011F
:1059F000C4F201010860039804B0704780B586B016
:105A0000FCF7A6FA4FF4A87E08210222072305908E
:105A10007046FEF76FF8A820FFF720FFFDF714FE91
:105A20004FF4E1304FF4E1224FF4165304900499FF
:105A3000FDF7CEFFFBF708F840F26C50C2F2000011
:105A4000694648600120086044F64510C0F6000031
:105A50004AF28D71C0F6000180220023039302F008
:105A6000B1FC029001F07EFE039806B080BD0000FC
:105A700080B590B0B0EE401A01460F908DED0E0A41
:105A80000E988DED061A0591FAF7A8FD41EC120B60
:105A900053EC122B4AF61901C0F600010DF11F005C
:105AA000049003F019F90F99049A0390104602919B
:105AB000FAF7DFFB82B2642302980499FDF7A8FC91
:105AC0000F994AF6CA02C0F6000201900846114634
:105AD00000F002F810B080BD80B588B00A460346D9
