:020000040800F2
:10000000F8420120A5010008D93A00081537000878
:1000100079380008190A0008115300080000000090
:100020000000000000000000000000007146000811
:10003000F911000800000000A13B00086148000819
:10004000BF010008BF010008BF010008BF01000890
:10005000BF010008BF010008BF010008BF01000880
:10006000BF010008BF010008BF010008BF01000870
:10007000BF010008BF010008BF010008BF01000860
:10008000BF010008BF010008BF010008BF01000850
:10009000BF0100081D0A0008BF010008BF010008D9
:1000A000BF010008BF010008BF010008BF01000830
:1000B000BF010008BF010008BF010008BF01000820
:1000C000BF010008BF010008BF010008BF01000810
:1000D000BF01000829520008A9520008BF0100080A
:1000E000BF010008BF010008BF010008BF010008F0
:1000F000BF010008BF010008BF010008BF010008E0
:10010000BF010008BF010008BF010008BF010008CF
:10011000F1490008594A0008BF010008BF01000862
:10012000BF010008BF010008BF010008BF010008AF
:10013000BF010008BF010008BF010008BF0100089F
:10014000BF010008BF010008BF010008BF0100088F
:10015000BF010008BF010008BF010008BF0100087F
:10016000BF010008BF010008BF010008BF0100086F
:10017000BF010008BF010008BF0100080000000027
:10018000BF010008BF010008DFF814D000F0FEFB3B
:1001900000F076F800480047F57B000800F00CFC02
:1001A000F84201200648804706480047FEE7FEE780
:1001B000FEE7FEE7FEE7FEE7FEE7FEE7FEE7FEE717
:1001C00089480008890100082DE9F05F05460020F4
:1001D00092469B4688460646814640241BE02846B8
:1001E00041464746224600F06CFA53465A46C01A2A
:1001F000914110D311461846224600F053FA2D1AA9
:1002000067EB01084F4622460120002100F04AFA20
:1002100017EB00094E41201EA4F10104DFDC484623
:1002200031462A464346BDE8F09F40EA01039B075A
:1002300003D009E008C9121F08C0042AFAD203E05B
:1002400011F8013B00F8013B521EF9D27047D2B2BF
:1002500001E000F8012B491EFBD270470022F6E7AF
:1002600010B513460A4604461946FFF7F0FF20462C
:1002700010BD421C10F8011B0029FBD1801A7047E9
:1002800070B5054C054D03E0206820448047241DCF
:10029000AC42F9D170BD0000C0D50008D4D500082B
:1002A0000B460146184600F02EBA2DE9FE4F804657
:1002B00081EA0300C00F0C46009021F0004123F0BA
:1002C0000045B8EB0200A94105D2404621469046C0
:1002D0001C460B46024623F00040104347D0270D32
:1002E000C7F30A00C3F30A510290401A0190402854
:1002F0006BDAC3F3130040F4801B0098924620B1E0
:100300000023D2EB030A63EB0B0B01985946C0F1B3
:100310004002504600F0C6F906460D465046594682
:10032000019A00F0DEF910EB08006141002487EA31
:10033000115284EAE7731A4340D0009A62B3019ADB
:10034000012A4FEA075215DC001B61EB02014FF056
:10035000004202EA0752CDE90042001C41F580113B
:1003600032462B4600F02CFA03B0BDE8F08F404631
:100370002146F9E7001B61EB0201001C41F58013E7
:1003800000185B412018A2F5001747EB030140EA73
:10039000D570B6196D4111E06D084FEA360645EA91
:1003A000C0754FEA0752001B61EB0201001C41F5CA
:1003B000801149084FEA30000019514132462B465E
:1003C00003B0BDE8F04F00F0ECB900980122400006
:1003D0000023D0EB020263EBE073009821464FEA62
:1003E000E074B8EB000061EB0401E9E783F000433F
:1003F0005BE781F0004158E72DE9FE4F81EA0304F5
:1004000004F0004421F0004100944FF0000B23F071
:10041000004350EA01045ED052EA03045BD0C3F308
:100420000A54C1F30A552C44A4F2F3340194A0FBFE
:100430000254C1F3130141F48011C3F3130343F4D5
:10044000801301FB024400FB034E840A970A44EA2E
:10045000815447EA8357A4FB076802958D0A05FB80
:1004600007854FEA932C04FB0C542705029D4FEAA5
:10047000065847EA1637B5EB08056EEB070C870EF2
:10048000920E47EA811742EA8312A7FB0201B6EBFC
:100490000B0164EB00042B0D43EA0C335E1844EBB4
:1004A0001C50DA465146E7FB0201C5F313044FEA3C
:1004B0000B3343EA14534FEA0432019C43EA060328
:1004C000A4F10C040294009CCDE900B400F078F98A
:1004D00003B0BDE8F08F00200146F9E72DE9F04DAB
:1004E00081EA030404F0004B21F0004514464FF06C
:1004F000000A23F0004150EA050220D054EA01022C
:100500001DD0C5F30A570246C5F31303C1F3130008
:10051000C1F30A5640F4801543F48013A7EB060894
:10052000101BD64608F2FD3873EB050002D308F124
:10053000010801E092185B41B8F1000F03DA0020D6
:100540000146BDE8F08D00204FF480110646844638
:100550000EE0171B73EB050705D3121B63EB0503B6
:1005600006434CEA010C49084FEA300092185B41FF
:1005700050EA0107EDD152EA030012D082EA0400EA
:1005800083EA0501084305D0101BAB4106D20122C6
:10059000002306E000224FF0004302E06FF001026A
:1005A00053101AEB06004CEB085110EB0A0041EB1C
:1005B0000B01BDE8F04D00F0F4B80EB5C10F80EAB4
:1005C000E0700844CA07002140F233438DE80E0072
:1005D0000A460B4600F0F4F803B000BD70B5C1F355
:1005E0000A5201F000450024C1F3130140F2FF3329
:1005F00041F480119A4201DA002070BD40F2334389
:100600009A42A2F2334203DC524200F05AF800E070
:1006100090402C43F1D0404270BD00F0004230F0D9
:1006200000400AD0C10D01F56071C0F3160042EA26
:100630000151C2084007114370470020014670472E
:1006400001F0004330B421F0004150EA010206D02D
:100650000A0DA2F56072C1F31301002A02DC30BC5E
:1006600000207047440F44EAC104C100E01830BCC8
:1006700000EBC25000F05EB830B50B4601460020DA
:100680002022012409E021FA02F59D4205D303FA54
:1006900002F5491B04FA02F52844151EA2F10102D5
:1006A000F1DC30BD202A04DB203A00FA02F1002000
:1006B00070479140C2F1200320FA03F319439040A0
:1006C0007047202A04DB203A21FA02F0002170470B
:1006D00021FA02F3D040C2F12002914008431946AA
:1006E0007047202A06DBCB17203A41FA02F043EA92
:1006F000E07306E041FA02F3D040C2F120029140DB
:100700000843194670472DE9F041074615460E4645
:1007100010200CF0C5FC04000AD06760C4E9026533
:1007200000F046F90168216004600020BDE8F08116
:100730000120FBE70029A8BF7047401C490008BF03
:1007400020F00100704710B4B0FA80FC00FA0CF001
:1007500050EA010404BF10BC704749B1CCF1200439
:1007600021FA04F411FA0CF118BF012121430843C6
:10077000A3EB0C01CB1D4FEA00614FEA102042BFF2
:10078000002010BC704700EBC35010440029A4BFE8
:1007900010BC7047401C490008BF20F0010010BC8D
:1007A000704710B5141E73F1000408DA401C41F1C3
:1007B000000192185B411A4301D120F0010010BDE5
:1007C0002DE9F04D92469B4611B1B1FA81F202E05B
:1007D000B0FA80F220329046FFF764FF04460F46DD
:1007E00040EA0A0041EA0B0153465A46084313D037
:1007F000114653EA010019D0C8F140025046FFF7F4
:1008000060FF05460E46504659464246FFF74AFFEE
:10081000084305D0012004E020463946BDE8F08DAC
:100820000020054346EAE0762C4337430A986305E7
:10083000E40AA0EB08000022FD0A44EA47540A300B
:1008400002D500200146E9E7010510196941DDE9FB
:10085000084500196941BDE8F04DA2E770B521F0E7
:10086000004303430CD0C1F30A550024D5EB040523
:1008700064EB0403D617AD1AB34102DB0020014636
:1008800070BD201841EB025170BD2DE9F04D0023E1
:100890001A461B1A8A4103DB00200146BDE8F08D91
:1008A000C1F30A52C1F3130141F480154FF0000B5C
:1008B000D10702D100186D41521E0027044640F2B4
:1008C000FF11384601EB620A3E4680460246002090
:1008D0004FF48011FFF7F5FEC2197141BB1846EBCA
:1008E0000100B4EB030C75EB000C04D3E41A65EBC8
:1008F000000517460E46241908F101006D41804697
:100900003428E3DDF91946EB0600091BA84103D2A0
:100910004FF0FF32134601E0002213461BEB0700A5
:1009200046EB0A51BDE8F04DFFF73BBFC1F30A5259
:10093000C1F3130140F2FF3341F480119A4202DA0D
:1009400000200146704740F233439A42A2F23342FC
:1009500002DC5242FFF7B5BEFFF7A4BE30B5041E5D
:1009600071F1000404DB4FF00044404264EB0101EC
:10097000141E73F1000405DB1C464FF00043524285
:1009800063EB0403994208BF904230BD064C074D0B
:1009900006E0E06840F0010394E80700984710344F
:1009A000AC42F6D3FFF7F4FBA0D50008C0D5000891
:1009B00000487047080000202DE9F0410646FFF787
:1009C000F7FF8046454613E016B1E068B0420ED10D
:1009D00020682860D4E90101D8F8007088472046D3
:1009E0000CF036FBD8F80000B842EBD100E0254609
:1009F0002C68002CE8D1BDE8F0810EB540F23341FF
:100A000002910021CDE900110A460B46FFF7D8FEFE
:100A100003B000BD70470000FFE7FEE780B58CB073
:100A200000200B900A90099008900790069005907E
:100A300004900390029002A8031D40F6C430C2F255
:100A40000000012105AA00F0CBFE09998DF80B10DA
:100A500008990229009004D1FFE701208DF80A00CF
:100A600003E000208DF80A00FFE70698ADF80800C3
:100A700040F28860C2F200004DF2A241C0F60001CF
:100A800007F0ECF9BDF808009DF80A109DF80B205E
:100A90000DF1080E0EF1040307F0E8F8BDF80800A8
:100AA00041F23501884225D1FFE740F23010C2F211
:100AB000000000783F281DDCFFE700200190FFE7E1
:100AC0000198072815DCFFE7019802A9084400797E
:100AD00040F23011C2F200010A78531C0B7040F64C
:100AE0009071C2F200018854FFE701980130019033
:100AF000E6E7FFE740F23010C2F20000007840283D
:100B00002AD1FFE740F69070C2F200000078EE288C
:100B10001AD1FFE740F69070C2F200004078EE284C
:100B200012D1FFE740F69070C2F2000090F83E004C
:100B3000FF2809D1FFE740F69070C2F2000090F85C
:100B40003F00FF2807D0FFE740F23010C2F200005C
:100B500000210170FFE7FFE70CB080BD80B502F017
:100B6000DBFD00F02BF840F6C430C2F2000001F0CB
:100B70008DF800280BD0FFE740F28860C2F2000039
:100B80004DF25F41C0F6000107F068F9FFE740F65B
:100B9000C430C2F20000102100F050FC00280BD03D
:100BA000FFE740F28860C2F200004DF23A41C0F621
:100BB000000107F053F9FFE780BD000080B58AB05F
:100BC000002005900690012107910090019002906D
:100BD0004FF470420392049008910E20099040F661
:100BE000C430C2F20000694600F01CFD00280BD0A2
:100BF000FFE740F28860C2F200004DF21241C0F6F9
:100C0000000107F02BF9FFE7012005900021069174
:100C100007914FF2FF02009241F2350201920291D8
:100C20000391049008900E20099040F6C430C2F25F
:100C30000000694600F0F6FC00280BD0FFE740F208
:100C40008860C2F200004DF21241C0F6000107F0C8
:100C500005F9FFE70AB080BD80B584B00146029077
:100C60000298031D40F6C430C2F2000040F2C852A0
:100C7000C2F200024FF0000C0191614600F0B0FD9D
:100C8000002804D0FFE700208DF80F0036E040F286
:100C9000C850C2F200000169029AD170C0680228EF
:100CA00004D1FFE702980121817003E0029800213E
:100CB0008170FFE740F2C850C2F200000168029A5A
:100CC000118040F28861C2F200014DF2A242C0F6EA
:100CD000000200900846114607F0C0F8029801880B
:100CE000827890F803E0031D08461146724606F02C
:100CF000BDFF009801698DF80F10FFE79DF80F0008
:100D000004B080BD80B58AB00146089000200790ED
:100D1000069005900490039002900190089A128822
:100D200002920490089880780028009103D0FFE791
:100D30000220059002E000200590FFE70898C078A7
:100D4000069000208DF81C000898021D40F6C43063
:100D5000C2F2000002A901AB00F09EFB002804D003
:100D6000FFE700208DF8270017E040F28860C2F20C
:100D700000004DF28341C0F6000107F06FF8BDF8A6
:100D80000800089991F802E0069A0B1D714606F0DA
:100D90006DFF01208DF82700FFE79DF827000AB0BE
:100DA00080BD000082B001468DF807009DF8070065
:100DB00040F69A12C2F20002137803F1010C82F895
:100DC00000C040F6A002C2F20002D05410785528AC
:100DD000009107D0FFE740F69A10C2F20000002110
:100DE000017096E040F69A10C2F2000000780A28DE
:100DF00001DCFFE78DE040F6A000C2F20000407881
:100E0000552842D1FFE740F6A000C2F200008078EA
:100E100001283AD1FFE740F6A000C2F200000179B4
:100E20004279090209B2114400EE101AB8EEC00A64
:100E30009FED391A80EE010A9FED382A20EE020A52
:100E400040F26011C2F2000181ED190A8279C37982
:100E5000120212B21A4400EE102AB8EEC00A80EE56
:100E6000010A20EE020A81ED1A0A027A407A120281
:100E700012B2104400EE100AB8EEC00A80EE010A69
:100E800020EE020A81ED1B0AFFE740F6A000C2F245
:100E900000004078552835D1FFE740F6A000C2F2A7
:100EA0000000807803282DD1FFE740F6A000C2F2B1
:100EB00000000179427941EA022140F26012C2F257
:100EC0000002A2F858108179C37941EA0321A2F8FF
:100ED0005A10017A437A41EA0321A2F85C10817A20
:100EE000C37A41EA0321A2F85E10017B437B41EA09
:100EF0000321A2F86010817BC07B41EA0020A2F8A8
:100F00006200FFE740F69A10C2F200000021017073
:100F1000FFE702B0704700BF000000470000344305
:100F200082B001468DF807009DF8070040F69B123D
:100F3000C2F20002137803F1010C82F800C040F6FF
:100F40009C12C2F20002D05410785528009107D0AC
:100F5000FFE740F69B10C2F200000021017096E00E
:100F600040F69B10C2F2000000780A2801DCFFE77F
:100F70008DE040F69C10C2F200004078552842D126
:100F8000FFE740F69C10C2F20000807801283AD1B9
:100F9000FFE740F69C10C2F2000001794279090295
:100FA00009B2114400EE101AB8EEC00A9FED391ACA
:100FB00080EE010A9FED382A20EE020A40F2E45149
:100FC000C2F2000181ED190A8279C379120212B2CC
:100FD0001A4400EE102AB8EEC00A80EE010A20EE94
:100FE000020A81ED1A0A027A407A120212B2104401
:100FF00000EE100AB8EEC00A80EE010A20EE020AE6
:1010000081ED1B0AFFE740F69C10C2F20000407819
:10101000552835D1FFE740F69C10C2F200008078D9
:1010200003282DD1FFE740F69C10C2F200000179A1
:10103000427941EA022140F2E452C2F20002A2F8EF
:1010400058108179C37941EA0321A2F85A10017A34
:10105000437A41EA0321A2F85C10817AC37A41EA1B
:101060000321A2F85E10017B437B41EA0321A2F831
:101070006010817BC07B41EA0020A2F86200FFE79C
:1010800040F69B10C2F2000000210170FFE702B0A1
:10109000704700BF000000470000344380B592B0A5
:1010A00013468C4686468DF8470010910F9200201B
:1010B0000E900D900C900B9010980A90109806309E
:1010C000099004200C909DF84700503801460F28E5
:1010D0000893CDF81CC0CDF818E0059142D80599C9
:1010E000DFE801F01A081D1122272A2D303336407F
:1010F0004040403934200E9003200C9040200D9049
:1011000001200B902FE03D200E9003200C902E200C
:101110000D9001200B9026E030200E9023E0372028
:101120000E9003200F901EE03A200E9003200F90A7
:1011300019E041200E9016E045200E9013E0492062
:101140000E9010E04D200E900DE051200E900AE020
:1011500055200E9007E040F68870C2F2000000684B
:101160000E9000E046E00F98032805D1FFE703202A
:101170000C9000200B90FFE70C9800281BD0FFE795
:101180000E9840F66451C2F2000101EB40000A994A
:101190000C9A5200FFF749F840F6E041C2F2000114
:1011A00009680E9ADDF830E004901046039171460C
:1011B000039A9047FFE70B9800281BD0FFE70D9894
:1011C00040F66451C2F2000101EB400009990B9A0C
:1011D0005200FFF72AF840F6E041C2F20001096828
:1011E0000D9ADDF82CE00290104601917146019AAB
:1011F0009047FFE712B080BD7047000086B00146FF
:10120000059002200390002004900091FFE70498CD
:101210000D2839DCFFE7039840F69071C2F2000117
:10122000085C8DF80B000398013003900398085C6C
:101230008DF80A000398013003900398085C8DF83C
:1012400009000398013003900398085C8DF80800AA
:101250000398013003909DF80B009DF80A109DF84B
:1012600009209DF8083043EA022242EA014141EA9E
:101270000060019001980599049A41F82200FFE767
:10128000049801300490C2E740F23010C2F200002E
:101290000021017006B0704780B594B00A4603463D
:1012A000119010910D200D9000208DF8330040F624
:1012B0009000C2F2000000886FF39F30ADF83E004E
:1012C000BDF83E0001380E900B920A93FFE70E988E
:1012D00000287CDBFFE70E9840F2C871C2F20001E3
:1012E000085C202864D0FFE70E9840F2C871C2F273
:1012F0000001085C2D2852D0FFE7BDF83E00013800
:101300000E99401A9DF83310401A0A211391129039
:101310001398FFF752F941EC100B12988DED080B62
:10132000FFF74BF941EC110B9DED080B09F0DCFDCB
:101330000E9840F2C871C2F20001085C30388DEDA1
:10134000060BFFF73AF941EC100B9DED061B51EC33
:10135000110B53EC102BFFF74FF841EC100B1098CA
:101360000D9950F82120059010468DED020B01914A
:10137000FFF723F941EC100B9DED021B53EC112BF1
:1013800051EC100BFEF791FF41EC100B51EC100BE0
:10139000FFF724F90599019A41F8220007E0109817
:1013A0000D9950F82120524240F82120FFE709E032
:1013B0000D9801380D90BDF83E000E99401A8DF839
:1013C0003300FFE7FFE70E9801380E907FE7119892
:1013D0004DF2C941C0F6000106F028FD00200E9034
:1013E000FFE70E980D280CDCFFE7119810990E9A74
:1013F00051F8221006F09CFCFFE70E9801300E9089
:10140000EFE7FFE711980068006800F04000012155
:10141000B1EB901F01D0FFE7F4E74DF2C440C0F6F6
:10142000000009F023FA40F6900EC2F2000E0021EF
:10143000AEF80010009014B080BD000086B00A46DF
:10144000034604900391049890F820008DF80B0057
:101450009DF80B0001280192009305D0FFE79DF84D
:101460000B0002280AD1FFE70398049909684A692A
:101470001043486100208DF8170008E00498416A85
:1014800041F48021416201208DF81700FFE79DF8AB
:10149000170006B070470000B0B58CB09C46964669
:1014A0000C4605460A900991089207930A9890F80D
:1014B00020008DF817000A98006880680490099849
:1014C00080680028CDF80CC0CDF808E001940095A4
:1014D00001D1FFE700E0FFE79DF81700012806D0E3
:1014E000FFE79DF81700022840F08F80FFE79DF886
:1014F0001300400700280CD4FFE79DF813000007F5
:10150000002806D4FFE79DF81300C006002873D515
:10151000FFE70498C0F3016006900698032809D3FA
:10152000FFE70A98416A41F40001416201208DF809
:101530002F0073E00698012101FA00F00799086076
:101540000998806800280DD1FFE709980168C068F4
:1015500040EA41500A990968069A01EB0211C1F864
:1015600080010EE0099841688268C06842EAC101C2
:1015700008430A990968069A01EB0211C1F8800133
:10158000FFE7099800690A990968069A01EB0211B8
:10159000C1F884010998007D01280CD1FFE70A9861
:1015A0000068069900EB0110D0F8841141F48071B5
:1015B000C0F88411FFE7089840680A990968069AFC
:1015C00001EB0211C1F88C01089800680A990968BA
:1015D000069A01EB0211C1F888010A980068069981
:1015E00000EB0110D0F8801141F00101C0F880112A
:1015F00000208DF82F0011E00A98416A41F4001193
:10160000416201208DF82F0008E00A98416A41F4F8
:101610008021416201208DF82F00FFE79DF82F0007
:101620000CB0B0BD88B00A460346069005910698F6
:1016300000680390069890F820008DF80B009DF844
:101640000B0001280192009306D0FFE79DF80B00E4
:10165000022840F0B880FFE746F20040C4F20000E4
:1016600003900398D0F8001241F00101C0F8001275
:101670000398D0F8001221F47C51C0F800120598AC
:10168000406A0399D1F8002242EA0020C1F8000222
:101690000598406900F01F00012101FA00F0049054
:1016A00004980399D1F81C2222EA0000C1F81C0218
:1016B0000598C06900281FD1FFE704980399D1F865
:1016C0000C2222EA0000C1F80C0205988188C26849
:1016D000406941EA0241039A02EBC000C0F840129F
:1016E000059801888268406941EA0241039A02EB49
:1016F000C000C0F84412FFE70598C06901281ED158
:10170000FFE704980399D1F80C221043C1F80C02AA
:10171000059881880268406941EA0241039A02EB18
:10172000C000C0F84012059881898268406941EA8A
:101730000241039A02EBC000C0F84412FFE705988B
:101740008069002809D1FFE704980399D1F80422A1
:1017500022EA0000C1F8040207E004980399D1F8D6
:1017600004221043C1F80402FFE70598006900282D
:1017700009D1FFE704980399D1F8142222EA000066
:10178000C1F8140207E004980399D1F81422104319
:10179000C1F81402FFE70598006A012808D1FFE7A5
:1017A00004980399D1F81C221043C1F81C02FFE7EA
:1017B0000398D0F8001221F00101C0F800120020B7
:1017C0008DF81F0008E00698416A41F480214162CB
:1017D00001208DF81F00FFE79DF81F0008B070473B
:1017E000B0B58AB09C4696460C46054608900791CF
:1017F00006920593089890F820008DF813009DF844
:1018000013000128CDF80CC0CDF808E00194009534
:1018100006D0FFE79DF81300022840F0DC80FFE7C8
:101820000798002811D1FFE708980068C068800772
:10183000002809D1FFE70898416A41F4001141628C
:1018400001208DF82700CFE010E0089800680069BB
:101850008007002809D1FFE70898416A41F4001188
:10186000416201208DF82700BEE0FFE7089800687C
:10187000079900EB0110D0F8B00100F004000699C0
:1018800088600698806800280BD1FFE708980068F8
:10189000079900EB0110D0F8B001400D06990860DF
:1018A0000AE008980068079900EB0110D0F8B00131
:1018B000C00806994860FFE708980068079900EBA0
:1018C0000110D0F8B001C0F340000699C860089834
:1018D0000068079900EB0110D0F8B40100F00F0088
:1018E0000699086108980068079900EB0110D0F884
:1018F000B40180B2000A06998861089800680799C7
:1019000000EB0110D0F8B401000C0699486108986A
:101910000068079900EB0110D0F8B801059908702C
:1019200008980068079900EB0110D0F8B801000A88
:101930000599487008980068079900EB0110D0F8E5
:10194000B801000C0599887008980068079900EBA9
:101950000110D0F8B801000E0599C8700898006809
:10196000079900EB0110D0F8BC010599087108989F
:101970000068079900EB0110D0F8BC01000A059936
:10198000487108980068079900EB0110D0F8BC0175
:10199000000C0599887108980068079900EB011000
:1019A000D0F8BC01000E0599C8710798002807D12E
:1019B000FFE708980068C16841F02001C16006E0B7
:1019C00008980068016941F020010161FFE70020EB
:1019D0008DF8270008E00898416A41F480214162AF
:1019E00001208DF82700FFE79DF827000AB0B0BD61
:1019F00080B584B00146029002980028009104D17D
:101A0000FFE701208DF80F00E6E0029890F8200033
:101A1000002804D1FFE7029800F0E2F8FFE70298FF
:101A20000068016821F00201016000F0AFFB019045
:101A3000FFE70298006840688007002817D5FFE795
:101A400000F0A4FBDDF804E0A0EB0E000B280DD3A2
:101A5000FFE70298416A41F4003141620298052192
:101A600080F8201001208DF80F00B5E0E1E7029822
:101A70000068016841F00101016000F087FB0190FE
:101A8000FFE7029800684068C007002817D1FFE709
:101A900000F07CFBDDF804E0A0EB0E000B280DD37A
:101AA000FFE70298416A41F4003141620298052142
:101AB00080F8201001208DF80F008DE0E1E70298FA
:101AC000007E012807D1FFE702980068016841F015
:101AD0008001016006E002980068016821F0800141
:101AE0000160FFE70298407E012807D1FFE70298D6
:101AF0000068016841F04001016006E0029800685A
:101B0000016821F040010160FFE70298807E012812
:101B100007D1FFE702980068016841F020010160E9
:101B200006E002980068016821F020010160FFE7EB
:101B30000298C07E012807D1FFE70298006801687B
:101B400021F01001016006E002980068016841F090
:101B500010010160FFE70298007F012807D1FFE72D
:101B600002980068016841F00801016006E00298EF
:101B70000068016821F008010160FFE70298407FDA
:101B8000012807D1FFE702980068016841F00401CD
:101B9000016006E002980068016821F0040101601C
:101BA000FFE70298016842688368D0F80CC043EAF6
:101BB0000C03D0F810C043EA0C0340691843013A03
:101BC0001043C8610298002141620298012280F806
:101BD00020208DF80F10FFE79DF80F0004B080BDA6
:101BE00080B58EB001460D9000200C900B900A90AD
:101BF000099008900D98006846F20042C4F2000275
:101C0000904205913FD1FFE7FFE70020079043F6A0
:101C10004000C4F20200016841F0007101600068F8
:101C200000F00070079007980490FFE7FFE700209E
:101C3000069043F63000C4F20200016841F0010151
:101C40000160006800F00100069006980390FFE72D
:101C50004FF4C05008900220099001210A910B9086
:101C600009200C900020C4F2020008A900F07CF8C2
:101C70001520002102900191019A00F0F1FA0298DA
:101C800000F0E2FAFFE70EB080BD000080B584B03E
:101C900001460290029890F820000128009132D16C
:101CA000FFE70298022180F820100298006801687E
:101CB00021F00101016000F069FA0190FFE702984C
:101CC00000684068C007002817D0FFE700F05EFA00
:101CD000DDF804E0A0EB0E000B280DD3FFE702981F
:101CE000416A41F4003141620298052180F82010D8
:101CF00001208DF80F000FE0E1E70298002141621A
:101D00008DF80F1008E00298416A41F40021416209
:101D100001208DF80F00FFE79DF80F0004B080BD93
:101D200083B001460190019890F835000228009197
:101D300007D0FFE701988021416501208DF80B0055
:101D40000EE00198052180F83510019800680168BF
:101D500021F001010160FFE700208DF80B00FFE793
:101D60009DF80B0003B0704791B00A4603461090EF
:101D70000F9100200D900C900B900E9009920893FB
:101D8000FFE70E980F2800F2D481FFE70E9801219B
:101D900001FA00F00D900F9800680D9908400C9022
:101DA0000C980D99884240F0BF81FFE70F9840687A
:101DB000022805D0FFE70F984068122826D1FFE7D8
:101DC00010980E996FF0030202EA51010844006A6C
:101DD0000B900E9800F0070080000F2101FA00F030
:101DE0000B9921EA00000B900F9800690E9901F001
:101DF0000701890088400B9908430B900B981099B4
:101E00000E9B02EA530211440862FFE71098006833
:101E10000B900E984000032101FA00F00B9921EA83
:101E200000000B900F98406800F003000E994900E5
:101E300088400B9908430B900B98109908600F98F5
:101E4000406801280FD0FFE70F98406802280AD0A9
:101E5000FFE70F984068112805D0FFE70F9840680A
:101E600012282FD1FFE7109880680B900E98400041
:101E7000032101FA00F00B9921EA00000B900F9862
:101E8000C0680E99490088400B9908430B900B9845
:101E900010998860109840680B900E98012101FA03
:101EA00000F00B9921EA00000B900F984068C0F3F6
:101EB00000100E9988400B9908430B900B981099CD
:101EC0004860FFE71098C0680B900E98400003210F
:101ED00001FA00F00B9921EA00000B900F9880683E
:101EE0000E99490088400B9908430B900B98109964
:101EF000C8600F984068C000002840F11481FFE7D7
:101F0000FFE700200A9043F64400C4F20200016893
:101F100041F480410160006800F480400A900A9812
:101F20000790FFE70E9820F0030043F60801C4F283
:101F3000010140580B900E9800F0030080000F2123
:101F400001FA00F00B9921EA00000B901098002193
:101F5000C4F20201884203D1FFE7002006905EE050
:101F6000109840F20041C4F20201884203D1FFE719
:101F70000120059050E0109840F60001C4F20201E3
:101F8000884203D1FFE70220049042E0109840F617
:101F90000041C4F20201884203D1FFE7032003900D
:101FA00034E0109841F20001C4F20201884203D1EA
:101FB000FFE70420029026E0109841F20041C4F2AD
:101FC0000201884203D1FFE70520019018E0109834
:101FD00041F60001C4F20201884203D1FFE7062066
:101FE00000900AE0109841F60041C4F20201082274
:101FF000884208BF07220092FFE700980190FFE7A0
:1020000001980290FFE702980390FFE7039804907D
:10201000FFE704980590FFE705980690FFE706980C
:10202000C0B20E9901F00301890088400B99084362
:102030000B900B980E9921F0030143F60802C4F2AD
:102040000102885043F60040C4F2010000680B9082
:102050000C980B9921EA00000B900F984068C00380
:10206000002805D5FFE70C980B9908430B90FFE774
:102070000B9843F60041C4F20101086043F60440A6
:10208000C4F2010000680B900C980B9921EA000043
:102090000B900F9840688003002805D5FFE70C9847
:1020A0000B9908430B90FFE70B9843F60441C4F2E9
:1020B0000101086043F60840C4F2010000680B907B
:1020C0000C980B9921EA00000B900F984068C00211
:1020D000002805D5FFE70C980B9908430B90FFE704
:1020E0000B9843F60841C4F20101086043F60C4026
:1020F000C4F2010000680B900C980B9921EA0000D3
:102100000B900F9840688002002805D5FFE70C98D7
:102110000B9908430B90FFE70B9843F60C41C4F270
:1021200001010860FFE7FFE7FFE70E9801300E901E
:1021300027E611B07047000080B585B013468C4685
:1021400086460490ADF80E108DF80D209DF80D0018
:1021500000280293CDF804C0CDF800E005D0FFE7D9
:10216000BDF80E000499886105E0BDF80E0000047A
:1021700004998861FFE705B080BD000042F20000CD
:10218000CEF204000068000C7047000043F6D8301F
:10219000C2F201000068704780B582B043F600408B
:1021A000C4F20200016841F400710160016841F469
:1021B00080610160052000F079F80F2000F006F83A
:1021C000019000F03FF8002002B080BD80B584B0DF
:1021D0000146029040F2A800C2F20000006840F2FE
:1021E000B402C2F2000212784FF47A73B3FBF2F237
:1021F000B0FBF2F0019100F097FD002804D0FFE75A
:1022000001208DF80F0018E002980F280DD8FFE785
:1022100002994FF0FF30002200F022F8029840F2BD
:10222000B801C2F20001086003E001208DF80F0040
:1022300003E000208DF80F00FFE79DF80F0004B0C9
:1022400080BD00007047000080B582B001468DF867
:1022500007009DF90700009105F074FA02B080BDF7
:1022600080B58AB013468C4686468DF827000891C3
:102270000792002006900593CDF810C0CDF80CE031
:1022800005F07CFA06909DF927000699089A079BAD
:102290000290084611461A4601F040FC029901904E
:1022A0000846019905F072FA0AB080BD80B582B087
:1022B000014601900198009105F08EFA02B080BDB0
:1022C00080B588B00A460346069005910698002816
:1022D0000392029304D1FFE701208DF81F0024E14F
:1022E000059843F60041C4F20201096801F00F01AC
:1022F000884212D9FFE7059843F60041C4F2020173
:102300000870086800F00F000599884204D0FFE7C4
:1023100001208DF81F0008E1FFE70698006880079C
:1023200000282AD5FFE7069800684007002809D54D
:10233000FFE743F60800C4F20200016841F4E051EF
:102340000160FFE7069800680007002809D5FFE74D
:1023500043F60800C4F20200016841F460410160E4
:10236000FFE743F60800C4F20200016821F0F00123
:10237000069A926811430160FFE706980068C0075B
:10238000002870D0FFE706984068012811D1FFE7C8
:1023900043F60000C4F20200006800F4003000219F
:1023A000B1EB504F04D1FFE701208DF81F00BCE0D6
:1023B0002CE006984068022805D0FFE706984068A0
:1023C000032811D1FFE743F60000C4F202000068C1
:1023D00000F000700021B1EB506F04D1FFE7012045
:1023E0008DF81F00A1E010E043F60000C4F20200E7
:1023F000006800F002000021B1EB500F04D1FFE7AC
:1024000001208DF81F0090E0FFE7FFE743F608008A
:10241000C4F20200016821F00301069A52681143D8
:102420000160FFF7B3FE0490FFE743F60800C4F233
:102430000200006800F00C0006994968B0EB810FBB
:1024400010D0FFE7FFF7A2FEDDF810E0A0EB0E00D2
:1024500041F2893E704504D3FFE703208DF81F0049
:1024600063E0E2E7FFE7059843F60041C4F20201AA
:10247000096801F00F01884212D2FFE7059843F680
:102480000041C4F202010870086800F00F000599CD
:10249000884204D0FFE701208DF81F0045E0FFE7E8
:1024A00006980068400700280CD5FFE743F60800AF
:1024B000C4F20200016821F4E051069AD268114387
:1024C0000160FFE706980068000700280DD5FFE7C8
:1024D00043F60800C4F20200016821F46041069A44
:1024E000126941EAC2010160FFE700F053F843F6C8
:1024F000080EC4F2020EDEF800E05FFA8EFE4FEA2C
:102500001E1E4DF28831C0F6000111F80E10C840B1
:1025100040F2A801C2F2000108600F20FFF756FE4A
:1025200000218DF81F100190FFE79DF81F0008B0F3
:1025300080BD000040F2A800C2F2000000687047B1
:1025400080B5FFF7F7FF43F6080EC4F2020EDEF87F
:1025500000E0CEF3822E4DF29831C0F6000111F862
:102560000E10C84080BD000080B5FFF7E3FF43F6C2
:10257000080EC4F2020EDEF800E01FFA8EFE4FEAEB
:102580005E3E4DF29831C0F6000111F80E10C840C1
:1025900080BD000080B586B00020059004900390B7
:1025A000029043F60800C4F20200006800F00C003C
:1025B00001460028019108D0FFE7019804280AD0BD
:1025C000FFE7019808280CD04FE042F20040C0F22B
:1025D000F40002904FE041F20020C0F27A00029035
:1025E00049E043F60400C4F20200016801F03F0133
:1025F000059100684002002813D5FFE743F6040068
:10260000C4F202000068C0F3881041F20021C0F259
:102610007A01A0FB0101059A0023FDF7D5FD049086
:1026200012E043F60400C4F202000068C0F3881010
:1026300042F20041C0F2F401A0FB0101059A00231F
:10264000FDF7C2FD0490FFE743F60400C4F2020068
:10265000006800F44030022101EBD0300390049870
:102660000399B0FBF1F0029005E042F20040C0F2A5
:10267000F4000290FFE7029806B080BD80B588B0F4
:102680000146069006980028029104D1FFE7012038
:102690008DF81F0027E306980068C007002800F0A7
:1026A000AB80FFE743F60800C4F20200006800F0C8
:1026B0000C00042813D0FFE743F60800C4F2020020
:1026C000006800F00C0008281FD1FFE743F6040063
:1026D000C4F2020000684002002816D5FFE743F666
:1026E0000000C4F20200006800F400300021B1EBE9
:1026F000504F09D0FFE706984068002804D1FFE753
:1027000001208DF81F00EEE275E0FFE706984068B3
:10271000B0F5803F09D1FFE743F60000C4F20200A4
:10272000016841F48031016020E006984068B0F50E
:10273000A02F0DD1FFE743F60000C4F202000168AC
:1027400041F480210160016841F4803101600CE0B6
:1027500043F60000C4F20200016821F480310160F8
:10276000016821F480210160FFE7FFE7FFE7069899
:10277000406800281FD0FFE7FFF708FD0590FFE73E
:1027800043F60000C4F20200006800F400300021AB
:10279000B1EB504F0ED1FFE7FFF7F8FCDDF814E086
:1027A000A0EB0E00652804D3FFE703208DF81F007F
:1027B00099E2E5E71EE0FFF7E9FC0590FFE743F645
:1027C0000000C4F20200006800F400300021B1EB08
:1027D000504F0ED0FFE7FFF7D9FCDDF814E0A0EB77
:1027E0000E00652804D3FFE703208DF81F007AE26E
:1027F000E5E7FFE7FFE7FFE70698006880070028A6
:1028000040F19B80FFE743F60800C4F20200006835
:1028100010F00C0F13D0FFE743F60800C4F20200DB
:10282000006800F00C0008282CD1FFE743F60400F4
:10283000C4F2020000684002002823D4FFE743F6F8
:102840000000C4F20200006800F002000021B1EBB9
:10285000500F09D0FFE70698C068012804D0FFE7B1
:1028600001208DF81F003EE243F60000C4F2020092
:10287000016821F0F801069A126941EAC20101607B
:10288000FFE759E00698C068002830D0FFE7002035
:10289000C4F2472001210160FFF778FC0590FFE7B3
:1028A00043F60000C4F20200006800F002000021BC
:1028B000B1EB500F0ED1FFE7FFF768FCDDF814E035
:1028C000A0EB0E00032804D3FFE703208DF81F00C0
:1028D00009E2E5E743F60000C4F20200016821F0D6
:1028E000F801069A126941EAC201016023E0002062
:1028F000C4F2472000210160FFF748FC0590FFE784
:1029000043F60000C4F20200006800F0020000215B
:10291000B1EB500F0ED0FFE7FFF738FCDDF814E005
:10292000A0EB0E00032804D3FFE703208DF81F005F
:10293000D9E1E5E7FFE7FFE7FFE706980068000752
:10294000002850D5FFE706984069002825D0FFE70A
:1029500040F68060C4F2472001210160FFF716FCB9
:102960000590FFE743F67400C4F20200006800F02F
:1029700002000021B1EB500F0ED1FFE7FFF706FC7C
:10298000DDF814E0A0EB0E00032804D3FFE70320DA
:102990008DF81F00A7E1E5E724E040F68060C4F26F
:1029A000472000210160FFF7F1FB0590FFE743F6A8
:1029B0007400C4F20200006800F002000021B1EBD4
:1029C000500F0ED0FFE7FFF7E1FBDDF814E0A0EBBE
:1029D0000E00032804D3FFE703208DF81F0082E1D7
:1029E000E5E7FFE7FFE7069800684007002840F1A9
:1029F000D680FFE700208DF8130043F64000C4F2B4
:102A000002000068C000002816D4FFE7FFE700209E
:102A1000039043F64000C4F20200016841F0805187
:102A20000160006800F08050039003980190FFE778
:102A300001208DF81300FFE747F20000C4F2000008
:102A40000068C005002824D4FFE747F20000C4F264
:102A50000000016841F480710160FFF797FB059069
:102A6000FFE747F20000C4F200000068C00500283C
:102A70000ED4FFE7FFF78AFBDDF814E0A0EB0E00B1
:102A8000032804D3FFE703208DF81F002BE1E8E7BC
:102A9000FFE7FFE706988068012809D1FFE743F6C2
:102AA0007000C4F20200016841F0010101601FE002
:102AB0000698806805280DD1FFE743F67000C4F240
:102AC0000200016841F004010160016841F0010168
:102AD00001600CE043F67000C4F20200016821F0CE
:102AE00001010160016821F004010160FFE7FFE7D7
:102AF000FFE706988068002821D0FFE7FFF746FB34
:102B00000590FFE743F67000C4F20200006800F091
:102B100002000021B1EB500F10D1FFE7FFF736FBA9
:102B2000DDF814E0A0EB0E0041F2893E704504D3BD
:102B3000FFE703208DF81F00D5E0E3E720E0FFF773
:102B400025FB0590FFE743F67000C4F20200006821
:102B500000F002000021B1EB500F10D0FFE7FFF7AB
:102B600015FBDDF814E0A0EB0E0041F2893E704544
:102B700004D3FFE703208DF81F00B4E0E3E7FFE78D
:102B80009DF81300012809D1FFE743F64000C4F285
:102B90000200016821F080510160FFE7FFE706981D
:102BA0008069002800F09B80FFE743F60800C4F22C
:102BB0000200006800F00C00082800F08B80FFE79E
:102BC00006988069022860D1FFE76020C4F24720A0
:102BD00000210160FFF7DAFA0590FFE743F60000F5
:102BE000C4F20200006800F000700021B1EB506FE9
:102BF0000ED0FFE7FFF7CAFADDF814E0A0EB0E00F5
:102C0000032804D3FFE703208DF81F006BE0E5E7FE
:102C10000698C169026A436AD0F828C0114341EAA4
:102C200083114FEACC324FF6FF739A43A2F58032FC
:102C30001143C06A41EA006043F60401C4F2020194
:102C400008606020C4F2472001210160FFF79EFA6E
:102C50000590FFE743F60000C4F20200006800F0B0
:102C600000700021B1EB506F0ED1FFE7FFF78EFA35
:102C7000DDF814E0A0EB0E00032804D3FFE70320E7
:102C80008DF81F002FE0E5E723E06020C4F2472025
:102C900000210160FFF77AFA0590FFE743F6000094
:102CA000C4F20200006800F000700021B1EB506F28
:102CB0000ED0FFE7FFF76AFADDF814E0A0EB0E0094
:102CC000032804D3FFE703208DF81F000BE0E5E79E
:102CD000FFE703E001208DF81F0004E0FFE700207C
:102CE0008DF81F00FFE79DF81F0008B080BD0000B1
:102CF00082B00146019001980428009109D1FFE7B4
:102D00004EF21000CEF20000016841F004010160B3
:102D100008E04EF21000CEF20000016821F004013C
:102D20000160FFE702B0704780B582B001460190B4
:102D30000198009101F066FD02B080BD82B00146AD
:102D40000190009102B0704784B0014603900020CA
:102D500002900190039890F839000290039890F83F
:102D60003A0001909DF808009DF80420104300915E
:102D700004B0704780B58CB001460B900B9800688A
:102D800000680A900B980068C06809900B9800686A
:102D9000406908900020079006900A9800F00F0004
:102DA000079007980028059112D1FFE79DF82800A9
:102DB000800600280BD5FFE79DF824008006002838
:102DC00005D5FFE70B9801F0CDFE0490E0E0FFE7AA
:102DD0000798002800F0BA80FFE79DF82000C007A0
:102DE000002807D1FFE7BDF8240010F4907F00F021
:102DF000AD80FFE79DF82800C00700280CD0FFE752
:102E00009DF82500C007002806D0FFE70B98C16B8E
:102E100041F00101C163FFE79DF828004007002849
:102E20000CD5FFE79DF82000C007002806D0FFE77B
:102E30000B98C16B41F00201C163FFE79DF82800C8
:102E4000800700280CD5FFE79DF82000C007002868
:102E500006D0FFE70B98C16B41F00401C163FFE7A7
:102E60009DF82800000700280CD5FFE79DF82000FA
:102E7000C007002806D0FFE70B98C16B41F008019E
:102E8000C163FFE70B98C06B00285ED0FFE79DF899
:102E90002800800600280BD5FFE79DF82400800657
:102EA000002805D5FFE70B9801F05CFE0390FFE7D3
:102EB0000B9800684069C0F3801006900B98C06BB7
:102EC0000007002804D4FFE70698002833D0FFE766
:102ED0000B9801F01BFE0B98006840694006002823
:102EE00024D5FFE70B980068416921F0400141615A
:102EF0000B98406B002814D0FFE70B98406B44F60A
:102F0000E921C0F6000101650B98406BFEF708FF50
:102F1000002805D0FFE70B98406B016D8847FFE75D
:102F200003E00B98FFF70AFFFFE703E00B98FFF7BA
:102F300005FFFFE708E00B98FFF700FF0B984FF045
:102F4000000EC0F83CE0FFE7FFE721E09DF8280015
:102F5000000600280BD5FFE79DF824000006002896
:102F600005D5FFE70B9802F0ADF8029010E09DF850
:102F70002800400600280BD5FFE79DF824004006F6
:102F8000002805D5FFE70B9801F0D6FD0190FFE77B
:102F90000CB080BD80B584B0014602900298002834
:102FA000019104D1FFE701208DF80F0041E0029864
:102FB0008069002801D0FFE700E0FFE7029890F861
:102FC0003900002808D1FFE70298002180F8381066
:102FD000029800F033F8FFE70298242180F83910B6
:102FE00002980068C16821F40051C160029801F0A4
:102FF00035FE02980068016921F490410161029850
:103000000068416921F02A01416102980068C168A5
:1030100041F40051C16002980021C16302984FF051
:10302000200E80F839E0029880F83AE08DF80F1011
:10303000FFE79DF80F0004B080BD000080B5ACB084
:1030400001462B902B98006841F20002C4F2010265
:1030500090421B914AD1FFE7FFE70020259043F6FD
:103060003000C4F20200016841F001010160006813
:1030700000F00100259025981A90FFE7FFE7002057
:10308000249043F64400C4F20200016841F01001AC
:103090000160006800F01000249024981990FFE768
:1030A0004FF400702690022027900121289129904A
:1030B00007202A900020C4F2020026A91890179138
:1030C000FEF752FE4FF48060269018981799FEF78D
:1030D0004BFE25201690FFF7B7F8032016991590A0
:1030E00008461599159AFFF7BBF8FFE72B9800687B
:1030F00044F20041C4F20001884248D1FFE7FFE7F3
:103100000020239043F63000C4F20200016841F031
:1031100001010160006800F00100239023981490E1
:10312000FFE7FFE70020229043F64000C4F20200D0
:10313000016841F400310160006800F40030229021
:1031400022981390FFE70420269002202790012167
:103150002891299007202A900020C4F2020026A975
:1031600012901191FEF700FE0820269012981199F6
:10317000FEF7FAFD26201090FFF766F8032010995D
:103180000F9008460F990F9AFFF76AF8FFE72B9800
:10319000006844F60001C4F2000188424BD1FFE709
:1031A000FFE70020219043F64000C4F202000168CE
:1031B00041F480210160006800F480202190219872
:1031C0000E90FFE7FFE70020209043F63000C4F2A6
:1031D0000200016841F002010160006800F0020095
:1031E000209020980D90FFE74FF4806026900220F9
:1031F000279001212891299007202A9040F2004031
:10320000C4F2020026A90C900B91FEF7ADFD4FF41D
:10321000006026900C980B99FEF7A6FD27200A90D7
:10322000FFF712F803200A99099008460999099AAC
:10323000FFF716F8FFE72B98006844F60041C4F248
:103240000001884242D1FFE7FFE700201F9043F6CC
:103250003000C4F20200016841F00401016000681E
:1032600000F004001F901F980890FFE7FFE7002080
:103270001E9043F64000C4F20200016841F40021B0
:103280000160006800F400201E901E980790FFE780
:103290004FF4406026900220279001212891299028
:1032A00008202A9040F60000C4F2020026A9FEF78A
:1032B0005BFD34200690FEF7C7FF032006990590BA
:1032C00008460599059AFEF7CBFFFFE72B980068A3
:1032D00045F20001C4F20001884242D1FFE7FFE756
:1032E00000201D9043F63000C4F20200016841F056
:1032F00002010160006800F002001D901D9804901A
:10330000FFE7FFE700201C9043F64000C4F20200F4
:10331000016841F480110160006800F480101C9085
:103320001C980390FFE74FF44070269002202790EE
:1033300001212891299008202A9040F20040C4F2EF
:10334000020026A9FEF710FD35200290FEF77CFF53
:1033500003200299019008460199019AFEF780FF27
:10336000FFE72CB080BD000080B587B013468C46C7
:10337000864605900491ADF80E20059890F83A0025
:1033800020280293CDF804C0CDF800E04CD1FFE72F
:103390000498002805D0FFE7BDF80E00002804D1EE
:1033A000FFE701208DF81B0042E0FFE7059890F849
:1033B0003800012804D1FFE702208DF81B0037E018
:1033C0000598012180F83810FFE7FFE70498059978
:1033D0008862BDF80E0005998885BDF80E00059934
:1033E000C88505980021C1630598222180F83A100C
:1033F000FFE70598002180F83810FFE7059800687E
:10340000C16841F48071C16005980068416941F06C
:103410000101416105980068C16841F02001C16067
:1034200000208DF81B0003E002208DF81B00FFE751
:103430009DF81B0007B080BD80B586B001460590A1
:103440000598006841F20002C4F201029042049122
:103450005FD1FFE740F69000C2F200000088000450
:10346000002855D4FFE740F69000C2F20000008823
:103470004004002819D5FFE740F69620C2F200006C
:1034800000780A2807D0FFE740F69000C2F200005B
:103490000021018008E040F69000C2F2000001889F
:1034A00041F400410180FFE731E040F69620C2F28E
:1034B000000000780D2809D1FFE740F69000C2F225
:1034C0000000018841F4804101801FE040F6962011
:1034D000C2F20000007840F69001C2F200010A88B2
:1034E0006FF39F3240F2C873C2F200039854088809
:1034F000013008800888C82807DBFFE740F6900005
:10350000C2F2000000210180FFE7FFE7FFE7FFE7CD
:1035100038E00598006844F20041C4F20001884296
:1035200009D1FFE740F69720C2F200000078FDF7CE
:1035300039FC039025E00598006844F60041C4F288
:103540000001884209D1FFE740F66030C2F2000076
:103550000078FDF7E5FC029012E00598006845F25E
:103560000001C4F20001884209D1FFE740F6B930FA
:10357000C2F20000007801F0CDFE0190FFE7FFE706
:10358000FFE7FFE706B080BDB0B58CB09C4696461D
:103590000C4605460A900991ADF8222007930020B9
:1035A00005900A9890F839002028CDF810C0CDF881
:1035B0000CE00294019540F09F80FFE709980028F5
:1035C00005D0FFE7BDF82200002804D1FFE7012065
:1035D0008DF82F0094E0FFE70A9890F83800012852
:1035E00004D1FFE702208DF82F0089E00A9801211D
:1035F00080F83810FFE7FFE70A980021C1630A98B6
:10360000212180F83910FEF7C1FD0590BDF8220098
:103610000A998884BDF822000A99C884FFE70A98AD
:10362000C08C00284AD0FFE70A98C18C0139C184B8
:103630000A988068B0F5805F27D1FFE70A98059B5C
:1036400007996A4611608021002201F08FFD002851
:1036500004D0FFE703208DF82F0051E00998069071
:10366000069800886FF35F200A99096848600A98F5
:103670000069002804D1FFE709980230099003E0AF
:10368000099801300990FFE717E00A98059B079910
:103690006A4611608021002201F068FD002804D0F4
:1036A000FFE703208DF82F002AE00998411C0991BB
:1036B00000780A9909684860FFE7B0E70A98059B17
:1036C00007996A4611604021002201F04FFD002851
:1036D00004D0FFE703208DF82F0011E00A98202185
:1036E00080F83910FFE70A98002180F83810FFE7CA
:1036F00000208DF82F0003E002208DF82F00FFE757
:103700009DF82F000CB0B0BD82B001460190009131
:1037100002B07047FFE7FEE710B588B040F6C4304E
:10372000C2F2000046F20041C4F2000101600199BA
:10373000029A039BDDF810C0DDF814E0069C84615A
:10374000C0F814E0C0F810C0C360826041600799FF
:10375000C1610321416000218160C1604FF4C0223A
:1037600002614FF4A0024261017641768176012226
:10377000C27601774177FEF73BF9009008B010BDA3
:1037800080B592B00020119010900F900E900D9087
:10379000FFE700200C9043F63000C4F202000168FD
:1037A00041F004010160006800F004000C900C98E6
:1037B0000790FFE7FFE700200B9043F63000C4F2CC
:1037C0000200016841F080010160006800F08000A3
:1037D0000B900B980690FFE7FFE700200A9043F656
:1037E0003000C4F20200016841F00201016000688B
:1037F00000F002000A900A980590FFE7FFE700201A
:10380000099043F63000C4F20200016841F0400123
:103810000160006800F04000099009980490FFE7FB
:10382000FFE70020089043F63000C4F20200016870
:1038300041F001010160006800F001000890089863
:103840000390FFE741F60000C4F202004FF48071DC
:103850000022029001910092FEF76EFC01980D90FB
:1038600001210E9100990F9110910DA90298FEF778
:103870007BFA12B080BD0000FFE7FEE780B5AAB07A
:1038800040F66130C2F20000EE2101704170FF216C
:1038900080F8571080F85610811C40F62042C2F282
:1038A000000205901046049203F0C8F90598811DA6
:1038B000049803F0D9F9059800F10A01049803F07F
:1038C000CBFA059800F10E0140F65042C2F2000218
:1038D0001046039203F0B2F9059800F11201039823
:1038E00003F0C2F9059800F11601039803F0B4FA49
:1038F000059800F11A0140F6F032C2F200021046BB
:10390000029203F09BF9059800F11E01029803F062
:10391000ABF9059800F12201029803F09DFA059891
:1039200000F1260140F68042C2F2000210460192E8
:1039300003F084F9059800F12A01019803F094F945
:10394000059800F12E01019803F086FA00200690F8
:103950000890FFE708980A283FDCFFE7089800EB8B
:10396000400009A9352221F82020089800EB4000EA
:1039700001EB80000822C270089800EB400001EBC8
:103980008000002181700791FFE70798072816DC67
:10399000FFE70698411C069140F66131C2F2000132
:1039A000085C089901EB410109AA02EB8101079A21
:1039B00011440871FFE7079801300790E5E7089880
:1039C00000EB400009A901EB8000FDF79BF9009096
:1039D000FFE7089801300890BCE72AB080BD0000DE
:1039E00080B584B00146039003986A465060012078
:1039F000106040F6F030C2F2000040F6B83242F2F9
:103A00001073029111461A4603F044F904B080BDC8
:103A100080B584B00146039003986A465060012047
:103A2000106040F62040C2F2000040F6B83242F288
:103A30001073029111461A4603F02CF904B080BDB0
:103A400080B584B00146039003986A465060012017
:103A5000106040F65040C2F2000040F6B83242F228
:103A60001073029111461A4603F014F904B080BD98
:103A700080B586B00146059005984FF49672504384
:103A80000491FCF79AFD41EC100B51EC100B9FEDEB
:103A9000100B53EC102BFCF721FD41EC100B51ECFB
:103AA000100BFCF79BFD05900598694648600120C6
:103AB000086040F68040C2F2000040F6B83142F2A1
:103AC00010720392039B03F0E5F806B080BD00BFBF
:103AD0000AD7A3703D0AB73F7047000080B588B091
:103AE0000A460346ADF81E008DF81D100020ADF803
:103AF00010008DF8120002208DF813009DF81D00B3
:103B00008DF814009DF81E008DF8150004A803928E
:103B10000293FDF7F7F8019008B080BD80B58BB037
:103B200013468C4686460A90099108920A9800F03E
:103B3000070007900798C0F1070005280493CDF807
:103B40000CC0CDF808E003D3FFE70420019004E0A7
:103B50000798C0F107000190FFE7019806900798C9
:103B60000430062803D8FFE70020009003E0079800
:103B700003380090FFE70098059009980699012204
:103B800002FA01F10139084005998840089B02FAC0
:103B900001F10139194008430BB080BD000000005D
:103BA000EFF30980BFF36F8F154B1A681EF0100FEB
:103BB00008BF20ED108A20E9F04F10602DE90900C0
:103BC0004FF0500080F31188BFF34F8FBFF36F8F1A
:103BD00005F088FE4FF0000080F31188BDE8090071
:103BE00019680868B0E8F04F1EF0100F08BFB0EC7D
:103BF000108A80F30988BFF36F8F704700BF00BF42
:103C0000E80C00200000000080B5ADF5127D1346E1
:103C10008C4686465590549153925498D0F894000F
:103C20002E93CDF8B4C0CDF8B0E0FCF7F6FC41EC33
:103C3000100B51EC100B9FEDFC0B53EC102B2B9247
:103C40002A93FCF7D9FB41EC100B51EC100B9FEDC4
:103C5000F80B53EC102B29922893FCF73FFC41EC16
:103C6000100B51EC100BFCF7EBFC4F905498D0F874
:103C70009800FCF7D2FC41EC100B51EC100B2B9A86
:103C80002A9BFCF7B9FB41EC100B51EC100B299A65
:103C9000289BFCF723FC41EC100B51EC100BFCF7BC
:103CA000CFFC4E905498D0F89C00FCF7B6FC41EC49
:103CB000100B51EC100B2B9A2A9BFCF79DFB41EC4F
:103CC000100B51EC100B299A289BFCF707FC41ECD8
:103CD000100B51EC100BFCF7B3FC4D905398D0F83F
:103CE0009400FCF79AFC41EC100B51EC100B2B9A52
:103CF0002A9BFCF781FB41EC100B51EC100B299A2D
:103D0000289BFCF7EBFB41EC100B51EC100BFCF784
:103D100097FC4C905398D0F89800FCF77EFC41EC4F
:103D2000100B51EC100B2B9A2A9BFCF765FB41EC16
:103D3000100B51EC100B299A289BFCF7CFFB41ECA0
:103D4000100B51EC100BFCF77BFC4B905398D0F808
:103D50009C00FCF762FC41EC100B51EC100B2B9A11
:103D60002A9BFCF749FB41EC100B51EC100B299AF4
:103D7000289BFCF7B3FB41EC100B51EC100BFCF74C
:103D80005FFC4A904D9856909DED560A07F004F856
:103D90004E9857909DED571A8DED270AB0EE410AC7
:103DA00006F0FAFF9DED271A21EE000A8DED410A7B
:103DB0004D9858909DED580A07F0BEFE4E985990C8
:103DC0009DED591A8DED260AB0EE410A06F0E4FF8A
:103DD0009DED261A21EE000A8DED420A4E985A906A
:103DE0009DED5A0A07F0A8FEB1EE400A8DED430A98
:103DF0004D985B909DED5B0A06F0CEFF4E985C906F
:103E00009DED5C1A8DED250AB0EE410A07F094FE97
:103E10009DED251A21EE000A4F985D909DED5D2ADB
:103E20008DED240AB0EE420A07F086FE9DED241ABD
:103E300021EE000A4D985E909DED5E1A8DED230AED
:103E4000B0EE410A07F078FE4F985F909DED5F1A43
:103E50008DED220AB0EE410A06F09EFF9DED221A7A
:103E600021EE000A9DED232A32EE400A8DED440A30
:103E70004D9860909DED600A07F05EFE4E9861904F
:103E80009DED611A8DED210AB0EE410A07F054FE56
:103E90009DED211A21EE000A4F9862909DED622A55
:103EA0008DED200AB0EE420A07F046FE9DED201A85
:103EB00021EE000A4D9863909DED631A8DED1F0A67
:103EC000B0EE410A06F068FF4F9864909DED641AC9
:103ED0008DED1E0AB0EE410A06F05EFF9DED1E1A42
:103EE00021EE000A9DED1F2A32EE000A8DED450AF3
:103EF0004E9865909DED650A06F04EFF4F986690CE
:103F00009DED661A8DED1D0AB0EE410A07F014FE14
:103F10009DED1D1A21EE000A8DED460A4D98679021
:103F20009DED670A06F038FF4E9868909DED681A7F
:103F30008DED1C0AB0EE410A07F0FEFD9DED1C1A46
:103F400021EE000A4F9869909DED692A8DED1B0ABC
:103F5000B0EE420A06F020FF9DED1B1A21EE000A8A
:103F60004D986A909DED6A1A8DED1A0AB0EE410ADD
:103F700007F0E2FD4F986B909DED6B1A8DED190ADD
:103F8000B0EE410A07F0D8FD9DED191A21EE000AA6
:103F90009DED1A2A32EE000A8DED470A4D986C907D
:103FA0009DED6C0A07F0C8FD4E986D909DED6D1A61
:103FB0008DED180AB0EE410A07F0BEFD9DED181A0E
:103FC00021EE000A4F986E909DED6E2A8DED170A36
:103FD000B0EE420A06F0E0FE9DED171A21EE000A4F
:103FE0004D986F909DED6F1A8DED160AB0EE410A57
:103FF00006F0D2FE4F9870909DED701A8DED150A67
:10400000B0EE410A07F098FD9DED151A21EE000A69
:104010009DED162A32EE400A8DED480A4E987190B9
:1040200000F00AB800BF00BF4AD8124DFB2109407A
:1040300000000000008066409DED710A06F0ACFEB5
:104040004F9872909DED721A8DED140AB0EE410AF0
:1040500006F0A2FE9DED141A21EE000A8DED490A2C
:104060004A9873909DED730A06F096FE4B987490F3
:104070009DED741A8DED130AB0EE410A06F08CFE28
:104080009DED131A21EE000A8DED380A4A987590BD
:104090009DED750A06F080FE4B9876909DED761AA0
:1040A0008DED120AB0EE410A07F046FD9DED121AA1
:1040B00021EE000A4C9877909DED772A8DED110A3C
:1040C000B0EE420A07F038FD9DED111A21EE000A0C
:1040D0004A9878909DED781A8DED100AB0EE410A5D
:1040E00007F02AFD4C9879909DED791A8DED0F0A15
:1040F000B0EE410A06F050FE9DED0F1A21EE000AC7
:104100009DED102A32EE400A8DED390A4A987A90D8
:104110009DED7A0A06F040FE4B987B909DED7B1A50
:104120008DED0E0AB0EE410A07F006FD9DED0E1A68
:1041300021EE000A4C987C909DED7C2A8DED0D0AB5
:10414000B0EE420A06F028FE9DED0D1A21EE000A9F
:104150004A987D909DED7D1A8DED0C0AB0EE410AD6
:1041600007F0EAFC4C987E909DED7E1A8DED0B0ACF
:10417000B0EE410A07F0E0FC9DED0B1A21EE000ABB
:104180009DED0C2A32EE000A8DED3A0A4A987F9096
:104190009DED7F0A07F0D0FC4B9880909DED801A32
:1041A0008DED0A0AB0EE410A06F0F6FD9DED0A1A01
:1041B00021EE000A8DED3B0A4A9881909DED810A1F
:1041C00007F0BAFC4B9882909DED821A8DED090A9A
:1041D000B0EE410A07F0B0FC9DED091A21EE000A8D
:1041E0004C9883909DED832A8DED080AB0EE420A2B
:1041F00007F0A2FC9DED081A21EE000A4A9884906F
:104200009DED841A8DED070AB0EE410A06F0C4FD5B
:104210004C9885909DED851A8DED060AB0EE410A09
:1042200006F0BAFD9DED061A21EE000A9DED072A63
:1042300032EE000A8DED3C0A4A9886909DED860A82
:1042400007F07AFC4B9887909DED871A8DED050A53
:10425000B0EE410A07F070FC9DED051A21EE000A50
:104260004C9888909DED882A8DED040AB0EE420AA4
:1042700006F092FD9DED041A21EE000A4A988990FD
:104280009DED891A8DED030AB0EE410A06F084FD1A
:104290004C988A909DED8A1A8DED020AB0EE410A83
:1042A00007F04AFC9DED021A21EE000A9DED032A5B
:1042B00032EE400A8DED3D0A4B988B909DED8B0AB6
:1042C00007F03AFCB1EE400A8DED3E0A4B988C9017
:1042D0009DED8C0A06F060FD4C988D909DED8D1A39
:1042E0008DED010AB0EE410A07F026FC9DED011AA2
:1042F00021EE000A8DED3F0A4B988E909DED8E0ABF
:1043000006F04AFD4C988F909DED8F1A8DED000AB6
:10431000B0EE410A06F040FD9DED001A21EE000AC4
:104320008DED400A00205290FFE75298022848DCA9
:10433000FFE700205190FFE7519802283CDCFFE79F
:10434000529800EB40002FA901EB80005199002208
:1043500040F821205092FFE75098022827DCFFE721
:10436000529800EB400041A901EB8001509A01EB0B
:10437000820191ED000A02EB420138AA02EB8101B1
:10438000519A01EB820191ED001A20EE010A2FA94A
:1043900001EB800000EB820090ED001A31EE000A84
:1043A00080ED000AFFE7509801305090D4E7FFE716
:1043B000519801305190BFE7FFE752980130529079
:1043C000B3E7349890909DED900A06F09FFAB1EE15
:1043D000400A559880ED000A359891909DED910A1C
:1043E00006F094FAB1EE400A559880ED010A0DF5F9
:1043F000127D80BD80B58AB013468C4686468DF806
:1044000026008DF825100892002007900690059050
:104410009DF8251040F2A002C2F2000202EB410119
:1044200031F8021C9DF826201144ADF814108DF8C7
:1044300016009DF825000138014603280493CDF8A5
:104440000CC0CDF808E0019134D80199DFE801F003
:10445000020D142702208DF8170008988DF8180017
:104460000898000A8DF8190024E001208DF8170043
:1044700008988DF818001DE004208DF817000898A2
:104480008DF818000898000A8DF81900BDF8220070
:104490008DF81A009DF823008DF81B000AE0022019
:1044A0008DF8170008988DF818000898000A8DF804
:1044B0001900FFE705A8FCF725FC002804D0FFE75A
:1044C00001208DF8270003E000208DF82700FFE78A
:1044D0009DF827000AB080BDB0B590B09C469646C6
:1044E0000C4605468DF83F00ADF83C108DF83B209A
:1044F0000D9300200C900B900A9009900890079063
:1045000006909DF83F1001F5C061ADF828108DF8B8
:104510002A0008218DF82B109DF83B108DF82F10E4
:104520009DF83D108DF82E10BDF83C108DF82D1023
:1045300040218DF82C108DF833008DF832008DF865
:1045400031008DF830000AA8CDF810C0CDF80CE08D
:1045500002940195FCF7D6FB002832D0FFE7FFE775
:1045600007A8FCF779FB4FF0010E0028CDF800E01A
:104570000BD0FFE7BDF81C009DF83F1001F5B061BE
:10458000401A18BF01200090FFE70098C0070028DC
:1045900004D0FFE7012003F091FAE1E70020059045
:1045A000FFE7059803280BDCFFE7059807A90144FE
:1045B00009790D9A1154FFE7059801300590F0E74D
:1045C000FFE710B0B0BD0000B0B58AB09C4696467B
:1045D0000C4605468DF82600ADF824108DF82320F2
:1045E000079300200690059004909DF8261001F591
:1045F000C061ADF810108DF8120008208DF813007E
:104600009DF823008DF817009DF825008DF8160001
:10461000BDF824008DF8150023208DF814009DF8B6
:104620001F008DF81B00BDF81E008DF81A000798BA
:10463000000A8DF8190007988DF8180004A8CDF825
:104640000CC0CDF808E001940095FCF75BFB002856
:1046500004D0FFE701208DF8270003E000208DF84B
:104660002700FFE79DF827000AB0B0BD000000005A
:10467000074B19680868B0E8F04F80F30988BFF36A
:104680006F8F4FF0000080F31188704700BF00BFAC
:10469000E80C002070B58AB0DDF838C09E4614469C
:1046A0000D46064609900891079206930998CDF8A1
:1046B00014C0CDF810E003940295019604F022FC9A
:1046C000089804F047FC079804F06CFC069804F086
:1046D0008FFC0E9804F0B4FC0AB070BDB0B59EB06B
:1046E0009C4696460C4605461D901C911B921A93BB
:1046F00000208DF86700CDF814C0CDF810E00394C9
:104700000295FFE70020079043F64000C4F2020044
:10471000016841F080510160006800F0805007900E
:1047200007980190FFE7FFE70020069047F200009E
:10473000C4F20000016841F480410160006800F4A7
:104740008040069006980090FFE701200D904FF4FE
:1047500080300E90022013904FF4800014901C982B
:1047600015901D9816901B9817901A9818900DA8E0
:10477000FDF784FF8DF867009DF86700002802D0E0
:10478000FFE7FFE7FEE70F200890022009900020D6
:104790000A904FF4A0500B904FF480500C9008A852
:1047A0000521FDF78DFD8DF867009DF86700002855
:1047B00002D0FFE7FFE7FEE7FDF7E0FC41F2010E64
:1047C000704509D1FFE743F60040C4F202000168DA
:1047D00041F480710160FFE71EB0B0BD80B584B0C8
:1047E0008020ADF8040000208DF8060001218DF82E
:1047F00007108DF8080001A8FCF784FA009004B0B7
:1048000080BD000080B584B0014602900298013856
:10481000B0F1807F019103D3FFE7012003901BE0FB
:10482000029801384EF21401CEF2000108604FF0F8
:10483000FF300F2102F0AAFF4EF21800CEF2000066
:10484000002101604EF21000CEF200004FF0070E82
:10485000C0F800E00391FFE7039804B080BD0000BA
:1048600080B582B005F088FC012804D0FFE705F090
:104870008DF90190FFE740F6C030C2F200000168F8
:104880000131016002B080BD4EF68850CEF20000CA
:10489000016841F47001016043F60000C4F20200B7
:1048A000016841F00101016043F60801C4F2020110
:1048B00000220A6001684FF6FF73CFF6F6631940D5
:1048C000016043F60401C4F2020143F21003C2F294
:1048D00000430B60016821F48021016043F60C0065
:1048E000C4F2020002604EF60850CEF200004FF013
:1048F000006101607047000080B58EB013468C46A1
:1049000086468DF837008DF836100C9200200B90FB
:104910000A9009900890079006909DF8360040F2A2
:10492000AC01C2F2000101EB400030F8020C9DF82E
:1049300037100844ADF8240001208DF826009DF8BA
:1049400036000138014603280493CDF80CC0CDF899
:1049500008E0019114D80199DFE801F002060A0E7F
:1049600002208DF827000BE004208DF8270007E0D7
:1049700004208DF8270003E002208DF82700FFE7D0
:1049800009A8FCF7BFF9002830D0FFE7FFE706A829
:10499000FCF762F94FF0010E0028CDF800E009D0D5
:1049A000FFE7BDF81800BDF82410401A18BF012019
:1049B0000090FFE70098C007002804D0FFE701201F
:1049C00003F07CF8E3E700200590FFE70598032853
:1049D0000BDCFFE7059806A9014409790C9A1154EC
:1049E000FFE7059801300590F0E7FFE70EB080BDC6
:1049F00080B582B000200190FFE740F24870C2F21B
:104A0000000040F66031C2F200010122FEF7ACFC6A
:104A1000002812D0FFE740F24870C2F200000068A0
:104A20006FF0080101600198013001900198B0F128
:104A3000FF3F01D9FFE700E0DFE740F24870C2F234
:104A4000000001686FF020020A6000686FF0080142
:104A5000016002B080BD000080B582B000200190EE
:104A600040F28870C2F20000FEF784F9FFE740F2DE
:104A70008870C2F20000FEF767F920280AD0FFE72D
:104A80000198013001900198B0F1FF3F01D9FFE793
:104A900000E0ECE700200190FFE740F28870C2F2EE
:104AA000000040F6B931C2F200010122FEF75CFCC1
:104AB00000280AD0FFE70198013001900198B0F179
:104AC000FF3F01D9FFE700E0E7E740F28870C2F25C
:104AD000000001686FF020020A6000686FF00801B2
:104AE000016002B080BD000080B584B00146039033
:104AF0000398806B029002980022C2850298C284BB
:104B000002980191FEF71AF904B080BD82B0014607
:104B1000019001980068C26822F49072C260019806
:104B20000068426922F0010242610198202280F867
:104B30003A20009102B0704780B582B001460190E2
:104B400001980068C26822F04002C26001982022E9
:104B500080F8392001980091FEF7D6FD002002B0C0
:104B600080BD000080B584B001460290029890F8A4
:104B70003A002228009169D1FFE702988068B0F5D9
:104B8000805F20D1FFE70298806A01900298006957
:104B900000280CD1FFE70298006840686FF35F209F
:104BA000019908800298816A023181620AE00298C4
:104BB00000684068C0B2019908800298816A01319A
:104BC0008162FFE719E002980069002809D1FFE738
:104BD00002980068406802998A6A531C8B621070C0
:104BE0000AE002980068406800F07F0002998A6A33
:104BF000531C8B621070FFE7FFE70298C18D0139EB
:104C0000C185080400281DD1FFE702980068C1682B
:104C100021F02001C16002980068C16821F4807110
:104C2000C16002980068416921F001014161029868
:104C3000202180F83A100298FEF7FEFB00208DF844
:104C40000F0007E000208DF80F0003E002208DF830
:104C50000F00FFE79DF80F0004B080BD70B5B8B03D
:104C60000146379037980068006920F44050379A21
:104C70001368D26810431861379882680369D0F8C6
:104C800014C0C0691A4342EA0C02104336903798A8
:104C90000068C06849F20C629043369A1043379A14
:104CA0001268D06037980068406920F44070379AE5
:104CB00013689269104358613798C069B0F5004F86
:104CC000359140F00081FFE73798006841F200011C
:104CD000C4F20101884209D0FFE73798006841F229
:104CE0000041C4F20101884276D1FFE7FDF73CFCA8
:104CF0004FF0190E00FB0EF0379949684900B0FBE0
:104D0000F1F048F21F51C5F2EB11A0FB01026FF068
:104D10000F0303EA5202CDF8D0E033913290319282
:104D2000FDF722FC34994843379A52685200B0FB91
:104D3000F2F03090FDF718FC34994843379A5268E6
:104D40005200B0FBF2F0339AA0FB02035B094FF074
:104D5000640EDDF8C0C003FB1EC34FF0320C0CEB39
:104D6000C303A3FB0234F82505EA5414319D05EB77
:104D700044042F90CDF8B8E0CDF8B4C02C932B9418
:104D8000FDF7F2FB34994843379A52685200B0FB62
:104D9000F2F02A90FDF7E8FB34994843379A1368FC
:104DA00052685200B0FBF2F0339AA0FB020C4FEABB
:104DB0005C1CDDF8B8E02A9C0CFB1E4C2D9C04EB1F
:104DC000CC0CACFB02C5C5F342152B9E35449D604F
:104DD0002990CDF8A0C075E0FDF7B2FB4FF0190E99
:104DE00000FB0EF0379949684900B0FBF1F048F23A
:104DF0001F51C5F2EB11A0FB01026FF00F0303EA94
:104E00005202CDF89CE0269125902492FDF798FB64
:104E100027994843379A52685200B0FBF2F023902A
:104E2000FDF78EFB27994843379A52685200B0FB32
:104E3000F2F0269AA0FB02035B094FF0640EDDF846
:104E40008CC003FB1EC34FF0320C0CEBC303A3FB5F
:104E50000234F82505EA5414249D05EB44042290FD
:104E6000CDF884E0CDF880C01F931E94FDF768FB59
:104E700027994843379A52685200B0FBF2F01D90D0
:104E8000FDF75EFB27994843379A13685268520032
:104E9000B0FBF2F0269AA0FB020C4FEA5C1CDDF896
:104EA00084E01D9C0CFB1E4C209C04EBCC0CACFB4A
:104EB00002C5C5F342151E9E35449D601C90CDF879
:104EC0006CC0FFE7FCE03798006841F20001C4F2D3
:104ED0000101884209D0FFE73798006841F200419C
:104EE000C4F20101884275D1FFE7FDF73DFB4FF0A9
:104EF000190E00FB0EF0379949688900B0FBF1F0FC
:104F000048F21F51C5F2EB11A0FB01026FF00F0335
:104F100003EA5202CDF868E0199118901792FDF754
:104F200023FB1A994843379A52689200B0FBF2F07B
:104F30001690FDF719FB1A994843379A5268920068
:104F4000B0FBF2F0199AA0FB02035B094FF0640E6C
:104F5000DDF858C003FB1EC34FF0320C0CEB0313FB
:104F6000A3FB0234F02505EA5414179D2C44159038
:104F7000CDF850E0CDF84CC012931194FDF7F4FA3F
:104F80001A994843379A52689200B0FBF2F0109099
:104F9000FDF7EAFA1A994843379A13685268920063
:104FA000B0FBF2F0199AA0FB020C4FEA5C1CDDF892
:104FB00050E0109C0CFB1E4C139C04EB0C1CACFB37
:104FC00002C5C5F34315119E35449D600F90CDF881
:104FD00038C074E0FDF7B4FA4FF0190E00FB0EF084
:104FE000379949688900B0FBF1F048F21F51C5F2CA
:104FF000EB11A0FB01026FF00F0303EA5202CDF8A0
:1050000034E00C910B900A92FDF79AFA0D994843FF
:10501000379A52689200B0FBF2F00990FDF790FACF
:105020000D994843379A52689200B0FBF2F00C9AFF
:10503000A0FB02035B094FF0640EDDF824C003FB04
:105040001EC34FF0320C0CEB0313A3FB0234F0250C
:1050500005EA54140A9D2C440890CDF81CE0CDF8C4
:1050600018C005930494FDF76BFA0D994843379ADD
:1050700052689200B0FBF2F00390FDF761FA0D99CF
:105080004843379A136852689200B0FBF2F00C9ACA
:10509000A0FB020C4FEA5C1CDDF81CE0039C0CFB3F
:1050A0001E4C069C04EB0C1CACFB02C5C5F343155F
:1050B000049E35449D600290CDF804C0FFE7FFE7F1
:1050C00038B070BD84B001460290029890F8390063
:1050D0002128009142D1FFE702988068B0F5805FF7
:1050E0001AD1FFE70298006A0190019800886FF3D7
:1050F0005F2002990968486002980069002805D17C
:10510000FFE70298016A0231016204E00298016A35
:1051100001310162FFE708E00298016A4A1C02625D
:105120000878029909684860FFE70298C18C013944
:10513000C184080400280DD1FFE702980068C16807
:1051400021F08001C16002980068C16841F040010F
:10515000C160FFE700208DF80F0003E002208DF80A
:105160000F00FFE79DF80F0004B0704770B58AB0DC
:10517000DDF838C09E4614460D4606460890079155
:105180008DF81B200593CDF810C0CDF80CE00294EB
:1051900001950096FFE708980068006807990840A5
:1051A000401AB0FA80F040099DF81B10884233D1B4
:1051B000FFE70E98013000282DD0FFE70E98002859
:1051C0000BD0FFE7FCF7E2FFDDF814E0A0EB0E00E8
:1051D000DDF838E070451DD9FFE708980068C16820
:1051E00021F4D071C16008980068416921F0010183
:1051F00041610898202180F83910089880F83A1009
:10520000FFE70898002180F83810FFE703208DF8A9
:10521000270005E0FFE7BEE700208DF82700FFE745
:105220009DF827000AB070BD80B582B000200190C3
:1052300040F28861C2F2000100900846FDF79AFD35
:1052400000980190FFE740F28860C2F20000FDF78D
:105250007BFD20280AD0FFE70198013001900198DA
:10526000B0F1FF3F01D9FFE700E0ECE7002001903B
:10527000FFE740F28860C2F2000040F69621C2F2D9
:1052800000010122FEF770F800280AD0FFE701981C
:10529000013001900198B0F1FF3F01D9FFE700E034
:1052A000E7E702B080BD000080B582B00020019029
:1052B000FFE740F2C860C2F2000040F69721C2F258
:1052C00000010122FEF750F8002812D0FFE740F25B
:1052D000C860C2F2000000686FF008010160019828
:1052E000013001900198B0F1FF3F01D9FFE700E0E4
:1052F000DFE740F2C860C2F2000001686FF02002F0
:105300000A6000686FF00801016002B080BD000013
:10531000FFE7FEE780B58AB001468DF8270040F62A
:10532000E040C2F2000000680028049101D1FFE7CC
:1053300092E09DF8270040F68C71C2F200010A68E5
:10534000531C0B6040F68461C2F20001885440F6A1
:105350008470C2F20000006800286DD1FFE740F6BB
:105360008460C2F200000078552811D0FFE740F6B3
:105370008C70C2F20000016801390160026840F6D9
:105380008460C2F20000411CFAF74FFF039063E013
:1053900040F68C70C2F2000000680B284BD3FFE788
:1053A00040F68460C2F200000A21029002F0A8F9DF
:1053B0008DF817009DF81700029991F80AE07045E2
:1053C00011D0FFE740F68C70C2F20000016801398D
:1053D0000160026840F68460C2F20000411CFAF7E6
:1053E00024FF019038E040F68460C2F2000081782A
:1053F000C27841EA0221ADF818100179427941EAF8
:105400000221ADF81A108179C27941EA0221ADF882
:105410001C10017A427A41EA0221ADF81E10407850
:1054200006A90422FBF73AFE40F68C70C2F2000097
:1054300000210160FFE7FFE740F68C70C2F2000038
:105440000068B0F5807F07D1FFE740F68C70C2F2AC
:10545000000000210160FFE70AB080BD80B502F0C6
:10546000E7F902F055FA02F093FA02F0C5FA80BDAE
:1054700080B502F039FA02F077FA80BD80B502F00B
:10548000CBF902F039FA02F077FA02F0A5FA02F04D
:10549000D7FA80BD80B502F0EBF902F05DFA80BD6D
:1054A00080B502F0FDF980BD80B588B00146079057
:1054B000069103F0AFFE40F23410C2F200006946DC
:1054C00048600320086045F23951C0F600014DF2F2
:1054D000EC3EC0F6000E4FF4007200230590084623
:1054E0007146049304F0EAFD40F69C01C2F200010B
:1054F0006A4651600599116045F69912C0F600029E
:105500004DF2F931C0F600014FF48073039010465C
:105510001A46049B04F0D2FD40F28461C2F20001FD
:1055200009680290084604F033F803F09FFE08B0C3
:1055300080BD00000000000080B5B6B001462F908D
:1055400000202E902D902C902B902A902790269022
:105550001791FFE703F05EFE40F6900EC2F2000ED8
:10556000BEF800E04FEA0E4EBEF1000F0AD4FFE78E
:1055700040F23010C2F2000000784006002840F1EE
:10558000D681FFE718A83821FAF768FE40F23010FC
:10559000C2F2000000784006002804D5FFE718A8F2
:1055A000FBF72CFEFFE740F69000C2F200000088F7
:1055B0000004002808D5FFE740F28860C2F200002E
:1055C00018A9FBF769FEFFE740F26010C2F2000085
:1055D000169000F09DFA40F2E450C2F200001590DF
:1055E00000F096FA2CA81599169AFEF70DFB18985C
:1055F00030909DED300AB8EEC00AB0EEC00ABDEEA4
:10560000C00A10EE100AFAF7D8FF41EC110B9FED1B
:10561000CC2B51EC120B53EC112BFAF7E7FE41ECBB
:10562000110B51EC110B9FEDC81B53EC112B149275
:105630001393FAF7E1FE41EC110B51EC110B9FEDC6
:10564000C41B53EC112B12921193FAF747FF41EC54
:10565000100B05F03DFB53EC102B9FEDBF0B51ECF5
:10566000100B10900F91FAF7C1FE41EC100B51ECAA
:10567000100B9FEDBB0B53EC102B0E920D93FAF712
:10568000BBFE41EC100B06F01FFB2C9835903598B3
:1056900020F000408DED0A0BFAF7BFFF41EC100B34
:1056A0009FEDB11B51EC110B53EC102BFAF79EFE42
:1056B00041EC100B05F00CFB53EC102B10980F99DC
:1056C000FAF794FE41EC100B51EC100B0E9A0D9B67
:1056D000FAF792FE41EC100B06F0F6FA9DED0A1B6C
:1056E00051EC110B53EC102BFAF780FE41EC100B30
:1056F00051EC100BFAF7A4FF2A90199834909DED05
:10570000343AB8EEC33AB0EEC33ABDEEC33A13EE44
:10571000100AFAF752FF41EC100B9FED951B51EC6C
:10572000110B53EC102BFAF761FE41EC100B51EC0E
:10573000100B149A139BFAF75FFE41EC100B51EC1F
:10574000100B129A119BFAF7C9FE41EC100B05F0F1
:10575000BFFA53EC102B10980F99FAF747FE41EC63
:10576000100B51EC100B9FED840B53EC102B099296
:105770000893FAF741FE41EC100B06F0A5FA2D98BC
:105780003390339820F000408DED060BFAF745FF7B
:1057900041EC100B9FED7A1B51EC110B53EC102BCD
:1057A000FAF724FE41EC100B05F092FA53EC102BA3
:1057B00010980F99FAF71AFE41EC100B51EC100BF0
:1057C000099A089BFAF718FE41EC100B06F07CFAD8
:1057D0009DED061B51EC110B53EC102BFAF706FE56
:1057E00041EC100B51EC100BFAF72AFF2B902A9882
:1057F00032909DED323AB0EEC33AB3EE004A83EEFA
:10580000043A13EE100A8DED054AFAF706FF41EC53
:10581000100B51EC100B9FED5C0B53EC102B049212
:105820000393FAF7E9FD41EC100B51EC100B9FEDDF
:10583000580B53EC102B02920193FAF74FFE41ECF8
:10584000100B51EC100BFAF7C9FE29902B983190F0
:105850009DED313AB0EEC33A9DED054A83EE043A30
:1058600013EE100AFAF7D9FE41EC100B51EC100BB5
:10587000049A039BFAF7C0FD41EC100B51EC100B9E
:10588000029A019BFAF72AFE41EC100B51EC100B27
:10589000FAF7A4FE28900020279026901898012857
:1058A00009DBFFE72998279908442790299826992A
:1058B00008442690FFE71898B0F1FF3F09DCFFE7A6
:1058C00029982799081A279029982699081A269026
:1058D000FFE71998B0F1FF3F09DCFFE72898279907
:1058E000081A27902898269908442690FFE71998C7
:1058F000012809DBFFE72898279908442790289872
:105900002699081A2690FFE72798FEF781F826982F
:10591000FEF796F81C984CF2503EA0EB0E00FEF7F6
:105920005FF81E98FEF7A4F8FDF7A8FFFFE703F065
:105930009DFC022003F0F0FD0CE600BF00BF00BF9D
:105940006ABC7493181453404AD8124DFB21094085
:105950000000000000806640000000000000F03FF2
:105960000000000000D0A3401E609366964FF53FF4
:1059700083C0CAA1451E5440000000000020A24080
:10598000920183B0E878F63FAA9F9622DCA54C40AE
:10599000000000000000000080B5A2B00146219088
:1059A0001A91FFE703F036FC40F2601EC2F2000ECF
:1059B0007046CDF864E000F0ABF81998D0F8940088
:1059C000DDF864E0DEF89810DEF89C20189117925C
:1059D000FAF723FE41EC100B18988DED140BFAF733
:1059E0001CFE41EC100B17988DED120BFAF715FE0B
:1059F00041EC100B684680ED020B9DED120B80ED23
:105A0000000B9DED140B53EC102B4DF2B630C0F68D
:105A1000000004F02BFF40F2E451C2F200011190AB
:105A20000846109100F074F81098D0F8940010997E
:105A3000D1F89820D1F89C300F920E93FAF7EDFD33
:105A400041EC100B0F988DED0C0BFAF7E6FD41ECD5
:105A5000100B0E988DED0A0BFAF7DFFD41EC100BE1
:105A6000684680ED020B9DED0A0B80ED000B9DED6D
:105A70000C0B53EC102B4DF2D130C0F6000004F0AB
:105A8000F5FE1FA9099008461099199AFEF7BCF86F
:105A90001F9820990891FAF7C0FD41EC100B089867
:105AA0008DED060BFAF7B9FD41EC100B684680ED61
:105AB000000B9DED060B53EC102B4DF2A030C0F601
:105AC000000004F0D3FE059003F0D0FB642003F047
:105AD00023FD67E782B00146019001980022C4F2DD
