:020000040800F2
:10000000E83F0120A5010008B1360008ED320008E4
:10001000513400083509000851470008000000006D
:10002000000000000000000000000000613A00082D
:100030001D0E00080000000081370008513C000838
:10004000BF010008BF010008BF010008BF01000890
:10005000BF010008BF010008BF010008BF01000880
:10006000BF010008BF010008BF010008BF01000870
:10007000BF010008BF010008BF010008BF01000860
:10008000BF010008BF010008BF010008BF01000850
:10009000BF01000839090008BF010008BF010008BE
:1000A000BF010008BF010008BF010008BF01000830
:1000B000BF010008BF010008BF010008BF01000820
:1000C000BF010008BF010008BF010008BF01000810
:1000D000BF01000841460008C1460008BF010008F2
:1000E000BF010008BF010008BF010008BF010008F0
:1000F000BF010008BF010008BF010008BF010008E0
:10010000BF010008BF010008BF010008BF010008CF
:10011000E13D0008713E0008BF010008BF01000872
:10012000BF010008BF010008BF010008BF010008AF
:10013000BF010008BF010008BF010008BF0100089F
:10014000BF010008BF010008BF010008BF0100088F
:10015000BF010008BF010008BF010008BF0100087F
:10016000BF010008BF010008BF010008BF0100086F
:10017000BF010008BF010008BF0100080000000027
:10018000BF010008BF010008DFF814D000F048FBF1
:1001900000F076F8004800478D5A000800F056FB42
:1001A000E83F01200648804706480047FEE7FEE793
:1001B000FEE7FEE7FEE7FEE7FEE7FEE7FEE7FEE717
:1001C000793C0008890100082DE9F05F0546002010
:1001D00092469B4688460646814640241BE02846B8
:1001E00041464746224600F03DFA53465A46C01A59
:1001F000914110D311461846224600F024FA2D1AD8
:1002000067EB01084F4622460120002100F01BFA4F
:1002100017EB00094E41201EA4F10104DFDC484623
:1002200031462A464346BDE8F09F40EA01039B075A
:1002300003D009E008C9121F08C0042AFAD203E05B
:1002400011F8013B00F8013B521EF9D27047D2B2BF
:1002500001E000F8012B491EFBD270470022F6E7AF
:1002600010B513460A4604461946FFF7F0FF20462C
:1002700010BD421C10F8011B0029FBD1801A7047E9
:1002800070B5054C054D03E0206820448047241DCF
:10029000AC42F9D170BD000004A2000814A200080D
:1002A0000B460146184600F0FFB92DE9FE4F804687
:1002B00081EA0300C00F0C46009021F0004123F0BA
:1002C0000045B8EB0200A94105D2404621469046C0
:1002D0001C460B46024623F00040104347D0270D32
:1002E000C7F30A00C3F30A510290401A0190402854
:1002F0006BDAC3F3130040F4801B0098924620B1E0
:100300000023D2EB030A63EB0B0B01985946C0F1B3
:100310004002504600F097F906460D4650465946B1
:10032000019A00F0AFF910EB08006141002487EA60
:10033000115284EAE7731A4340D0009A62B3019ADB
:10034000012A4FEA075215DC001B61EB02014FF056
:10035000004202EA0752CDE90042001C41F580113B
:1003600032462B4600F0C6F903B0BDE8F08F404698
:100370002146F9E7001B61EB0201001C41F58013E7
:1003800000185B412018A2F5001747EB030140EA73
:10039000D570B6196D4111E06D084FEA360645EA91
:1003A000C0754FEA0752001B61EB0201001C41F5CA
:1003B000801149084FEA30000019514132462B465E
:1003C00003B0BDE8F04F00F086B90098012240006C
:1003D0000023D0EB020263EBE073009821464FEA62
:1003E000E074B8EB000061EB0401E9E783F000433F
:1003F0005BE781F0004158E72DE9FE4F81EA0304F5
:1004000004F0004421F0004100944FF0000B23F071
:10041000004350EA01045ED052EA03045BD0C3F308
:100420000A54C1F30A552C44A4F2F3340194A0FBFE
:100430000254C1F3130141F48011C3F3130343F4D5
:10044000801301FB024400FB034E840A970A44EA2E
:10045000815447EA8357A4FB076802958D0A05FB80
:1004600007854FEA932C04FB0C542705029D4FEAA5
:10047000065847EA1637B5EB08056EEB070C870EF2
:10048000920E47EA811742EA8312A7FB0201B6EBFC
:100490000B0164EB00042B0D43EA0C335E1844EBB4
:1004A0001C50DA465146E7FB0201C5F313044FEA3C
:1004B0000B3343EA14534FEA0432019C43EA060328
:1004C000A4F10C040294009CCDE900B400F012F9F0
:1004D00003B0BDE8F08F00200146F9E72DE9F04DAB
:1004E00081EA030404F0004B21F0004514464FF06C
:1004F000000A23F0004150EA050220D054EA01022C
:100500001DD0C5F30A570246C5F31303C1F3130008
:10051000C1F30A5640F4801543F48013A7EB060894
:10052000101BD64608F2FD3873EB050002D308F124
:10053000010801E092185B41B8F1000F03DA0020D6
:100540000146BDE8F08D00204FF480110646844638
:100550000EE0171B73EB050705D3121B63EB0503B6
:1005600006434CEA010C49084FEA300092185B41FF
:1005700050EA0107EDD152EA030012D082EA0400EA
:1005800083EA0501084305D0101BAB4106D20122C6
:10059000002306E000224FF0004302E06FF001026A
:1005A00053101AEB06004CEB085110EB0A0041EB1C
:1005B0000B01BDE8F04D00F08EB80EB5C10F80EA1A
:1005C000E0700844CA07002140F233438DE80E0072
:1005D0000A460B4600F08EF803B000BD70B5C1F3BB
:1005E0000A5201F000450024C1F3130140F2FF3329
:1005F00041F480119A4201DA002070BD40F2334389
:100600009A42A2F2334203DC524200F02BF800E09F
:1006100090402C43F1D0404270BD30B50B460146AE
:1006200000202022012409E021FA02F59D4205D391
:1006300003FA02F5491B04FA02F52844151EA2F13B
:100640000102F1DC30BD202A04DB203A00FA02F17D
:10065000002070479140C2F1200320FA03F31943B0
:1006600090407047202A04DB203A21FA02F0002152
:10067000704721FA02F3D040C2F1200291400843B2
:1006800019467047202A06DBCB17203A41FA02F0C0
:1006900043EAE07306E041FA02F3D040C2F12002DF
:1006A00091400843194670472DE9F0410746154629
:1006B0000E46102009F000FC04000AD06760C4E96F
:1006C000026500F0BFF80168216004600020BDE809
:1006D000F0810120FBE710B5141E73F1000408DA65
:1006E000401C41F1000192185B411A4301D120F0F6
:1006F000010010BD2DE9F04D92469B4611B1B1FAB3
:1007000081F202E0B0FA80F220329046FFF79BFFC0
:1007100004460F4640EA0A0041EA0B0153465A4696
:10072000084313D0114653EA010019D0C8F1400222
:100730005046FFF797FF05460E465046594642463B
:10074000FFF781FF084305D0012004E02046394629
:10075000BDE8F08D0020054346EAE0762C433743A0
:100760000A986305E40AA0EB08000022FD0A44EAA7
:1007700047540A3002D500200146E9E70105101967
:100780006941DDE9084500196941BDE8F04DA2E77E
:1007900070B521F0004303430CD0C1F30A55002487
:1007A000D5EB040564EB0403D617AD1AB34102DBA5
:1007B0000020014670BD201841EB025170BDC1F30D
:1007C0000A52C1F3130140F2FF3341F480119A42FF
:1007D00002DA00200146704740F233439A42A2F207
:1007E000334202DC5242FFF73DBFFFF72CBF00004F
:1007F00030B5041E71F1000404DB4FF000444042A8
:1008000064EB0101141E73F1000405DB1C464FF07C
:100810000043524263EB0403994208BF904230BD4B
:10082000064C074D06E0E06840F0010394E807003D
:1008300098471034AC42F6D3FFF7AAFCE4A10008B5
:1008400004A2000800487047080000202DE9F0418C
:100850000646FFF7F7FF8046454613E016B1E0680D
:10086000B0420ED120682860D4E90101D8F80070A8
:100870008847204609F0F8FAD8F80000B842EBD1D2
:1008800000E025462C68002CE8D1BDE8F0812DE978
:10089000F04D00231A461B1A8A4103DB0020014653
:1008A000BDE8F08DC1F30A52C1F3130141F4801584
:1008B0004FF0000BD10702D100186D41521E0027E6
:1008C000044640F2FF11384601EB620A3E4680467C
:1008D000024600204FF48011FFF7C4FEC219714197
:1008E000BB1846EB0100B4EB030C75EB000C04D312
:1008F000E41A65EB000517460E46241908F10100BD
:100900006D4180463428E3DDF91946EB0600091BEA
:10091000A84103D24FF0FF32134601E000221346F4
:100920001BEB070046EB0A51BDE8F04DFFF7D3BEC5
:1009300070470000FFE7FEE780B58CB000200B9009
:100940000A900990089007900690059004900390F3
:10095000029002A8031D40F6B400C2F2000001217B
:1009600005AA00F04FFD09998DF80B10089902298E
:10097000009004D1FFE701208DF80A0003E0002079
:100980008DF80A00FFE70698ADF8080040F24850DD
:10099000C2F200004AF2E801C0F6000105F0AAF92F
:1009A000BDF808009DF80A109DF80B200DF1080E07
:1009B0000EF1040305F0A6F8BDF8080041F2350178
:1009C000884225D1FFE740F23010C2F200000078E3
:1009D0003F281DDCFFE700200190FFE70198072872
:1009E00015DCFFE7019802A90844007940F23011B4
:1009F000C2F200010A78531C0B7040F68041C2F22B
:100A000000018854FFE7019801300190E6E7FFE715
:100A100040F23010C2F20000007840282AD1FFE7EF
:100A200040F68040C2F200000078EE281AD1FFE7BD
:100A300040F68040C2F200004078EE2812D1FFE775
:100A400040F68040C2F2000090F83E00FF2809D135
:100A5000FFE740F68040C2F2000090F83F00FF2818
:100A600007D0FFE740F23010C2F200000021017011
:100A7000FFE7FFE70CB080BD80B502F039FC00F065
:100A80002BF840F6B400C2F2000000F011FF00287D
:100A90000BD0FFE740F24850C2F200004AF2A50135
:100AA000C0F6000105F026F9FFE740F6B400C2F2F7
:100AB0000000102100F0D4FA00280BD0FFE740F22C
:100AC0004850C2F200004AF28001C0F6000105F071
:100AD00011F9FFE780BD000080B58AB000200590C5
:100AE0000690012107910090019002904FF470420E
:100AF0000392049008910E20099040F6B400C2F2CF
:100B00000000694600F0A0FB00280BD0FFE740F290
:100B10004850C2F200004AF25801C0F6000105F048
:100B2000E9F8FFE7012005900021069107914FF2B7
:100B3000FF02009241F2350201920291039104906A
:100B400008900E20099040F6B400C2F200006946F9
:100B500000F07AFB00280BD0FFE740F24850C2F2C9
:100B600000004AF25801C0F6000105F0C3F8FFE7A3
:100B70000AB080BD80B584B0014602900298031D82
:100B800040F6B400C2F2000040F22852C2F2000265
:100B90004FF0000C0191614600F034FC002804D0B5
:100BA000FFE700208DF80F0036E040F22850C2F237
:100BB00000000169029AD170C068022804D1FFE7E1
:100BC00002980121817003E0029800218170FFE703
:100BD00040F22850C2F200000168029A118040F2EF
:100BE0004851C2F200014AF2E802C0F60002009049
:100BF0000846114605F07EF802980188827890F840
:100C000003E0031D08461146724604F07BFF00987E
:100C100001698DF80F10FFE79DF80F0004B080BD4B
:100C200080B58AB001460890002007900690059094
:100C30000490039002900190089A12880292049006
:100C4000089880780028009103D0FFE702200590E3
:100C500002E000200590FFE70898C0780690002089
:100C60008DF81C000898021D40F6B400C2F2000086
:100C700002A901AB00F022FA002804D0FFE700200F
:100C80008DF8270017E040F24850C2F200004AF207
:100C9000C901C0F6000105F02DF8BDF8080008995B
:100CA00091F802E0069A0B1D714604F02BFF01201B
:100CB0008DF82700FFE79DF827000AB080BD0000EF
:100CC00080B592B013468C4686468DF84700109149
:100CD0000F9200200E900D900C900B9010980A909F
:100CE00010980630099004200C909DF84700503869
:100CF00001460F280893CDF81CC0CDF818E00591E7
:100D000042D80599DFE801F01A081D1122272A2D83
:100D1000303336404040403934200E9003200C9050
:100D200040200D9001200B902FE03D200E900320DD
:100D30000C902E200D9001200B9026E030200E907C
:100D400023E037200E9003200F901EE03A200E90F3
:100D500003200F9019E041200E9016E045200E90E0
:100D600013E049200E9010E04D200E900DE0512030
:100D70000E900AE055200E9007E040F67840C2F24F
:100D8000000000680E9000E046E00F98032805D1AF
:100D9000FFE703200C9000200B90FFE70C98002841
:100DA0001BD0FFE70E9840F65421C2F2000101EB80
:100DB00040000A990C9A5200FFF737FA40F6D0111A
:100DC000C2F2000109680E9ADDF830E00490104686
:100DD00003917146039A9047FFE70B9800281BD0B8
:100DE000FFE70D9840F65421C2F2000101EB4000EC
:100DF00009990B9A5200FFF718FA40F6D011C2F287
:100E0000000109680D9ADDF82CE00290104601916E
:100E10007146019A9047FFE712B080BD704700000D
:100E200086B00146059002200390002004900091B6
:100E3000FFE704980D2839DCFFE7039840F680416E
:100E4000C2F20001085C8DF80B000398013003909A
:100E50000398085C8DF80A0003980130039003980A
:100E6000085C8DF809000398013003900398085C32
:100E70008DF808000398013003909DF80B009DF851
:100E80000A109DF809209DF8083043EA022242EA40
:100E9000014141EA0060019001980599049A41F8E6
:100EA0002200FFE7049801300490C2E740F23010BE
:100EB000C2F200000021017006B0704780B594B006
:100EC0000A460346119010910D200D9000208DF8D8
:100ED000330040F25070C2F2000000886FF39F3080
:100EE000ADF83E00BDF83E0001380E900B920A931B
:100EF000FFE70E9800287CDBFFE70E9840F2886140
:100F0000C2F20001085C202864D0FFE70E9840F28E
:100F10008861C2F20001085C2D2852D0FFE7BDF8BD
:100F20003E0001380E99401A9DF83310401A0A21EC
:100F3000139112901398FFF740FB41EC100B12989D
:100F40008DED080BFFF739FB41EC110B9DED080B04
:100F500007F012FC0E9840F28861C2F20001085CB2
:100F600030388DED060BFFF728FB41EC100B9DEDA3
:100F7000061B51EC110B53EC102BFFF73DFA41EC23
:100F8000100B10980D9950F82120059010468DED0A
:100F9000020B0191FFF711FB41EC100B9DED021BC1
:100FA00053EC112B51EC100BFFF77FF941EC100BB8
:100FB00051EC100BFFF712FB0599019A41F8220042
:100FC00007E010980D9950F82120524240F8212056
:100FD000FFE709E00D9801380D90BDF83E000E992D
:100FE000401A8DF83300FFE7FFE70E9801380E90A6
:100FF0007FE711984AF20F11C0F6000104F062FE7B
:1010000000200E90FFE70E980D280CDCFFE71198EA
:1010100010990E9A51F8221004F0D6FDFFE70E98B1
:1010200001300E90EFE7FFE711980068006800F0CC
:1010300040000121B1EB901F01D0FFE7F4E74AF235
:101040000A10C0F6000007F059FB40F2507EC2F2D1
:10105000000E0021AEF80010009014B080BD00001A
:1010600086B00A46034604900391049890F8200045
:101070008DF80B009DF80B0001280192009305D01C
:10108000FFE79DF80B0002280AD1FFE703980499B7
:1010900009684A691043486100208DF8170008E08C
:1010A0000498416A41F48021416201208DF81700C3
:1010B000FFE79DF8170006B070470000B0B58CB090
:1010C0009C4696460C4605460A900991089207935D
:1010D0000A9890F820008DF817000A980068806838
:1010E0000490099880680028CDF80CC0CDF808E07D
:1010F0000194009501D1FFE700E0FFE79DF817009C
:10110000012806D0FFE79DF81700022840F08F80E5
:10111000FFE79DF81300400700280CD4FFE79DF877
:1011200013000007002806D4FFE79DF81300C0064F
:10113000002873D5FFE70498C0F301600690069875
:10114000032809D3FFE70A98416A41F4000141628C
:1011500001208DF82F0073E00698012101FA00F0BC
:10116000079908600998806800280DD1FFE7099861
:101170000168C06840EA41500A990968069A01EB83
:101180000211C1F880010EE0099841688268C068C8
:1011900042EAC10108430A990968069A01EB021163
:1011A000C1F88001FFE7099800690A990968069A61
:1011B00001EB0211C1F884010998007D01280CD1CE
:1011C000FFE70A980068069900EB0110D0F8841137
:1011D00041F48071C0F88411FFE7089840680A99CB
:1011E0000968069A01EB0211C1F88C0108980068A1
:1011F0000A990968069A01EB0211C1F888010A9858
:101200000068069900EB0110D0F8801141F001014F
:10121000C0F8801100208DF82F0011E00A98416A73
:1012200041F40011416201208DF82F0008E00A9876
:10123000416A41F48021416201208DF82F00FFE7CF
:101240009DF82F000CB0B0BD88B00A46034606904A
:101250000591069800680390069890F820008DF894
:101260000B009DF80B0001280192009306D0FFE7C8
:101270009DF80B00022840F0B880FFE746F20040DE
:10128000C4F2000003900398D0F8001241F001016D
:10129000C0F800120398D0F8001221F47C51C0F875
:1012A00000120598406A0399D1F8002242EA002012
:1012B000C1F800020598406900F01F00012101FA01
:1012C00000F0049004980399D1F81C2222EA00004F
:1012D000C1F81C020598C06900281FD1FFE70498D7
:1012E0000399D1F80C2222EA0000C1F80C020598FB
:1012F0008188C268406941EA0241039A02EBC0005A
:10130000C0F84012059801888268406941EA0241AC
:10131000039A02EBC000C0F84412FFE70598C069C9
:1013200001281ED1FFE704980399D1F80C2210433D
:10133000C1F80C02059881880268406941EA0241BF
:10134000039A02EBC000C0F84012059881898268B8
:10135000406941EA0241039A02EBC000C0F844121E
:10136000FFE705988069002809D1FFE704980399F1
:10137000D1F8042222EA0000C1F8040207E0049830
:101380000399D1F804221043C1F80402FFE705983D
:101390000069002809D1FFE704980399D1F81422C5
:1013A00022EA0000C1F8140207E004980399D1F87A
:1013B00014221043C1F81402FFE70598006A0128BF
:1013C00008D1FFE704980399D1F81C221043C1F813
:1013D0001C02FFE70398D0F8001221F00101C0F8C9
:1013E000001200208DF81F0008E00698416A41F4C1
:1013F0008021416201208DF81F00FFE79DF81F004A
:1014000008B07047B0B58AB09C4696460C46054673
:101410000890079106920593089890F820008DF89F
:1014200013009DF813000128CDF80CC0CDF808E09A
:101430000194009506D0FFE79DF81300022840F0C4
:10144000DC80FFE70798002811D1FFE708980068C3
:10145000C0688007002809D1FFE70898416A41F475
:101460000011416201208DF82700CFE010E00898BC
:10147000006800698007002809D1FFE70898416AE1
:1014800041F40011416201208DF82700BEE0FFE722
:1014900008980068079900EB0110D0F8B00100F03F
:1014A0000400069988600698806800280BD1FFE741
:1014B00008980068079900EB0110D0F8B001400DC2
:1014C000069908600AE008980068079900EB011087
:1014D000D0F8B001C00806994860FFE70898006896
:1014E000079900EB0110D0F8B001C0F34000069955
:1014F000C86008980068079900EB0110D0F8B401A3
:1015000000F00F000699086108980068079900EB41
:101510000110D0F8B40180B2000A069988610898D9
:101520000068079900EB0110D0F8B401000C06998F
:10153000486108980068079900EB0110D0F8B801DD
:101540000599087008980068079900EB0110D0F819
:10155000B801000A0599487008980068079900EBDF
:101560000110D0F8B801000C05998870089800683F
:10157000079900EB0110D0F8B801000E0599C8706A
:1015800008980068079900EB0110D0F8BC01059994
:10159000087108980068079900EB0110D0F8BC01A9
:1015A000000A0599487108980068079900EB011036
:1015B000D0F8BC01000C059988710898006807995B
:1015C00000EB0110D0F8BC01000E0599C871079816
:1015D000002807D1FFE708980068C16841F02001A2
:1015E000C16006E008980068016941F020010161CE
:1015F000FFE700208DF8270008E00898416A41F4D1
:101600008021416201208DF82700FFE79DF8270027
:101610000AB0B0BD80B584B001460290029800289F
:10162000009104D1FFE701208DF80F00E6E0029859
:1016300090F82000002804D1FFE7029800F0E2F8BB
:10164000FFE702980068016821F00201016000F0E4
:10165000AFFB0190FFE70298006840688007002810
:1016600017D5FFE700F0A4FBDDF804E0A0EB0E00C7
:101670000B280DD3FFE70298416A41F40031416223
:101680000298052180F8201001208DF80F00B5E0A8
:10169000E1E702980068016841F00101016000F093
:1016A00087FB0190FFE7029800684068C0070028A8
:1016B00017D1FFE700F07CFBDDF804E0A0EB0E00A3
:1016C0000B280DD3FFE70298416A41F400314162D3
:1016D0000298052180F8201001208DF80F008DE080
:1016E000E1E70298007E012807D1FFE70298006831
:1016F000016841F08001016006E00298006801681D
:1017000021F080010160FFE70298407E012807D1A7
:10171000FFE702980068016841F04001016006E0BF
:1017200002980068016821F040010160FFE702981B
:10173000807E012807D1FFE702980068016841F028
:101740002001016006E002980068016821F0200194
:101750000160FFE70298C07E012807D1FFE70298E9
:101760000068016821F01001016006E0029800683D
:10177000016841F010010160FFE70298007F012835
:1017800007D1FFE702980068016841F00801016095
:1017900006E002980068016821F008010160FFE797
:1017A0000298407F012807D1FFE70298006801688E
:1017B00041F00401016006E002980068016821F030
:1017C00004010160FFE70298016842688368D0F86D
:1017D0000CC043EA0C03D0F810C043EA0C03406984
:1017E0001843013A1043C8610298002141620298EF
:1017F000012280F820208DF80F10FFE79DF80F00E0
:1018000004B080BD80B58EB001460D9000200C90D4
:101810000B900A90099008900D98006846F20042DB
:10182000C4F20002904205913FD1FFE7FFE700209C
:10183000079043F64000C4F20200016841F00071D5
:101840000160006800F00070079007980490FFE7BF
:10185000FFE70020069043F63000C4F20200016862
:1018600041F001010160006800F001000690069857
:101870000390FFE74FF4C050089002200990012127
:101880000A910B9009200C900020C4F2020008A9D4
:1018900000F07CF81520002102900191019A00F0DF
:1018A000F1FA029800F0E2FAFFE70EB080BD000006
:1018B00080B584B001460290029890F8200001287B
:1018C000009132D1FFE70298022180F8201002989F
:1018D0000068016821F00101016000F069FA0190DF
:1018E000FFE7029800684068C007002817D0FFE7AC
:1018F00000F05EFADDF804E0A0EB0E000B280DD33B
:10190000FFE70298416A41F40031416202980521E3
:1019100080F8201001208DF80F000FE0E1E7029819
:10192000002141628DF80F1008E00298416A41F4ED
:101930000021416201208DF80F00FFE79DF80F00A4
:1019400004B080BD83B001460190019890F8350045
:101950000228009107D0FFE701988021416501200E
:101960008DF80B000EE00198052180F835100198E4
:101970000068016821F001010160FFE700208DF897
:101980000B00FFE79DF80B0003B0704791B00A46CB
:10199000034610900F9100200D900C900B900E902C
:1019A00009920893FFE70E980F2800F2D481FFE711
:1019B0000E98012101FA00F00D900F9800680D9922
:1019C00008400C900C980D99884240F0BF81FFE7C9
:1019D0000F984068022805D0FFE70F98406812284A
:1019E00026D1FFE710980E996FF0030202EA510129
:1019F0000844006A0B900E9800F0070080000F2149
:101A000001FA00F00B9921EA00000B900F98006991
:101A10000E9901F00701890088400B9908430B904B
:101A20000B9810990E9B02EA530211440862FFE7DB
:101A3000109800680B900E984000032101FA00F006
:101A40000B9921EA00000B900F98406800F003000A
:101A50000E99490088400B9908430B900B981099F8
:101A600008600F98406801280FD0FFE70F98406882
:101A700002280AD0FFE70F984068112805D0FFE739
:101A80000F98406812282FD1FFE7109880680B90BC
:101A90000E984000032101FA00F00B9921EA0000A2
:101AA0000B900F98C0680E99490088400B99084325
:101AB0000B900B9810998860109840680B900E98C6
:101AC000012101FA00F00B9921EA00000B900F9818
:101AD0004068C0F300100E9988400B9908430B90A2
:101AE0000B9810994860FFE71098C0680B900E980B
:101AF0004000032101FA00F00B9921EA00000B904D
:101B00000F9880680E99490088400B9908430B9004
:101B10000B981099C8600F984068C000002840F1E9
:101B20001481FFE7FFE700200A9043F64400C4F267
:101B30000200016841F480410160006800F48040C7
:101B40000A900A980790FFE70E9820F0030043F6EA
:101B50000801C4F2010140580B900E9800F00300F8
:101B600080000F2101FA00F00B9921EA00000B9090
:101B700010980021C4F20201884203D1FFE700203F
:101B800006905EE0109840F20041C4F202018842E3
:101B900003D1FFE70120059050E0109840F60001C6
:101BA000C4F20201884203D1FFE70220049042E020
:101BB000109840F60041C4F20201884203D1FFE7C9
:101BC0000320039034E0109841F20001C4F20201B6
:101BD000884203D1FFE70420029026E0109841F2EA
:101BE0000041C4F20201884203D1FFE705200190C1
:101BF00018E0109841F60001C4F20201884203D1B6
:101C0000FFE7062000900AE0109841F60041C4F278
:101C100002010822884208BF07220092FFE70098CD
:101C20000190FFE701980290FFE702980390FFE719
:101C300003980490FFE704980590FFE70598069045
:101C4000FFE70698C0B20E9901F0030189008840B1
:101C50000B9908430B900B980E9921F0030143F662
:101C60000802C4F20102885043F60040C4F20100A9
:101C700000680B900C980B9921EA00000B900F98CC
:101C80004068C003002805D5FFE70C980B9908436E
:101C90000B90FFE70B9843F60041C4F20101086086
:101CA00043F60440C4F2010000680B900C980B99B5
:101CB00021EA00000B900F9840688003002805D5AA
:101CC000FFE70C980B9908430B90FFE70B9843F63E
:101CD0000441C4F20101086043F60840C4F2010067
:101CE00000680B900C980B9921EA00000B900F985C
:101CF0004068C002002805D5FFE70C980B990843FF
:101D00000B90FFE70B9843F60841C4F2010108600D
:101D100043F60C40C4F2010000680B900C980B993C
:101D200021EA00000B900F9840688002002805D53A
:101D3000FFE70C980B9908430B90FFE70B9843F6CD
:101D40000C41C4F201010860FFE7FFE7FFE70E98CE
:101D500001300E9027E611B07047000080B585B0C5
:101D600013468C4686460490ADF80E108DF80D2073
:101D70009DF80D0000280293CDF804C0CDF800E0D6
:101D800005D0FFE7BDF80E000499886105E0BDF8B5
:101D90000E00000404998861FFE705B080BD0000D3
:101DA00042F20000CEF204000068000C7047000010
:101DB00043F6C800C2F201000068704780B582B0E7
:101DC00043F60040C4F20200016841F40071016072
:101DD000016841F480610160052000F079F80F206E
:101DE00000F006F8019000F03FF8002002B080BD3E
:101DF00080B584B00146029040F2A800C2F2000013
:101E0000006840F2B402C2F2000212784FF47A7312
:101E1000B3FBF2F2B0FBF2F0019100F097FD002865
:101E200004D0FFE701208DF80F0018E002980F287A
:101E30000DD8FFE702994FF0FF30002200F022F8A2
:101E4000029840F2B801C2F20001086003E00120EC
:101E50008DF80F0003E000208DF80F00FFE79DF8DC
:101E60000F0004B080BD00007047000080B582B054
:101E700001468DF807009DF90700009103F0BCFBB7
:101E800002B080BD80B58AB013468C4686468DF878
:101E9000270008910792002006900593CDF810C006
:101EA000CDF80CE003F0C4FB06909DF927000699DD
:101EB000089A079B0290084611461A4601F01AFC40
:101EC000029901900846019903F0BAFB0AB080BD5F
:101ED00080B582B0014601900198009103F0D6FBD5
:101EE00002B080BD80B588B00A46034606900591D1
:101EF000069800280392029304D1FFE701208DF891
:101F00001F0024E1059843F60041C4F2020109686C
:101F100001F00F01884212D9FFE7059843F600410E
:101F2000C4F202010870086800F00F0005998842A9
:101F300004D0FFE701208DF81F0008E1FFE70698B5
:101F40000068800700282AD5FFE706980068400748
:101F5000002809D5FFE743F60800C4F20200016833
:101F600041F4E0510160FFE706980068000700288F
:101F700009D5FFE743F60800C4F20200016841F406
:101F800060410160FFE743F60800C4F20200016807
:101F900021F0F001069A926811430160FFE706986C
:101FA0000068C007002870D0FFE706984068012845
:101FB00011D1FFE743F60000C4F20200006800F40C
:101FC00000300021B1EB504F04D1FFE701208DF824
:101FD0001F00BCE02CE006984068022805D0FFE70F
:101FE00006984068032811D1FFE743F60000C4F2C9
:101FF0000200006800F000700021B1EB506F04D1C6
:10200000FFE701208DF81F00A1E010E043F600007B
:10201000C4F20200006800F002000021B1EB500F92
:1020200004D1FFE701208DF81F0090E0FFE7FFE7F4
:1020300043F60800C4F20200016821F00301069A89
:10204000526811430160FFF7B3FE0490FFE743F6C7
:102050000800C4F20200006800F00C00069949680C
:10206000B0EB810F10D0FFE7FFF7A2FEDDF810E024
:10207000A0EB0E0041F2893E704504D3FFE7032038
:102080008DF81F0063E0E2E7FFE7059843F60041A3
:10209000C4F20201096801F00F01884212D2FFE781
:1020A000059843F60041C4F202010870086800F088
:1020B0000F000599884204D0FFE701208DF81F002A
:1020C00045E0FFE706980068400700280CD5FFE7C9
:1020D00043F60800C4F20200016821F4E051069AB8
:1020E000D26811430160FFE70698006800070028E6
:1020F0000DD5FFE743F60800C4F20200016821F4A1
:102100006041069A126941EAC2010160FFE700F0EE
:1021100053F843F6080EC4F2020EDEF800E05FFA50
:102120008EFE4FEA1E1E4AF22801C0F6000111F889
:102130000E10C84040F2A801C2F2000108600F2052
:10214000FFF756FE00218DF81F100190FFE79DF864
:102150001F0008B080BD000040F2A800C2F20000DD
:102160000068704780B5FFF7F7FF43F6080EC4F22A
:10217000020EDEF800E0CEF3822E4AF23801C0F6FD
:10218000000111F80E10C84080BD000080B5FFF7B7
:10219000E3FF43F6080EC4F2020EDEF800E01FFA79
:1021A0008EFE4FEA5E3E4AF23801C0F6000111F899
:1021B0000E10C84080BD000080B586B0002005909C
:1021C00004900390029043F60800C4F202000068F5
:1021D00000F00C0001460028019108D0FFE70198AB
:1021E00004280AD0FFE7019808280CD04FE042F2FB
:1021F0000040C0F2F40002904FE041F20020C0F233
:102200007A00029049E043F60400C4F2020001683B
:1022100001F03F01059100684002002813D5FFE757
:1022200043F60400C4F202000068C0F3881041F2D3
:102230000021C0F27A01A0FB0101059A0023FDF7FD
:10224000C3FF049012E043F60400C4F202000068E9
:10225000C0F3881042F20041C0F2F401A0FB01017A
:10226000059A0023FDF7B0FF0490FFE743F6040052
:10227000C4F20200006800F44030022101EBD030CB
:10228000039004980399B0FBF1F0029005E042F24C
:102290000040C0F2F4000290FFE7029806B080BD53
:1022A00080B588B00146069006980028029104D1B6
:1022B000FFE701208DF81F0027E306980068C0079C
:1022C000002800F0AB80FFE743F60800C4F20200EC
:1022D000006800F00C00042813D0FFE743F6080064
:1022E000C4F20200006800F00C0008281FD1FFE7CC
:1022F00043F60400C4F2020000684002002816D52C
:10230000FFE743F60000C4F20200006800F400306A
:102310000021B1EB504F09D0FFE706984068002834
:1023200004D1FFE701208DF81F00EEE275E0FFE722
:1023300006984068B0F5803F09D1FFE743F60000FA
:10234000C4F20200016841F48031016020E0069887
:102350004068B0F5A02F0DD1FFE743F60000C4F2AE
:102360000200016841F480210160016841F480317C
:1023700001600CE043F60000C4F20200016821F4A1
:1023800080310160016821F480210160FFE7FFE7EF
:10239000FFE70698406800281FD0FFE7FFF708FD19
:1023A0000590FFE743F60000C4F20200006800F465
:1023B00000300021B1EB504F0ED1FFE7FFF7F8FCE2
:1023C000DDF814E0A0EB0E00652804D3FFE703203E
:1023D0008DF81F0099E2E5E71EE0FFF7E9FC0590A4
:1023E000FFE743F60000C4F20200006800F400308A
:1023F0000021B1EB504F0ED0FFE7FFF7D9FCDDF81D
:1024000014E0A0EB0E00652804D3FFE703208DF84D
:102410001F007AE2E5E7FFE7FFE7FFE706980068BD
:102420008007002840F19B80FFE743F60800C4F2D4
:102430000200006810F00C0F13D0FFE743F608000D
:10244000C4F20200006800F00C0008282CD1FFE75D
:1024500043F60400C4F2020000684002002823D4BE
:10246000FFE743F60000C4F20200006800F002003B
:102470000021B1EB500F09D0FFE70698C068012892
:1024800004D0FFE701208DF81F003EE243F6000074
:10249000C4F20200016821F0F801069A126941EACB
:1024A000C2010160FFE759E00698C068002830D0FB
:1024B000FFE70020C4F2472001210160FFF778FC0C
:1024C0000590FFE743F60000C4F20200006800F048
:1024D00002000021B1EB500F0ED1FFE7FFF768FCBF
:1024E000DDF814E0A0EB0E00032804D3FFE703207F
:1024F0008DF81F0009E2E5E743F60000C4F2020090
:10250000016821F0F801069A126941EAC2010160EE
:1025100023E00020C4F2472000210160FFF748FCBF
:102520000590FFE743F60000C4F20200006800F0E7
:1025300002000021B1EB500F0ED0FFE7FFF738FC8F
:10254000DDF814E0A0EB0E00032804D3FFE703201E
:102550008DF81F00D9E1E5E7FFE7FFE7FFE7069801
:1025600000680007002850D5FFE70698406900285A
:1025700025D0FFE740F68060C4F2472001210160CA
:10258000FFF716FC0590FFE743F67400C4F2020063
:10259000006800F002000021B1EB500F0ED1FFE700
:1025A000FFF706FCDDF814E0A0EB0E00032804D3CF
:1025B000FFE703208DF81F00A7E1E5E724E040F6E0
:1025C0008060C4F2472000210160FFF7F1FB059015
:1025D000FFE743F67400C4F20200006800F0020056
:1025E0000021B1EB500F0ED0FFE7FFF7E1FBDDF864
:1025F00014E0A0EB0E00032804D3FFE703208DF8BE
:102600001F0082E1E5E7FFE7FFE706980068400763
:10261000002840F1D680FFE700208DF8130043F634
:102620004000C4F202000068C000002816D4FFE792
:10263000FFE70020039043F64000C4F20200016867
:1026400041F080510160006800F0805003900398D1
:102650000190FFE701208DF81300FFE747F200002B
:10266000C4F200000068C005002824D4FFE747F248
:102670000000C4F20000016841F480710160FFF7BE
:1026800097FB0590FFE747F20000C4F200000068E6
:10269000C00500280ED4FFE7FFF78AFBDDF814E041
:1026A000A0EB0E00032804D3FFE703208DF81F00E2
:1026B0002BE1E8E7FFE7FFE706988068012809D1EA
:1026C000FFE743F67000C4F20200016841F0010127
:1026D00001601FE00698806805280DD1FFE743F6EA
:1026E0007000C4F20200016841F004010160016859
:1026F00041F0010101600CE043F67000C4F20200F9
:10270000016821F001010160016821F0040101600C
:10271000FFE7FFE7FFE706988068002821D0FFE782
:10272000FFF746FB0590FFE743F67000C4F2020096
:10273000006800F002000021B1EB500F10D1FFE75C
:10274000FFF736FBDDF814E0A0EB0E0041F2893E06
:10275000704504D3FFE703208DF81F00D5E0E3E7C1
:1027600020E0FFF725FB0590FFE743F67000C4F279
:102770000200006800F002000021B1EB500F10D001
:10278000FFE7FFF715FBDDF814E0A0EB0E0041F2C8
:10279000893E704504D3FFE703208DF81F00B4E0A5
:1027A000E3E7FFE79DF81300012809D1FFE743F6AF
:1027B0004000C4F20200016821F080510160FFE78F
:1027C000FFE706988069002800F09B80FFE743F64A
:1027D0000800C4F20200006800F00C00082800F0B5
:1027E0008B80FFE706988069022860D1FFE76020B0
:1027F000C4F2472000210160FFF7DAFA0590FFE7F5
:1028000043F60000C4F20200006800F000700021EE
:10281000B1EB506F0ED0FFE7FFF7CAFADDF814E016
:10282000A0EB0E00032804D3FFE703208DF81F0060
:102830006BE0E5E70698C169026A436AD0F828C0F0
:10284000114341EA83114FEACC324FF6FF739A43AA
:10285000A2F580321143C06A41EA006043F60401E8
:10286000C4F2020108606020C4F247200121016027
:10287000FFF79EFA0590FFE743F60000C4F202005E
:10288000006800F000700021B1EB506F0ED1FFE73F
:10289000FFF78EFADDF814E0A0EB0E00032804D356
:1028A000FFE703208DF81F002FE0E5E723E060201D
:1028B000C4F2472000210160FFF77AFA0590FFE794
:1028C00043F60000C4F20200006800F0007000212E
:1028D000B1EB506F0ED0FFE7FFF76AFADDF814E0B6
:1028E000A0EB0E00032804D3FFE703208DF81F00A0
:1028F0000BE0E5E7FFE703E001208DF81F0004E0AF
:10290000FFE700208DF81F00FFE79DF81F0008B0CB
:1029100080BD000082B0014601900198042800911A
:1029200009D1FFE74EF21000CEF20000016841F03D
:102930000401016008E04EF21000CEF200000168D0
:1029400021F004010160FFE702B0704780B582B05A
:10295000014601900198009101F04CF902B080BD50
:1029600082B001460190009102B0704784B00146E8
:102970000390002002900190039890F83900029093
:10298000039890F83A0001909DF808009DF8042003
:102990001043009104B0704780B58CB001460B9095
:1029A0000B98006800680A900B980068C06809904E
:1029B0000B980068406908900020079006900A98DC
:1029C00000F00F00079007980028059112D1FFE74B
:1029D0009DF82800800600280BD5FFE79DF824000D
:1029E0008006002805D5FFE70B9801F0C7FA049090
:1029F000E0E0FFE70798002800F0BA80FFE79DF8C5
:102A00002000C007002807D1FFE7BDF8240010F41C
:102A1000907F00F0AD80FFE79DF82800C0070028F8
:102A20000CD0FFE79DF82500C007002806D0FFE77F
:102A30000B98C16B41F00101C163FFE79DF82800CD
:102A4000400700280CD5FFE79DF82000C0070028AC
:102A500006D0FFE70B98C16B41F00201C163FFE7AD
:102A60009DF82800800700280CD5FFE79DF820007E
:102A7000C007002806D0FFE70B98C16B41F00401A6
:102A8000C163FFE79DF82800000700280CD5FFE789
:102A90009DF82000C007002806D0FFE70B98C16B07
:102AA00041F00801C163FFE70B98C06B00285ED0BE
:102AB000FFE79DF82800800600280BD5FFE79DF86A
:102AC00024008006002805D5FFE70B9801F056FA90
:102AD0000390FFE70B9800684069C0F380100690F0
:102AE0000B98C06B0007002804D4FFE70698002865
:102AF00033D0FFE70B9801F015FA0B980068406996
:102B00004006002824D5FFE70B980068416921F0B2
:102B1000400141610B98406B002814D0FFE70B98EF
:102B2000406B43F60171C0F6000101650B98406BE4
:102B3000FEF708FF002805D0FFE70B98406B016DFA
:102B40008847FFE703E00B98FFF70AFFFFE703E082
:102B50000B98FFF705FFFFE708E00B98FFF700FF72
:102B60000B984FF0000EC0F83CE0FFE7FFE721E0D4
:102B70009DF82800000600280BD5FFE79DF82400EB
:102B80000006002805D5FFE70B9801F0A7FC02908E
:102B900010E09DF82800400600280BD5FFE79DF8BF
:102BA00024004006002805D5FFE70B9801F0D0F976
:102BB0000190FFE70CB080BD80B584B00146029063
:102BC00002980028019104D1FFE701208DF80F0041
:102BD00041E002988069002801D0FFE700E0FFE7AC
:102BE000029890F83900002808D1FFE702980021E8
:102BF00080F83810029800F033F8FFE7029824219B
:102C000080F8391002980068C16821F40051C16051
:102C1000029801F02FFA02980068016921F49041AE
:102C2000016102980068416921F02A01416102981E
:102C30000068C16841F40051C16002980021C1637D
:102C400002984FF0200E80F839E0029880F83AE0C0
:102C50008DF80F10FFE79DF80F0004B080BD000055
:102C600080B5ACB001462B902B98006841F2000271
:102C7000C4F2010290421B914AD1FFE7FFE7002016
:102C8000259043F63000C4F20200016841F00101D2
:102C90000160006800F00100259025981A90FFE778
:102CA000FFE70020249043F64400C4F202000168CC
:102CB00041F010010160006800F010002490249899
:102CC0001990FFE74FF40070269002202790012111
:102CD0002891299007202A900020C4F2020026A9FA
:102CE00018901791FEF752FE4FF4806026901898C6
:102CF0001799FEF74BFE25201690FFF7B7F8032033
:102D00001699159008461599159AFFF7BBF8FFE735
:102D10002B98006844F20041C4F20001884248D177
:102D2000FFE7FFE70020239043F63000C4F20200E3
:102D3000016841F001010160006800F0010023908A
:102D400023981490FFE7FFE70020229043F640000D
:102D5000C4F20200016841F400310160006800F42F
:102D60000030229022981390FFE704202690022042
:102D7000279001212891299007202A900020C4F251
:102D8000020026A912901191FEF700FE082026905D
:102D900012981199FEF7FAFD26201090FFF766F8B9
:102DA000032010990F9008460F990F9AFFF76AF8C1
:102DB000FFE72B98006844F60001C4F20001884246
:102DC0004BD1FFE7FFE70020219043F64000C4F21B
:102DD0000200016841F480210160006800F4802055
:102DE000219021980E90FFE7FFE70020209043F606
:102DF0003000C4F20200016841F002010160006885
:102E000000F00200209020980D90FFE74FF48060C2
:102E100026900220279001212891299007202A90AE
:102E200040F20040C4F2020026A90C900B91FEF77C
:102E3000ADFD4FF4006026900C980B99FEF7A6FDAF
:102E400027200A90FFF712F803200A9909900846F4
:102E50000999099AFFF716F8FFE72B98006844F6DE
:102E60000041C4F20001884242D1FFE7FFE70020A1
:102E70001F9043F63000C4F20200016841F00401E3
:102E80000160006800F004001F901F980890FFE7A1
:102E9000FFE700201E9043F64000C4F202000168E4
:102EA00041F400210160006800F400201E901E988B
:102EB0000790FFE74FF44060269002202790012101
:102EC0002891299008202A9040F60000C4F20200C0
:102ED00026A9FEF75BFD34200690FEF7C7FF03200E
:102EE0000699059008460599059AFEF7CBFFFFE77E
:102EF0002B98006845F20001C4F20001884242D1DB
:102F0000FFE7FFE700201D9043F63000C4F2020007
:102F1000016841F002010160006800F002001D90AC
:102F20001D980490FFE7FFE700201C9043F6400047
:102F3000C4F20200016841F480110160006800F4ED
:102F400080101C901C980390FFE74FF4407026906F
:102F50000220279001212891299008202A9040F2F0
:102F60000040C4F2020026A9FEF710FD35200290B1
:102F7000FEF77CFF03200299019008460199019A0F
:102F8000FEF780FFFFE72CB080BD000080B587B062
:102F900013468C46864605900491ADF80E200598A0
:102FA00090F83A0020280293CDF804C0CDF800E054
:102FB0004CD1FFE70498002805D0FFE7BDF80E00CC
:102FC000002804D1FFE701208DF81B0042E0FFE755
:102FD000059890F83800012804D1FFE702208DF809
:102FE0001B0037E00598012180F83810FFE7FFE764
:102FF000049805998862BDF80E0005998885BDF88A
:103000000E000599C88505980021C1630598222105
:1030100080F83A10FFE70598002180F83810FFE7A4
:1030200005980068C16841F48071C1600598006826
:10303000416941F00101416105980068C16841F0B2
:103040002001C16000208DF81B0003E002208DF8F4
:103050001B00FFE79DF81B0007B080BD80B584B062
:10306000014603900398006841F20002C4F2010295
:10307000904202915FD1FFE740F25070C2F200002F
:1030800000880004002855D4FFE740F25070C2F2D7
:10309000000000884004002819D5FFE740F25C706A
:1030A000C2F2000000780A2807D0FFE740F2507013
:1030B000C2F200000021018008E040F25070C2F22C
:1030C0000000018841F400410180FFE731E040F257
:1030D0005C70C2F2000000780D2809D1FFE740F2D1
:1030E0005070C2F20000018841F4804101801FE06D
:1030F00040F25C70C2F20000007840F25071C2F2FF
:1031000000010A886FF39F3240F28863C2F2000325
:1031100098540888013008800888C82807DBFFE732
:1031200040F25070C2F2000000210180FFE7FFE78B
:10313000FFE7FFE712E00398006845F20001C4F2E0
:103140000001884209D1FFE740F6A900C2F2000061
:10315000007801F0FFFA0190FFE7FFE704B080BDBF
:10316000B0B58CB09C4696460C4605460A9009912F
:10317000ADF822200793002005900A9890F83900B6
:103180002028CDF810C0CDF80CE00294019540F055
:103190009F80FFE70998002805D0FFE7BDF82200CF
:1031A000002804D1FFE701208DF82F0094E0FFE70D
:1031B0000A9890F83800012804D1FFE702208DF822
:1031C0002F0089E00A98012180F83810FFE7FFE717
:1031D0000A980021C1630A98212180F83910FEF76E
:1031E000E7FD0590BDF822000A998884BDF8220009
:1031F0000A99C884FFE70A98C08C00284AD0FFE7E4
:103200000A98C18C0139C1840A988068B0F5805F42
:1032100027D1FFE70A98059B07996A46116080212C
:10322000002201F0AFF9002804D0FFE703208DF859
:103230002F0051E009980690069800886FF35F20F0
:103240000A99096848600A980069002804D1FFE7D4
:1032500009980230099003E0099801300990FFE7CE
:1032600017E00A98059B07996A46116080210022A1
:1032700001F088F9002804D0FFE703208DF82F0023
:103280002AE00998411C099100780A990968486068
:10329000FFE7B0E70A98059B07996A46116040214D
:1032A000002201F06FF9002804D0FFE703208DF819
:1032B0002F0011E00A98202180F83910FFE70A98C2
:1032C000002180F83810FFE700208DF82F0003E080
:1032D00002208DF82F00FFE79DF82F000CB0B0BD45
:1032E00082B001460190009102B07047FFE7FEE70F
:1032F00010B588B040F6B400C2F2000046F20041BA
:10330000C4F2000101600199029A039BDDF810C02C
:10331000DDF814E0069C8461C0F814E0C0F810C029
:10332000C360826041600799C1610321416000214F
:103330008160C1604FF4C02202614FF4A00242617B
:103340000176417681760122C27601774177FEF7D8
:1033500061F9009008B010BD80B592B000201190C6
:1033600010900F900E900D90FFE700200C9043F608
:103370003000C4F20200016841F0040101600068FD
:1033800000F004000C900C980790FFE7FFE7002086
:103390000B9043F63000C4F20200016841F0800156
:1033A0000160006800F080000B900B980690FFE72A
:1033B000FFE700200A9043F63000C4F202000168E3
:1033C00041F002010160006800F002000A900A98D2
:1033D0000590FFE7FFE70020099043F63000C4F2B4
:1033E0000200016841F040010160006800F0400007
:1033F000099009980490FFE7FFE70020089043F642
:103400003000C4F20200016841F00101016000686F
:1034100000F00100089008980390FFE741F60000D3
:10342000C4F202004FF480710022029001910092D8
:10343000FEF794FC01980D9001210E9100990F91D7
:1034400010910DA90298FEF7A1FA12B080BD0000FC
:10345000FFE7FEE780B5AAB040F65100C2F20000D7
:10346000EE2101704170FF2180F8571080F856104E
:10347000811C40F61012C2F2000205901046049220
:1034800001F036FB0598811D049801F047FB059873
:1034900000F10A01049801F039FC059800F10E01D1
:1034A00040F64012C2F200021046039201F020FBE7
:1034B000059800F11201039801F030FB059800F126
:1034C0001601039801F022FC059800F11A0140F65C
:1034D000E002C2F200021046029201F009FB0598D8
:1034E00000F11E01029801F019FB059800F122017C
:1034F000029801F00BFC059800F1260140F67012CD
:10350000C2F200021046019201F0F2FA059800F1B1
:103510002A01019801F002FB059800F12E010198A3
:1035200001F0F4FB002006900890FFE708980A28B5
:103530003FDCFFE7089800EB400009A9352221F89D
:103540002020089800EB400001EB80000822C270A8
:10355000089800EB400001EB80000021817007918A
:10356000FFE70798072816DCFFE70698411C06913D
:1035700040F65101C2F20001085C089901EB4101DB
:1035800009AA02EB8101079A11440871FFE7079825
:1035900001300790E5E7089800EB400009A901EB2E
:1035A0008000FDF73DFB0090FFE708980130089090
:1035B000BCE72AB080BD000080B584B0014603900E
:1035C00003986A4650600120106040F6E000C2F2A5
:1035D000000040F6B83242F21073029111461A46CA
:1035E00001F0B2FA04B080BD80B584B0014603900A
:1035F00003986A4650600120106040F61010C2F235
:10360000000040F6B83242F21073029111461A4699
:1036100001F09AFA04B080BD80B584B001460390F1
:1036200003986A4650600120106040F64010C2F2D4
:10363000000040F6B83242F21073029111461A4669
:1036400001F082FA04B080BD80B586B001460590D5
:1036500005984FF4967250430491FCF7AEFF41EC8D
:10366000100B51EC100B9FED100B53EC102BFCF7D3
:1036700035FF41EC100B51EC100BFCF7AFFF059040
:103680000598694648600120086040F67010C2F253
:10369000000040F6B83142F210720392039B01F031
:1036A00053FA06B080BD00BF0AD7A3703D0AB73FEA
:1036B0007047000080B588B00A460346ADF81E008A
:1036C0008DF81D100020ADF810008DF812000220BA
:1036D0008DF813009DF81D008DF814009DF81E0054
:1036E0008DF8150004A803920293FDF799FA019052
:1036F00008B080BD80B58BB013468C4686460A90D4
:10370000099108920A9800F0070007900798C0F105
:10371000070005280493CDF80CC0CDF808E003D3CA
:10372000FFE70420019004E00798C0F10700019032
:10373000FFE70198069007980430062803D8FFE7B2
:103740000020009003E0079803380090FFE70098FE
:10375000059009980699012202FA01F10139084001
:1037600005998840089B02FA01F101391940084384
:103770000BB080BD00000000000000000000000051
:10378000EFF30980BFF36F8F154B1A681EF0100F0F
:1037900008BF20ED108A20E9F04F10602DE90900E4
:1037A0004FF0500080F31188BFF34F8FBFF36F8F3E
:1037B00003F0E0FF4FF0000080F31188BDE809003E
:1037C00019680868B0E8F04F1EF0100F08BFB0ECA1
:1037D000108A80F30988BFF36F8F704700BF00BF66
:1037E000D809002080B58AB013468C4686468DF8ED
:1037F00026008DF82510089200200790069005906D
:103800009DF8251040F2A002C2F2000202EB410135
:1038100031F8021C9DF826201144ADF814108DF8E3
:1038200016009DF825000138014603280493CDF8C1
:103830000CC0CDF808E0019134D80199DFE801F01F
:10384000020D142702208DF8170008988DF8180033
:103850000898000A8DF8190024E001208DF817005F
:1038600008988DF818001DE004208DF817000898BE
:103870008DF818000898000A8DF81900BDF822008C
:103880008DF81A009DF823008DF81B000AE0022035
:103890008DF8170008988DF818000898000A8DF820
:1038A0001900FFE705A8FDF7BBF9002804D0FFE7E2
:1038B00001208DF8270003E000208DF82700FFE7A6
:1038C0009DF827000AB080BDB0B590B09C469646E2
:1038D0000C4605468DF83F00ADF83C108DF83B20B6
:1038E0000D9300200C900B900A900990089007907F
:1038F00006909DF83F1001F5C061ADF828108DF8D5
:103900002A0008218DF82B109DF83B108DF82F1000
:103910009DF83D108DF82E10BDF83C108DF82D103F
:1039200040218DF82C108DF833008DF832008DF881
:1039300031008DF830000AA8CDF810C0CDF80CE0A9
:1039400002940195FDF76CF9002832D0FFE7FFE7FC
:1039500007A8FDF70FF94FF0010E0028CDF800E0A1
:103960000BD0FFE7BDF81C009DF83F1001F5B061DA
:10397000401A18BF01200090FFE70098C0070028F8
:1039800004D0FFE7012001F0E5FFE1E7002005900A
:10399000FFE7059803280BDCFFE7059807A901441A
:1039A00009790D9A1154FFE7059801300590F0E769
:1039B000FFE710B0B0BD0000B0B58AB09C46964697
:1039C0000C4605468DF82600ADF824108DF823200E
:1039D000079300200690059004909DF8261001F5AD
:1039E000C061ADF810108DF8120008208DF813009A
:1039F0009DF823008DF817009DF825008DF816001E
:103A0000BDF824008DF8150023208DF814009DF8D2
:103A10001F008DF81B00BDF81E008DF81A000798D6
:103A2000000A8DF8190007988DF8180004A8CDF841
:103A30000CC0CDF808E001940095FDF7F1F80028DE
:103A400004D0FFE701208DF8270003E000208DF867
:103A50002700FFE79DF827000AB0B0BD0000000076
:103A6000074B19680868B0E8F04F80F30988BFF386
:103A70006F8F4FF0000080F31188704700BF00BFC8
:103A8000D809002070B58AB0DDF838C09E461446CB
:103A90000D46064609900891079206930998CDF8BD
:103AA00014C0CDF810E003940295019603F076F966
:103AB000089803F09BF9079803F0BEF9069803F005
:103AC000E1F90E9803F004FA0AB070BDB0B59EB0EB
:103AD0009C4696460C4605461D901C911B921A93D7
:103AE00000208DF86700CDF814C0CDF810E00394E5
:103AF0000295FFE70020079043F64000C4F2020061
:103B0000016841F080510160006800F0805007902A
:103B100007980190FFE7FFE70020069047F20000BA
:103B2000C4F20000016841F480410160006800F4C3
:103B30008040069006980090FFE701200D904FF41A
:103B400080300E90022013904FF4800014901C9847
:103B500015901D9816901B9817901A9818900DA8FC
:103B6000FEF79EFB8DF867009DF86700002802D0E5
:103B7000FFE7FFE7FEE70F200890022009900020F2
:103B80000A904FF4A0500B904FF480500C9008A86E
:103B90000521FEF7A7F98DF867009DF8670000285A
:103BA00002D0FFE7FFE7FEE7FEF7FAF841F2010E69
:103BB000704509D1FFE743F60040C4F202000168F6
:103BC00041F480710160FFE71EB0B0BD80B584B0E4
:103BD0008020ADF8040000208DF8060001218DF84A
:103BE00007108DF8080001A8FDF71AF8009004B03E
:103BF00080BD000080B584B0014602900298013873
:103C0000B0F1807F019103D3FFE7012003901BE017
:103C1000029801384EF21401CEF2000108604FF014
:103C2000FF300F2101F00CFD4EF21800CEF2000023
:103C3000002101604EF21000CEF200004FF0070E9E
:103C4000C0F800E00391FFE7039804B080BD0000D6
:103C500080B582B004F0D8F9012804D0FFE703F062
:103C6000DDFE0190FFE740F6B000C2F200000168FF
:103C70000131016002B080BD4EF68850CEF20000E6
:103C8000016841F47001016043F60000C4F20200D3
:103C9000016841F00101016043F60801C4F202012C
:103CA00000220A6001684FF6FF73CFF6F6631940F1
:103CB000016043F60401C4F2020143F21003C2F2B0
:103CC00000430B60016821F48021016043F60C0081
:103CD000C4F2020002604EF60850CEF200004FF02F
:103CE000006101607047000080B58EB013468C46BD
:103CF00086468DF837008DF836100C9200200B9018
:103D00000A9009900890079006909DF8360040F2BE
:103D1000AC01C2F2000101EB400030F8020C9DF84A
:103D200037100844ADF8240001208DF826009DF8D6
:103D300036000138014603280493CDF80CC0CDF8B5
:103D400008E0019114D80199DFE801F002060A0E9B
:103D500002208DF827000BE004208DF8270007E0F3
:103D600004208DF8270003E002208DF82700FFE7EC
:103D700009A8FCF755FF002830D0FFE7FFE706A8A9
:103D8000FCF7F8FE4FF0010E0028CDF800E009D056
:103D9000FFE7BDF81800BDF82410401A18BF012035
:103DA0000090FFE70098C007002804D0FFE701203B
:103DB00001F0D0FDE3E700200590FFE70598032818
:103DC0000BDCFFE7059806A9014409790C9A115408
:103DD000FFE7059801300590F0E7FFE70EB080BDE2
:103DE00080B582B00020019040F20860C2F200006D
:103DF000FEF7D2FDFFE740F20860C2F20000FEF7D6
:103E0000B5FD20280AD0FFE7019801300190019804
:103E1000B0F1FF3F01D9FFE700E0ECE7002001909F
:103E2000FFE740F20860C2F2000040F63B01C2F238
:103E300000011622FFF7AAF800280AD0FFE7019830
:103E4000013001900198B0F1FF3F01D9FFE700E098
:103E5000E7E740F20860C2F2000001686FF020025C
:103E60000A6000686FF00801016002B080BD0000C8
:103E700080B582B00020019040F24860C2F200009C
:103E8000FEF78AFDFFE740F24860C2F20000FEF74D
:103E90006DFD20280AD0FFE70198013001900198BC
:103EA000B0F1FF3F01D9FFE700E0ECE7002001900F
:103EB000FFE740F24860C2F2000040F6A901C2F2FA
:103EC00000010122FFF762F800280AD0FFE70198FD
:103ED000013001900198B0F1FF3F01D9FFE700E008
:103EE000E7E740F24860C2F2000001686FF020028C
:103EF0000A6000686FF00801016002B080BD000038
:103F000080B584B0014603900398806B02900298BC
:103F10000022C2850298C28402980191FEF720FD1A
:103F200004B080BD82B00146019001980068C2686B
:103F300022F49072C26001980068426922F0010286
:103F400042610198202280F83A20009102B0704727
:103F500080B582B00146019001980068C26822F0E5
:103F60004002C2600198202280F839200198009117
:103F7000FFF7B6F9002002B080BD000080B584B024
:103F800001460290029890F83A002228009169D1E7
:103F9000FFE702988068B0F5805F20D1FFE70298C4
:103FA000806A01900298006900280CD1FFE702980E
:103FB000006840686FF35F20019908800298816A69
:103FC000023181620AE0029800684068C0B201993B
:103FD00008800298816A01318162FFE719E0029846
:103FE0000069002809D1FFE702980068406802993B
:103FF0008A6A531C8B6210700AE00298006840685D
:1040000000F07F0002998A6A531C8B621070FFE7F0
:10401000FFE70298C18D0139C185080400281DD130
:10402000FFE702980068C16821F02001C160029892
:104030000068C16821F48071C1600298006841691C
:1040400021F0010141610298202180F83A10029884
:10405000FFF704F800208DF80F0007E000208DF82E
:104060000F0003E002208DF80F00FFE79DF80F001E
:1040700004B080BD70B5B8B001463790379800687D
:10408000006920F44050379A1368D26810431861D1
:10409000379882680369D0F814C0C0691A4342EAAD
:1040A0000C021043369037980068C06849F20C62E1
:1040B0009043369A1043379A1268D0603798006858
:1040C000406920F44070379A136892691043586130
:1040D0003798C069B0F5004F359140F00081FFE797
:1040E0003798006841F20001C4F20101884209D00A
:1040F000FFE73798006841F20041C4F201018842AD
:1041000076D1FFE7FEF742F84FF0190E00FB0EF0F4
:10411000379949684900B0FBF1F048F21F51C5F2E8
:10412000EB11A0FB01026FF00F0303EA5202CDF87E
:10413000D0E0339132903192FEF728F83499484319
:10414000379A52685200B0FBF2F03090FEF71EF83A
:1041500034994843379A52685200B0FBF2F0339AD0
:10416000A0FB02035B094FF0640EDDF8C0C003FB47
:104170001EC34FF0320C0CEBC303A3FB0234F82533
:1041800005EA5414319D05EB44042F90CDF8B8E0B6
:10419000CDF8B4C02C932B94FDF7F8FF3499484325
:1041A000379A52685200B0FBF2F02A90FDF7EEFF0A
:1041B00034994843379A136852685200B0FBF2F0C2
:1041C000339AA0FB020C4FEA5C1CDDF8B8E02A9C95
:1041D0000CFB1E4C2D9C04EBCC0CACFB02C5C5F3B8
:1041E00042152B9E35449D602990CDF8A0C075E006
:1041F000FDF7B8FF4FF0190E00FB0EF03799496834
:104200004900B0FBF1F048F21F51C5F2EB11A0FBE1
:1042100001026FF00F0303EA5202CDF89CE02691F1
:1042200025902492FDF79EFF27994843379A5268BC
:104230005200B0FBF2F02390FDF794FF279948431A
:10424000379A52685200B0FBF2F0269AA0FB0203A4
:104250005B094FF0640EDDF88CC003FB1EC34FF00A
:10426000320C0CEBC303A3FB0234F82505EA54140B
:10427000249D05EB44042290CDF884E0CDF880C065
:104280001F931E94FDF76EFF27994843379A526893
:104290005200B0FBF2F01D90FDF764FF27994843F0
:1042A000379A136852685200B0FBF2F0269AA0FBCE
:1042B000020C4FEA5C1CDDF884E01D9C0CFB1E4CDC
:1042C000209C04EBCC0CACFB02C5C5F342151E9E32
:1042D00035449D601C90CDF86CC0FFE7FCE037983A
:1042E000006841F20001C4F20101884209D0FFE7F1
:1042F0003798006841F20041C4F20101884275D14B
:10430000FFE7FDF743FF4FF0190E00FB0EF0379962
:1043100049688900B0FBF1F048F21F51C5F2EB117A
:10432000A0FB01026FF00F0303EA5202CDF868E030
:10433000199118901792FDF729FF1A994843379A57
:1043400052689200B0FBF2F01690FDF71FFF1A9929
:104350004843379A52689200B0FBF2F0199AA0FBDA
:1043600002035B094FF0640EDDF858C003FB1EC367
:104370004FF0320C0CEB0313A3FB0234F02505EADB
:104380005414179D2C441590CDF850E0CDF84CC036
:1043900012931194FDF7FAFE1A994843379A52681E
:1043A0009200B0FBF2F01090FDF7F0FE1A9948432E
:1043B000379A136852689200B0FBF2F0199AA0FB8A
:1043C000020C4FEA5C1CDDF850E0109C0CFB1E4C0C
:1043D000139C04EB0C1CACFB02C5C5F34315119EEA
:1043E00035449D600F90CDF838C074E0FDF7BAFEFB
:1043F0004FF0190E00FB0EF0379949688900B0FBA9
:10440000F1F048F21F51C5F2EB11A0FB01026FF071
:104410000F0303EA5202CDF834E00C910B900A929C
:10442000FDF7A0FE0D994843379A52689200B0FB01
:10443000F2F00990FDF796FE0D994843379A5268BD
:104440009200B0FBF2F00C9AA0FB02035B094FF064
:10445000640EDDF824C003FB1EC34FF0320C0CEBDE
:104460000313A3FB0234F02505EA54140A9D2C44DF
:104470000890CDF81CE0CDF818C005930494FDF722
:1044800071FE0D994843379A52689200B0FBF2F0E2
:104490000390FDF767FE0D994843379A13685268F9
:1044A0009200B0FBF2F00C9AA0FB020C4FEA5C1CED
:1044B000DDF81CE0039C0CFB1E4C069C04EB0C1C62
:1044C000ACFB02C5C5F34315049E35449D600290C4
:1044D000CDF804C0FFE7FFE738B070BD84B00146F7
:1044E0000290029890F839002128009142D1FFE70C
:1044F00002988068B0F5805F1AD1FFE70298006AE1
:104500000190019800886FF35F2002990968486064
:1045100002980069002805D1FFE70298016A02317C
:10452000016204E00298016A01310162FFE708E0DC
:104530000298016A4A1C0262087802990968486078
:10454000FFE70298C18C0139C184080400280DD10D
:10455000FFE702980068C16821F08001C1600298FD
:104560000068C16841F04001C160FFE700208DF89C
:104570000F0003E002208DF80F00FFE79DF80F0009
:1045800004B0704770B58AB0DDF838C09E46144656
:104590000D460646089007918DF81B200593CDF82F
:1045A00010C0CDF80CE0029401950096FFE7089842
:1045B0000068006807990840401AB0FA80F0400986
:1045C0009DF81B10884233D1FFE70E980130002878
:1045D0002DD0FFE70E9800280BD0FFE7FDF7E8FB92
:1045E000DDF814E0A0EB0E00DDF838E070451DD9D1
:1045F000FFE708980068C16821F4D071C16008988D
:104600000068416921F0010141610898202180F88A
:104610003910089880F83A10FFE70898002180F8D0
:104620003810FFE703208DF8270005E0FFE7BEE71D
:1046300000208DF82700FFE79DF827000AB070BD25
:1046400080B582B00020019040F24851C2F20001D2
:1046500000900846FEF7A0F900980190FFE740F2AD
:104660004850C2F20000FEF781F920280AD0FFE787
:104670000198013001900198B0F1FF3F01D9FFE7A7
:1046800000E0ECE700200190FFE740F24850C2F262
:10469000000040F25C71C2F200010122FEF776FCDC
:1046A00000280AD0FFE70198013001900198B0F18D
:1046B000FF3F01D9FFE700E0E7E702B080BD00005F
:1046C00080B582B00020019040F28850C2F2000014
:1046D000FEF762F9FFE740F28850C2F20000FEF7F1
:1046E00045F920280AD0FFE7019801300190019890
:1046F000B0F1FF3F01D9FFE700E0ECE700200190B7
:10470000FFE740F28850C2F2000040F25D71C2F251
:1047100000011622FEF73AFC00280AD0FFE70198B4
:10472000013001900198B0F1FF3F01D9FFE700E0AF
:10473000E7E740F28850C2F2000001686FF0200203
:104740000A6000686FF00801016002B080BD0000DF
:10475000FFE7FEE780B58AB001468DF8270040F6F6
:10476000D010C2F2000000680028049101D1FFE7D8
:1047700092E09DF8270040F67C41C2F200010A68F1
:10478000531C0B6040F67431C2F20001885440F6AD
:104790007440C2F20000006800286DD1FFE740F6C7
:1047A0007430C2F200000078552811D0FFE740F6BF
:1047B0007C40C2F20000016801390160026840F6E5
:1047C0007430C2F20000411CFBF72FFD039063E040
:1047D00040F67C40C2F2000000680B284BD3FFE794
:1047E00040F67430C2F200000A21029000F0E2FEAE
:1047F0008DF817009DF81700029991F80AE07045AE
:1048000011D0FFE740F67C40C2F200000168013998
:104810000160026840F67430C2F20000411CFBF7F0
:1048200004FD019038E040F67430C2F20000817857
:10483000C27841EA0221ADF818100179427941EAC3
:104840000221ADF81A108179C27941EA0221ADF84E
:104850001C10017A427A41EA0221ADF81E1040781C
:1048600006A90422FCF72CFA40F67C40C2F20000B4
:1048700000210160FFE7FFE740F67C40C2F2000044
:104880000068B0F5807F07D1FFE740F67C40C2F2B8
:10489000000000210160FFE70AB080BD80B500F094
:1048A00023FF00F089FF00F0BFFF00F0F1FF80BDA3
:1048B00080B500F00BFF00F073FF00F0A9FF00F0DF
:1048C000D7FF01F009F880BD80B500F02DFF00F0A2
:1048D00097FF80BD80B500F03FFF80BD80B586B0FA
:1048E00001460590049102F0DDFB40F23410C2F263
:1048F0000000694648600320086044F63110C0F6A5
:1049000000004AF24001C0F600014FF4007200239B
:1049100003F01CFB40F24451C2F20001096803900D
:10492000084602F07DFD02F0E9FB06B080BD000004
:1049300080B59AB0014619900020189017901690F3
:1049400015901490119010900191FFE702F0AAFBCE
:1049500040F2507EC2F2000EBEF800E04FEA0E4E6A
:10496000BEF1000F09D4FFE740F23010C2F20000A0
:1049700000784006002839D5FFE702A83821FBF768
:104980006DFC40F23010C2F20000007840060028B2
:1049900004D5FFE702A8FCF743FAFFE740F25070A6
:1049A000C2F2000000880004002808D5FFE740F2AA
:1049B0004850C2F2000002A9FCF780FAFFE7029813
:1049C0004CF25031401A0091FEF70EFE0498009907
:1049D000401AFEF721FE06980099401AFEF7ECFDFA
:1049E0000898FEF731FEFEF735FDFFE702F086FB83
:1049F000022002F0D9FCA9E782B00146019001989B
:104A00000022C4F2201202604FF080424260002275
:104A1000C4F2482282604FF07E52C2604FF47A7234
:104A2000826140F6B832426100220261009102B018
:104A30007047000080B584B001460390039840F2AF
:104A40004852C2F200024AF29213C0F600030290EA
:104A500010460191194601F04DF941F20301002081
:104A6000029A00901046009A009B00F003F804B0F0
:104A700080BD0000B0B588B09C4696460C46054601
:104A80000790ADF81A108DF8192005930798CDF806
:104A900010C0CDF80CE0029401950090FFE700985B
:104AA0000078BDF81A109DF81920059BFEF784FFC9
:104AB000012804D0FFE7022000F04CFFEFE708B028
:104AC000B0BD000080B584B0014603900398029108
:104AD0000190FFF77BF80621019800F0FBF8FFF743
:104AE00075F80F21019800F0F5F804B080BD0000C2
:104AF00080B586B00A460346059004910598007873
:104B000004994FF0030C03916146DDF80CC002924A
:104B100062460193FFF7E8F806B080BD80B586B025
:104B20000A460346059004910598007804994FF0D1
:104B3000020C03916146DDF80CC0029262460193BB
:104B4000FFF7D2F806B080BDF0B58BB0DDF844C0F9
:104B5000DDF840E01C4615460E4607460A900991CE
:104B6000089207938DF81BE00A980590CDF810C0C5
:104B70000394029501960097FFF75CFF059800F0FB
:104B800041F90598FFF79EFF0999059800F078F81C
:104B90000899059800F01CF80799059800F044F86A
:104BA0009DF81B10119A059800F0F6F8059890F8FA
:104BB0002810002905D0FFE73F21059800F08AF86A
:104BC00004E07F21059800F085F8FFE70BB0F0BD09
:104BD00080B586B00A46034605900491059840F2D8
:104BE0004851C2F200014AF24C1CC0F6000C03907E
:104BF000084661460292019301F07CF804980399FB
:104C00004861FFE70398007803994B6946F28301F6
:104C10000022FEF7D1FE012804D0FFE7022000F0B9
:104C200099FEEFE706B080BD80B586B00A46034620
:104C300005900491059840F24851C2F200014AF2F1
:104C4000651CC0F6000C0390084661460292019371
:104C500001F050F804980399C861FFE703980078C1
:104C60000399CB6946F284010022FEF7A5FE0128D4
:104C700004D0FFE7022000F06DFEEFE706B080BD34
:104C800080B586B00A46034605900491059840F227
:104C90004851C2F200014AF29E1CC0F6000C03907B
:104CA000084661460292019301F024F804980399A2
:104CB000C860FFE7039800780399CA680321FEF7EC
:104CC00091FD012804D0FFE7022000F043FEF1E748
:104CD00006B080BD80B586B00A4603460590ADF8A3
:104CE00012100598039202930190FFE70198007853
:104CF000BDF812200121FEF775FD012804D0FFE761
:104D0000022000F027FEF1E706B080BD80B586B036
:104D10000A4603460590049105980078049943F2E9
:104D2000D10C4FF0020E0391614602927246DDF8FB
:104D30000CC001936346FEF7C7FD06B080BD0000BE
:104D400080B586B00A46034605908DF81310059885
:104D50009DF81310417040F24851C2F200014AF22E
:104D6000391CC0F6000C039008466146029201937C
:104D700000F0C0FFFFE70398007803994A7802210A
:104D8000FEF730FD012804D0FFE7022000F0E2FD2D
:104D9000F1E706B080BD000080B588B013468C46B0
:104DA000864607908DF81B100592079840F24851EF
:104DB000C2F200014AF27E12C0F6000204900846D8
:104DC00011460393CDF808C0CDF804E000F092FF3F
:104DD0000598049948609DF81B0081F82800FFE7BA
:104DE0000498007804994B6846F27A010022FEF795
:104DF000E3FD012804D0FFE7022000F0ABFDEFE760
:104E000008B080BD80B584B0014603900398027855
:104E1000012302901046019119460093FEF74AFCC7
:104E200002980099FFF78CFF40F24850C2F2000050
:104E30004AF22C11C0F6000100F05CFF04B080BD06
:104E40002DE9F04F95B00DF1380CDDF890E0B0EEA3
:104E5000401AF0EE601A239C229D219E209FDDF8CF
:104E60007C80DDF878909A4693460C9008460B902B
:104E70000C980A900C9813908DF84B108DF84A20DE
:104E800011938CED000B8DF837E013999DF84B20B2
:104E90000A709DF84A204A70119A4A601E9A8A60E8
:104EA0001F9ACA60209A0A61219A4A61229A8A61ED
:104EB000239ACA619CED000B81ED080B9DF8372009
:104EC00081F8282008468DED081B07940695059665
:104ED0000497CDF80C80CDF80890CDF804A0CDF85B
:104EE00000B015B0BDE8F08F70B582B001460190FA
:104EF00001980822026040F21402C2F20002136814
:104F0000D2F804C0D2F808E0D46815695669866101
:104F100045610461C0F80CE0C0F808C043609269C4
:104F2000C26140F23002C2F200021368D2F804C03B
:104F3000D2F808E0D4681569566946630563C4620F
:104F4000C0F828E0C0F824C003629269826340F28E
:104F50004C02C2F200021368D2F804C0D2F808E092
:104F6000D468156956690665C5648464C0F844E070
:104F7000C0F840C0C3639269426540F26802C2F261
:104F800000021368D2F804C0D2F808E0D4681569AA
:104F90005669C66685664466C0F860E0C0F85CC0C5
:104FA00083659269026740F28402C2F200021368CC
:104FB000D2F804C0D2F808E0D46815695669C0F880
:104FC0008860C0F88450C0F88040C0F87CE0C0F829
:104FD00078C043679269C0F88C2040F2C002C2F2E8
:104FE00000021368D2F804C0D2F808E0D46815694A
:104FF0005669C0F80461C0F80051C0F8FC40C0F820
:10500000F8E0C0F8F4C0C0F8F0309269C0F80821A8
:1050100040F2DC02C2F200021368D2F804C0D2F8F7
:1050200008E0D46815695669C0F82061C0F81C51C1
:10503000C0F81841C0F814E1C0F810C1C0F80C3134
:105040009269C0F8242140F2F802C2F2000213680B
:10505000D2F804C0D2F808E0D46815695669C0F8DF
:105060003C61C0F83851C0F83441C0F830E1C0F8B4
:105070002CC1C0F828319269C0F8402140F21412C6
:10508000C2F200021368D2F804C0D2F808E0D46873
:1050900015695669C0F85861C0F85451C0F85041BC
:1050A000C0F84CE1C0F848C1C0F844319269C0F87A
:1050B0005C216FF00202C0F860216FF00102C0F8BD
:1050C00064214FF0FF32C0F868210022C0F86C2143
:1050D0000123C0F870310223C0F874310323C0F8F3
:1050E0007831D0F87831C0F87C31D0F87831C0F818
:1050F0008031D0F87831C0F88431D0F87831C0F8F8
:105100008831D0F87431C0F88C31D0F86C31C0F8E7
:105110009031D0F86C31C0F89431D0F87831C0F8C3
:105120009831D0F87831C0F89C31D0F87831C0F897
:10513000A031D0F87431C0F8A431D0F87431C0F87F
:10514000A831D0F86C31C0F8AC31D0F86C31C0F86F
:10515000B031D0F87831C0F8B431D0F87431C0F83B
:10516000B831D0F87431C0F8BC31D0F87031C0F823
:10517000C031D0F86C31C0F8C431D0F86831C0F813
:10518000C831D0F86431C0F8CC31D0F87431C0F8EF
:10519000D031D0F87431C0F8D431D0F87031C0F8C3
:1051A000D831D0F86C31C0F8DC31D0F86831C0F8B3
:1051B000E031D0F86431C0F8E431D0F86431C0F89F
:1051C000E831D0F87031C0F8EC31D0F87031C0F867
:1051D000F031D0F86C31C0F8F431D0F86431C0F857
:1051E000F831D0F86431C0F8FC31D0F86431C0F83F
:1051F0000032D0F86031C0F80432D0F86C31C0F819
:105200000832D0F86C31C0F80C32D0F86C31C0F8EC
:105210001032D0F86431C0F81432D0F86031C0F8E0
:105220001832D0F86031C0F81C32D0F86031C0F8C4
:105230002032D0F86C31C0F82432D0F86831C0F890
:105240002832D0F86031C0F82C32D0F86031C0F884
:105250003032D0F86031C0F83432D0F86031C0F864
:105260003832D0F86031C0F83C32D0F87831C0F82C
:105270004032D0F87831C0F84432D0F87831C0F8F4
:105280004832D0F87831C0F84C32D0F87431C0F8D8
:105290005032D0F86C31C0F85432D0F86C31C0F8CC
:1052A0005832D0F87831C0F85C32D0F87831C0F894
:1052B0006032D0F87831C0F86432D0F87431C0F878
:1052C0006832D0F87431C0F86C32D0F86C31C0F864
:1052D0007032D0F86C31C0F87432D0F87831C0F840
:1052E0007832D0F87431C0F87C32D0F87431C0F81C
:1052F0008032D0F87031C0F88432D0F86C31C0F808
:105300008832D0F86831C0F88C32D0F86431C0F8F7
:105310009032D0F87431C0F89432D0F87431C0F8BB
:105320009832D0F87031C0F89C32D0F86C31C0F8A7
:10533000A032D0F86831C0F8A432D0F86431C0F897
:10534000A832D0F86431C0F8AC32D0F87031C0F86F
:10535000B032D0F87031C0F8B432D0F86C31C0F847
:10536000B832D0F86431C0F8BC32D0F86431C0F83B
:10537000C032D0F86431C0F8C432D0F86031C0F81F
:10538000C832D0F86C31C0F8CC32D0F86C31C0F8EB
:10539000D032D0F86C31C0F8D432D0F86431C0F8D3
:1053A000D832D0F86031C0F8DC32D0F86031C0F8C3
:1053B000E032D0F86031C0F8E432D0F86C31C0F897
:1053C000E832D0F86831C0F8EC32D0F86031C0F87B
:1053D000F032D0F86031C0F8F432D0F86031C0F863
:1053E000F832D0F86031C0F8FC32D0F86031C0F843
:1053F0000033D0F87831C0F80433D0F87831C0F8F1
:105400000833D0F87831C0F80C33D0F87831C0F8D0
:105410001033D0F87431C0F81433D0F86C31C0F8C0
:105420001833D0F86C31C0F81C33D0F87831C0F89C
:105430002033D0F87831C0F82433D0F87831C0F870
:105440002833D0F87431C0F82C33D0F87431C0F858
:105450003033D0F86C31C0F83433D0F86C31C0F848
:105460003833D0F87831C0F83C33D0F87431C0F814
:105470004033D0F87431C0F84433D0F87031C0F8FC
:105480004833D0F86C31C0F84C33D0F86831C0F8EC
:105490005033D0F86431C0F85433D0F87431C0F8C8
:1054A0005833D0F87431C0F85C33D0F87031C0F89C
:1054B0006033D0F86C31C0F86433D0F86831C0F88C
:1054C0006833D0F86431C0F86C33D0F86431C0F878
:1054D0007033D0F87031C0F87433D0F87031C0F840
:1054E0007833D0F86C31C0F87C33D0F86431C0F830
:1054F0008033D0F86431C0F88433D0F86431C0F818
:105500008833D0F86031C0F88C33D0F86C31C0F8F3
:105510009033D0F86C31C0F89433D0F86C31C0F8C7
:105520009833D0F86431C0F89C33D0F86031C0F8BB
:10553000A033D0F86031C0F8A433D0F86031C0F89F
:10554000A833D0F86C31C0F8AC33D0F86831C0F86B
:10555000B033D0F86031C0F8B433D0F86031C0F85F
:10556000B833D0F86031C0F8BC33D0F86031C0F83F
:10557000C033D0F86031C0F8C433C0F89020C0F810
:105580009420C0F89820C0F8B820C0F89C20C0F83B
:10559000A020C0F8A420C0F8A820C0F8CC2000911A
:1055A00002B070BD82B0014601900198009102B036
:1055B0007047000086B00A4603460590049100201B
:1055C0008DF80B00039001920093FFE70398049974
:1055D00088420DD2FFE705980399405C9DF80B10B7
:1055E00008448DF80B00FFE7039801300390EDE7C6
:1055F0009DF80B0006B0704782B001468DF8070099
:105600009DF90700002800910FDBFFE79DF90700D7
:1056100000F01F01012202FA01F140094EF20012CE
:10562000CEF2000242F82010FFE702B070470000FF
:105630004EF60C50CEF200000068C0F30220704716
:1056400084B00A4603468DF80F0002919DF90F00C1
:105650000028019200930ADBFFE7029800019DF900
:105660000F104EF20042CEF2000288540BE0029876
:1056700000019DF80F1001F00F014EF61452CEF20A
:1056800000028854FFE704B07047000084B0014670
:105690000390039800F0070001904EF60C50CEF2F4
:1056A000000002680292029A4FF6FF031A4002922B
:1056B000029A019B42EA03220023C0F2FA531A43E2
:1056C0000292029A0260009104B0704780B50320F4
:1056D0000421002202F0C2F940F25471C2F200012A
:1056E000086080BD0000000080B588B068460121D8
:1056F000816142F21072426100230361C2608360E3
:1057000040F6B8324260036040F61010C2F200006A
:105710009FED030B0791079AFFF792FB08B080BD3E
:10572000000000000000000080B582B040F2601070
:10573000C2F200000190FFF7D7FB45F2A550C0F67A
:10574000000040F20002C0F600020199FAF7A8FD3D
:10575000009002B080BD000080B588B0684601218D
:10576000816142F21072426100230361C260836072
:1057700040F6B8324260036040F6A010C2F200006A
:1057800003229FED050B07911146079AFFF758FB7F
:1057900008B080BD00BF00BF000000000000000096
:1057A00080B503200421002202F058F940F258711C
:1057B000C2F20001086080BD80B588B06846012152
:1057C000816142F21072426100230361C260836012
:1057D00040F6B8324260036040F64010C2F200006A
:1057E00002229FED050B07911146079AFFF728FB50
:1057F00008B080BD00BF00BF000000000000000036
:1058000080B540F24410C2F20000FFF7F5F880BD09
:1058100080B501200421002202F020F940F2381165
:10582000C2F20001086080BD80B588B068460121E1
:10583000816142F21072426100230361C2608360A1
:1058400040F6B8324260036040F6E000C2F2000069
:1058500003229FED050B07911146079AFFF7F0FA17
:1058600008B080BD00BF00BF0000000000000000C5
:1058700080B582B0042000220190019902F0EEF878
:1058800040F23C11C2F20001086002B080BD00008D
:1058900080B588B068460121816142F21072426190
:1058A00000230361C260836040F6B8324260036047
:1058B00040F67010C2F2000004229FED050B079124
:1058C0001146079AFFF7BCFA08B080BD00BF00BFC1
:1058D000000000000000000080B501F0DDFF40F294
:1058E000401EC2F2000ECEF8000080BD80B584B02C
:1058F00001468DF80F0004200191FDF70BF89DF88B
:105900000F0040F6AC01C2F2000108609DF80F00E4
:10591000029002984FF47A714843029040F6AA0030
:10592000C2F20000012101804EF21000CEF2000010
:10593000016841F00201016002994EF2140ECEF2AC
:10594000000ECEF80010016841F00101016004B0C2
:1059500080BD000080B582B00146ADF80600009120
:1059600002F052FB012824D0FFE7BDF8060040F604
:10597000AA01C2F20001098888420CDBFFE7BDF8EA
:10598000060040F6AA01C2F200010988B0FBF1F05E
:1059900001F00AFDFFE740F6AA00C2F2000000880D
:1059A000BDF80610B1FBF0F202FB1010ADF80600D6
:1059B000FFE7BDF806004FF47A71484300F002F8A3
:1059C00002B080BD87B001460690002002904EF2E2
:1059D0001400CEF2000000680190069840F6AC0278
:1059E000C2F200021268504305904EF21800CEF247
:1059F0000000006804900091FFE74EF21800CEF21C
:105A00000000006803900398049988421ED0FFE7C5
:105A100003980499884207D2FFE704980399401A33
:105A200002990844029008E001980399401A0499E9
:105A30000844029908440290FFE7039804900298F2
:105A40000599884201D3FFE701E0FFE7D5E707B0FA
:105A50007047000084B00A46034603900291019209
:105A60000093FFE741F20000C4F201000068400625
:105A7000002801D4FFE7F5E79DF80C0041F204018E
:105A8000C4F201010860039804B0704780B586B085
:105A9000FCF794F94FF4A87E082102220723059011
:105AA0007046FEF713F8A820FFF720FFFDF754FC1F
:105AB00068464FF4165101604FF4E1224FF4E13093
:105AC00004900499049BFDF7DDFFFAF7D5FF40F23F
:105AD0004450C2F20000694648600120086044F664
