:020000040800F2
:1000000000350120A1010008DD2400086D2400084E
:10001000D9240008A10700087D2F00080000000077
:10002000000000000000000000000000C1250008E2
:100030002909000800000000512500084D2700088C
:10004000BB010008BB010008BB010008BB010008A0
:10005000BB010008BB010008BB010008BB01000890
:10006000BB010008BB010008BB010008BB01000880
:10007000BB010008BB010008BB010008BB01000870
:10008000BB010008BB010008BB010008BB01000860
:10009000BB010008BB010008BB010008BB01000850
:1000A000BB010008BB010008BB010008BB01000840
:1000B000BB010008BB010008BB010008BB01000830
:1000C000BB010008BB010008BB010008BB01000820
:1000D000BB010008752E0008F12E0008BB010008C6
:1000E000BB010008BB010008BB010008BB01000800
:1000F000BB010008BB010008BB010008BB010008F0
:10010000BB010008BB010008BB010008BB010008DF
:10011000BB010008BB010008BB010008BB010008CF
:10012000BB010008BB010008BB010008BB010008BF
:10013000BB010008BB010008BB010008BB010008AF
:10014000BB010008BB010008BB010008BB0100089F
:10015000BB010008BB010008BB010008BB0100088F
:10016000BB010008BB010008BB010008BB0100087F
:10017000BB010008BB010008BB0100080000000033
:10018000BB010008BB010008DFF810D000F0F6FA50
:1001900000F074F8004800470535000800350120DC
:1001A0000648804706480047FEE7FEE7FEE7FEE711
:1001B000FEE7FEE7FEE7FEE7FEE7FEE76127000851
:1001C000890100082DE9F05F0546002092469B4614
:1001D00088460646814640241BE02846414647465D
:1001E000224600F0ACF953465A46C01A914110D34A
:1001F00011461846224600F093F92D1A67EB0108C4
:100200004F4622460120002100F08AF917EB000931
:100210004E41201EA4F10104DFDC484631462A4647
:100220004346BDE8F09F40EA01039B0703D009E085
:1002300008C9121F08C0042AFAD203E011F8013BD2
:1002400000F8013B521EF9D27047D2B201E000F82B
:10025000012B491EFBD270470022F6E710B513466A
:100260000A4604461946FFF7F0FF204610BD421C1F
:1002700010F8011B0029FBD1801A704770B5054C9E
:10028000054D04E02046016808448047241DAC4227
:10029000F8D170BD08660008146600082DE9FE4F0D
:1002A000804681EA0300C00F0C46009021F0004117
:1002B00023F00045B8EB0200A94105D24046214693
:1002C00090461C460B46024623F00040104347D0A0
:1002D000270DC7F30A00C3F30A510290401A019098
:1002E00040286BDAC3F3130040F4801B0098924659
:1002F00020B10023D2EB030A63EB0B0B01985946A4
:10030000C0F14002504600F00BF906460D4650463B
:100310005946019A00F023F910EB080061410024CE
:1003200087EA115284EAE7731A4340D0009A62B315
:10033000019A012A4FEA075215DC001B61EB02010A
:100340004FF0004202EA0752CDE90042001C41F59D
:10035000801132462B4600F023F903B0BDE8F08F40
:1003600040462146F9E7001B61EB0201001C41F504
:10037000801300185B412018A2F5001747EB03011A
:1003800040EAD570B6196D4111E06D084FEA3606A6
:1003900045EAC0754FEA0752001B61EB0201001CE1
:1003A00041F5801149084FEA3000001951413246A9
:1003B0002B4603B0BDE8F04F00F0E3B800980122EF
:1003C00040000023D0EB020263EBE073009821466B
:1003D0004FEAE074B8EB000061EB0401E9E783F059
:1003E00000435BE781F0004158E72DE9FE4F81EAC9
:1003F000030404F0004421F0004100944FF0000B8E
:1004000023F0004350EA01045ED052EA03045BD0BB
:10041000C3F30A54C1F30A552C44A4F2F3340194F3
:10042000A0FB0254C1F3130141F48011C3F3130381
:1004300043F4801301FB024400FB034E840A970A35
:1004400044EA815447EA8357A4FB076802958D0A62
:1004500005FB07854FEA932C04FB0C542705029DEE
:100460004FEA065847EA1637B5EB08056EEB070C5E
:10047000870E920E47EA811742EA8312A7FB020118
:10048000B6EB0B0164EB00042B0D43EA0C335E1852
:1004900044EB1C50DA465146E7FB0201C5F3130456
:1004A0004FEA0B3343EA14534FEA0432019C43EA08
:1004B0000603A4F10C040294009CCDE900B400F002
:1004C0006FF803B0BDE8F08F00200146F9E700F0B7
:1004D000004230F000400AD0C10D01F56071C0F358
:1004E000160042EA0151C20840071143704700203C
:1004F0000146704730B50B460146002020220124FA
:1005000009E021FA02F59D4205D303FA02F5491BE1
:1005100004FA02F52844151EA2F10102F1DC30BDF7
:10052000202A04DB203A00FA02F1002070479140B3
:10053000C2F1200320FA03F3194390407047202AA8
:1005400004DB203A21FA02F00021704721FA02F37D
:10055000D040C2F120029140084319467047202A3A
:1005600006DBCB17203A41FA02F043EAE07306E0DB
:1005700041FA02F3D040C2F12002914008431946EB
:10058000704710B5141E73F1000408DA401C41F1E5
:10059000000192185B411A4301D120F0010010BD07
:1005A0002DE9F04D92469B4611B1B1FA81F202E07D
:1005B000B0FA80F220329046FFF7B2FF04460F46B1
:1005C00040EA0A0041EA0B0153465A46084313D059
:1005D000114653EA010019D0C8F140025046FFF716
:1005E000AEFF05460E46504659464246FFF798FF75
:1005F000084305D0012004E020463946BDE8F08DCF
:100600000020054346EAE0762C4337430A98630509
:10061000E40AA0EB08000022FD0A44EA47540A302D
:1006200002D500200146E9E7010510196941DDE91D
:10063000084500196941BDE8F04DA2E72DE9F04DEC
:1006400081EA030404F0004B21F0004514464FF00A
:10065000000A23F0004150EA050220D054EA0102CA
:100660001DD0C5F30A570246C5F31303C1F31300A7
:10067000C1F30A5640F4801543F48013A7EB060833
:10068000101BD64608F2FD3873EB050002D308F1C3
:10069000010801E092185B41B8F1000F03DA002075
:1006A0000146BDE8F08D00204FF4801106468446D7
:1006B0000EE0171B73EB050705D3121B63EB050355
:1006C00006434CEA010C49084FEA300092185B419E
:1006D00050EA0107EDD152EA030012D082EA040089
:1006E00083EA0501084305D0101BAB4106D2012265
:1006F000002306E000224FF0004302E06FF0010209
:1007000053101AEB06004CEB085110EB0A0041EBBA
:100710000B01BDE8F04DFFF734BFC1F30A52C1F33E
:10072000130140F2FF3341F480119A4202DA0020B3
:100730000146704740F233439A42A2F2334202DC50
:100740005242FFF7FCBEFFF7EBBE000030B5041EBF
:1007500071F1000404DB4FF00044404264EB0101FE
:10076000141E73F1000405DB1C464FF00043524297
:1007700063EB0403994208BF904230BD064C074D1D
:1007800006E0E06840F0010394E807009847103461
:10079000AC42F6D3FFF7FCFCE865000808660008E9
:1007A000FFE7FEE780B501F063FE00F029F840F2B4
:1007B0007420C2F2000000F0EDFA58B1FFE740F2F9
:1007C0001C10C2F2000046F29051C0F6000102F087
:1007D000DDFEFFE740F27420C2F20000022100F0CB
:1007E000A5F858B1FFE740F21C10C2F2000046F233
:1007F0006C51C0F6000102F0C9FEFFE780BD0000A9
:1008000080B58AB0002105910691012007900091E2
:10081000019102910391049108900E20099040F2F9
:100820007420C2F20000694600F0AAF858B1FFE750
:1008300040F21C10C2F2000046F24451C0F6000122
:1008400002F0A4FEFFE70AB080BD000082B08DF880
:1008500007009DF8071040F21613C2F200031A7841
:10086000501C187040F21C00C2F200008154007845
:10087000552807D0FFE740F21611C2F20001002010
:1008800008704EE040F21610C2F2000000780A280C
:1008900001DCFFE745E040F21C00C2F200004078B6
:1008A00001460091512808D0FFE70098522813D044
:1008B000FFE7009853281ED02CE040F21C01C2F242
:1008C0000001D1F80200D1F8062040F2BC31C2F29A
:1008D00000014A6008601DE040F21C01C2F2000104
:1008E000D1F80200D1F8062040F2CC31C2F200016A
:1008F0004A6008600EE040F21C01C2F20001D1F82B
:100900000200D1F8062040F2C431C2F200014A6070
:100910000860FFE740F21611C2F2000100200870E3
:10092000FFE702B0704700007047000084B00290FB
:100930000191029890F820008DF803009DF80300C3
:10094000012805D0FFE79DF8030002280AD1FFE740
:10095000019A0298016848691043486100208DF8A7
:100960000F0008E00299486A40F4802048620120A4
:100970008DF80F00FFE79DF80F0004B070470000EE
:1009800086B004900391049800680190049890F850
:1009900020008DF803009DF80300012806D0FFE732
:1009A0009DF80300022840F0B080FFE746F20040C7
:1009B000C4F2000001900199D1F8000240F001005A
:1009C000C1F800020199D1F8000220F47C50C1F86E
:1009D00000020398426A0199D1F8000240EA02201D
:1009E000C1F800020398406900F01F01012088400F
:1009F0000290029A0199D1F81C029043C1F81C029E
:100A00000398C069F0B9FFE7029A0199D1F80C0286
:100A10009043C1F80C02039A9088D168526940EA69
:100A20000140019901EBC201C1F84002039A10880C
:100A30009168526940EA0140019901EBC201C1F895
:100A40004402FFE70398C06901281ED1FFE7029A1C
:100A50000199D1F80C021043C1F80C02039A908856
:100A60001168526940EA0140019901EBC201C1F8E5
:100A70004002039A90899168526940EA01400199C5
:100A800001EBC201C1F84402FFE70398806940B955
:100A9000FFE7029A0199D1F804029043C1F80402D9
:100AA00007E0029A0199D1F804021043C1F8040248
:100AB000FFE70398006940B9FFE7029A0199D1F86E
:100AC00014029043C1F8140207E0029A0199D1F888
:100AD00014021043C1F81402FFE70398006A0128CA
:100AE00008D1FFE7029A0199D1F81C021043C1F81E
:100AF0001C02FFE70199D1F8000220F00100C1F8C3
:100B0000000200208DF8170008E00499486A40F4BC
:100B10008020486201208DF81700FFE79DF817003C
:100B200006B0704780B584B00290029820B9FFE704
:100B300001208DF80F00E0E0029890F8200020B925
:100B4000FFE7029800F0DEF8FFE702980168086806
:100B500020F00200086000F069FB0190FFE70298B6
:100B6000006840688007002815D5FFE700F05EFBAD
:100B70000199401A0B280DD3FFE70299486A40F407
:100B8000003048620299052081F8200001208DF88C
:100B90000F00B2E0E3E702980168086840F0010046
:100BA000086000F043FB0190FFE70298006840688E
:100BB000C007A8B9FFE700F039FB0199401A0B28DC
:100BC0000DD3FFE70299486A40F400304862029969
:100BD000052081F8200001208DF80F008DE0E4E76A
:100BE0000298007E012807D1FFE702980168086893
:100BF00040F08000086006E002980168086820F074
:100C000080000860FFE70298407E012807D1FFE7D7
:100C100002980168086840F04000086006E0029809
:100C20000168086820F040000860FFE70298807EB5
:100C3000012807D1FFE702980168086840F020000A
:100C4000086006E002980168086820F0200008604B
:100C5000FFE70298C07E012807D1FFE702980168EC
:100C6000086820F01000086006E002980168086833
:100C700040F010000860FFE70298007F012807D1CC
:100C8000FFE702980168086840F00800086006E085
:100C900002980168086820F008000860FFE70298E1
:100CA000407F012807D1FFE702980168086840F0FB
:100CB0000400086006E002980168086820F004005B
:100CC0000860FFE7029B19685A689868D3F80CC05F
:100CD00040EA0C00D3F810C040EA0C005B691843EE
:100CE000013A1043C861029900204862029A01212A
:100CF00082F820108DF80F00FFE79DF80F0004B078
:100D000080BD000080B588B0079000200690059057
:100D10000490039002900798006846F20041C4F2E4
:100D20000001884233D1FFE7FFE70020019043F63E
:100D30004000C4F20200016841F0007101600068E7
:100D400000F0007001900198FFE7FFE7002000909D
:100D500043F63000C4F20200016841F00101016075
:100D6000006800F0010000900098FFE74FF4C050C9
:100D70000290022003900121049105900920069021
:100D80000020C4F2020002A900F06CF8FFE708B0EE
:100D900080BD000080B584B00290029890F82000D9
:100DA00001282FD1FFE70299022081F82000029844
:100DB0000168086820F00100086000F037FA01902F
:100DC000FFE7029800684068C007A8B1FFE700F09D
:100DD0002DFA0199401A0B280DD3FFE70299486AB2
:100DE00040F4003048620299052081F8200001207B
:100DF0008DF80F000FE0E4E70299002048628DF8BB
:100E00000F0008E00299486A40F40020486201207F
:100E10008DF80F00FFE79DF80F0004B080BD0000C3
:100E200082B00090009890F83500022807D0FFE7C4
:100E300000998020486501208DF807000EE0009998
:100E4000052081F8350000980168086820F001004D
:100E50000860FFE700208DF80700FFE79DF8070016
:100E600002B070478EB00D900C9100200A9009904E
:100E700008900B90FFE70B980F2800F2CD81FFE759
:100E80000B99012088400A900C9800680A99084044
:100E9000099009980A99884240F0B981FFE70C98B7
:100EA0004068022805D0FFE70C984068122826D138
:100EB000FFE70D980B996FF0030202EA5101084415
:100EC000006A08900B9800F0070081000F2000FADC
:100ED00001F10898884308900C9800690B9901F07B
:100EE0000701890000FA01F1089808430890089862
:100EF0000D990B9B02EA530211440862FFE70D981B
:100F0000006808900B984100032000FA01F108984E
:100F1000884308900C98406800F003000B99490042
:100F200000FA01F108980843089008980D990860A4
:100F30000C98406801280FD0FFE70C984068022801
:100F40000AD0FFE70C984068112805D0FFE70C98FD
:100F5000406812282FD1FFE70D98806808900B9801
:100F60004100032000FA01F10898884308900C988A
:100F7000C0680B99490000FA01F1089808430890ED
:100F800008980D9988600D98406808900B99012089
:100F900000FA01F10898884308900C984068C0F363
:100FA00000100B9900FA01F108980843089008987E
:100FB0000D994860FFE70D98C06808900B984100B4
:100FC000032000FA01F10898884308900C98806883
:100FD0000B99490000FA01F1089808430890089815
:100FE0000D99C8600C98C079C006002840F10E81A8
:100FF000FFE7FFE70020079043F64400C4F2020039
:10100000016841F480410160006800F4804007906D
:101010000798FFE70B9820F0030043F60801C4F29D
:101020000101405808900B9800F0030081000F2048
:1010300000FA01F10898884308900D980021C4F245
:101040000201884203D1FFE7002006905EE00D9880
:1010500040F20041C4F20201884203D1FFE70120BF
:10106000059050E00D9840F60001C4F2020188425C
:1010700003D1FFE70220049042E00D9840F60041C2
:10108000C4F20201884203D1FFE70320039034E059
:101090000D9841F20001C4F20201884203D1FFE73A
:1010A0000420029026E00D9841F20041C4F20201B2
:1010B000884203D1FFE70520019018E00D9841F622
:1010C0000001C4F20201884203D1FFE7062000902C
:1010D0000AE00D9941F60042C4F202020820914252
:1010E00008BF07200090FFE700980190FFE70198F4
:1010F0000290FFE702980390FFE703980490FFE750
:1011000004980590FFE705980690FFE70698C0B29F
:101110000B9901F00301890000FA01F108980843D6
:10112000089008980B9921F0030143F60802C4F2D5
:101130000102885043F60040C4F2010000680890A4
:1011400009990898884308900C988079C00728B1BD
:10115000FFE70999089808430890FFE7089843F6C5
:101160000041C4F20101086043F60440C4F20100EA
:101170000068089009990898884308900C9880792D
:101180008007002805D5FFE70999089808430890CB
:10119000FFE7089843F60441C4F20101086043F6F2
:1011A0000840C4F201000068089009990898884333
:1011B00008900C988079C006002805D5FFE70999AA
:1011C000089808430890FFE7089843F60841C4F2DE
:1011D0000101086043F60C40C4F201000068089069
:1011E00009990898884308900C988079800600280F
:1011F00005D5FFE70999089808430890FFE7089884
:1012000043F60C41C4F201010860FFE7FFE7FFE786
:101210000B9801300B902EE60EB0704742F20000A2
:10122000CEF204000068000C7047000042F6DC704B
:10123000C2F201000068704780B543F60041C4F275
:101240000201086840F400700860086840F480609B
:101250000860052000F066F80F2000F005F800F0A7
:101260003BF8002080BD000080B582B0009040F2C5
:101270000400C2F20000006840F20E01C2F2000158
:101280000A784FF47A71B1FBF2F1B0FBF1F000F0A3
:101290004FFD20B1FFE701208DF8070018E000980E
:1012A0000F280DD8FFE700994FF0FF30002200F023
:1012B0001FF8009840F21001C2F20001086003E03C
:1012C00001208DF8070003E000208DF80700FFE7FC
:1012D0009DF8070002B080BD7047000080B582B065
:1012E0008DF807009DF9070001F064FF02B080BD92
:1012F00080B586B08DF8170004910392002002900B
:1013000001F070FF02909DF9170001900298049976
:10131000039A01F0E5F80146019801F06BFF06B071
:1013200080BD000080B582B00190019801F084FF7B
:1013300002B080BD80B584B002900191029820B9BE
:10134000FFE701208DF80F001DE1019843F60041F1
:10135000C4F20201096801F00F01884212D9FFE7C7
:10136000019943F60040C4F202000170006800F0E9
:101370000F000199884204D0FFE701208DF80F008B
:1013800001E1FFE702980078800700282AD5FFE7EF
:10139000029800784007002809D5FFE743F60801C6
:1013A000C4F20201086840F4E0500860FFE70298C8
:1013B00000780007002809D5FFE743F60801C4F2CA
:1013C0000201086840F460400860FFE743F6080146
:1013D000C4F20201086820F0F000029A92681043FB
:1013E0000860FFE702980078C00700286ED0FFE78A
:1013F00002984068012811D1FFE743F60000C4F2CB
:101400000200006800F400310020B0EB514F04D11D
:10141000FFE701208DF80F00B5E02CE0029840684E
:10142000022805D0FFE702984068032811D1FFE7A2
:1014300043F60000C4F20200006800F000710020D2
:10144000B0EB516F04D1FFE701208DF80F009AE057
:1014500010E043F60000C4F20200006800F0020150
:101460000020B0EB510F04D1FFE701208DF80F00F1
:1014700089E0FFE7FFE743F60801C4F202010868CC
:1014800020F00300029A526810430860FFF7CEFE76
:101490000090FFE743F60800C4F20200006800F085
:1014A0000C0002994968B0EB810F0ED0FFE7FFF7FF
:1014B000BDFE0099401A41F28931884204D3FFE70A
:1014C00003208DF80F005EE0E4E7FFE7019843F6A4
:1014D0000041C4F20201096801F00F01884212D2F2
:1014E000FFE7019943F60040C4F202000170006872
:1014F00000F00F000199884204D0FFE701208DF829
:101500000F0040E0FFE702980078400700280CD564
:10151000FFE743F60801C4F20201086820F4E05036
:10152000029AD26810430860FFE70298007800072B
:1015300000280DD5FFE743F60801C4F20201086850
:1015400020F46040029A126940EAC2000860FFE796
:1015500000F048F843F60801C4F202010968C9B274
:101560000A0946F23A41C0F60001895CC84040F2DF
:101570000401C2F2000108600F20FFF775FE002091
:101580008DF80F00FFE79DF80F0004B080BD00004C
:1015900040F20400C2F200000068704780B5FFF717
:1015A000F7FF43F60801C4F202010968C1F3822281
:1015B00046F24A41C0F60001895CC84080BD000087
:1015C00080B5FFF7E5FF43F60801C4F202010968A0
:1015D00089B24A0B46F24A41C0F60001895CC84014
:1015E00080BD000080B586B0002005900490039077
:1015F000029043F60800C4F20200006800F00C00FC
:101600000146019140B1FFE7019804280AD0FFE7A5
:10161000019808280CD04FE042F20040C0F2F400DC
:1016200002904FE041F20020C0F27A00029049E0BF
:1016300043F60400C4F20200016801F03F01059185
:1016400000684002002813D5FFE743F60400C4F207
:1016500002000068C0F3881041F20021C0F27A0154
:10166000A0FB0101059A0023FEF7ACFD049012E0F7
:1016700043F60400C4F202000068C0F3881042F28E
:101680000041C0F2F401A0FB0101059A0023FEF71E
:1016900099FD0490FFE743F60400C4F202000068DD
:1016A00000F44031022000EBD130039004980399FC
:1016B000B0FBF1F0029005E042F20040C0F2F4000D
:1016C0000290FFE7029806B080BD000080B586B0AA
:1016D0000490049820B9FFE701208DF8170009E372
:1016E00004980078C007002800F0A580FFE743F6C3
:1016F0000800C4F20200006800F00C00042813D0B7
:10170000FFE743F60800C4F20200006800F00C0096
:1017100008281ED1FFE743F60400C4F20200006867
:101720004002002815D5FFE743F60000C4F202008E
:10173000006800F400310020B0EB514F08D0FFE703
:101740000498406820B9FFE701208DF81700D1E226
:1017500070E0FFE704984068B0F5803F09D1FFE7EB
:1017600043F60001C4F20201086840F480300860CA
:1017700020E004984068B0F5A02F0DD1FFE743F6B4
:101780000001C4F20201086840F480200860086883
:1017900040F4803008600CE043F60001C4F202011E
:1017A000086820F480300860086820F48020086011
:1017B000FFE7FFE7FFE704984068E8B1FFE7FFF7BE
:1017C00035FD0390FFE743F60000C4F20200006815
:1017D00000F400310020B0EB514F0CD1FFE7FFF7D0
:1017E00025FD0399401A652804D3FFE703208DF8EF
:1017F00017007FE2E7E71CE0FFF718FD0390FFE723
:1018000043F60000C4F20200006800F4003100203A
:10181000B0EB514F0CD0FFE7FFF708FD0399401ADA
:10182000652804D3FFE703208DF8170062E2E7E79D
:10183000FFE7FFE7FFE7049800788007002840F102
:101840009680FFE743F60800C4F20200006810F03B
:101850000C0F13D0FFE743F60800C4F20200006843
:1018600000F00C0008282CD1FFE743F60400C4F276
:10187000020000684002002823D4FFE743F600007E
:10188000C4F20200006800F002010020B0EB510F2A
:1018900009D0FFE70498C068012804D0FFE70120C1
:1018A0008DF8170026E243F60001C4F20201086831
:1018B00020F0F800049A126940EAC2000860FFE7CD
:1018C00054E00498C06870B3FFE70021C4F24721D8
:1018D00001200860FFF7AAFC0390FFE743F6000031
:1018E000C4F20200006800F002010020B0EB510FCA
:1018F0000CD1FFE7FFF79AFC0399401A032804D3A1
:10190000FFE703208DF81700F4E1E7E743F6000155
:10191000C4F20201086820F0F800049A126940EA53
:10192000C200086021E00021C4F2472100200860C5
:10193000FFF77CFC0390FFE743F60000C4F20200CF
:10194000006800F002010020B0EB510F0CD0FFE75F
:10195000FFF76CFC0399401A032804D3FFE7032028
:101960008DF81700C6E1E7E7FFE7FFE7FFE7049818
:101970000078000700284BD5FFE70498406918B3AA
:10198000FFE740F68061C4F2472101200860FFF7BD
:101990004DFC0390FFE743F67400C4F202000068B8
:1019A00000F002010020B0EB510F0CD1FFE7FFF770
:1019B0003DFC0399401A032804D3FFE703208DF868
:1019C000170097E1E7E722E040F68061C4F2472183
:1019D00000200860FFF72AFC0390FFE743F674003D
:1019E000C4F20200006800F002010020B0EB510FC9
:1019F0000CD0FFE7FFF71AFC0399401A032804D321
:101A0000FFE703208DF8170074E1E7E7FFE7FFE742
:101A1000049800784007002840F1CE80FFE70020BE
:101A20008DF80B0043F64000C4F202000068C000CD
:101A3000002815D4FFE7FFE70020019043F640009F
:101A4000C4F20200016841F080510160006800F0BA
:101A5000805001900198FFE701208DF80B00FFE70F
:101A600047F20000C4F200000068C005002822D43C
:101A7000FFE747F20001C4F20001086840F48070FB
:101A80000860FFF7D3FB0390FFE747F20000C4F2C2
:101A900000000068C00500280CD4FFE7FFF7C6FB74
:101AA0000399401A032804D3FFE703208DF8170099
:101AB00020E1EAE7FFE7FFE704988068012809D101
:101AC000FFE743F67001C4F20201086840F001002C
:101AD00008601FE00498806805280DD1FFE743F6F1
:101AE0007001C4F20201086840F004000860086850
:101AF00040F0010008600CE043F67001C4F20201FE
:101B0000086820F001000860086820F00400086000
:101B1000FFE7FFE7FFE704988068F8B1FFE7FFF70A
:101B200085FB0390FFE743F67000C4F202000068F3
:101B300000F002010020B0EB510F0ED1FFE7FFF7DC
:101B400075FB0399401A41F28931884204D3FFE7BB
:101B500003208DF81700CDE0E5E71EE0FFF766FBF8
:101B60000390FFE743F67000C4F20200006800F043
:101B700002010020B0EB510F0ED0FFE7FFF756FB3C
:101B80000399401A41F28931884204D3FFE70320C8
:101B90008DF81700AEE0E5E7FFE79DF80B000128A0
:101BA00009D1FFE743F64001C4F20201086820F0C2
:101BB00080500860FFE7FFE704988069002800F084
:101BC0009580FFE743F60800C4F20200006800F0C9
:101BD0000C00082800F08580FFE70498806902283F
:101BE0005CD1FFE76021C4F2472100200860FFF7C5
:101BF0001DFB0390FFE743F60000C4F202000068FB
:101C000000F000710020B0EB516F0CD0FFE7FFF740
:101C10000DFB0399401A032804D3FFE703208DF836
:101C2000170067E0E7E70499C869D1F820C04B6A5C
:101C30008A6A40EA0C0040EA8310D2034FF6FF7331
:101C40009A43A2F580321043C96A40EA016043F624
:101C50000401C4F2020108606021C4F2472101209E
:101C60000860FFF7E3FA0390FFE743F60000C4F2D1
:101C70000200006800F000710020B0EB516F0CD141
:101C8000FFE7FFF7D3FA0399401A032804D3FFE7CD
:101C900003208DF817002DE0E7E721E06021C4F272
:101CA000472100200860FFF7C1FA0390FFE743F6E1
:101CB0000000C4F20200006800F000710020B0EBE8
:101CC000516F0CD0FFE7FFF7B1FA0399401A0328D0
:101CD00004D3FFE703208DF817000BE0E7E7FFE7E9
:101CE00003E001208DF8170004E0FFE700208DF8E5
:101CF0001700FFE79DF8170006B080BD81B0009087
:101D00000098042809D1FFE74EF21001CEF200013D
:101D1000086840F00400086008E04EF21001CEF2BE
:101D20000001086820F004000860FFE701B0704778
:101D300080B582B00190019800F0DEFC02B080BD59
:101D400081B0009001B0704783B0029000200190F4
:101D50000090029890F839000190029890F83A00AB
:101D600000909DF804009DF80010084303B07047F0
:101D700080B586B0059005980068006804900598C5
:101D80000068C068039005980068406902900020D0
:101D900001900090049800F00F000190019888B91C
:101DA000FFE79DF81000800600280AD5FFE79DF8A0
:101DB0000C008006002804D5FFE7059800F040FDE0
:101DC000D2E0FFE70198002800F0AE80FFE79DF821
:101DD0000800C00738B9FFE7BDF80C0010F4907F89
:101DE00000F0A280FFE79DF81000C00758B1FFE7A0
:101DF0009DF80D00C00730B1FFE70599C86B40F0B2
:101E00000100C863FFE79DF81000400700280BD5CC
:101E1000FFE79DF80800C00730B1FFE70599C86BE0
:101E200040F00200C863FFE79DF81000800700281B
:101E30000BD5FFE79DF80800C00730B1FFE7059913
:101E4000C86B40F00400C863FFE79DF8100000076E
:101E500000280BD5FFE79DF80800C00730B1FFE769
:101E60000599C86B40F00800C863FFE70598C06B90
:101E7000002858D0FFE79DF81000800600280AD5FA
:101E8000FFE79DF80C008006002804D5FFE70598C1
:101E900000F0D6FCFFE7059800684069C0F38010A9
:101EA00000900598C06B0007002803D4FFE7009856
:101EB00088B3FFE7059800F09BFC0598006840692F
:101EC0004006002822D5FFE705980168486920F000
:101ED000400048610598406B98B1FFE70598416B59
:101EE00042F2D170C0F6000008650598406BFEF71D
:101EF00097FF28B1FFE70598406B016D8847FFE722
:101F000003E00598FFF71CFFFFE703E00598FFF7E4
:101F100017FFFFE706E00598FFF712FF059900207D
:101F2000C863FFE7FFE71FE09DF8100000060028E8
:101F30000AD5FFE79DF80C000006002804D5FFE74E
:101F4000059800F0F9FE0FE09DF81000400600280B
:101F50000AD5FFE79DF80C004006002804D5FFE7EE
:101F6000059800F059FCFFE706B080BD80B582B04F
:101F70000090009820B9FFE701208DF807003EE0AF
:101F80000098806908B1FFE700E0FFE7009890F84B
:101F9000390040B9FFE70099002081F83800009827
:101FA00000F032F8FFE70099242081F8390000980A
:101FB0000168C86820F40050C860009800F0B8FCC0
:101FC00000980168086920F4904008610098016851
:101FD000486920F02A00486100980168C86840F408
:101FE0000050C86000990020C863009A202182F840
:101FF0003910009A82F83A108DF80700FFE79DF833
:10200000070002B080BD000080B590B00F900F981F
:10201000006841F20001C4F20101884245D1FFE7A6
:10202000FFE70020099043F63000C4F20200016887
:1020300041F001010160006800F001000990099879
:10204000FFE7FFE70020089043F64400C4F20200D7
:10205000016841F010010160006800F01000089074
:102060000898FFE74FF400700A9002200B900121BE
:102070000C910D9007200E900020C4F202000390F6
:102080000AA90491FEF7EEFE039804994FF48062CA
:102090000A92FEF7E7FE25200590FFF71FF9059845
:1020A00003221146FFF724F9FFE70F98006844F276
:1020B0000041C4F20001884243D1FFE7FFE700205E
:1020C000079043F63000C4F20200016841F00101BC
:1020D0000160006800F0010007900798FFE7FFE744
:1020E0000020069043F64000C4F20200016841F46B
:1020F00000310160006800F4003006900698FFE7A8
:1021000004200A9002200B9001210C910D900720D1
:102110000E900020C4F2020000900AA90191FEF77F
:10212000A1FE0098019908220A92FEF79BFE262044
:102130000290FFF7D3F8029803221146FFF7D8F870
:10214000FFE710B080BD000084B002900191ADF8AF
:102150000220029890F83A0020284AD1FFE701981F
:1021600020B1FFE7BDF8020020B9FFE701208DF89C
:102170000F0042E0FFE7029890F83800012804D1F0
:10218000FFE702208DF80F0037E00299012081F867
:102190003800FFE7FFE7019802998862BDF8020066
:1021A00002998885BDF802000299C885029900202D
:1021B000C8630299222081F83A00FFE702990020C3
:1021C00081F83800FFE702980168C86840F4807021
:1021D000C86002980168486940F0010048610298AF
:1021E0000168C86840F02000C86000208DF80F002A
:1021F00003E002208DF80F00FFE79DF80F0004B008
:102200007047000080B582B001900198006841F2EB
:102210000001C4F2010188425FD1FFE740F264206F
:10222000C2F2000000880004002855D4FFE740F205
:102230006420C2F2000000884004002819D5FFE79E
:1022400040F26C20C2F2000000780A2807D0FFE7B5
:1022500040F26421C2F200010020088008E040F250
:102260006421C2F20001088840F400400880FFE7C2
:1022700031E040F26C20C2F2000000780D2809D154
:10228000FFE740F26421C2F20001088840F4804078
:1022900008801FE040F26C20C2F20000017840F29A
:1022A0006420C2F2000003886FF39F3340F29C1257
:1022B000C2F20002D1540188013101800088C8288F
:1022C00007DBFFE740F26421C2F200010020088032
:1022D000FFE7FFE7FFE7FFE711E00198006844F23E
:1022E0000041C4F20001884208D1FFE740F26D20AE
:1022F000C2F200000078FEF7A9FAFFE7FFE702B09C
:1023000080BD000080B588B006900591ADF8122020
:10231000039300200190069890F83900202840F09F
:102320009980FFE7059820B1FFE7BDF8120020B9BA
:10233000FFE701208DF81F0090E0FFE7069890F876
:102340003800012804D1FFE702208DF81F0085E046
:102350000699012081F83800FFE7FFE70699002081
:10236000C8630699212081F83900FEF75FFF0190CC
:10237000BDF8120006998884BDF812000699C88439
:10238000FFE70698C08C002847D0FFE70699C88C65
:102390000138C88406988068B0F5805F25D1FFE7D2
:1023A0000698019B03996A4611608021002200F083
:1023B00013FD20B1FFE703208DF81F004EE00598C4
:1023C0000290029800886FF35F20069909684860C0
:1023D0000698006920B9FFE705980230059003E0F0
:1023E000059801300590FFE716E00698019B0399D8
:1023F0006A4611608021002200F0EEFC20B1FFE768
:1024000003208DF81F0029E00598411C05910078F4
:10241000069909684860FFE7B3E70698019B0399AE
:102420006A4611604021002200F0D6FC20B1FFE78F
:1024300003208DF81F0011E00699202081F8390053
:10244000FFE70699002081F83800FFE700208DF8AB
:102450001F0003E002208DF81F00FFE79DF81F001A
:1024600008B080BD81B0009001B07047FFE7FEE783
:1024700010B588B040F27420C2F2000046F200416C
:10248000C4F2000101600199029A039BDDF810C0BB
:10249000DDF814E0069C8461C0F814E0C0F810C0B8
:1024A000C360826041600799C161032141600021DE
:1024B0008160C1604FF4C02202614FF4A00242610A
:1024C0000176417681760122C27601774177FEF767
:1024D00029FB08B010BD0000FFE7FEE770470000D1
:1024E00088B0079006910592079800F007000490C5
:1024F0000498C0F10700052803D3FFE704200190EA
:1025000004E00498C0F107000190FFE701980390F0
:1025100004980430062803D8FFE70020009003E069
:10252000049803380090FFE70098029006980399FA
:10253000012202FA01F101390840029B98400599F5
:102540009A40013A1140084308B07047000000006B
:10255000EFF30980BFF36F8F154B1A681EF0100F51
:1025600008BF20ED108A20E9F04F10602DE9090026
:102570004FF0500080F31188BFF34F8FBFF36F8F80
:1025800002F0AEFB4FF0000080F31188BDE80900B7
:1025900019680868B0E8F04F1EF0100F08BFB0ECE3
:1025A000108A80F30988BFF36F8F704700BF00BFA8
:1025B00040030020000000000000000000000000B8
:1025C000074B19680868B0E8F04F80F30988BFF33B
:1025D0006F8F4FF0000080F31188704700BF00BF7D
:1025E0004003002080B582B00190019940F25C1058
:1025F000C2F2000000F0B6FF02B080BD80B582B02C
:1026000001900091019801F059FF009801F078FFC6
:1026100002B080BD80B598B01790169115921493B2
:1026200000208DF84F00FFE70020019043F64000A6
:10263000C4F20200016841F080510160006800F0BE
:10264000805001900198FFE7FFE70020009047F2DB
:102650000000C4F20000016841F48041016000689C
:1026600000F4804000900098FFE7012007904FF4AD
:102670008030089002200D904FF480000E90169844
:102680000F9017981090159811901498129007A811
:10269000FFF71CF88DF84F009DF84F0010B1FFE7D1
:1026A000FFE7FEE70F200290022003900020049035
:1026B0004FF4A05005904FF48050069002A80521D9
:1026C000FEF738FE8DF84F009DF84F0010B1FFE780
:1026D000FFE7FEE7FEF7A2FD41F20101884209D1C2
:1026E000FFE743F60041C4F20201086840F480703D
:1026F0000860FFE718B080BD80B582B000900098F8
:102700000138B0F1807F03D3FFE70120019019E089
:10271000009801384EF21401CEF2000108604FF02B
:10272000FF300F2100F066FD4EF21801CEF20001DD
:10273000002008604EF21002CEF200020721116064
:102740000190FFE7019802B080BD000080B502F063
:1027500097FE012803D0FFE702F0FAFBFFE780BDF8
:102760004EF68851CEF20001086840F4700008600F
:1027700043F60002C4F20202106840F0010010604B
:1027800043F60801C4F202010020086011684FF608
:10279000FF73CFF6F6631940116043F60403C4F2E9
:1027A000020343F21001C2F200411960116821F4E2
:1027B0008021116043F60C01C4F2020108604EF65C
:1027C0000851CEF200014FF0006008607047000031
:1027D00080B582B001900198806B00900099002034
:1027E000C8850099C8840098FFF7AAFA02B080BD96
:1027F00081B0009000980168C86820F49070C860AB
:1028000000980168486920F0010048610099202083
:1028100081F83A0001B0704780B582B0019001980C
:102820000168C86820F04000C8600199202081F844
:1028300039000198FFF716FE002002B080BD0000AD
:1028400080B584B00290029890F83A00222866D1B0
:10285000FFE702988068B0F5805F1FD1FFE702981C
:10286000806A01900298006960B9FFE702980068E9
:1028700040686FF35F20019908800299886A0230EE
:1028800088620AE0029800684068C0B20199088036
:102890000299886A01308862FFE718E002980069AF
:1028A00048B9FFE7029800684068029B996A4A1C91
:1028B0009A6208700AE002980068406800F07F00A1
:1028C000029B996A4A1C9A620870FFE7FFE7029927
:1028D000C88D0138C8850004E8B9FFE7029801688F
:1028E000C86820F02000C86002980168C86820F419
:1028F0008070C86002980168486920F00100486152
:102900000299202081F83A000298FFF77BFC002012
:102910008DF80F0007E000208DF80F0003E0022083
:102920008DF80F00FFE79DF80F0004B080BD000098
:10293000B0B59EB01D901D980068006920F440500D
:102940001D9A1168D268104308611D9988680B6947
:102950004A69C9691843104308431C901D980068D0
:10296000C06849F20C6188431C9908431D990968A5
:10297000C8601D980068406920F440701D9A116875
:102980009269104348611D98C069B0F5004F40F04E
:10299000EA80FFE71D98006841F20001C4F20101DE
:1029A000884209D0FFE71D98006841F20041C4F257
:1029B000010188426BD1FFE7FEF702FE1921179152
:1029C00048431D9949684900B0FBF1F048F21F5196
:1029D000C5F2EB111991A0FB01016FF00F0000EAA5
:1029E00051001690FEF7ECFD179948431D99496870
:1029F0004900B0FBF1F01590FEF7E2FDDDF854C0A0
:102A0000179B199A0146169859431D9B5B685B00FA
:102A1000B1FBF3F1A1FB0231490964231A9301FBD5
:102A200013C33221189101EBC301A1FB0212F8215B
:102A300001EA521100EB41001B90FEF7C1FD17990E
:102A400048431D9949684900B0FBF1F4FEF7B8FD11
:102A5000DDF85CC0189A199BDDF868E001461B9808
:102A600001FB0CFC1D9D29686D686D00BCFBF5FC2D
:102A7000ACFB035C4FEA5C1C0CFB1E4C02EBCC0273
:102A8000A2FB0332C2F34212104488606AE0FEF7F0
:102A900085FD1921109148431D9949684900B0FBF3
:102AA000F1F048F21F51C5F2EB111291A0FB0101A8
:102AB0006FF00F0000EA51000F90FEF76FFD1099C4
:102AC00048431D9949684900B0FBF1F00E90FEF7AC
:102AD00065FDDDF838C0109B129A01460F985943E6
:102AE0001D9B5B685B00B1FBF3F1A1FB023149095F
:102AF0006423139301FB13C33221119101EBC30132
:102B0000A1FB0212F82101EA521100EB41001490DE
:102B1000FEF744FD109948431D9949684900B0FBF0
:102B2000F1F4FEF73BFDDDF840C0119A129BDDF891
:102B30004CE00146149801FB0CFC1D9D29686D6852
:102B40006D00BCFBF5FCACFB035C4FEA5C1C0CFBB2
:102B50001E4C02EBCC02A2FB0332C2F34212104421
:102B60008860FFE7E6E01D98006841F20001C4F2CA
:102B70000101884209D0FFE71D98006841F2004139
:102B8000C4F2010188426AD1FFE7FEF719FD19215D
:102B9000099148431D9949688900B0FBF1F048F25A
:102BA0001F51C5F2EB110B91A0FB01016FF00F005B
:102BB00000EA51000890FEF703FD099948431D996A
:102BC00049688900B0FBF1F00790FEF7F9FCDDF8E9
:102BD0001CC0099B0B9A0146089859431D9B5B68D2
:102BE0009B00B1FBF3F1A1FB0231490964230C9373
:102BF00001FB13C332210A9101EB0311A1FB021265
:102C0000F02101EA521108440D90FEF7D9FC099910
:102C100048431D9949688900B0FBF1F4FEF7D0FCE8
:102C2000DDF824C00A9A0B9BDDF830E001460D98D0
:102C300001FB0CFC1D9D29686D68AD00BCFBF5FC1B
:102C4000ACFB035C4FEA5C1C0CFB1E4C02EB0C1251
:102C5000A2FB0332C2F343121044886069E0FEF71E
:102C60009DFC1921029148431D9949688900B0FBD8
:102C7000F1F048F21F51C5F2EB110491A0FB0101E4
:102C80006FF00F0000EA51000190FEF787FC0299F7
:102C900048431D9949688900B0FBF1F00090FEF7A8
:102CA0007DFCDDF800C0029B049A0146019859435F
:102CB0001D9B5B689B00B1FBF3F1A1FB023149094D
:102CC0006423059301FB13C33221039101EB03112C
:102CD000A1FB0212F02101EA521108440690FEF70E
:102CE0005DFC029948431D9949688900B0FBF1F4E5
:102CF000FEF754FCDDF808C0039A049BDDF814E0ED
:102D00000146069801FB0CFC1D9D29686D68AD000D
:102D1000BCFBF5FCACFB035C4FEA5C1C0CFB1E4CE3
:102D200002EB0C12A2FB0332C2F343121044886080
:102D3000FFE7FFE71EB0B0BD83B00190019890F8A7
:102D40003900212840D1FFE701988068B0F5805F05
:102D500019D1FFE70198006A0090009800886FF38E
:102D60005F200199096848600198006928B9FFE768
:102D70000199086A0230086204E00199086A01308A
:102D80000862FFE708E0019A106A411C11620078AE
:102D9000019909684860FFE70199C88C0138C88427
:102DA000000468B9FFE701980168C86820F0800056
:102DB000C86001980168C86840F04000C860FFE73B
:102DC00000208DF80B0003E002208DF80B00FFE7D8
:102DD0009DF80B0003B0704780B586B0DDF820C0C9
:102DE000049003918DF80B200193FFE7049800688D
:102DF000006803990840401AB0FA80F040099DF835
:102E00000B1088422ED1FFE70898013048B3FFE746
:102E1000089840B1FFE7FEF709FA0199401A0899AE
:102E200088421DD9FFE704980168C86820F4D07073
:102E3000C86004980168486920F00100486104995D
:102E4000202081F83900049981F83A00FFE70499BD
:102E5000002081F83800FFE703208DF8170005E017
:102E6000FFE7C3E700208DF81700FFE79DF8170084
:102E700006B080BD80B582B000200090019040F285
:102E80001C10C2F20000FEF773FF00980190FFE7EC
:102E900040F21C10C2F20000FEF756FF20280AD0B4
:102EA000FFE70198013001900198B0F1FF3F01D98F
:102EB000FFE700E0ECE700200190FFE740F21C1084
:102EC000C2F2000040F26C21C2F200010122FFF7C1
:102ED0003BF950B1FFE70198013001900198B0F142
:102EE000FF3F01D9FFE700E0E8E702B080BD000046
:102EF00080B582B00020019040F25C10C2F2000068
:102F0000FEF736FFFFE740F25C10C2F20000FEF76A
:102F10001BFF20280AD0FFE701980130019001989B
:102F2000B0F1FF3F01D9FFE700E0ECE7002001909E
:102F3000FFE740F25C10C2F2000040F26D21C2F2E5
:102F400000010122FFF700F950B1FFE701980130BD
:102F500001900198B0F1FF3F01D9FFE700E0E8E7F9
:102F600040F25C10C2F2000002686FF020011160B4
:102F700001686FF00800086002B080BDFFE7FEE75F
:102F800080B500F077F980BD80B500F07FF900F0E2
:102F9000ADF900F0C3F900F0D9F980BD80B500F0BB
:102FA0008DF980BD80B584B0039001F07BFB40F2C9
:102FB0006820C2F20000694648600320086042F6BB
:102FC000ED70C0F6000046F22B51C0F600018022E1
:102FD000002302F005FA40F21810C2F20000006867
:102FE00001F0F8FC01F08AFB04B080BD80B590B020
:102FF0000F9000208DF83B00FFE74FF47A7001F04E
:10300000B1FC9DF83B0001308DF83B009DF83B0082
:103010000B282BDBFFE700208DF83B0046F2E94050
:10302000C0F6000002F090FD40F20800C2F200007D
:10303000FFF7D8FA46F29A40C0F6000002F084FD8D
:10304000642000F0CBF946F27840C0F6000002F0B0
:103050007BFD40F20B00C2F20000FFF7C3FA46F21C
:10306000C240C0F6000002F06FFDFFE746F252409A
:10307000C0F6000002F068FD40F2C431C2F2000167
:10308000B1F90000B1F902200492B1F904100891DD
:1030900000EE100AB8EEC00A9FED2C1A8DED061A4C
:1030A00080EE010A9FED2A1A8DED071A20EE010A23
:1030B00010EE100AFDF70BFA9DED062A9DED071A9A
:1030C0000246049805920A46059942EC101B8DEDC4
:1030D0000C0B00EE100AB8EEC00A80EE020A20EED9
:1030E000010A10EE100AFDF7F2F99DED062A9DED9A
:1030F000071A0246089809920A46099942EC101BE1
:103100008DED0A0B00EE100AB8EEC00A80EE020A3E
:1031100020EE010A10EE100AFDF7D9F99DED0A1B09
:103120009DED0C0B41EC120B684680ED022B80EDFF
:10313000001B53EC102B46F21450C0F6000002F0B6
:1031400003FD0A2001F00EFC57E700BF0000004716
:103150000000344380B584B084460B98DDF828E045
:10316000DDF824E0DDF820E0DDF81CE0DDF818E013
:10317000CDF80CC08DF80B108DF80A2001938DF856
:10318000030003989DF80B1001709DF80A10417020
:1031900001994160069981600799C16008990161B0
:1031A000099941610A9981619DF80310017704B082
:1031B00080BD000081B08DF803009DF90300002858
:1031C0000ED4FFE79DF9031001F01F02012090408B
:1031D0004A094EF20011CEF2000141F82200FFE749
:1031E00001B070474EF60C50CEF200000068C0F3FC
:1031F0000220704782B08DF8070000919DF907000A
:1032000000280AD4FFE7009800019DF907104EF24C
:103210000042CEF2000288540BE0009800019DF8B5
:10322000071001F00F014EF61452CEF2000288543E
:10323000FFE702B07047000083B00290029800F0F0
:10324000070000904EF60C51CEF200010868019084
:1032500001984FF6FF02104001900198009A40EA51
:1032600002200022C0F2FA52104301900198086037
:1032700003B0704780B503200421002201F086FED0
:1032800040F21801C2F20001086080BD80B586B02E
:1032900068460122426142F210710161C16000235F
:1032A000836040F6B8314160036040F2BC20C2F256
:1032B00000001146FFF74EFF06B080BD80B586B016
:1032C00068460122426142F210710161C16000232F
:1032D000836040F6B8314160036040F21C30C2F2B6
:1032E00000000321FFF736FF06B080BD80B586B031
:1032F00068460122426142F210710161C1600023FF
:10330000836040F6B8314160036040F2DC20C2F2D5
:1033100000000221FFF71EFF06B080BD80B586B019
:1033200068460122426142F210710161C1600023CE
:10333000836040F6B8314160036040F29C20C2F2E5
:1033400000000321FFF706FF06B080BD80B586B000
:1033500068460122426142F210710161C16000239E
:10336000836040F6B8314160036040F2FC20C2F255
:1033700000000421FFF7EEFE06B080BD80B582B0EC
:103380008DF807000420FEF7B9FC9DF8070040F215
:103390007021C2F2000108609DF8070000900098BB
:1033A0004FF47A714843009040F26E21C2F200015E
:1033B000012008804EF21001CEF20001086840F0B2
:1033C0000200086000984EF21402CEF20002106073
:1033D000086840F00100086002B080BD80B582B08E
:1033E000ADF8060002F04CF8012824D0FFE7BDF844
:1033F000060040F26E21C2F20001098888420CDB0F
:10340000FFE7BDF8060040F26E21C2F20001098814
:10341000B0FBF1F001F0A6FAFFE740F26E20C2F235
:1034200000000188BDF80620B2FBF1F000FB11207E
:10343000ADF80600FFE7BDF806004FF47A71484387
:1034400000F002F802B080BD86B005900020019027
:103450004EF21400CEF2000000680090059840F291
:103460007021C2F200010968484304904EF218002E
:10347000CEF2000000680390FFE74EF21800CEF293
:103480000000006802900298039988421ED0FFE76E
:1034900002980399884207D2FFE703980299411ADC
:1034A00001980844019008E000980299401A039995
:1034B0000144019808440190FFE7029803900198A5
:1034C0000499884201D3FFE701E0FFE7D5E706B0A2
:1034D0007047000082B001900091FFE741F20000C8
:1034E000C4F2010000684006002801D4FFE7F5E7B8
:1034F0009DF8040041F20401C4F201010860019842
:1035000002B0704780B584B0FDF796FE4FF4A87006
:10351000082102220723FFF77DF8A820FFF72EFFDE
:103520004FF4E1310846FFF769F8FDF73BF940F247
:103530001810C2F20000694648600120086042F697
:10354000A570C0F6000046F23951C0F60001802295
:103550000023039301F044FF01F060FB039804B0E3
:1035600080BD000080B584B0039002910398019063
:1035700002980090FCF77BFE00990246019892B2F7
:103580006423FEF7BFFE04B080BD000080B584B0A8
:10359000039002910398019002980090FCF767FE57
:1035A00000990246019892B26423FEF7ABFE03989D
:1035B00046F22951C0F60001FFF7D4FF04B080BDE8
:1035C00080B586B00590049143F2EC00C2F2010090
:1035D0000068029040F24030C2F2000000680430FF
:1035E00000F0B0FF88B9FFE740F24030C2F20000BF
:1035F0000068C16A012000FA01F242F6F071C2F2DD
:10360000010108689043086000E0FFE70598013079
:1036100018BBFFE7049800B3FFE743F2C401C2F20E
:10362000010148680190019A40F24030C2F2000066
:1036300003689A60019A92680368DA60026804324B
:10364000019B9B685A6002680432019B9A60006883
:1036500041610868013008603DE00298059908441E
:103660000390039840F24031C2F2000109684860BB
:103670000398029988420ED2FFE740F25030C2F21E
:103680000000006840F24031C2F2000109680431D4
:1036900000F0AAFF1EE040F24830C2F200000068CD
:1036A00040F24031C2F200010968043100F09CFF91
:1036B000039843F25001C2F201010968884207D21F
:1036C000FFE7039843F25001C2F20101086000E0F5
:1036D000FFE7FFE7FFE706B080BD000080B582B0DE
:1036E000019000F0DFFF42F6E071C2F201010868CC
:1036F0000130086040F24030C2F20000006898B922
:10370000FFE7019840F24031C2F20001086042F642
:10371000E070C2F201000068012803D1FFE700F069
:1037200073FA00E0FFE71CE043F2B800C2F20100C8
:103730000068A0B9FFE740F24030C2F20000006824
:10374000C06A0199C96A884207D8FFE7019840F228
:103750004031C2F20001086000E0FFE700E0FFE74F
:10376000FFE742F6EC70C2F201000168013101602E
:103770000068019908640198C16A012000FA01F209
:1037800042F6F071C2F20101086810430860019826
:10379000C06A00EB800040F25831C2F2000101EB38
:1037A0008000406800900098019A906000988068BE
:1037B000019AD06001980430009A92685060019894
:1037C0000430009A9060019AD06A00EB800001EB0F
:1037D000800050610198C06A00EB800251F822001D
:1037E000013041F8220000F089FF43F2B800C2F234
:1037F00001000068C8B1FFE740F24030C2F20000AB
:103800000068C06A0199C96A88420CD2FFE74EF687
:103810000451CEF200014FF080500860BFF34F8F8B
:10382000BFF36F8F00E0FFE700E0FFE702B080BD6D
:1038300080B582B000F036FF43F2F000C2F2010022
:103840000068B0BBFFE742F6F470C2F201000090DE
:1038500000F0AAFE43F20800C2F20100019000F05D
:10386000A3FE0099019840F24432C2F200021160B6
:1038700040F25431C2F2000108600A200C210022FB
:1038800001F084FB014643F2F000C2F20100016046
:10389000006860B1FFE743F2F000C2F20100006887
:1038A00046F2D451C0F6000100F0CEFF00E0FFE781
:1038B00000E0FFE700F022FF02B080BD80B582B0DB
:1038C000FFE742F6E470C2F20100006808B3FFE7C8
:1038D00000F0E8FE43F2D800C2F20100C068C06800
:1038E00001900198043000F02DFE42F6E071C2F222
:1038F000010108680138086042F6E471C2F2010172
:1039000008680138086000F0F9FE019800F026F818
:10391000D7E702B080BD000080B582B00190009171
:103920000198006CB8B1FFE70199C8680A6C1044AF
:10393000C86001988168C068884204D3FFE7019994
:103940000868C86000E0FFE70098019AD168126C2F
:10395000FCF769FCFFE702B080BD000080B582B0D3
:1039600001900198006B00F0EFFE019800F0ECFE72
:1039700002B080BD82B0019040F24430C2F200003B
:1039800000680068B0FA80F0400901990860019869
:10399000006848B9FFE740F24430C2F20000006816
:1039A000C0680068009002E000200090FFE70098E7
:1039B00002B0704784B04FF49630009040F2D4309B
:1039C000C2F2000001909DF80400400788B1FFE7B3
:1039D000019807300190019820F007000190019AAA
:1039E00040F2D431C2F200010098891A08440090D4
:1039F000FFE701980290029943F2BC00C2F2010075
:103A00000160002141600298009A104401900198E1
:103A100008380190019820F007000190019A40F2C7
:103A20004C30C2F20000026002685160026811600E
:103A3000029903910199039A891A516000680399C8
:103A400008600398406843F24C01C2F2010108602B
:103A50000398406843F24401C2F20101086004B0D7
:103A60007047000080B582B00190FFE7FFF726FFA6
:103A700040F25830C2F20000006802280CD3FFE781
:103A80004EF60451CEF200014FF080500860BFF3B3
:103A90004F8FBFF36F8F00E0FFE7E7E780B584B09B
:103AA000DDF818C00390029101928DF8033002985E
:103AB00018B9FFE70698006003E0019806990860CE
:103AC000FFE703980699C863029806990864069868
:103AD000012101F0A9FA9DF80300069981F84C0034
:103AE00004B080BD80B588B0DDF834C0DDF830C0EA
:103AF000DDF82CC0DDF828C00590049103920293F4
:103B00000C98006B03998900A522FCF79EFB0C988A
:103B1000006B039900EB810004380190019820F0BC
:103B2000070001909DF80400400758B1FFE74FF0EF
:103B3000500080F31188BFF36F8FBFF34F8F079052
:103B4000FFE7FEE70498F8B1FFE700200090FFE7E9
:103B50000098092813D8FFE70498009A805C0C9914
:103B6000114481F8340004980099405C08B9FFE7DB
:103B700005E0FFE7FFE7009801300090E8E70C99C7
:103B8000002081F83D0000E0FFE70A9805280BD3EC
:103B9000FFE74FF0500080F31188BFF36F8FBFF342
:103BA0004F8F0690FFE7FEE70A98052803D3FFE74B
:103BB00004200A9000E0FFE70A980C99C8620A986E
:103BC0000C9988640C98043000F006FD0C981830AD
:103BD00000F002FD0C9800610A98C0F105000C99F4
:103BE00088610C98406201980599029A00F036FCB1
:103BF0000C9908600B9820B1FFE70C980B990860AE
:103C000000E0FFE708B080BD80B584B000200390DD
:103C1000FFE70398042810D8FFE7039800EB800122
:103C200040F25830C2F2000000EB810000F0BCFC12
:103C3000FFE7039801300390EBE743F21C00C2F268
:103C40000100019000F0B0FC43F23000C2F201002C
:103C5000029000F0A9FC43F26400C2F2010000F0FF
:103C6000A3FC43F2D800C2F2010000F09DFC43F235
:103C7000C400C2F2010000F097FC0199029840F2E2
:103C80004832C2F20002116040F25031C2F200012B
:103C9000086004B080BD000083B0029043F2BC0015
:103CA000C2F201000190FFE7019800680299884282
:103CB00005D2FFE7FFE7019800680190F4E701985B
:103CC000009000980199496808440299884209D1F6
:103CD000FFE70298426801994868104448600198DB
:103CE000029000E0FFE7029800900098029949686E
:103CF000084401990968884220D1FFE701980068CB
:103D000040F24C31C2F20001096888420DD0FFE751
:103D10000198006842680299486810444860019818
:103D2000006800680299086007E040F24C30C2F277
:103D30000000006802990860FFE704E0019800684D
:103D400002990860FFE701980299884204D0FFE7D2
:103D500002980199086000E0FFE703B07047000097
:103D600080B586B0059004910392029300200190E3
:103D70000498059948600598006104980399884261
:103D800016D8FFE703980299401A05998969884275
:103D900003D3FFE70120019009E040F25430C2F262
:103DA000000000680599043100F01EFCFFE717E0F1
:103DB00003980299884208D2FFE704980299884242
:103DC00003D3FFE70120019009E040F24430C2F242
:103DD000000000680599043100F006FCFFE7FFE7EA
:103DE000019806B080BD000080B582B0019000F05F
:103DF00059FC0198806B18B9FFE70120009002E0A0
:103E000000200090FFE700F079FC009802B080BD30
:103E100008480068006880F308884FF0000080F3CD
:103E2000148862B661B6BFF34F8FBFF36F8F00DFA8
:103E300000BF000008ED00E080B584B0039002915F
:103E400040F24430C2F200000068C068C0680190CF
:103E50000198043000F076FB019890F828004007A4
:103E6000002806D5FFE701980399029A00F000F9AF
:103E700007E0019991F8280000F0FE0081F8280081
:103E8000FFE70198016A884704B080BD80B588B01B
:103E9000FFE743F2F000C2F20100006804A900222B
:103EA00001F046F9002800F09280FFE7049800280E
:103EB00000F18C80FFE7069803900398406928B1D1
:103EC000FFE70398043000F03DFB00E0FFE702A8A5
:103ED00000F006F901900498013801460091082885
:103EE00000F272800099DFE801F00505323A5B05C7
:103EF00005323A00039991F8280040F0010081F85A
:103F000028000398059B81691944019AFFF728FF4F
:103F1000D8B1FFE7039890F828004007002808D59B
:103F2000FFE70398059982691144019A00F0A0F80F
:103F300007E0039991F8280000F0FE0081F82800BE
:103F4000FFE70398016A884700E0FFE73DE0039937
:103F500091F8280000F0FE0081F8280035E0039970
:103F600091F8280040F0010081F828000598039995
:103F700088610398806958B9FFE74FF0500080F3DB
:103F80001188BFF36F8FBFF34F8F0790FFE7FEE7F6
:103F90000398019B816919441A46FFF7E1FE14E07A
:103FA000039890F828008007002804D4FFE70398BE
:103FB00000F0CAFB07E0039991F8280000F0FE002A
:103FC00081F82800FFE700E0FFE7FFE761E708B0BE
:103FD00080BD000080B584B00390029100F078FEAF
:103FE000684600F07DF801900098D8BBFFE7029882
:103FF00060B9FFE703980199884207D8FFE701F00D
:104000005BFC03980199FFF717FF2AE0029858B16B
:10401000FFE740F25430C2F2000000680068B0FAD6
:1040200080F040090290FFE743F2F000C2F2010085
:1040300000680399019A891A029A00F061FC01F064
:104040003BFC60B9FFE74EF60451CEF200014FF0A1
:1040500080500860BFF34F8FBFF36F8F00E0FFE722
:10406000FFE702E001F028FCFFE704B080BD00009C
:1040700080B584B0039002910192FFE70398029B00
:1040800081691944019AFFF76BFE48B1FFE7039875
:1040900081690298084402900398016A8847EDE715
:1040A00004B080BD40F24830C2F2000000680068F1
:1040B00040B9FFE743F25001C2F201014FF0FF3077
:1040C00008600CE040F24830C2F200000068C068AE
:1040D000006843F25001C2F201010860FFE7704737
:1040E00080B582B0019001F0E7F90090009840F2AD
:1040F0003C31C2F200010968884206D2FFE700F0B5
:1041000011F801990120086003E00199002008607E
:10411000FFE7009840F23C31C2F2000108600098CD
:1041200002B080BD80B582B0FFE740F24430C2F2F9
:1041300000000068006870B1FFE740F24430C2F24E
:1041400000000068C0680068019001984FF0FF31DE
:10415000FFF772FEE9E740F24432C2F20002106853
:10416000009040F25431C2F20001086810600098DB
:10417000086002B080BD000083B00020009040F2D3
:104180001400C2F200000068013058B1FFE74FF0A0
:10419000500080F31188BFF36F8FBFF34F8F0290F1
:1041A000FFE7FEE74FF0500080F31188BFF36F8FF9
:1041B000BFF34F8F0190FFE7009808B9FFE7FBE7D7
:1041C00003B0704780B584B00390FFE701A8FFF704
:1041D000D1FB029002980199FFF7FCFEFFF756FE13
:1041E000F4E7000080B582B0019000F05BFA01981E
:1041F00090F845008DF80300FFE79DF903000128C2
:1042000016DBFFE70198406A58B1FFE701982430B8
:1042100001F08CFA18B1FFE700F098FC00E0FFE72E
:1042200000E005E09DF8030001388DF80300E4E7A5
:104230000199FF2081F8450000F060FA00F032FAA1
:10424000019890F844008DF80200FFE79DF9020004
:10425000012816DBFFE70198006980B1FFE70198AC
:10426000103001F063FA18B1FFE700F06FFC00E0D6
:10427000FFE79DF8020001388DF8020000E000E041
:10428000E4E70199FF2081F8440000F037FA02B01A
:1042900080BD000080B58AB007900020039000F038
:1042A00017FD40F24C30C2F20000006818B9FFE779
:1042B000FFF780FB00E0FFE70798A8B1FFE707984A
:1042C00000F00700C0F11000029007980299C9435E
:1042D000884205D8FFE7029907980844079002E052
:1042E00000200790FFE700E0FFE79DF81F000006B1
:1042F000002800F19D80FFE70798002800F09680D5
:10430000FFE7079843F24401C2F2010109688842BD
:1043100000F28C80FFE743F2BC00C2F2010005907E
:1043200000680690FFE706984168079A00209142CE
:10433000019007D2FFE706980068002818BF012007
:104340000190FFE70198C00730B1FFE7069805909C
:10435000069800680690E6E7069840F24C31C2F2F3
:104360000001096888425FD0FFE7059800680830BF
:1043700003900698006805990860069840680799B8
:10438000401A112821D3FFE70698079908440490A2
:104390009DF81000400758B1FFE74FF0500080F340
:1043A0001188BFF36F8FBFF34F8F0990FFE7FEE7D0
:1043B000069840680799401A04994860079806993A
:1043C00048600498FFF768FC00E0FFE70698426841
:1043D00043F24400C2F201000168891A01600068DA
:1043E00043F24C01C2F20101096888420BD2FFE797
:1043F00043F24400C2F20100006843F24C01C2F2F1
:104400000101086000E0FFE70699486840F00040BD
:10441000486006990020086043F25801C2F2010189
:1044200008680130086000E0FFE700E0FFE700E017
:10443000FFE701F041FA9DF80C00400758B1FFE793
:104440004FF0500080F31188BFF36F8FBFF34F8F91
:104450000890FFE7FEE703980AB080BD83B00290A2
:104460000191009202980438029002994FF08070F6
:104470000860029804380290019820F00100029927
:104480000860029804380290029944F27910C0F64C
:1044900000000860029814380290009802990860A1
:1044A00002980438029002996FF0020008600298A6
:1044B00020380290029803B07047000080B582B0A7
:1044C000019040F21C10C2F20000009041F2000185
:1044D000C4F2010101600199416000218160C16065
:1044E000016181610C214161FDF740FD009840F2BE
:1044F0006C21C2F200010122FDF726FE02B080BD50
:1045000080B582B0019040F25C10C2F200000090D1
:1045100044F20041C4F200010160019941600021B0
:104520008160C160016181610C214161FDF71EFD67
:10453000009840F26D21C2F200010122FDF704FE55
:1045400002B080BD82B0019001980069009001988E
:104550004168806888600199486889684860009867
:1045600040680199884205D1FFE701988068009969
:10457000486000E0FFE701990020086100990868A1
:10458000013808600098006802B0704780B582B0BA
:1045900001900091009946F2B450C0F6000001F07D
:1045A000D3FA02B080BD000081B00090009901F103
:1045B0000800486000994FF0FF308860009901F1D1
:1045C0000800C860009901F1080008610099002006
:1045D000086001B07047000081B000900099002091
:1045E000086101B07047000084B003900291029806
:1045F000006800900098013020B9FFE70398006937
:10460000019010E0039808300190FFE7019840689E
:1046100000680099884205D8FFE7FFE701984068E5
:104620000190F3E7FFE7019840680299486002981B
:1046300041688860019802998860029801994860F1
:10464000039802990861039908680130086004B072
:104650007047000083B0029001910298406800907A
:1046600000980199486000988068019988600198D5
:1046700000998968486001980099886002980199BA
:104680000861029908680130086003B070470000B3
:10469000DFF80C00016841F4700101607047000010
:1046A00088ED00E082B04FF0500080F31188BFF336
:1046B0006F8FBFF34F8F019040F21400C2F20000E1
:1046C0000168013101600068012814D1FFE74EF64E
:1046D0000450CEF200000068000658B1FFE74FF02A
:1046E000500080F31188BFF36F8FBFF34F8F00909E
:1046F000FFE7FEE7FFE702B07047000082B040F23C
:104700001400C2F20000006858B9FFE74FF05000F3
:1047100080F31188BFF36F8FBFF34F8F0090FFE7D7
:10472000FEE740F21400C2F20000016801390160A6
:10473000006830B9FFE700200190019880F31188EC
:10474000FFE702B07047000080B586B00390039881
:1047500002900398002852D0FFE702980838029090
:10476000029801900198C1790020B0EBD11F0BD1C4
:10477000FFE74FF0500080F31188BFF36F8FBFF356
:104780004F8F0590FFE7FEE70198006858B1FFE7FB
:104790004FF0500080F31188BFF36F8FBFF34F8F3E
:1047A0000490FFE7FEE70198C1790020B0EBD11F2C
:1047B00023D0FFE701980068E8B9FFE7019948684E
:1047C00020F00040486000F083FA0198426843F20C
:1047D0004401C2F201010868104408600198FFF723
:1047E0005BFA43F25C01C2F2010108680130086023
:1047F00001F062F800E0FFE700E0FFE7FFE706B046
:1048000080BD00004EF21001CEF2000100200860D1
:104810004EF21802CEF20002106040F20400C2F222
:104820000000006844F6D352C1F26202A0FB02020B
:104830004FF0FF3000EB92104EF21402CEF2000265
:10484000106007200860704785B003900291002037
:104850000090039858B9FFE74FF0500080F311889B
:10486000BFF36F8FBFF34F8F0490FFE7FEE702980F
:10487000C8B3FFE700200190FFE70198072831D86F
:10488000FFE70398019A43F27801C2F2010101EBBC
:10489000C2014968884209D1FFE7019943F27800D3
:1048A000C2F2010000EBC10000901BE0009890B93B
:1048B000FFE7019943F27800C2F2010050F831009D
:1048C00048B9FFE7019943F27800C2F2010000EB1A
:1048D000C100009000E0FFE7FFE7FFE7019801302B
:1048E0000190CAE7FFE7009838B1FFE70298009906
:1048F0000860039800994860FFE705B07047000022
:1049000080B584B003900291019203980090FFF764
:10491000C9FE009890F94400013028B9FFE70099DA
:10492000002081F84400FFE7009890F9450001302D
:1049300028B9FFE70099002081F84500FFE7FFF75D
:10494000DDFE0098806B38B9FFE7009824300299AB
:10495000019A00F025F900E0FFE70098FFF742FC1C
:1049600004B080BD80B584B0029000200190029810
:10497000E0B1FFE742F6E870C2F20100006858B10A
:10498000FFE74FF0500080F31188BFF36F8FBFF344
:104990004F8F0390FFE7FEE700F09AF9029800219D
:1049A000FEF70EFE00F088FF019000E0FFE701989F
:1049B00060B9FFE74EF60451CEF200014FF080508F
:1049C0000860BFF34F8FBFF36F8F00E0FFE704B0C5
:1049D00080BD000080B584B00290FFF763FE0298AE
:1049E00038B9FFE740F24030C2F2000000680090A2
:1049F00002E002980090FFE70098019001980430CF
:104A0000FFF7A0FDD0B9FFE70198C06A00EB800175
:104A100040F25830C2F2000050F8210068B9FFE7B8
:104A20000198C16A012000FA01F242F6F071C2F267
:104A30000101086890430860FFE700E0FFE7019884
:104A4000806A28B1FFE701981830FFF77BFD00E08E
:104A5000FFE742F6EC71C2F201010868013008601C
:104A6000019840F24031C2F200010968884210D139
:104A7000FFE70198011D43F2D800C2F20100FFF7E1
:104A8000E9FD42F6E471C2F20101086801300860F4
:104A900009E042F6E071C2F20101086801380860DD
:104AA000FFF700FBFFE7FFF729FE019840F24031D6
:104AB000C2F200010968884204D0FFE70198FEF7BE
:104AC0004DFFFFE743F2B800C2F20100006848B3AF
:104AD000FFE7019840F24031C2F2000109688842C4
:104AE0001ED1FFE742F6E870C2F20100006858B13B
:104AF000FFE74FF0500080F31188BFF36F8FBFF3D3
:104B00004F8F0390FFE7FEE74EF60451CEF200010F
:104B10004FF080500860BFF34F8FBFF36F8F00E0FE
:104B2000FFE7FFE704B080BD81B0009043F254007E
:104B3000C2F2010000680099086043F2EC00C2F282
:104B4000010000680099486001B0704743F2F80125
:104B5000C2F20101012008607047000080B584B0F6
:104B600002900191029858B9FFE74FF0500080F38E
:104B70001188BFF36F8FBFF34F8F0390FFE7FEE7FE
:104B8000029840F24031C2F2000109681831FFF783
:104B90002BFD01980121FEF713FD04B080BD00003C
:104BA00080B586B0049003910292049858B9FFE74B
:104BB0004FF0500080F31188BFF36F8FBFF34F8F1A
:104BC0000590FFE7FEE7049840680190019840F2E5
:104BD0004031C2F200010A68D061019880680A6819
:104BE000106208681830019A92685060086818309E
:104BF000019A9060049809688862049908680130F5
:104C00000860029820B1FFE74FF0FF300390FFE704
:104C100003980299FEF7D4FC06B080BD80B586B03B
:104C200043F24801C2F2010168464160002303607B
:104C300043F66520C0F6000046F2CF51C0F60001F1
:104C4000822200F0CDFB03900398012804D1FFE7F6
:104C500000F044FF039000E0FFE7039801281FD114
:104C6000FFE74FF0500080F31188BFF36F8FBFF361
:104C70004F8F059043F25001C2F201014FF0FF3017
:104C8000086043F2B801C2F201010120086043F25A
:104C9000EC01C2F201010020086000F0ADF80FE065
:104CA0000398013058B9FFE74FF0500080F31188A6
:104CB000BFF36F8FBFF34F8F0490FFE7FEE7FFE76F
:104CC00046F2E450C0F60000006806B080BD000067
:104CD00042F6E871C2F201010868013008607047CD
:104CE00080B588B042F6E870C2F20100006838B1C1
:104CF000FFE743F2F801C2F201010120086079E008
:104D000043F2F801C2F201010020086040F2403095
:104D1000C2F200000068006B04904FF0A5300390D1
:104D200004980068B0F1A53F12D1FFE704984068ED
:104D3000B0F1A53F0CD1FFE704988068B0F1A53F22
:104D400006D1FFE70498C068B0F1A53F0AD0FFE79D
:104D500040F24031C2F20001086809683431FFF7BF
:104D600015FCFFE742F6F070C2F201000068079000
:104D70000798B0FA80F08DF81B009DF81B00C0F179
:104D80001F000290029800EB800140F25830C2F2FE
:104D9000000050F8210058B9FFE74FF0500080F3B1
:104DA0001188BFF36F8FBFF34F8F0590FFE7FEE7CA
:104DB000029800EB800140F25830C2F2000000EB94
:104DC00081000190019948684068486001994868ED
:104DD0000831884205D1FFE701994868406848607A
:104DE000FFE701984068C06840F24031C2F200011C
:104DF0000860FFE708B080BD80B588B04EF600506F
:104E0000CEF2000000684CF27121C4F20F1188420A
:104E10000BD1FFE74FF0500080F31188BFF36F8F85
:104E2000BFF34F8F0790FFE7FEE74EF60050CEF23C
:104E3000000000684CF27021C4F20F1188420BD1BF
:104E4000FFE74FF0500080F31188BFF36F8FBFF37F
:104E50004F8F0690FFE7FEE74EF20040CEF20000D3
:104E6000039001780491FF21017000788DF80B0008
:104E70009DF80B0000F0500042F6D471C2F201011F
:104E8000087042F6D871C2F2010107200860FFE7FE
:104E90009DF80B00000600280DD5FFE742F6D871FB
:104EA000C2F201010868013808609DF80B0040005B
:104EB0008DF80B00ECE742F6D870C2F201000068F2
:104EC00003280BD0FFE74FF0500080F31188BFF3A9
:104ED0006F8FBFF34F8F0590FFE7FEE742F6D87163
:104EE000C2F20101086800020860086800F4E0608E
:104EF000086004984EF20041CEF2000108704EF6B0
:104F00002051CEF20001086840F470000860086883
:104F100040F070400860FFF775FC40F21401C2F2E7
:104F20000001002001900860FFF7B2FB4EF63471DB
:104F3000CEF20001086840F040400860FEF768FFCC
:104F4000FFF7CEFEFFF718F9019808B080BD00000A
:104F500080B582B04FF0500080F31188BFF36F8F9F
:104F6000BFF34F8F009000F0B1FA40B1FFE74EF66B
:104F70000451CEF200014FF080500860FFE700209E
:104F80000190019880F3118802B080BD80B588B08F
:104F9000069005918DF8132000200390069880B3A9
:104FA000FFE706994FF0FF30B0FBF1F0059988421A
:104FB00027D3FFE706980599484310F1510F20D8F1
:104FC000FFE7069805994843029002985030FFF792
:104FD00061F90390039890B1FFE70398019001985D
:104FE0005030019006980599019A9DF81330DDF82C
:104FF0000CC0EE46CEF800C0FEF750FD00E0FFE723
:105000000EE0039858B9FFE74FF0500080F3118885
:10501000BFF36F8FBFF34F8F0790FFE7FEE7FFE708
:10502000039808B080BD000080B586B0039002915F
:105030000120019003980090009858B9FFE74FF0C5
:10504000500080F31188BFF36F8FBFF34F8F05902F
:10505000FFE7FEE70098002856D0FFE70098C06BF6
:10506000002851D0FFE70098C26B016C4FF0FF3071
:10507000B0FBF2F0884247D3FFE7FFF713FB00993C
:105080000B68C86B0A6C00FB023088600099002036
:10509000886300990868486000990B68C86B0A6CBF
:1050A000013800FB0230C8600099FF2081F84400FD
:1050B000009981F845000298D0B9FFE7009800698F
:1050C000A0B1FFE70098103000F030FB60B1FFE7BF
:1050D0004EF60451CEF200014FF080500860BFF34D
:1050E0004F8FBFF36F8F00E0FFE700E0FFE708E0BE
:1050F00000981030FFF758FA00982430FFF754FA60
:10510000FFE7FFF7FBFA02E000200190FFE70198BC
:1051100058B9FFE74FF0500080F31188BFF36F8F4D
:10512000BFF34F8F0490FFE7FEE7019806B080BD04
:1051300080B58EB0099008910792002006900998DA
:105140000390039858B9FFE74FF0500080F311889F
:10515000BFF36F8FBFF34F8F0D90FFE7FEE7089906
:105160000020019039B9FFE70398006C002818BFB0
:1051700001200190FFE70198C00758B1FFE74FF009
:10518000500080F31188BFF36F8FBFF34F8F0C90E7
:10519000FFE7FEE700F074F901460020009031B906
:1051A000FFE70798002818BF01200090FFE700984C
:1051B000C00758B1FFE74FF0500080F31188BFF3EC
:1051C0006F8FBFF34F8F0B90FFE7FEE7FFE7FFF70F
:1051D00069FA0398806B0290029830B3FFE7039856
:1051E0000899FEF799FB02980138039988630398A0
:1051F0000069A0B1FFE70398103000F097FA60B1A2
:10520000FFE74EF60451CEF200014FF080500860E7
:10521000BFF34F8FBFF36F8F00E0FFE700E0FFE7C2
:10522000FFF76CFA01200A906DE0079828B9FFE7B4
:10523000FFF764FA00200A9065E0069830B9FFE7AE
:1052400004A8FFF771FC0120069000E0FFE7FFE7EC
:10525000FFE7FFF753FAFFF73BFDFFF723FA039849
:1052600090F94400013028B9FFE70399002081F844
:105270004400FFE7039890F94500013028B9FFE7A3
:105280000399002081F84500FFE7FFF737FA04A8EB
:1052900007A900F03BF830BBFFE70398FEF7A4FD39
:1052A000D0B1FFE7039824300799FFF757FC039824
:1052B000FEF798FF00F000FB60B9FFE74EF60451DF
:1052C000CEF200014FF080500860BFF34F8FBFF364
:1052D0006F8F00E0FFE705E00398FEF783FF00F023
:1052E000EBFAFFE70EE00398FEF77CFF00F0E4FA2C
:1052F0000398FEF779FD18B1FFE700200A9002E05D
:10530000FFE7FFE763E70A980EB080BD80B588B07D
:1053100005900491059858B9FFE74FF0500080F3CD
:105320001188BFF36F8FBFF34F8F0790FFE7FEE742
:10533000049858B9FFE74FF0500080F31188BFF38D
:105340006F8FBFF34F8F0690FFE7FEE7FFF7AAF9D5
:1053500043F2EC00C2F20100006802900298059945
:105360004968401A019004980068013018B9FFE7B5
:10537000002003902EE043F25400C2F201000068C6
:105380000599096888420CD0FFE702980599496899
:10539000884206D3FFE701200390049900200860AB
:1053A00017E001980499096888420BD2FFE7019A37
:1053B00004990868801A08600598FFF7B5FB00207B
:1053C000039005E004990020086001200390FFE7A6
:1053D000FFE7FFE7FFF792F9039808B080BD0000F0
:1053E00070B58CB0DDF844C0DDF840C00B900A9178
:1053F000ADF826200893BDF826008000FEF74AFF8E
:1054000005900598A0B1FFE75820FEF743FF0790ED
:10541000079840B1FFE707985821FAF71DFF059854
:105420000799086303E00598FFF78EF9FFE702E0AC
:1054300000200790FFE70798D8B1FFE70B980A997B
:10544000BDF82620089BDDF840C0119C079DEE4664
:105450000026CEF80C60CEF80850CEF80440CEF806
:1054600000C0FEF73FFB0798FEF738F901200690D1
:1054700003E04FF0FF300690FFE706980CB070BDD8
:1054800081B043F2B800C2F20100006818B9FFE72A
:10549000012000900DE042F6E870C2F201000068C1
:1054A00018B9FFE70220009002E000200090FFE71B
:1054B000FFE7009801B0704781B043F2EC00C2F200
:1054C000010000680090009801B0704780B58AB074
:1054D0000020069042F6E870C2F201000068002841
:1054E00040F01981FFE743F2EC01C2F201010868C4
:1054F0000130059005980860059858BBFFE740F219
:105500004830C2F200000068006858B1FFE74FF071
:10551000500080F31188BFF36F8FBFF34F8F099056
:10552000FFE7FEE740F24832C2F200021068049042
:1055300040F25031C2F2000108681060049808601F
:1055400043F25401C2F20101086801300860FEF71D
:10555000A9FD00E0FFE7059843F25001C2F2010106
:1055600009688842C0F0B680FFE7FFE740F24830A4
:10557000C2F200000068006840B9FFE743F2500142
:10558000C2F201014FF0FF300860A2E040F2483063
:10559000C2F200000068C068C068089008984068BF
:1055A000079005980799884207D2FFE7079843F2CA
:1055B0005001C2F2010108608BE0FFE708984069E2
:1055C000039008988168C068886008998868C968ED
:1055D00048600398406808990431884205D1FFE784
:1055E0000898C06803994860FFE70899002048615F
:1055F00003990868013808600898806AF8B1FFE7E5
:105600000898806A02900898C169006A88600899C1
:10561000C869096A48600298406808991831884248
:1056200005D1FFE70898006A02994860FFE70899EA
:1056300000208862029908680138086000E0FFE7EE
:105640000898C16A012000FA01F242F6F071C2F234
:1056500001010868104308600898C06A00EB8000E8
:1056600040F25831C2F2000101EB80004068019025
:105670000198089A906001988068089AD06008980C
:105680000430019A9268506008980430019A906042
:10569000089AD06A00EB800001EB80005061089806
:1056A000C06A00EB800251F82200013041F822006C
:1056B0000898C06A40F24031C2F200010968C96A24
:1056C000884203D3FFE70120069000E0FFE7FFE7F1
:1056D0004CE7FFE740F24030C2F200000068C06AC9
:1056E00000EB800140F25830C2F2000050F8210077
:1056F000022803D3FFE70120069000E0FFE743F212
:10570000F800C2F20100006818B1FFE7012006901E
:1057100000E0FFE707E043F26001C2F20101086820
:1057200001300860FFE706980AB080BD88B0069097
:105730000698C068C0680590059858B9FFE74FF013
:10574000500080F31188BFF36F8FBFF34F8F079026
:10575000FFE7FEE70598806A03900598C169006A33
:1057600088600599C869096A486003984068059986
:105770001831884205D1FFE70598006A039948600F
:10578000FFE70599002088620399086801380860DE
:1057900042F6E870C2F201000068002857D1FFE726
:1057A00005984069029005988168C06888600599ED
:1057B0008868C96848600298406805990431884241
:1057C00005D1FFE70598C06802994860FFE7059991
:1057D0000020486102990868013808600598C16A8C
:1057E000012000FA01F242F6F071C2F201010868EC
:1057F000104308600598C06A00EB800040F2583101
:10580000C2F2000101EB8000406801900198059A06
:10581000906001988068059AD06005980430019ADC
:105820009268506005980430019A9060059AD06A99
:1058300000EB800001EB800050610598C06A00EB2E
:10584000800251F82200013041F822001BE043F2AF
:105850006401C2F20101486800900098059AD06185
:1058600000988068059A106205981830009A92682E
:10587000506005981830009A906005988162086819
:1058800001300860FFE70598C06A40F24031C2F27B
:1058900000010968C96A884208D9FFE7012004901D
:1058A00043F2F801C2F20101086002E00020049016
:1058B000FFE7049808B0704780B588B000200690D4
:1058C000059042F6E870C2F20100006858B9FFE79F
:1058D0004FF0500080F31188BFF36F8FBFF34F8FED
:1058E0000790FFE7FEE7FEF7DDFE42F6E870C2F242
:1058F00001000168013901600068002840F0E7807C
:10590000FFE742F6E070C2F201000068002800F0F4
:10591000DD80FFE7FFE743F26400C2F201000068A8
:10592000002800F09080FFE743F26400C2F201001B
:10593000C068C06806900698806A04900698C1699D
:10594000006A88600699C869096A486004984068D6
:1059500006991831884205D1FFE70698006A049934
:105960004860FFE7069900208862049908680138BA
:10597000086006984069039006988168C06888604E
:1059800006998868C9684860039840680699043198
:10599000884205D1FFE70698C06803994860FFE791
:1059A0000699002048610399086801380860069844
:1059B000C16A012000FA01F242F6F071C2F201015F
:1059C0000868104308600698C06A00EB800040F247
:1059D0005831C2F2000101EB800040680290029849
:1059E000069A906002988068069AD0600698043003
:1059F000029A9268506006980430029A9060069A63
:105A0000D06A00EB800001EB800050610698C06A0C
:105A100000EB800251F82200013041F82200069884
:105A2000C06A40F24031C2F200010968C96A884286
:105A300007D3FFE743F2F801C2F201010120086039
:105A400000E0FFE767E7069818B1FFE7FEF72AFBDB
:105A5000FFE743F26000C2F2010000680190019884
:105A6000E0B1FFE7FFE7FFF731FD38B1FFE743F2B1
:105A7000F801C2F201010120086000E0FFE701988F
:105A800001380190FFE701980028ECD1FFE743F2CD
:105A90006001C2F201010020086000E0FFE743F26C
:105AA000F800C2F20100006870B1FFE70120059024
:105AB0004EF60451CEF200014FF080500860BFF363
:105AC0004F8FBFF36F8F00E0FFE7FFE700E0FFE7D6
:105AD000FEF714FE059808B080BD000080B584B0C4
