:020000040800F2
:10000000303C0120A5010008ED2D0008612D0008FD
:10001000CD2D0008750A0008D93A0008000000003C
:100020000000000000000000000000007130000827
:10003000290D000800000000A12E00080932000868
:10004000BF010008BF010008BF010008BF01000890
:10005000BF010008BF010008BF010008BF01000880
:10006000BF010008BF010008BF010008BF01000870
:10007000BF010008BF010008BF010008BF01000860
:10008000BF010008BF010008BF010008BF01000850
:10009000BF010008BF010008BF010008BF01000840
:1000A000BF010008BF010008BF010008BF01000830
:1000B000BF010008BF010008BF010008BF01000820
:1000C000BF010008BF010008BF010008BF01000810
:1000D000BF010008D13900084D3A0008BF010008EF
:1000E000BF010008BF010008BF010008BF010008F0
:1000F000BF010008BF010008BF010008BF010008E0
:10010000BF010008BF010008BF010008BF010008CF
:10011000BF010008BF010008BF010008BF010008BF
:10012000BF010008BF010008BF010008BF010008AF
:10013000BF010008BF010008BF010008BF0100089F
:10014000BF010008BF010008BF010008BF0100088F
:10015000BF010008BF010008BF010008BF0100087F
:10016000BF010008BF010008BF010008BF0100086F
:10017000BF010008BF010008BF0100080000000027
:10018000BF010008BF010008DFF814D000F0E8FB51
:1001900000F07AF8004800479D59000800F0F6FB8F
:1001A000303C01200648804706480047FEE7FEE74E
:1001B000FEE7FEE7FEE7FEE7FEE7FEE7FEE7FEE717
:1001C0001D320008890100082DE9F05F0546002076
:1001D00092469B4688460646814640241BE02846B8
:1001E00041464746224600F0A6FA53465A46C01AF0
:1001F000914110D311461846224600F08DFA2D1A6F
:1002000067EB01084F4622460120002100F084FAE6
:1002100017EB00094E41201EA4F10104DFDC484623
:1002200031462A464346BDE8F09F002800DA4042A6
:10023000704740EA01039B0703D009E008C9121F79
:1002400008C0042AFAD203E011F8013B00F8013B90
:10025000521EF9D27047D2B201E000F8012B491EBC
:10026000FBD270470022F6E710B513460A46044653
:100270001946FFF7F0FF204610BD421C10F8011B85
:100280000029FBD1801A704770B5054C054D04E07C
:100290002046016808448047241DAC42F8D170BD57
:1002A0006CA7000878A700080B460146184600F026
:1002B00064BA2DE9FE4F804681EA0300C00F0C4668
:1002C000009021F0004123F00045B8EB0200A94165
:1002D00005D24046214690461C460B46024623F076
:1002E0000040104347D0270DC7F30A00C3F30A515B
:1002F0000290401A019040286BDAC3F3130040F4D7
:10030000801B0098924620B10023D2EB030A63EBD6
:100310000B0B01985946C0F14002504600F0FCF921
:1003200006460D4650465946019A00F014FA10EB65
:1003300008006141002487EA115284EAE7731A43F6
:1003400040D0009A62B3019A012A4FEA075215DCA5
:10035000001B61EB02014FF0004202EA0752CDE9B7
:100360000042001C41F5801132462B4600F062FA33
:1003700003B0BDE8F08F40462146F9E7001B61EB72
:100380000201001C41F5801300185B412018A2F502
:10039000001747EB030140EAD570B6196D4111E033
:1003A0006D084FEA360645EAC0754FEA0752001B52
:1003B00061EB0201001C41F5801149084FEA300051
:1003C0000019514132462B4603B0BDE8F04F00F012
:1003D00022BA0098012240000023D0EB020263EB16
:1003E000E073009821464FEAE074B8EB000061EB3F
:1003F0000401E9E783F000435BE781F0004158E73F
:100400002DE9FE4F81EA030404F0004421F000418D
:1004100000944FF0000B23F0004350EA01045ED03B
:1004200052EA03045BD0C3F30A54C1F30A552C44C7
:10043000A4F2F3340194A0FB0254C1F3130141F47C
:100440008011C3F3130343F4801301FB024400FB48
:10045000034E840A970A44EA815447EA8357A4FB6F
:10046000076802958D0A05FB07854FEA932C04FB6C
:100470000C542705029D4FEA065847EA1637B5EB9C
:1004800008056EEB070C870E920E47EA811742EAC9
:100490008312A7FB0201B6EB0B0164EB00042B0DEA
:1004A00043EA0C335E1844EB1C50DA465146E7FB36
:1004B0000201C5F313044FEA0B3343EA14534FEA26
:1004C0000432019C43EA0603A4F10C040294009C4C
:1004D000CDE900B400F0AEF903B0BDE8F08F002024
:1004E0000146F9E72DE9F04D81EA030404F0004BE1
:1004F00021F0004514464FF0000A23F0004150EA75
:10050000050220D054EA01021DD0C5F30A57024665
:10051000C5F31303C1F31300C1F30A5640F4801569
:1005200043F48013A7EB0608101BD64608F2FD38EB
:1005300073EB050002D308F1010801E092185B415A
:10054000B8F1000F03DA00200146BDE8F08D00206D
:100550004FF48011064684460EE0171B73EB050727
:1005600005D3121B63EB050306434CEA010C490853
:100570004FEA300092185B4150EA0107EDD152EA90
:10058000030012D082EA040083EA0501084305D083
:10059000101BAB4106D20122002306E000224FF0DF
:1005A000004302E06FF0010253101AEB06004CEB1F
:1005B000085110EB0A0041EB0B01BDE8F04D00F0D3
:1005C0002AB930B5041E71F1000404DB4FF0004479
:1005D000404264EB0101141E73F1000405DB1C466C
:1005E0004FF00043524263EB0403801A994101D358
:1005F000012030BD002030BD30B5041E71F1000473
:1006000004DB4FF00044404264EB0101141E73F11F
:10061000000405DB1C464FF00043524263EB040329
:10062000101A8B4101D3012030BD002030BD0EB522
:10063000C10F80EAE0700844CA07002140F233434A
:100640008DE80E000A460B4600F0F4F803B000BD3A
:1006500070B5C1F30A5201F000450024C1F3130143
:1006600040F2FF3341F480119A4201DA002070BD5C
:1006700040F233439A42A2F2334203DC524200F08A
:100680005AF800E090402C43F1D0404270BD00F099
:10069000004230F000400AD0C10D01F56071C0F396
:1006A000160042EA0151C20840071143704700207A
:1006B0000146704701F0004330B421F0004150EA98
:1006C000010206D00A0DA2F56072C1F31301002ADF
:1006D00002DC30BC00207047440F44EAC104C10072
:1006E000E01830BC00EBC25000F05EB830B50B46ED
:1006F000014600202022012409E021FA02F59D4252
:1007000005D303FA02F5491B04FA02F52844151E25
:10071000A2F10102F1DC30BD202A04DB203A00FA0C
:1007200002F1002070479140C2F1200320FA03F348
:10073000194390407047202A04DB203A21FA02F046
:100740000021704721FA02F3D040C2F1200291400B
:10075000084319467047202A06DBCB17203A41FA96
:1007600002F043EAE07306E041FA02F3D040C2F13E
:10077000200291400843194670472DE9F041074691
:1007800015460E46102009F0D7FD04000AD0676018
:10079000C4E9026500F0F6F80168216004600020F9
:1007A000BDE8F0810120FBE70029A8BF7047401C8D
:1007B000490008BF20F00100704710B4B0FA80FC77
:1007C00000FA0CF050EA010404BF10BC704749B1B4
:1007D000CCF1200421FA04F411FA0CF118BF012124
:1007E00021430843A3EB0C01CB1D4FEA00614FEA04
:1007F000102042BF002010BC704700EBC3501044D3
:100800000029A4BF10BC7047401C490008BF20F05D
:10081000010010BC704710B5141E73F1000408DA13
:10082000401C41F1000192185B411A4301D120F0B4
:10083000010010BD2DE9F04D92469B4611B1B1FA71
:1008400081F202E0B0FA80F220329046FFF764FFB6
:1008500004460F4640EA0A0041EA0B0153465A4655
:10086000084313D0114653EA010019D0C8F14002E1
:100870005046FFF760FF05460E4650465946424631
:10088000FFF74AFF084305D0012004E0204639461F
:10089000BDE8F08D0020054346EAE0762C4337435F
:1008A0000A986305E40AA0EB08000022FD0A44EA66
:1008B00047540A3002D500200146E9E70105101926
:1008C0006941DDE9084500196941BDE8F04DA2E73D
:1008D00070B521F0004303430CD0C1F30A55002446
:1008E000D5EB040564EB0403D617AD1AB34102DB64
:1008F0000020014670BD201841EB025170BDC1F3CC
:100900000A52C1F3130140F2FF3341F480119A42BD
:1009100002DA00200146704740F233439A42A2F2C5
:10092000334202DC5242FFF706BFFFF7F5BE00007C
:1009300030B5041E71F1000404DB4FF00044404266
:1009400064EB0101141E73F1000405DB1C464FF03B
:100950000043524263EB0403994208BF904230BD0A
:10096000064C074D06E0E06840F0010394E80700FC
:1009700098471034AC42F6D3FFF70AFC4CA70008A6
:100980006CA7000800487047080000202DE9F041DE
:100990000646FFF7F7FF8046454613E016B1E068CC
:1009A000B0420ED120682860D4E90101D8F8007067
:1009B0008847204609F098FCD8F80000B842EBD1EF
:1009C00000E025462C68002CE8D1BDE8F0812DE937
:1009D000F04D00231A461B1A8A4103DB0020014612
:1009E000BDE8F08DC1F30A52C1F3130141F4801543
:1009F0004FF0000BD10702D100186D41521E0027A5
:100A0000044640F2FF11384601EB620A3E4680463A
:100A1000024600204FF48011FFF78DFEC21971418C
:100A2000BB1846EB0100B4EB030C75EB000C04D3D0
:100A3000E41A65EB000517460E46241908F101007B
:100A40006D4180463428E3DDF91946EB0600091BA9
:100A5000A84103D24FF0FF32134601E000221346B3
:100A60001BEB070046EB0A51BDE8F04DFFF7D3BE84
:100A700070470000FFE7FEE780B502F073F900F071
:100A800029F840F2A870C2F2000000F0FDFD58B154
:100A9000FFE740F23450C2F200004AF25861C0F65B
:100AA000000105F06FF8FFE740F2A870C2F2000005
:100AB000022100F005FA58B1FFE740F23450C2F2CB
:100AC00000004AF23461C0F6000105F05BF8FFE770
:100AD00080BD000080B58AB00021059106910120FB
:100AE00007900091019102910391049108900E20CA
:100AF000099040F2A870C2F20000694600F0C2FA04
:100B000058B1FFE740F23450C2F200004AF20C61E3
:100B1000C0F6000105F036F8FFE70AB080BD00001E
:100B200080B584B002900298031D40F2A870C2F212
:100B3000000040F21452C2F20002002100F074FBE7
:100B400020B1FFE700208DF80F0030E040F2145094
:100B5000C2F200000169029AD170C068022804D173
:100B6000FFE702990120887003E002990020887055
:100B7000FFE740F21450C2F20000019000680299B1
:100B8000088040F23450C2F200004AF29B61C0F685
:100B9000000104F0F7FF029B18889978DA78043393
:100BA00004F02CFF019800698DF80F00FFE79DF815
:100BB0000F0004B080BD000080B58AB0089000200E
:100BC0000090079006900590049003900290019089
:100BD00008990988029104900898807818B1FFE775
:100BE0000220059002E000200590FFE70898C078F9
:100BF000069000208DF81C000898021D40F2A87095
:100C0000C2F2000002A901AB00F084F920B1FFE7B5
:100C100000208DF8270015E040F23450C2F20000A9
:100C20004AF27C61C0F6000104F0ACFFBDF8080098
:100C3000089B9978069A043304F0E0FE01208DF8B1
:100C40002700FFE79DF827000AB080BD82B08DF82D
:100C500007009DF8071040F29E73C2F200031A7855
:100C6000501C187040F2A460C2F200008154007859
:100C7000552807D0FFE740F29E71C2F20001002024
:100C800008704EE040F29E70C2F2000000780A2820
:100C900001DCFFE745E040F2A460C2F200004078CA
:100CA00001460091512808D0FFE70098522813D040
:100CB000FFE7009853281ED02CE040F2A461C2F256
:100CC0000001D1F80200D1F8062040F6F001C2F28E
:100CD00000014A6008601DE040F2A461C2F2000118
:100CE000D1F80200D1F8062040F60011C2F200014E
:100CF0004A6008600EE040F2A461C2F20001D1F83F
:100D00000200D1F8062040F6F801C2F200014A6064
:100D10000860FFE740F29E71C2F2000100200870F7
:100D2000FFE702B0704700007047000000000000BD
:100D300080B58EB00D900C910220099000208DF8A6
:100D4000230040F27C60C2F2000000886FF39F3005
:100D5000ADF82E00BDF82E0001380A90FFE70A9882
:100D6000002874D4FFE70A9940F2B450C2F20000A0
:100D7000405C20285CD0FFE70A9940F2B450C2F2F0
:100D80000000405C2D284AD0FFE7BDF82E000A99EC
:100D9000411A9DF82300C0430844FFF748FC41EC8A
:100DA000110B9FED450B07F01FFF8DED000B0A990E
:100DB00040F2B450C2F20000405C3038FFF737FC1C
:100DC00041EC100B8DED020B0C98079009990691E0
:100DD00050F82100FFF72BFC9DED001B9DED020B51
:100DE00041EC120B8DED042B51EC110B53EC102B3D
:100DF000FFF706FB9DED040B41EC110B51EC110BC1
:100E000053EC102BFFF755FA41EC100B51EC100B83
:100E1000FFF71EFC069A079941F8220007E00C999B
:100E2000099A51F82200404241F82200FFE709E008
:100E3000099801380990BDF82E000A99401A8DF8DA
:100E40002300FFE7FFE70A9801380A9087E70D982B
:100E50004AF2C261C0F6000104F080FE00200A9050
:100E6000FFE70A9802280CDCFFE70D980C990A9A14
:100E700051F8221004F018FEFFE70A9801300A909A
:100E8000EFE7FFE70D980068006800F040010120DF
:100E9000B0EB911F01D0FFE7F4E74AF2BD60C0F666
:100EA000000007F065FE40F27C61C2F20001002004
:100EB00008800EB080BD00BF00000000000024408C
:100EC00084B002900191029890F820008DF8030000
:100ED0009DF80300012805D0FFE79DF803000228D4
:100EE0000AD1FFE7019A02980168486910434861F6
:100EF00000208DF80F0008E00299486A40F4802035
:100F0000486201208DF80F00FFE79DF80F0004B044
:100F10007047000088B006900591049203930698EC
:100F200090F820008DF8070006980068806800900F
:100F30000598806808B9FFE700E0FFE79DF8070023
:100F4000012806D0FFE79DF80700022840F08D80B9
:100F5000FFE79DF80300400700280CD4FFE79DF849
:100F600003000007002806D4FFE79DF80300C00631
:100F7000002871D5FFE70098C0F301600290029845
:100F8000032809D3FFE70699486A40F40000486245
:100F900001208DF81F0071E002990120884003991B
:100FA00008600598806868B9FFE705980168C0681F
:100FB00040EA415006990968029A01EB0211C1F812
:100FC00080010EE005994A688868C96840EAC20055
:100FD000084306990968029A01EB0211C1F88001E1
:100FE000FFE70598006906990968029A01EB02116A
:100FF000C1F884010598007D01280CD1FFE706980F
:101000000068029900EB0111D1F8840140F480706E
:10101000C1F88401FFE70498406806990968029ABC
:1010200001EB0211C1F88C01049800680699096867
:10103000029A01EB0211C1F8880106980068029932
:1010400000EB0111D1F8800140F00100C1F88001EE
:1010500000208DF81F0011E00699486A40F4001046
:10106000486201208DF81F0008E00699486A40F4A4
:101070008020486201208DF81F00FFE79DF81F00C7
:1010800008B0704786B004900391049800680190FE
:10109000049890F820008DF803009DF803000128C3
:1010A00006D0FFE79DF80300022840F0B080FFE77C
:1010B00046F20040C4F2000001900199D1F800020C
:1010C00040F00100C1F800020199D1F8000220F4BB
:1010D0007C50C1F800020398426A0199D1F80002DD
:1010E00040EA0220C1F800020398406900F01F01A5
:1010F000012088400290029A0199D1F81C02904385
:10110000C1F81C020398C069F0B9FFE7029A01997F
:10111000D1F80C029043C1F80C02039A9088D16870
:10112000526940EA0140019901EBC201C1F8400255
:10113000039A10889168526940EA0140019901EBD5
:10114000C201C1F84402FFE70398C06901281ED11B
:10115000FFE7029A0199D1F80C021043C1F80C0282
:10116000039A90881168526940EA0140019901EBA5
:10117000C201C1F84002039A90899168526940EA1D
:101180000140019901EBC201C1F84402FFE7039855
:10119000806940B9FFE7029A0199D1F804029043AF
:1011A000C1F8040207E0029A0199D1F80402104341
:1011B000C1F80402FFE70398006940B9FFE7029A0B
:1011C0000199D1F814029043C1F8140207E0029A81
:1011D0000199D1F814021043C1F81402FFE70398F3
:1011E000006A012808D1FFE7029A0199D1F81C0290
:1011F0001043C1F81C02FFE70199D1F8000220F06A
:101200000100C1F8000200208DF8170008E00499E1
:10121000486A40F48020486201208DF81700FFE7FB
:101220009DF8170006B0704786B0049003910292B3
:101230000193049890F820008DF803009DF80300B6
:10124000012806D0FFE79DF80300022840F0D78070
:10125000FFE7039880B9FFE704980068C06880073B
:1012600048B9FFE70499486A40F400104862012039
:101270008DF81700CCE00FE0049800680069800743
:1012800048B9FFE70499486A40F400104862012019
:101290008DF81700BCE0FFE704980068039900EBA5
:1012A0000110D0F8B00100F00400029988600298A3
:1012B000806858B9FFE704980068039900EB0110B3
:1012C000D0F8B001400D029908600AE00498006867
:1012D000039900EB0110D0F8B001C00802994860F2
:1012E000FFE704980068039900EB0110D0F8B00103
:1012F000C0F340000299C86004980068039900EBAD
:101300000110D0F8B40100F00F00029908610498B0
:101310000068039900EB0110D0F8B40180B2000A14
:101320000299886104980068039900EB0110D0F8D5
:10133000B401000C0299486104980068039900EB1D
:101340000110D0F8B8010199087004980068039959
:1013500000EB0110D0F8B801000A01994870049818
:101360000068039900EB0110D0F8B801000C019956
:10137000887004980068039900EB0110D0F8B80158
:10138000000E0199C87004980068039900EB0110E1
:10139000D0F8BC010199087104980068039900EB2A
:1013A0000110D0F8BC01000A019948710498006846
:1013B000039900EB0110D0F8BC01000C0199887171
:1013C00004980068039900EB0110D0F8BC01000EEE
:1013D0000199C871039838B9FFE704980168C86893
:1013E00040F02000C86006E004980168086940F0F9
:1013F00020000861FFE700208DF8170008E004993D
:10140000486A40F48020486201208DF81700FFE709
:101410009DF8170006B0704780B584B0029002981E
:1014200020B9FFE701208DF80F00E0E0029890F866
:10143000200020B9FFE7029800F0DEF8FFE70298ED
:101440000168086820F00200086000F069FB019064
:10145000FFE70298006840688007002815D5FFE77D
:1014600000F05EFB0199401A0B280DD3FFE70299AB
:10147000486A40F4003048620299052081F8200053
:1014800001208DF80F00B2E0E3E7029801680868D8
:1014900040F00100086000F043FB0190FFE7029874
:1014A00000684068C007A8B9FFE700F039FB019960
:1014B000401A0B280DD3FFE70299486A40F4003028
:1014C00048620299052081F8200001208DF80F0064
:1014D0008DE0E4E70298007E012807D1FFE702983B
:1014E0000168086840F08000086006E00298016822
:1014F000086820F080000860FFE70298407E01281D
:1015000007D1FFE702980168086840F040000860D2
:1015100006E002980168086820F040000860FFE7D4
:101520000298807E012807D1FFE7029801680868C9
:1015300040F02000086006E002980168086820F08A
:1015400020000860FFE70298C07E012807D1FFE76E
:1015500002980168086820F01000086006E0029810
:101560000168086840F010000860FFE70298007FFB
:10157000012807D1FFE702980168086840F00800D9
:10158000086006E002980168086820F0080008601A
:10159000FFE70298407F012807D1FFE70298016822
:1015A000086840F00400086006E0029801680868D6
:1015B00020F004000860FFE7029B19685A689868E9
:1015C000D3F80CC040EA0C00D3F810C040EA0C007D
:1015D0005B691843013A1043C861029900204862D0
:1015E000029A012182F820108DF80F00FFE79DF884
:1015F0000F0004B080BD000080B588B007900020C7
:10160000069005900490039002900798006846F2B7
:101610000041C4F20001884233D1FFE7FFE7002018
:10162000019043F64000C4F20200016841F00071ED
:101630000160006800F0007001900198FFE7FFE78B
:101640000020009043F63000C4F20200016841F02F
:1016500001010160006800F0010000900098FFE7C0
:101660004FF4C05002900220039001210491059094
:10167000092006900020C4F2020002A900F06CF8D4
:10168000FFE708B080BD000080B584B002900298EA
:1016900090F8200001282FD1FFE70299022081F85D
:1016A000200002980168086820F00100086000F03E
:1016B00037FA0190FFE7029800684068C007A8B1B8
:1016C000FFE700F02DFA0199401A0B280DD3FFE730
:1016D0000299486A40F4003048620299052081F876
:1016E000200001208DF80F000FE0E4E702990020B0
:1016F00048628DF80F0008E00299486A40F4002023
:10170000486201208DF80F00FFE79DF80F0004B03C
:1017100080BD000082B00090009890F8350002284B
:1017200007D0FFE700998020486501208DF8070069
:101730000EE00099052081F83500009801680868DE
:1017400020F001000860FFE700208DF80700FFE7A8
:101750009DF8070002B070478EB00D900C910020EC
:101760000A90099008900B90FFE70B980F2800F261
:10177000CD81FFE70B99012088400A900C98006802
:101780000A990840099009980A99884240F0B9815D
:10179000FFE70C984068022805D0FFE70C984068E6
:1017A000122826D1FFE70D980B996FF0030202EA89
:1017B00051010844006A08900B9800F0070081006E
:1017C0000F2000FA01F10898884308900C980069EE
:1017D0000B9901F00701890000FA01F1089808430C
:1017E000089008980D990B9B02EA53021144086275
:1017F000FFE70D98006808900B984100032000FA5D
:1018000001F10898884308900C98406800F00300A4
:101810000B99490000FA01F10898084308900898CC
:101820000D9908600C98406801280FD0FFE70C98CC
:10183000406802280AD0FFE70C984068112805D0BC
:10184000FFE70C98406812282FD1FFE70D988068B9
:1018500008900B984100032000FA01F10898884392
:1018600008900C98C0680B99490000FA01F108989B
:101870000843089008980D9988600D984068089072
:101880000B99012000FA01F10898884308900C9800
:101890004068C0F300100B9900FA01F10898084362
:1018A000089008980D994860FFE70D98C068089067
:1018B0000B984100032000FA01F108988843089032
:1018C0000C9880680B99490000FA01F108980843C8
:1018D000089008980D99C8600C98C079C006002837
:1018E00040F10E81FFE7FFE70020079043F6440038
:1018F000C4F20200016841F480410160006800F414
:10190000804007900798FFE70B9820F0030043F60C
:101910000801C4F20101405808900B9800F0030040
:1019200081000F2000FA01F10898884308900D9873
:101930000021C4F20201884203D1FFE70020069093
:101940005EE00D9840F20041C4F20201884203D1EA
:10195000FFE70120059050E00D9840F60001C4F229
:101960000201884203D1FFE70220049042E00D9873
:1019700040F60041C4F20201884203D1FFE7032090
:10198000039034E00D9841F20001C4F20201884254
:1019900003D1FFE70420029026E00D9841F20041B8
:1019A000C4F20201884203D1FFE70520019018E04C
:1019B0000D9841F60001C4F20201884203D1FFE70D
:1019C000062000900AE00D9941F60042C4F202029E
:1019D0000820914208BF07200090FFE7009801907F
:1019E000FFE701980290FFE702980390FFE7039852
:1019F0000490FFE704980590FFE705980690FFE73D
:101A00000698C0B20B9901F00301890000FA01F1B8
:101A100008980843089008980B9921F0030143F6B1
:101A20000802C4F20102885043F60040C4F20100EB
:101A30000068089009990898884308900C98807964
:101A4000C00728B1FFE70999089808430890FFE705
:101A5000089843F60041C4F20101086043F60440CF
:101A6000C4F201000068089009990898884308901A
:101A70000C9880798007002805D5FFE70999089818
:101A800008430890FFE7089843F60441C4F20101B7
:101A9000086043F60840C4F2010000680890099904
:101AA0000898884308900C988079C006002805D5CE
:101AB000FFE70999089808430890FFE7089843F65C
:101AC0000841C4F20101086043F60C40C4F2010071
:101AD0000068089009990898884308900C988079C4
:101AE0008006002805D5FFE7099908980843089063
:101AF000FFE7089843F60C41C4F201010860FFE7D4
:101B0000FFE7FFE70B9801300B902EE60EB0704711
:101B100042F20000CEF204000068000C70470000A2
:101B200043F21050C2F201000068704780B543F6DE
:101B30000041C4F20201086840F4007008600868BF
:101B400040F480600860052000F066F80F2000F087
:101B500005F800F03BF8002080BD000080B582B0A1
:101B6000009040F2A800C2F20000006840F2C001FC
:101B7000C2F200010A784FF47A71B1FBF2F1B0FBC6
:101B8000F1F000F04FFD20B1FFE701208DF80700D4
:101B900018E000980F280DD8FFE700994FF0FF30AC
:101BA000002200F01FF8009840F2C401C2F20001C8
:101BB000086003E001208DF8070003E000208DF8A5
:101BC0000700FFE79DF8070002B080BD70470000E6
:101BD00080B582B08DF807009DF9070003F00AFD7B
:101BE00002B080BD80B586B08DF8170004910392D5
:101BF0000020029003F016FD02909DF9170001905D
:101C000002980499039A01F00FF90146019803F034
:101C100011FD06B080BD000080B582B00190019832
:101C200003F02AFD02B080BD80B584B0029001911E
:101C3000029820B9FFE701208DF80F001DE10198FF
:101C400043F60041C4F20201096801F00F01884225
:101C500012D9FFE7019943F60040C4F20200017077
:101C6000006800F00F000199884204D0FFE70120CE
:101C70008DF80F0001E1FFE7029800788007002847
:101C80002AD5FFE7029800784007002809D5FFE72A
:101C900043F60801C4F20201086840F4E05008600D
:101CA000FFE7029800780007002809D5FFE743F610
:101CB0000801C4F20201086840F460400860FFE7D0
:101CC00043F60801C4F20201086820F0F000029A0D
:101CD000926810430860FFE702980078C007002868
:101CE0006ED0FFE702984068012811D1FFE743F664
:101CF0000000C4F20200006800F400310020B0EBE4
:101D0000514F04D1FFE701208DF80F00B5E02CE022
:101D100002984068022805D0FFE70298406803282F
:101D200011D1FFE743F60000C4F20200006800F0A2
:101D300000710020B0EB516F04D1FFE701208DF856
:101D40000F009AE010E043F60000C4F202000068C1
:101D500000F002010020B0EB510F04D1FFE7012099
:101D60008DF80F0089E0FFE7FFE743F60801C4F2B2
:101D70000201086820F00300029A526810430860CC
:101D8000FFF7CEFE0090FFE743F60800C4F2020022
:101D9000006800F00C0002994968B0EB810F0ED08A
:101DA000FFE7FFF7BDFE0099401A41F289318842F2
:101DB00004D3FFE703208DF80F005EE0E4E7FFE7C0
:101DC000019843F60041C4F20201096801F00F01D5
:101DD000884212D2FFE7019943F60040C4F20200A4
:101DE0000170006800F00F000199884204D0FFE7FD
:101DF00001208DF80F0040E0FFE7029800784007CF
:101E000000280CD5FFE743F60801C4F20201086878
:101E100020F4E050029AD26810430860FFE702986D
:101E20000078000700280DD5FFE743F60801C4F24B
:101E30000201086820F46040029A126940EAC20078
:101E40000860FFE700F048F843F60801C4F2020119
:101E50000968C9B20A094AF2A841C0F60001895CC2
:101E6000C84040F2A801C2F2000108600F20FFF74D
:101E700075FE00208DF80F00FFE79DF80F0004B0FD
:101E800080BD000040F2A800C2F200000068704768
:101E900080B5FFF7F7FF43F60801C4F202010968B5
:101EA000C1F382224AF2B841C0F60001895CC84001
:101EB00080BD000080B5FFF7E5FF43F60801C4F2DE
:101EC0000201096889B24A0B4AF2B841C0F6000122
:101ED000895CC84080BD000080B586B000200590B8
:101EE00004900390029043F60800C4F202000068D8
:101EF00000F00C000146019140B1FFE70198042871
:101F00000AD0FFE7019808280CD04FE042F20040C9
:101F1000C0F2F40002904FE041F20020C0F27A00DB
:101F2000029049E043F60400C4F20200016801F0A7
:101F30003F01059100684002002813D5FFE743F6F2
:101F40000400C4F202000068C0F3881041F20021CE
:101F5000C0F27A01A0FB0101059A0023FEF734F9D3
:101F6000049012E043F60400C4F202000068C0F3DB
:101F7000881042F20041C0F2F401A0FB0101059A71
:101F80000023FEF721F90490FFE743F60400C4F2B2
:101F90000200006800F44031022000EBD1300390D1
:101FA00004980399B0FBF1F0029005E042F2004082
:101FB000C0F2F4000290FFE7029806B080BD000076
:101FC00080B586B00490049820B9FFE701208DF811
:101FD000170009E304980078C007002800F0A580E6
:101FE000FFE743F60800C4F20200006800F00C00AE
:101FF000042813D0FFE743F60800C4F2020000688B
:1020000000F00C0008281ED1FFE743F60400C4F2DC
:10201000020000684002002815D5FFE743F60000E3
:10202000C4F20200006800F400310020B0EB514F10
:1020300008D0FFE70498406820B9FFE701208DF839
:102040001700D1E270E0FFE704984068B0F5803FE8
:1020500009D1FFE743F60001C4F20201086840F429
:102060008030086020E004984068B0F5A02F0DD1C2
:10207000FFE743F60001C4F20201086840F4802043
:102080000860086840F4803008600CE043F6000106
:10209000C4F20201086820F480300860086820F467
:1020A00080200860FFE7FFE7FFE704984068E8B199
:1020B000FFE7FFF735FD0390FFE743F60000C4F2AA
:1020C0000200006800F400310020B0EB514F0CD149
:1020D000FFE7FFF725FD0399401A652804D3FFE7C2
:1020E00003208DF817007FE2E7E71CE0FFF718FDFB
:1020F0000390FFE743F60000C4F20200006800F41A
:1021000000310020B0EB514F0CD0FFE7FFF708FD86
:102110000399401A652804D3FFE703208DF81700C0
:1021200062E2E7E7FFE7FFE7FFE704980078800750
:10213000002840F19680FFE743F60800C4F2020051
:10214000006810F00C0F13D0FFE743F60800C4F24C
:102150000200006800F00C0008282CD1FFE743F6CD
:102160000400C4F2020000684002002823D4FFE704
:1021700043F60000C4F20200006800F002010020F3
:10218000B0EB510F09D0FFE70498C068012804D0D4
:10219000FFE701208DF8170026E243F60001C4F2A4
:1021A0000201086820F0F800049A126940EAC200AF
:1021B0000860FFE754E00498C06870B3FFE70021AF
:1021C000C4F2472101200860FFF7AAFC0390FFE753
:1021D00043F60000C4F20200006800F00201002093
:1021E000B0EB510F0CD1FFE7FFF79AFC0399401AAF
:1021F000032804D3FFE703208DF81700F4E1E7E795
:1022000043F60001C4F20201086820F0F800049AC5
:10221000126940EAC200086021E00021C4F24721AF
:1022200000200860FFF77CFC0390FFE743F6000006
:10223000C4F20200006800F002010020B0EB510F70
:102240000CD0FFE7FFF76CFC0399401A032804D376
:10225000FFE703208DF81700C6E1E7E7FFE7FFE798
:10226000FFE704980078000700284BD5FFE70498A3
:10227000406918B3FFE740F68061C4F247210120AE
:102280000860FFF74DFC0390FFE743F67400C4F2CB
:102290000200006800F002010020B0EB510F0CD1E9
:1022A000FFE7FFF73DFC0399401A032804D3FFE73B
:1022B00003208DF8170097E1E7E722E040F6806100
:1022C000C4F2472100200860FFF72AFC0390FFE7D3
:1022D00043F67400C4F20200006800F0020100201E
:1022E000B0EB510F0CD0FFE7FFF71AFC0399401A2F
:1022F000032804D3FFE703208DF8170074E1E7E714
:10230000FFE7FFE7049800784007002840F1CE80FF
:10231000FFE700208DF80B0043F64000C4F20200F6
:102320000068C000002815D4FFE7FFE700200190F7
:1023300043F64000C4F20200016841F080510160A0
:10234000006800F0805001900198FFE701208DF8AF
:102350000B00FFE747F20000C4F200000068C00570
:10236000002822D4FFE747F20001C4F20001086808
:1023700040F480700860FFF7D3FB0390FFE747F25B
:102380000000C4F200000068C00500280CD4FFE77C
:10239000FFF7C6FB0399401A032804D3FFE7032085
:1023A0008DF8170020E1EAE7FFE7FFE7049880686F
:1023B000012809D1FFE743F67001C4F20201086861
:1023C00040F0010008601FE00498806805280DD1E6
:1023D000FFE743F67001C4F20201086840F0040010
:1023E0000860086840F0010008600CE043F67001E6
:1023F000C4F20201086820F001000860086820F0BB
:1024000004000860FFE7FFE7FFE704988068F8B181
:10241000FFE7FFF785FB0390FFE743F67000C4F288
:102420000200006800F002010020B0EB510F0ED155
:10243000FFE7FFF775FB0399401A41F289318842A3
:1024400004D3FFE703208DF81700CDE0E5E71EE099
:10245000FFF766FB0390FFE743F67000C4F202004B
:10246000006800F002010020B0EB510F0ED0FFE732
:10247000FFF756FB0399401A41F28931884204D391
:10248000FFE703208DF81700AEE0E5E7FFE79DF8D2
:102490000B00012809D1FFE743F64001C4F2020115
:1024A000086820F080500860FFE7FFE70498806923
:1024B000002800F09580FFE743F60800C4F2020010
:1024C000006800F00C00082800F08580FFE7049801
:1024D000806902285CD1FFE76021C4F24721002017
:1024E0000860FFF71DFB0390FFE743F60000C4F20E
:1024F0000200006800F000710020B0EB516F0CD0BA
:10250000FFE7FFF70DFB0399401A032804D3FFE709
:1025100003208DF8170067E0E7E70499C869D1F850
:1025200020C04B6A8A6A40EA0C0040EA8310D2035A
:102530004FF6FF739A43A2F580321043C96A40EA0E
:10254000016043F60401C4F2020108606021C4F294
:10255000472101200860FFF7E3FA0390FFE743F605
:102560000000C4F20200006800F000710020B0EB2F
:10257000516F0CD1FFE7FFF7D3FA0399401A0328F4
:1025800004D3FFE703208DF817002DE0E7E721E0F3
:102590006021C4F2472100200860FFF7C1FA0390D0
:1025A000FFE743F60000C4F20200006800F000718B
:1025B0000020B0EB516F0CD0FFE7FFF7B1FA0399A1
:1025C000401A032804D3FFE703208DF817000BE01F
:1025D000E7E7FFE703E001208DF8170004E0FFE7DD
:1025E00000208DF81700FFE79DF8170006B080BDAA
:1025F00081B000900098042809D1FFE74EF2100145
:10260000CEF20001086840F00400086008E04EF2D5
:102610001001CEF20001086820F004000860FFE716
:1026200001B0704780B582B00190019800F0C2FD02
:1026300002B080BD81B0009001B0704783B00290BD
:10264000002001900090029890F8390001900298C3
:1026500090F83A0000909DF804009DF8001008439F
:1026600003B0704780B586B0059005980068006893
:10267000049005980068C068039005980068406958
:102680000290002001900090049800F00F0001904B
:10269000019888B9FFE79DF81000800600280AD548
:1026A000FFE79DF80C008006002804D5FFE7059899
:1026B00000F074FED2E0FFE70198002800F0AE8041
:1026C000FFE79DF80800C00738B9FFE7BDF80C0028
:1026D00010F4907F00F0A280FFE79DF81000C00783
:1026E00058B1FFE79DF80D00C00730B1FFE705992D
:1026F000C86B40F00100C863FFE79DF81000400779
:1027000000280BD5FFE79DF80800C00730B1FFE7B0
:102710000599C86B40F00200C863FFE79DF8100000
:10272000800700280BD5FFE79DF80800C00730B1EF
:10273000FFE70599C86B40F00400C863FFE79DF808
:102740001000000700280BD5FFE79DF80800C00720
:1027500030B1FFE70599C86B40F00800C863FFE798
:102760000598C06B002858D0FFE79DF81000800640
:1027700000280AD5FFE79DF80C008006002804D544
:10278000FFE7059800F00AFEFFE70598006840693A
:10279000C0F3801000900598C06B0007002803D498
:1027A000FFE7009888B3FFE7059800F0CFFD059894
:1027B000006840694006002822D5FFE705980168B7
:1027C000486920F0400048610598406B98B1FFE7E8
:1027D0000598416B43F22D30C0F60000086505985E
:1027E000406BFEF797FF28B1FFE70598406B016D3E
:1027F0008847FFE703E00598FFF71CFFFFE703E0CA
:102800000598FFF717FFFFE706E00598FFF712FFAF
:1028100005990020C863FFE7FFE71FE09DF810005F
:10282000000600280AD5FFE79DF80C0000060028E6
:1028300004D5FFE7059801F02DF80FE09DF8100092
:10284000400600280AD5FFE79DF80C004006002846
:1028500004D5FFE7059800F08DFDFFE706B080BDC9
:1028600080B582B00090009820B9FFE701208DF874
:1028700007003EE00098806908B1FFE700E0FFE74D
:10288000009890F8390040B9FFE70099002081F8DE
:102890003800009800F032F8FFE70099242081F812
:1028A000390000980168C86820F40050C86000989A
:1028B00000F0ECFD00980168086920F49040086180
:1028C00000980168486920F02A0048610098016872
:1028D000C86840F40050C86000990020C863009A9E
:1028E000202182F83910009A82F83A108DF80700FA
:1028F000FFE79DF8070002B080BD000080B590B0F2
:102900000F900F98006841F20001C4F20101884263
:1029100045D1FFE7FFE70020099043F63000C4F2FD
:102920000200016841F001010160006800F001004F
:1029300009900998FFE7FFE70020089043F644005C
:10294000C4F20200016841F010010160006800F06B
:10295000100008900898FFE74FF400700A900220DA
:102960000B9001210C910D9007200E900020C4F2D5
:10297000020003900AA90491FEF7EEFE0398049961
:102980004FF480620A92FEF7E7FE25200590FFF7DC
:102990001FF9059803221146FFF724F9FFE70F9866
:1029A000006844F20041C4F20001884243D1FFE7CD
:1029B000FFE70020079043F63000C4F202000168F0
:1029C00041F001010160006800F0010007900798E4
:1029D000FFE7FFE70020069043F64000C4F2020044
:1029E000016841F400310160006800F40030069095
:1029F0000698FFE704200A9002200B9001210C9119
:102A00000D9007200E900020C4F2020000900AA949
:102A10000191FEF7A1FE0098019908220A92FEF7A3
:102A20009BFE26200290FFF7D3F80298032211465E
:102A3000FFF7D8F8FFE710B080BD000084B0029027
:102A40000191ADF80220029890F83A0020284AD16E
:102A5000FFE7019820B1FFE7BDF8020020B9FFE7CA
:102A600001208DF80F0042E0FFE7029890F838004F
:102A7000012804D1FFE702208DF80F0037E002990A
:102A8000012081F83800FFE7FFE70198029988628A
:102A9000BDF8020002998885BDF802000299C88538
:102AA00002990020C8630299222081F83A00FFE7CA
:102AB0000299002081F83800FFE702980168C86891
:102AC00040F48070C86002980168486940F00100D5
:102AD000486102980168C86840F02000C860002082
:102AE0008DF80F0003E002208DF80F00FFE79DF83E
:102AF0000F0004B07047000080B582B001900198CB
:102B0000006841F20001C4F2010188425FD1FFE791
:102B100040F27C60C2F2000000880004002855D416
:102B2000FFE740F27C60C2F2000000884004002809
:102B300019D5FFE740F29F70C2F2000000780A2822
:102B400007D0FFE740F27C61C2F20001002008805C
:102B500008E040F27C61C2F20001088840F40040C5
:102B60000880FFE731E040F29F70C2F20000007879
:102B70000D2809D1FFE740F27C61C2F2000108880C
:102B800040F4804008801FE040F29F70C2F20000D5
:102B9000017840F27C60C2F2000003886FF39F333B
:102BA00040F2B452C2F20002D154018801310180D6
:102BB0000088C82807DBFFE740F27C61C2F2000111
:102BC00000200880FFE7FFE7FFE7FFE711E001983B
:102BD000006844F20041C4F20001884208D1FFE7D6
:102BE00040F2A070C2F200000078FEF72FF8FFE775
:102BF000FFE702B080BD000080B588B00690059167
:102C0000ADF81220039300200190069890F8390047
:102C1000202840F09980FFE7059820B1FFE7BDF834
:102C2000120020B9FFE701208DF81F0090E0FFE7B8
:102C3000069890F83800012804D1FFE702208DF8AB
:102C40001F0085E00699012081F83800FFE7FFE7C3
:102C500006990020C8630699212081F83900FEF703
:102C60005FFF0190BDF8120006998884BDF812003C
:102C70000699C884FFE70698C08C002847D0FFE774
:102C80000699C88C0138C88406988068B0F5805FC2
:102C900025D1FFE70698019B03996A4611608021C0
:102CA000002200F047FE20B1FFE703208DF81F004F
:102CB0004EE005980290029800886FF35F20069915
:102CC000096848600698006920B9FFE70598023056
:102CD000059003E0059801300590FFE716E006989F
:102CE000019B03996A4611608021002200F022FEB8
:102CF00020B1FFE703208DF81F0029E00598411C53
:102D000005910078069909684860FFE7B3E70698DF
:102D1000019B03996A4611604021002200F00AFEDF
:102D200020B1FFE703208DF81F0011E00699202055
:102D300081F83900FFE70699002081F83800FFE7A5
:102D400000208DF81F0003E002208DF81F00FFE730
:102D50009DF81F0008B080BD81B0009001B07047A1
:102D6000FFE7FEE710B588B040F2A870C2F200009D
:102D700046F20041C4F2000101600199029A039BEE
:102D8000DDF810C0DDF814E0069C8461C0F814E0A2
:102D9000C0F810C0C360826041600799C16103211F
:102DA000416000218160C1604FF4C02202614FF494
:102DB000A00242610176417681760122C2760177D6
:102DC0004177FEF729FB08B010BD0000FFE7FEE7E2
:102DD00080B582B00190019A40F2D070C2F200003A
:102DE000012101F0C7FB02B080BD00007047000068
:102DF00080B584B0ADF80E008DF80D100020ADF850
:102E000000008DF8020002208DF803009DF80D00EF
:102E10008DF804009DF80E008DF805006846FDF75A
:102E2000CBFE04B080BD000088B0079006910592EB
:102E3000079800F0070004900498C0F107000528E7
:102E400003D3FFE70420019004E00498C0F10700D9
:102E50000190FFE70198039004980430062803D8F6
:102E6000FFE70020009003E0049803380090FFE79C
:102E70000098029006980399012202FA01F10139A3
:102E80000840029B984005999A40013A1140084336
:102E900008B07047000000000000000000000000C3
:102EA000EFF30980BFF36F8F154B1A681EF0100FF8
:102EB00008BF20ED108A20E9F04F10602DE90900CD
:102EC0004FF0500080F31188BFF34F8FBFF36F8F27
:102ED00004F0B4FB4FF0000080F31188BDE8090056
:102EE00019680868B0E8F04F1EF0100F08BFB0EC8A
:102EF000108A80F30988BFF36F8F704700BF00BF4F
:102F00007408002080B586B08DF816008DF8151075
:102F1000049200200390029001909DF8152040F249
:102F2000A001C2F2000101EB420131F8021C9DF840
:102F300016201144ADF804108DF806009DF8150018
:102F4000013801460091032834D80099DFE801F0E8
:102F5000020D142702208DF8070004988DF8080050
:102F60000498000A8DF8090024E001208DF807007C
:102F700004988DF808001DE004208DF807000498DF
:102F80008DF808000498000A8DF80900BDF81200B9
:102F90008DF80A009DF813008DF80B000AE002205E
:102FA0008DF8070004988DF808000498000A8DF841
:102FB0000900FFE701A8FDF7FFFD20B1FFE70120B1
:102FC0008DF8170003E000208DF81700FFE79DF84B
:102FD000170006B080BD000080B586B08DF81600E1
:102FE000ADF814108DF81320039300200290019087
:102FF00000909DF8161001F5C061ADF800108DF835
:10300000020008208DF803009DF813008DF80700DA
:103010009DF815008DF80600BDF814008DF8050028
:1030200023208DF804009DF80F008DF80B00BDF8EB
:103030000E008DF80A000398000A8DF80900039825
:103040008DF808006846FDF7B7FD20B1FFE70120C5
:103050008DF8170003E000208DF81700FFE79DF8BA
:10306000170006B080BD0000000000000000000056
:10307000074B19680868B0E8F04F80F30988BFF380
:103080006F8F4FF0000080F31188704700BF00BFC2
:103090007408002080B582B001900091019803F07F
:1030A000A9FD009803F0C8FD02B080BD80B598B0BE
:1030B000179016911592149300208DF84F00FFE79A
:1030C0000020019043F64000C4F20200016841F084
:1030D00080510160006800F0805001900198FFE786
:1030E000FFE70020009047F20000C4F200000168F2
:1030F00041F480410160006800F480400090009835
:10310000FFE7012007904FF48030089002200D90D7
:103110004FF480000E9016980F9017981090159805
:1031200011901498129007A8FEF74AFF8DF84F00EF
:103130009DF84F0010B1FFE7FFE7FEE70F20029078
:1031400002200390002004904FF4A05005904FF40B
:103150008050069002A80521FEF766FD8DF84F000D
:103160009DF84F0010B1FFE7FFE7FEE7FEF7D0FC48
:1031700041F20101884209D1FFE743F60041C4F260
:103180000201086840F480700860FFE718B080BD55
:1031900080B584B08020ADF8040000208DF80600D2
:1031A00001218DF807108DF8080001A8FDF704FD36
:1031B00004B080BD80B582B0009000980138B0F1B5
:1031C000807F03D3FFE70120019019E000980138C8
:1031D0004EF21401CEF2000108604FF0FF300F21D3
:1031E00002F028FA4EF21801CEF200010020086029
:1031F0004EF21002CEF20002072111600190FFE7AB
:10320000019802B080BD000080B505F0B1F801283A
:1032100003D0FFE704F0FEFCFFE780BD4EF68851C7
:10322000CEF20001086840F47000086043F6000226
:10323000C4F20202106840F00100106043F6080179
:10324000C4F202010020086011684FF6FF73CFF648
:10325000F6631940116043F60403C4F2020343F21B
:103260001001C2F200411960116821F4802111603F
:1032700043F60C01C4F2020108604EF60851CEF28A
:1032800000014FF0006008607047000080B58AB010
:103290008DF827008DF826100020089007900690E2
:1032A00005900490039002909DF8261040F2AC0027
:1032B000C2F2000000EB410030F8020C9DF827102C
:1032C0000844ADF8180001208DF81A009DF826007A
:1032D000013801460191032814D80199DFE801F073
:1032E00002060A0E02208DF81B000BE004208DF868
:1032F0001B0007E004208DF81B0003E002208DF87E
:103300001B00FFE706A8FDF757FC60B1FFE70A20A6
:1033100002F0B0FA03A8FDF703FC18B1FFE7049828
:103320000290FFE7FFE702980AB080BD80B582B047
:1033300001900198806B009000990020C885009949
:10334000C8840098FFF776F902B080BD81B0009084
:1033500000980168C86820F49070C86000980168FF
:10336000486920F0010048610099202081F83A0066
:1033700001B0704780B582B0019001980168C868BB
:1033800020F04000C8600199202081F839000198A0
:10339000FFF7E2FC002002B080BD000080B584B0E1
:1033A0000290029890F83A00222866D1FFE702982E
:1033B0008068B0F5805F1FD1FFE70298806A0190B6
:1033C0000298006960B9FFE70298006840686FF3EF
:1033D0005F20019908800299886A023088620AE0B9
:1033E000029800684068C0B2019908800299886A12
:1033F00001308862FFE718E00298006948B9FFE7EA
:10340000029800684068029B996A4A1C9A62087098
:103410000AE002980068406800F07F00029B996A09
:103420004A1C9A620870FFE7FFE70299C88D0138CD
:10343000C8850004E8B9FFE702980168C86820F071
:103440002000C86002980168C86820F48070C860D5
:1034500002980168486920F0010048610299202023
:1034600081F83A000298FFF747FB00208DF80F0023
:1034700007E000208DF80F0003E002208DF80F0018
:10348000FFE79DF80F0004B080BD0000B0B59EB00E
:103490001D901D980068006920F440501D9A116825
:1034A000D268104308611D9988680B694A69C96927
:1034B0001843104308431C901D980068C06849F2E7
:1034C0000C6188431C9908431D990968C8601D98C0
:1034D0000068406920F440701D9A11689269104399
:1034E00048611D98C069B0F5004F40F0EA80FFE7E1
:1034F0001D98006841F20001C4F20101884209D020
:10350000FFE71D98006841F20041C4F201018842C2
:103510006BD1FFE7FEF7CEFC1921179148431D99A7
:1035200049684900B0FBF1F048F21F51C5F2EB11B8
:103530001991A0FB01016FF00F0000EA51001690F5
:10354000FEF7B8FC179948431D9949684900B0FB3C
:10355000F1F01590FEF7AEFCDDF854C0179B199AF8
:103560000146169859431D9B5B685B00B1FBF3F164
:10357000A1FB0231490964231A9301FB13C33221D1
:10358000189101EBC301A1FB0212F82101EA5211CB
:1035900000EB41001B90FEF78DFC179948431D99E5
:1035A00049684900B0FBF1F4FEF784FCDDF85CC02B
:1035B000189A199BDDF868E001461B9801FB0CFC8A
:1035C0001D9D29686D686D00BCFBF5FCACFB035CC0
:1035D0004FEA5C1C0CFB1E4C02EBCC02A2FB03323C
:1035E000C2F34212104488606AE0FEF751FC1921D0
:1035F000109148431D9949684900B0FBF1F048F229
:103600001F51C5F2EB111291A0FB01016FF00F00E9
:1036100000EA51000F90FEF73BFC109948431D99BA
:1036200049684900B0FBF1F00E90FEF731FCDDF87F
:1036300038C0109B129A01460F9859431D9B5B6836
:103640005B00B1FBF3F1A1FB023149096423139341
:1036500001FB13C33221119101EBC301A1FB021243
:10366000F82101EA521100EB41001490FEF710FC22
:10367000109948431D9949684900B0FBF1F4FEF7E1
:1036800007FCDDF840C0119A129BDDF84CE00146C2
:10369000149801FB0CFC1D9D29686D686D00BCFB36
:1036A000F5FCACFB035C4FEA5C1C0CFB1E4C02EB14
:1036B000CC02A2FB0332C2F3421210448860FFE73F
:1036C000E6E01D98006841F20001C4F20101884261
:1036D00009D0FFE71D98006841F20041C4F20101E2
:1036E00088426AD1FFE7FEF7E5FB192109914843BB
:1036F0001D9949688900B0FBF1F048F21F51C5F2ED
:10370000EB110B91A0FB01016FF00F0000EA5100DB
:103710000890FEF7CFFB099948431D994968890035
:10372000B0FBF1F00790FEF7C5FBDDF81CC0099B6C
:103730000B9A0146089859431D9B5B689B00B1FB9F
:10374000F3F1A1FB0231490964230C9301FB13C37C
:1037500032210A9101EB0311A1FB0212F02101EACF
:10376000521108440D90FEF7A5FB099948431D9995
:1037700049688900B0FBF1F4FEF79CFBDDF824C03A
:103780000A9A0B9BDDF830E001460D9801FB0CFC1A
:103790001D9D29686D68AD00BCFBF5FCACFB035CAE
:1037A0004FEA5C1C0CFB1E4C02EB0C12A2FB03321A
:1037B000C2F343121044886069E0FEF769FB1921E7
:1037C000029148431D9949688900B0FBF1F048F225
:1037D0001F51C5F2EB110491A0FB01016FF00F0026
:1037E00000EA51000190FEF753FB029948431D99EE
:1037F00049688900B0FBF1F00090FEF749FBDDF865
:1038000000C0029B049A0146019859431D9B5B68C6
:103810009B00B1FBF3F1A1FB02314909642305933D
:1038200001FB13C33221039101EB0311A1FB02122F
:10383000F02101EA521108440690FEF729FB029993
:1038400048431D9949688900B0FBF1F4FEF720FB5D
:10385000DDF808C0039A049BDDF814E001460698E1
:1038600001FB0CFC1D9D29686D68AD00BCFBF5FCDF
:10387000ACFB035C4FEA5C1C0CFB1E4C02EB0C1215
:10388000A2FB0332C2F3431210448860FFE7FFE754
:103890001EB0B0BD83B00190019890F83900212886
:1038A00040D1FFE701988068B0F5805F19D1FFE74C
:1038B0000198006A0090009800886FF35F200199DA
:1038C000096848600198006928B9FFE70199086A0A
:1038D0000230086204E00199086A01300862FFE7DB
:1038E00008E0019A106A411C116200780199096888
:1038F0004860FFE70199C88C0138C884000468B9A2
:10390000FFE701980168C86820F08000C86001984E
:103910000168C86840F04000C860FFE700208DF8EB
:103920000B0003E002208DF80B00FFE79DF80B0071
:1039300003B0704780B586B0DDF820C004900391D5
:103940008DF80B200193FFE7049800680068039945
:103950000840401AB0FA80F040099DF80B108842E8
:103960002ED1FFE70898013048B3FFE7089840B12F
:10397000FFE7FEF7D5F80199401A089988421DD94A
:10398000FFE704980168C86820F4D070C860049804
:103990000168486920F0010048610499202081F8FD
:1039A0003900049981F83A00FFE70499002081F872
:1039B0003800FFE703208DF8170005E0FFE7C3E7B5
:1039C00000208DF81700FFE79DF8170006B080BDB6
:1039D00080B582B000200090019040F23450C2F2D5
:1039E0000000FEF73FFE00980190FFE740F23450E0
:1039F000C2F20000FEF722FE20280AD0FFE701985D
:103A0000013001900198B0F1FF3F01D9FFE700E0DC
:103A1000ECE700200190FFE740F23450C2F20000D2
:103A200040F29F71C2F200010122FFF707F850B186
:103A3000FFE70198013001900198B0F1FF3F01D9F3
:103A4000FFE700E0E8E702B080BD000080B582B08B
:103A50000020019040F27450C2F20000FEF702FE16
:103A6000FFE740F27450C2F20000FEF7E7FD2028A5
:103A70000AD0FFE70198013001900198B0F1FF3FB3
:103A800001D9FFE700E0ECE700200190FFE740F2FA
:103A90007450C2F2000040F2A071C2F20001012293
:103AA000FEF7CCFF50B1FFE701980130019001987B
:103AB000B0F1FF3F01D9FFE700E0E8E740F27450C2
:103AC000C2F2000002686FF02001116001686FF01F
:103AD0000800086002B080BDFFE7FEE780B5A8B02F
:103AE000249000201F901E901D908DF88300FFE70A
:103AF0009DF8830002282EDCFFE79DF8833040F21A
:103B00008C60C2F2000050F8231040F29862C2F2BA
:103B1000000242F8231024999DF8832051F82210C6
:103B200040F82210249A9DF8831002EB810292ED56
:103B3000000A00EB810090ED001A30EE410A21A846
:103B400000EB810080ED000AFFE79DF88300013063
:103B50008DF88300CCE700200121FFF749F9249874
:103B6000006827909DED270AB0EEC00AB7EE001A54
:103B7000B4EE410AF1EE10FA10DCFFE72498406839
:103B800026909DED260AB0EEC00AB7EE001AB4EEFC
:103B9000410AF1EE10FA40F37481FFE7249890EDAA
:103BA000003ADDED213A40F28C60C2F20000109044
:103BB00090ED006A40F29860C2F200001190D0EDE2
:103BC000006A40F24C10C2F2000012909FEDDA0A37
:103BD0008DED1A0ADFEDD90ACDED130AFBEE041ABA
:103BE000CDED141A9FEDDF2A8DED152ADFEDDE2ACB
:103BF000CDED162ADFEDDF4ACDED174AB3EE045ABC
:103C00008DED185AF3EE0E5ACDED195AB0EE451A55
:103C1000B0EE654A00F064FE109A11991298DDED3D
:103C2000130ADDED141A9DED152ADDED162ADDEDE2
:103C3000174A9DED185ADDED195AB0EE401A9DED68
:103C40001A0ABDEEC11A8DED1C1A249B93ED013AA0
:103C5000DDED223A92ED016AD1ED016AB0EE451A2E
:103C6000B0EE654A00F03CFEBDEEC00A8DED1B0AC9
:103C7000249890ED000AB5EE400AF1EE10FA24DD2A
:103C8000FFE7249890ED010AB5EE400AF1EE10FA34
:103C90001BDDFFE71C98FCF7C8FA0F901B98FCF798
:103CA000C4FA01460F98884204DBFFE71C984042A3
:103CB0000E9003E01B9840420E90FFE70E981D9077
:103CC0001C991B98401A1E9072E0249890ED000AEF
:103CD000B5EE400AF1EE10FA24DDFFE7249890EDEE
:103CE000010AB5EE400AF1EE10FA1BDAFFE71C9963
:103CF0001B98401A1D901C98FCF797FA0D901B9882
:103D0000FCF793FA01460D98884204DBFFE71C9804
:103D100040420C9003E01B9840420C90FFE70C9847
:103D20001E9044E0249890ED000AB5EE400AF1EEB2
:103D300010FA22DAFFE7249890ED010AB5EE400A66
:103D4000F1EE10FA19DDFFE71C981B99401A1D903F
:103D50001C98FCF76AFA0B901B98FCF766FA014670
:103D60000B98884203DBFFE71C980A9002E01B983F
:103D70000A90FFE70A981E9018E01C98FCF755FA85
:103D800009901B98FCF751FA01460998884203DB19
:103D9000FFE71C98089002E01B980890FFE708983E
:103DA0001D901C981B99401A1E90FFE7FFE7FFE744
:103DB00040F2F070C2F2000000F0ACFB40F61000E0
:103DC000C2F2000000F0A6FB1D984AF25031CFF677
:103DD000FD71884206DCFFE74AF25030CFF6FD70F5
:103DE000079013E01D9845F6B041C0F202018842E9
:103DF00006DBFFE745F6B040C0F20200069002E0A5
:103E00001D980690FFE706980790FFE707981D901A
:103E10001E984AF25031CFF6FD71884206DCFFE76A
:103E20004AF25030CFF6FD70059013E01E9845F62B
:103E3000B041C0F20201884206DBFFE745F6B04020
:103E4000C0F20200049002E01E980490FFE704987C
:103E50000590FFE705981E901D9A40F2F070C2F29F
:103E600000000021039100F085FB03991E9A40F6A3
:103E70001000C2F2000000F07DFB03981D901E9020
:103E8000FFE72498806825909DED250AB0EEC00AD2
:103E9000B7EE001AB4EE410AF1EE10FA5FDDFFE76B
:103EA000249890ED023ADDED233A40F28C60C2F2A4
:103EB000000090ED026A40F29860C2F20000D0ED7E
:103EC000026A40F24C10C2F200009FED280ADFEDBA
:103ED000280AB3EE041A9FED282ADFED282ABAEE4D
:103EE000045AFBEE045AF0EE651AB0EE454AF0EEC5
:103EF000654A00F0F5FCBDEEC00A8DED1F0A1F9863
:103F00004AF25031CFF6FD71884206DCFFE74AF2F3
:103F10005030CFF6FD70029018E01F9845F6B04182
:103F2000C0F2020188420BDBFFE745F6B040C0F269
:103F30000200019007E000BF0000F0420000F0C264
:103F40001F980190FFE701980290FFE702981F90E9
:103F500000200090FEF73CFF00981F90FFE728B07C
:103F600080BD00BF00001643000048430000F0423F
:103F70000000F0C200002042000048C20000C8C299
:103F800080B501F097FB01F0D1FB01F0F3FB80BDA0
:103F900080B501F09BFB01F0D5FB01F0F5FB01F0D2
:103FA0000BFC01F021FC80BD80B501F0A7FB80BDBA
:103FB00080B592B01190FFE7FFE740F2B400C2F283
:103FC000000090ED000A0120B7EE001AB4EE410A9D
:103FD000F1EE10FA039021DCFFE740F2B400C2F2E8
:103FE000000090ED010A0120B7EE001AB4EE410A7C
:103FF000F1EE10FA039011DCFFE740F2B400C2F2D8
:10400000000090ED020AB7EE001A0020B4EE410A5B
:10401000F1EE10FAC8BF01200390FFE70398C00734
:10402000002800F08E80FFE740F24810C2F2000046
:1040300000686A4600211160032101231A4603F03B
:104040005FFC032879D1FFE70020099008900790D2
:104050000690059004908DF82B00FFE79DF82B004B
:1040600002285FDCFFE740F24010C2F20000006867
:104070009DF82B2007A901EB82010022029203F098
:10408000CFFF029A9DF82B300EA941F8230040F291
:104090008060C2F2000000689DF82B3004A901EB9B
:1040A000830103F0BDFF01469DF82B200BA840F8CB
:1040B00022109DF82B1050F8210001282BD1FFE78A
:1040C0009DF82B100EA850F82100012823D1FFE7FE
:1040D00040F23450C2F200004AF28551C0F60001AD
:1040E00001F050FD9DF82B1007A800EB810090ED2A
:1040F000000AB8EEC00A04A800EB810090ED001A97
:1041000030EE410A40F2B400C2F2000000EB810040
:1041100080ED000AFFE7FFE79DF82B0001308DF8E6
:104120002B009BE702F06CFE40F2B400C2F20000EC
:10413000FFF7D4FC02F090FEFFE70A2002F0C0FF78
:104140003BE739E780B586B0059002F059FE40F2B2
:104150004410C2F2000069464860032004900860E1
:1041600044F2E510C0F600004AF2DB51C0F600014F
:1041700080220023039304F0ABF8039B40F2886095
:10418000C2F20000694648600220086043F6B17040
:10419000C0F600004AF20161C0F600014FF400725F
:1041A00004F096F8039B049840F28462C2F2000285
:1041B00069464A60086044F21530C0F600004AF2D1
:1041C000E851C0F600014FF4807204F081F840F22B
:1041D0003050C2F20000006802F0AAFF02F03CFE7C
:1041E00006B080BD80B58AB009900020ADF82200ED
:1041F000FFE702F005FE40F27C60C2F2000000889A
:10420000000400285AD5FFE7002000900390029098
:10421000019040F23450C2F2000001A9FCF788FD81
:1042200000988DF81300FFE79DF8130002281ADCB0
:10423000FFE740F24010C2F2000000689DF8132032
:1042400001A901EB820100231A4603F0D3FD9DF87A
:10425000132005A941F82200FFE79DF81300013063
:104260008DF81300E0E7059801281BD1FFE70698B9
:10427000012817D1FFE70798012813D1FFE740F283
:104280003450C2F200004AF23E51C0F6000101F083
:1042900079FC40F24810C2F200000068012103F0EE
:1042A000A1FA0AE040F23450C2F200004AF2FD41A5
:1042B000C0F6000101F066FCFFE725E0BDF8220032
:1042C0000130ADF82200BDF822004BF65002C0F2DA
:1042D0001E5245F62941CCF28F2100FB01204FEA06
:1042E000F0004AF61461C0F2471188420BD8FFE78C
:1042F00040F23450C2F200004AF2AA51C0F6000166
:1043000001F040FCFFE7FFE702F0A6FD022002F00B
:10431000D7FE6EE780B596B01590FFE702F070FD0E
:1043200040F24810C2F200000068002103F012FAC7
:10433000012866D1FFE700208DF83B00FFE79DF8DC
:104340003B00022832DCFFE79DF83B0040F6F80115
:10435000C2F2000131F9101000EE101AB8EEC00AD6
:104360009FED601A80EE010A9FED5F1A20EE010AB0
:1043700012A901EB800080ED000A40F28060C2F2D9
:10438000000000689DF83B2001EB820100231A46E3
:1043900003F030FD9DF83B200FA941F82200FFE714
:1043A0009DF83B0001308DF83B00C8E70F980128CD
:1043B0001BD1FFE71098012817D1FFE711980128BA
:1043C00013D1FFE740F23450C2F200004AF26151CB
:1043D000C0F6000101F0D6FB40F24810C2F2000026
:1043E0000068022103F0FEF90AE040F23450C2F204
:1043F00000004AF21D51C0F6000101F0C3FBFFE7C7
:10440000FFE74AF2C040C0F6000004F0B1FB40F6FE
:10441000F801C2F20001B1F90000B1F902200492E2
:10442000B1F90410089100EE100AB8EEC00A9FED31
:104430002D1A8DED061A80EE010A9FED2B1A8DEDD7
:10444000071A20EE010A10EE100AFCF720F99DED84
:10445000062A9DED071A0246049805920A46059918
:1044600042EC101B8DED0C0B00EE100AB8EEC00AEA
:1044700080EE020A20EE010A10EE100AFCF707F99E
:104480009DED062A9DED071A0246089809920A46F4
:10449000099942EC101B8DED0A0B00EE100AB8EEE4
:1044A000C00A80EE020A20EE010A10EE100AFCF7A4
:1044B000EEF89DED0A1B9DED0C0B41EC120B6846CE
:1044C00080ED022B80ED001B53EC102B4AF2E640EE
:1044D000C0F6000004F04CFB02F0BEFC642002F0C9
:1044E000EFFD1BE7000000470000344380B582B0B9
:1044F000019001980090FEF74BFE0098062100F015
:1045000059F8FEF745FE00980F2100F053F802B06D
:1045100080BD000080B584B00390039801900078BE
:104520000321FEF7B3FE0199886040F23450C2F2D5
:10453000000002904AF2DF61C0F6000101F00EFBBC
:1045400001990298097801F0AFFA02984AF2EA61FB
:10455000C0F6000101F002FB01990298896801F0A0
:10456000A3FA02984AF2FB41C0F6000101F0F6FA04
:1045700004B080BD80B584B003908DF80B1001921B
:1045800003980090FFF7B2FF00989DF80B10019A76
:1045900000F028F80098007F28B1FFE700983F213D
:1045A00000F008F804E000987F2100F003F8FFE72E
:1045B00004B080BD80B584B00390ADF80A100398B4
:1045C0000190FFE701980078BDF80A200121FEF76D
:1045D00099FC012804D0FFE7022001F04BF9F1E734
:1045E00004B080BD80B584B003908DF80B100192AB
:1045F0000398009040F23450C2F200004AF2047175
:10460000C0F6000101F0BEFA0099019848609DF8DB
:104610000B000877FFE7009908784B6846F27A01AB
:104620000022FEF7D9FC012804D0FFE7022001F0A8
:1046300021F9F0E704B080BD80B584B084460B98C2
:10464000DDF828E0DDF824E0DDF820E0DDF81CE00E
:10465000DDF818E0CDF80CC08DF80B108DF80A20AD
:1046600001938DF8030003989DF80B1001709DF8DD
:104670000A10417001994160069981600799C160F3
:1046800008990161099941610A9981619DF80310B6
:10469000017704B080BD000088B0079007980090B3
:1046A00000200690FFE70698062816DCFFE7009931
:1046B000069801EB80020020C2F80C01069A01EB7B
:1046C0008202C2F82801069A01EB8201C1F8440176
:1046D000FFE7069801300690E5E700200590FFE728
:1046E0000598012800F3A680FFE70098059900EBE4
:1046F0008100D0F8E000013008B9FFE796E0002023
:104700000490FFE70498012800F38F80FFE70098EA
:10471000049900EB8100D0F8E800013000287ED039
:10472000FFE7009800F1E801049A51F82220C2EB5B
:10473000C20200EB820300F1E002DDF814C052F87F
:104740002CC003EB8C03D3F87C3103330393049B1D
:1047500051F82330C3EBC30300EB8303DDF814C02F
:1047600052F82CC003EB8C03D3F84032033302938E
:10477000049B51F82310C1EBC10100EB8101059BA3
:1047800052F8232001EB8201D1F804130331019187
:10479000039900EB810393ED431A00F1D0020599D0
:1047A00002EB810191ED000A00F1D801DDF810C0A3
:1047B00001EB8C0C9CED002A20EE020A30EE010A7F
:1047C00083ED430A029B00EB830393ED4A1ADDF865
:1047D00014C002EB8C0C9CED000ADDF810C001EB5C
:1047E0008C0C9CED002A20EE020A30EE010A83EDCB
:1047F0004A0A019B00EB830090ED511A059B02EBE6
:10480000830292ED000A049A01EB820191ED002AE5
:1048100020EE020A30EE010A80ED510A00E000E0CD
:10482000FFE70498013004906CE7FFE7059801303A
:10483000059055E708B0704780B58AB009908DEDB6
:10484000080ACDED070A8DED061A9DED060A9DEDCD
:10485000071A8DED011A30EE410A10EE100AFBF72F
:1048600016FF41EC100B51EC100B9FED190B53ECA4
:10487000102BFBF7C5FD9DED011A41EC100B8DEDE2
:10488000020B9DED080A30EE410A10EE100AFBF70C
:10489000FEFE9DED020B41EC110B53EC112B51EC84
:1048A000100BFBF71FFE41EC100B51EC100B9FEDB2
:1048B0000A0B53EC102BFBF7FCFC41EC100B51ECFA
:1048C000100BFBF7F7FE05909DED050A0AB080BDC1
:1048D000000000000000184000000000000008C0B8
:1048E00080B598B014908DED130ACDED120A8DEDC0
:1048F000111ACDED101A8DED0F2ACDED0E2A8DED8A
:104900000D3ACDED0C3A8DED0B4ACDED0A4A8DED09
:10491000095ACDED085A8DED076ACDED066A149857
:1049200001909DED0D1A90ED330A30EE010A80EDF5
:10493000330A9DED130ADDED120A9DED0D1AFFF706
:104940007BFF019880ED310A9DED110ADDED100A23
:104950009DED0C1AFFF770FF019880ED320A90ED83
:10496000310AD0ED320A00F0A9F80198FFF794FE61
:10497000019800F021FA01989DED0F0ADDED0E0A75
:1049800090ED271A00F0F6F9019880ED2B0A9DEDC5
:104990000B0ADDED0A0A90ED281A00F0EBF90198F8
:1049A00080ED2C0A9DED090ADDED080A90ED291A2B
:1049B00000F0E0F9019981ED2D0A0020C1F8A40072
:1049C000C1F8A000C1F89C0091ED240A91ED2B1ACA
:1049D00030EE010A81ED240A91ED250A91ED2C1AA1
:1049E00030EE010A81ED250A91ED260A91ED2D1A8E
:1049F00030EE010A81ED260AC1F8AC00C1F8B00022
:104A0000C1F8B4000D98FBF742FE024601980092EF
:104A10000A46009942EC101B8DED040B0D9917917D
:104A20009DED170AB0EEC00A8DED0D0A079916919B
:104A30009DED160AB0EEC00A8DED070A0699159194
:104A40009DED150AB0EEC00A8DED060A9DED0D2A0A
:104A50009DED073A33EE030A32EE400A9DED061A49
:104A600030EE015A90ED241A90ED254A90ED260A79
:104A700024EE054A21EE021A31EE041A32EE432AE0
:104A800020EE020A30EE010A8DED030A0398FBF7CF
:104A9000FEFD0246019802920A46029942EC101B62
:104AA0009DED041B00F0CCF900EE100AB8EEC00A30
:104AB0008DED030A9DED030A18B080BD86B0059008
:104AC0008DED040ACDED030A059800909DED040AD2
:104AD00090ED011AB4EE410AF1EE10FA67DDFFE73E
:104AE00000989DED040A90ED071AB4EE410AF1EE2C
:104AF00010FA5CDAFFE700200290FFE700990298C5
:104B000009680239884251DAFFE700989DED040AEE
:104B1000029900EB810090ED011AB4EE410AF1EE2A
:104B200010FA3EDBFFE700989DED040A029900EBC6
:104B3000810090ED021AB4EE410AF1EE10FA30DC79
:104B4000FFE700999DED040A081D029A00EB82021E
:104B500092ED001A92ED012A30EE420A31EE421A2D
:104B600080EE010A81ED340A9DED040A029A00EB01
:104B7000820090ED002A90ED011A30EE410A31EEEC
:104B8000421A80EE010AB7EE001A30EE010A81EDFA
:104B9000350A0298C1F8E00002980130C1F8E4003B
:104BA00004E0FFE7029801300290A7E736E00098A2
:104BB0009DED040A90ED011AB4EE410AF1EE10FAEF
:104BC0000FDCFFE700994FF07E50C1F8D0000020C5
:104BD000C1F8D400C1F8E0004FF0FF30C1F8E400A4
:104BE0001BE000989DED040A90ED071AB4EE410A0F
:104BF000F1EE10FA10DBFFE700994FF07E50C1F89C
:104C0000D0000020C1F8D4000620C1F8E0004FF029
:104C1000FF30C1F8E400FFE7FFE7FFE700989DEDF4
:104C2000030A90ED081AB4EE410AF1EE10FA68DDBD
:104C3000FFE700989DED030A90ED0E1AB4EE410ACD
:104C4000F1EE10FA5DDAFFE700200190FFE700992E
:104C5000019809680239884252DAFFE700989DED11
:104C6000030A019900EB810090ED081AB4EE410AA5
:104C7000F1EE10FA3FDBFFE700989DED030A019982
:104C800000EB810090ED091AB4EE410AF1EE10FA42
:104C900031DCFFE700999DED030A01F12000019A44
:104CA00000EB820292ED001A92ED012A30EE420AE8
:104CB00031EE421A80EE010A81ED360A9DED030ABB
:104CC000019A00EB820090ED002A90ED011A30EE7F
:104CD000410A31EE421A80EE010AB7EE001A30EEB8
:104CE000010A81ED370A0198C1F8E8000198013006
:104CF000C1F8EC0004E0FFE7019801300190A6E75D
:104D000036E000989DED030A90ED081AB4EE410AD2
:104D1000F1EE10FA0FDCFFE700994FF07E50C1F87A
:104D2000D8000020C1F8DC00C1F8E8004FF0FF30E7
:104D3000C1F8EC001BE000989DED030A90ED0E1AFF
:104D4000B4EE410AF1EE10FA10DBFFE700994FF0E4
:104D50007E50C1F8D8000020C1F8DC000620C1F860
:104D6000E8004FF0FF30C1F8EC00FFE7FFE7FFE796
:104D700006B0704785B004908DED030ACDED020AB0
:104D80008DED011A9DED030A9DED021A30EE410AE8
:104D90009DED012AB0EE083A32EE032A20EE020A17
:104DA000B1EE082A80EE020A30EE010A8DED000A0B
:104DB0009DED000A05B0704783B002900298009004
:104DC00000200190FFE700990198096801398842A5
:104DD00033DAFFE70098019900EB810191ED0F0AAA
:104DE00091ED432A90ED271A20EE020A30EE010AD7
:104DF00080ED270A019900EB810191ED160A91EDF2
:104E00004A2A90ED281A20EE020A30EE010A80EDBF
:104E1000280A019900EB810191ED1D0A91ED512ABB
:104E200090ED291A20EE020A30EE010A80ED290ADF
:104E3000FFE7019801300190C5E703B0704700001B
:104E400080B58AB009908DED060B8DED041B002016
:104E500003900290049805999FED2D0B53EC102BB5
:104E6000FBF7CAFB18B9FFE70120029002E000201F
:104E70000290FFE7069807999FED250B53EC102B46
:104E8000FBF79FFB18BBFFE79DED060B51EC100BEA
:104E90009FED250B53EC102BFBF724FB41EC100B83
:104EA0008DED000B0298FBF7C2FB9DED001B41EC62
:104EB000100B51EC110B53EC102BFBF7FAF941ECF2
:104EC000100B51EC100BFBF7C3FB03901BE09DEDA7
:104ED000060B51EC100B9FED100B53EC102BFBF756
:104EE00001FB41EC100B51EC100B9FED0D0B53EC43
:104EF000102BFBF7DEF941EC100B51EC100BFBF71C
:104F0000A7FB0390FFE703980AB080BD00BF00BF76
:104F100000000000000000009A9999999999B93F02
:104F2000000000000000F0BFF6285C8FC2F5E03FF3
:104F3000B0B581B0009000980821016040F21401E2
:104F4000C2F200010A684B68D1F808C0D1F80CE041
:104F50000C694D6985614461C0F810E0C0F80CC06F
:104F6000836042608969C16140F23001C2F2000190
:104F70000A684B68D1F808C0D1F80CE00C694D699B
:104F800045630463C0F82CE0C0F828C043620262A5
:104F90008969816340F24C01C2F200010A684B68E2
:104FA000D1F808C0D1F80CE00C694D690565C464FE
:104FB000C0F848E0C0F844C00364C2638969416531
:104FC00040F26801C2F200010A684B68D1F808C0DB
:104FD000D1F80CE00C694D69C5668466C0F864E0E0
:104FE000C0F860C0C36582658969016740F28401C9
:104FF000C2F200010A684B68D1F808C0D1F80CE091
:105000000C694D69C0F88850C0F88440C0F880E051
:10501000C0F87CC0836742678969C0F88C1040F291
:10502000D001C2F200010A684B68D1F808C0D1F87B
:105030000CE00C694D69C0F80451C0F80041C0F89B
:10504000FCE0C0F8F8C0C0F8F430C0F8F02089697E
:10505000C0F8081140F2EC01C2F200010A684B6886
:10506000D1F808C0D1F80CE00C694D69C0F82051A6
:10507000C0F81C41C0F818E1C0F814C1C0F81031E4
:10508000C0F80C218969C0F8241140F20811C2F25D
:1050900000010A684B68D1F808C0D1F80CE00C692F
:1050A0004D69C0F83C51C0F83841C0F834E1C0F84F
:1050B00030C1C0F82C31C0F828218969C0F84011EE
:1050C00040F22411C2F200010A684B68D1F808C00E
:1050D000D1F80CE00C694D69C0F85851C0F8544142
:1050E000C0F850E1C0F84CC1C0F84831C0F84421C4
:1050F0008969C0F85C116FF00201C0F860116FF0AF
:105100000101C0F864114FF0FF31C0F868110021AF
:10511000C0F86C110122C0F870210222C0F874217D
:105120000322C0F87821D0F87821C0F87C21D0F88B
:105130007821C0F88021D0F87821C0F88421D0F8F7
:105140007821C0F88821D0F87421C0F88C21D0F8DB
:105150006C21C0F89021D0F86C21C0F89421D0F8CF
:105160007821C0F89821D0F87821C0F89C21D0F897
:105170007821C0F8A021D0F87421C0F8A421D0F87B
:105180007421C0F8A821D0F86C21C0F8AC21D0F867
:105190006C21C0F8B021D0F87821C0F8B421D0F843
:1051A0007421C0F8B821D0F87421C0F8BC21D0F81F
:1051B0007021C0F8C021D0F86C21C0F8C421D0F80B
:1051C0006821C0F8C821D0F86421C0F8CC21D0F8FB
:1051D0007421C0F8D021D0F87421C0F8D421D0F8BF
:1051E0007021C0F8D821D0F86C21C0F8DC21D0F8AB
:1051F0006821C0F8E021D0F86421C0F8E421D0F89B
:105200006421C0F8E821D0F87021C0F8EC21D0F872
:105210007021C0F8F021D0F86C21C0F8F421D0F84A
:105220006421C0F8F821D0F86421C0F8FC21D0F83E
:105230006421C0F80022D0F86021C0F80422D0F820
:105240006C21C0F80822D0F86C21C0F80C22D0F8EC
:105250006C21C0F81022D0F86421C0F81422D0F8D4
:105260006021C0F81822D0F86021C0F81C22D0F8C4
:105270006021C0F82022D0F86C21C0F82422D0F898
:105280006821C0F82822D0F86021C0F82C22D0F87C
:105290006021C0F83022D0F86021C0F83422D0F864
:1052A0006021C0F83822D0F86021C0F83C22D0F844
:1052B0007821C0F84022D0F87821C0F84422D0F8F4
:1052C0007821C0F84822D0F87821C0F84C22D0F8D4
:1052D0007421C0F85022D0F86C21C0F85422D0F8C4
:1052E0006C21C0F85822D0F87821C0F85C22D0F8A0
:1052F0007821C0F86022D0F87821C0F86422D0F874
:105300007421C0F86822D0F87421C0F86C22D0F85B
:105310006C21C0F87022D0F86C21C0F87422D0F84B
:105320007821C0F87822D0F87421C0F87C22D0F817
:105330007421C0F88022D0F87021C0F88422D0F8FF
:105340006C21C0F88822D0F86821C0F88C22D0F8EF
:105350006421C0F89022D0F87421C0F89422D0F8CB
:105360007421C0F89822D0F87021C0F89C22D0F89F
:105370006C21C0F8A022D0F86821C0F8A422D0F88F
:105380006421C0F8A822D0F86421C0F8AC22D0F87B
:105390007021C0F8B022D0F87021C0F8B422D0F843
:1053A0006C21C0F8B822D0F86421C0F8BC22D0F833
:1053B0006421C0F8C022D0F86421C0F8C422D0F81B
:1053C0006021C0F8C822D0F86C21C0F8CC22D0F8F7
:1053D0006C21C0F8D022D0F86C21C0F8D422D0F8CB
:1053E0006421C0F8D822D0F86021C0F8DC22D0F8BF
:1053F0006021C0F8E022D0F86021C0F8E422D0F8A3
:105400006C21C0F8E822D0F86821C0F8EC22D0F86E
:105410006021C0F8F022D0F86021C0F8F422D0F862
:105420006021C0F8F822D0F86021C0F8FC22D0F842
:105430006021C0F80023D0F87821C0F80423D0F808
:105440007821C0F80823D0F87821C0F80C23D0F8D0
:105450007821C0F81023D0F87421C0F81423D0F8B4
:105460006C21C0F81823D0F86C21C0F81C23D0F8A8
:105470007821C0F82023D0F87821C0F82423D0F870
:105480007821C0F82823D0F87421C0F82C23D0F854
:105490007421C0F83023D0F86C21C0F83423D0F840
:1054A0006C21C0F83823D0F87821C0F83C23D0F81C
:1054B0007421C0F84023D0F87421C0F84423D0F8F8
:1054C0007021C0F84823D0F86C21C0F84C23D0F8E4
:1054D0006821C0F85023D0F86421C0F85423D0F8D4
:1054E0007421C0F85823D0F87421C0F85C23D0F898
:1054F0007021C0F86023D0F86C21C0F86423D0F884
:105500006821C0F86823D0F86421C0F86C23D0F873
:105510006421C0F87023D0F87021C0F87423D0F84B
:105520007021C0F87823D0F86C21C0F87C23D0F823
:105530006421C0F88023D0F86421C0F88423D0F817
:105540006421C0F88823D0F86021C0F88C23D0F8FB
:105550006C21C0F89023D0F86C21C0F89423D0F8C7
:105560006C21C0F89823D0F86421C0F89C23D0F8AF
:105570006021C0F8A023D0F86021C0F8A423D0F89F
:105580006021C0F8A823D0F86C21C0F8AC23D0F873
:105590006821C0F8B023D0F86021C0F8B423D0F857
:1055A0006021C0F8B823D0F86021C0F8BC23D0F83F
:1055B0006021C0F8C023D0F86021C0F8C423C0F82F
:1055C0009010C0F89410C0F89810C0F8B810C0F847
:1055D0009C10C0F8A010C0F8A410C0F8A810C0F823
:1055E000CC1001B0B0BD000081B00090009801B0B7
:1055F0007047000081B08DF803009DF9030000287A
:105600000ED4FFE79DF9031001F01F020120904026
:105610004A094EF20011CEF2000141F82200FFE7E4
:1056200001B070474EF60C50CEF200000068C0F397
:105630000220704782B08DF8070000919DF90700A5
:1056400000280AD4FFE7009800019DF907104EF2E8
:105650000042CEF2000288540BE0009800019DF851
:10566000071001F00F014EF61452CEF200028854DA
:10567000FFE702B07047000083B00290029800F08C
:10568000070000904EF60C51CEF200010868019020
:1056900001984FF6FF02104001900198009A40EAED
:1056A00002200022C0F2FA521043019001980860D3
:1056B00003B0704780B503200421002202F0C8FA2D
:1056C00040F24011C2F20001086080BD80B586B092
:1056D00068460122426142F210710161C1600023FB
:1056E000836040F6B8314160036040F2F070C2F26E
:1056F00000001146FEF7A0FF06B080BD80B586B061
:1057000068460122426142F210710161C1600023CA
:10571000836040F6B8314160036040F65000C2F249
:1057200000000321FEF788FF06B080BD80B503208E
:105730000421002202F08CFA40F28061C2F20001E2
:10574000086080BD80B586B068460122426142F2A1
:1057500010710161C1600023836040F6B83141607F
:10576000036040F61000C2F200000221FEF764FF61
:1057700006B080BD80B502F01FF840F24811C2F2B9
:105780000001086080BD000080B586B06846012237
:10579000426142F210710161C1600023836040F6F2
:1057A000B8314160036040F2D070C2F200000321C2
:1057B000FEF742FF06B080BD80B586B06846012284
:1057C000426142F210710161C1600023836040F6C2
:1057D000B8314160036040F63000C2F2000004219D
:1057E000FEF72AFF06B080BD80B582B040F24C10B3
:1057F000C2F200000190FFF79BFB019945F2E950CE
:10580000C0F6000040F20002C0F60002FAF74CFDBC
:1058100002B080BD80B582B08DF807000420FCF78F
:10582000E7FE9DF8070040F2A471C2F20001086093
:105830009DF80700009000984FF47A71484300905B
:1058400040F2A271C2F20001012008804EF2100164
:10585000CEF20001086840F00200086000984EF2A5
:105860001402CEF200021060086840F001000860E7
:1058700002B080BD80B582B0ADF8060002F078FDC0
:10588000012824D0FFE7BDF8060040F2A271C2F261
:105890000001098888420CDBFFE7BDF8060040F2F2
:1058A000A271C2F200010988B0FBF1F001F008FC1E
:1058B000FFE740F2A270C2F200000188BDF80620A6
:1058C000B2FBF1F000FB1120ADF80600FFE7BDF8D8
:1058D00006004FF47A71484300F002F802B080BD30
:1058E00086B00590002001904EF21400CEF2000028
:1058F00000680090059840F2A471C2F200010968A6
:10590000484304904EF21800CEF200000068039065
:10591000FFE74EF21800CEF20000006802900298F5
:10592000039988421ED0FFE702980399884207D264
:10593000FFE703980299411A01980844019008E092
:1059400000980299401A0399014401980844019073
:10595000FFE70298039001980499884201D3FFE77A
:1059600001E0FFE7D5E706B07047000082B0019084
:105970000091FFE741F20000C4F201000068400618
:10598000002801D4FFE7F5E79DF8040041F2040187
:10599000C4F201010860019802B0704780B584B07C
:1059A000FCF7C4F84FF4A870082102220723FDF782
:1059B0007DFBA820FFF72EFF4FF4E1310846FDF7ED
:1059C00069FBFBF759F840F23050C2F2000069461B
:1059D00048600120086044F24510C0F600004AF219
:1059E000F651C0F6000180220023039302F070FC00
:1059F00001F0C2FD039804B080BD000080B588B0FE
:105A0000ADF81E008DF81D1006920593BDF81E100E
:105A100040F23450C2F20000029000F083F8029885
:105A20004AF20271C0F60001039100F097F8029863
:105A30009DF81D1000F038F80298039900F08EF8D8
:105A400000200490FFE70498069988421AD2FFE7E5
:105A500005980499415C40F23450C2F20000019074
:105A60004AF2DA62C0F6000200F042F801984AF207
:105A70000271C0F6000100F071F8FFE704980130F0
:105A80000490E0E740F23450C2F200004AF2FB41D9
:105A9000C0F6000100F062F840F27C61C2F2000141
:105AA0000020088008B080BD80B58CB00B900A91B2
:105AB0000A9A4AF2D361C0F600010DF10F0001907D
:105AC00003F066F801980B990291FAF7D6FB019959
:105AD0000246029892B26423FDF78EF80B984AF2C0
