:020000040800F2
:10000000603C0120A5010008F52E0008312E0008F3
:100010009D2E0008750A0008E93B0008000000005A
:100020000000000000000000000000007131000826
:10003000290D000800000000A12F00080933000866
:10004000BF010008BF010008BF010008BF01000890
:10005000BF010008BF010008BF010008BF01000880
:10006000BF010008BF010008BF010008BF01000870
:10007000BF010008BF010008BF010008BF01000860
:10008000BF010008BF010008BF010008BF01000850
:10009000BF010008BF010008BF010008BF01000840
:1000A000BF010008BF010008BF010008BF01000830
:1000B000BF010008BF010008BF010008BF01000820
:1000C000BF010008BF010008BF010008BF01000810
:1000D000BF010008E13A00085D3B0008BF010008CD
:1000E000BF010008BF010008BF010008BF010008F0
:1000F000BF010008BF010008BF010008BF010008E0
:10010000BF010008BF010008BF010008BF010008CF
:10011000BF010008BF010008BF010008BF010008BF
:10012000BF010008BF010008BF010008BF010008AF
:10013000BF010008BF010008BF010008BF0100089F
:10014000BF010008BF010008BF010008BF0100088F
:10015000BF010008BF010008BF010008BF0100087F
:10016000BF010008BF010008BF010008BF0100086F
:10017000BF010008BF010008BF0100080000000027
:10018000BF010008BF010008DFF814D000F0E8FB51
:1001900000F07AF800480047015C000800F0F6FB28
:1001A000603C01200648804706480047FEE7FEE71E
:1001B000FEE7FEE7FEE7FEE7FEE7FEE7FEE7FEE717
:1001C0001D330008890100082DE9F05F0546002075
:1001D00092469B4688460646814640241BE02846B8
:1001E00041464746224600F0A6FA53465A46C01AF0
:1001F000914110D311461846224600F08DFA2D1A6F
:1002000067EB01084F4622460120002100F084FAE6
:1002100017EB00094E41201EA4F10104DFDC484623
:1002200031462A464346BDE8F09F002800DA4042A6
:10023000704740EA01039B0703D009E008C9121F79
:1002400008C0042AFAD203E011F8013B00F8013B90
:10025000521EF9D27047D2B201E000F8012B491EBC
:10026000FBD270470022F6E710B513460A46044653
:100270001946FFF7F0FF204610BD421C10F8011B85
:100280000029FBD1801A704770B5054C054D04E07C
:100290002046016808448047241DAC42F8D170BD57
:1002A00010AC00081CAC00080B460146184600F0D4
:1002B00064BA2DE9FE4F804681EA0300C00F0C4668
:1002C000009021F0004123F00045B8EB0200A94165
:1002D00005D24046214690461C460B46024623F076
:1002E0000040104347D0270DC7F30A00C3F30A515B
:1002F0000290401A019040286BDAC3F3130040F4D7
:10030000801B0098924620B10023D2EB030A63EBD6
:100310000B0B01985946C0F14002504600F0FCF921
:1003200006460D4650465946019A00F014FA10EB65
:1003300008006141002487EA115284EAE7731A43F6
:1003400040D0009A62B3019A012A4FEA075215DCA5
:10035000001B61EB02014FF0004202EA0752CDE9B7
:100360000042001C41F5801132462B4600F062FA33
:1003700003B0BDE8F08F40462146F9E7001B61EB72
:100380000201001C41F5801300185B412018A2F502
:10039000001747EB030140EAD570B6196D4111E033
:1003A0006D084FEA360645EAC0754FEA0752001B52
:1003B00061EB0201001C41F5801149084FEA300051
:1003C0000019514132462B4603B0BDE8F04F00F012
:1003D00022BA0098012240000023D0EB020263EB16
:1003E000E073009821464FEAE074B8EB000061EB3F
:1003F0000401E9E783F000435BE781F0004158E73F
:100400002DE9FE4F81EA030404F0004421F000418D
:1004100000944FF0000B23F0004350EA01045ED03B
:1004200052EA03045BD0C3F30A54C1F30A552C44C7
:10043000A4F2F3340194A0FB0254C1F3130141F47C
:100440008011C3F3130343F4801301FB024400FB48
:10045000034E840A970A44EA815447EA8357A4FB6F
:10046000076802958D0A05FB07854FEA932C04FB6C
:100470000C542705029D4FEA065847EA1637B5EB9C
:1004800008056EEB070C870E920E47EA811742EAC9
:100490008312A7FB0201B6EB0B0164EB00042B0DEA
:1004A00043EA0C335E1844EB1C50DA465146E7FB36
:1004B0000201C5F313044FEA0B3343EA14534FEA26
:1004C0000432019C43EA0603A4F10C040294009C4C
:1004D000CDE900B400F0AEF903B0BDE8F08F002024
:1004E0000146F9E72DE9F04D81EA030404F0004BE1
:1004F00021F0004514464FF0000A23F0004150EA75
:10050000050220D054EA01021DD0C5F30A57024665
:10051000C5F31303C1F31300C1F30A5640F4801569
:1005200043F48013A7EB0608101BD64608F2FD38EB
:1005300073EB050002D308F1010801E092185B415A
:10054000B8F1000F03DA00200146BDE8F08D00206D
:100550004FF48011064684460EE0171B73EB050727
:1005600005D3121B63EB050306434CEA010C490853
:100570004FEA300092185B4150EA0107EDD152EA90
:10058000030012D082EA040083EA0501084305D083
:10059000101BAB4106D20122002306E000224FF0DF
:1005A000004302E06FF0010253101AEB06004CEB1F
:1005B000085110EB0A0041EB0B01BDE8F04D00F0D3
:1005C0002AB930B5041E71F1000404DB4FF0004479
:1005D000404264EB0101141E73F1000405DB1C466C
:1005E0004FF00043524263EB0403801A994101D358
:1005F000012030BD002030BD30B5041E71F1000473
:1006000004DB4FF00044404264EB0101141E73F11F
:10061000000405DB1C464FF00043524263EB040329
:10062000101A8B4101D3012030BD002030BD0EB522
:10063000C10F80EAE0700844CA07002140F233434A
:100640008DE80E000A460B4600F0F4F803B000BD3A
:1006500070B5C1F30A5201F000450024C1F3130143
:1006600040F2FF3341F480119A4201DA002070BD5C
:1006700040F233439A42A2F2334203DC524200F08A
:100680005AF800E090402C43F1D0404270BD00F099
:10069000004230F000400AD0C10D01F56071C0F396
:1006A000160042EA0151C20840071143704700207A
:1006B0000146704701F0004330B421F0004150EA98
:1006C000010206D00A0DA2F56072C1F31301002ADF
:1006D00002DC30BC00207047440F44EAC104C10072
:1006E000E01830BC00EBC25000F05EB830B50B46ED
:1006F000014600202022012409E021FA02F59D4252
:1007000005D303FA02F5491B04FA02F52844151E25
:10071000A2F10102F1DC30BD202A04DB203A00FA0C
:1007200002F1002070479140C2F1200320FA03F348
:10073000194390407047202A04DB203A21FA02F046
:100740000021704721FA02F3D040C2F1200291400B
:10075000084319467047202A06DBCB17203A41FA96
:1007600002F043EAE07306E041FA02F3D040C2F13E
:10077000200291400843194670472DE9F041074691
:1007800015460E4610200AF027F804000AD06760CC
:10079000C4E9026500F0F6F80168216004600020F9
:1007A000BDE8F0810120FBE70029A8BF7047401C8D
:1007B000490008BF20F00100704710B4B0FA80FC77
:1007C00000FA0CF050EA010404BF10BC704749B1B4
:1007D000CCF1200421FA04F411FA0CF118BF012124
:1007E00021430843A3EB0C01CB1D4FEA00614FEA04
:1007F000102042BF002010BC704700EBC3501044D3
:100800000029A4BF10BC7047401C490008BF20F05D
:10081000010010BC704710B5141E73F1000408DA13
:10082000401C41F1000192185B411A4301D120F0B4
:10083000010010BD2DE9F04D92469B4611B1B1FA71
:1008400081F202E0B0FA80F220329046FFF764FFB6
:1008500004460F4640EA0A0041EA0B0153465A4655
:10086000084313D0114653EA010019D0C8F14002E1
:100870005046FFF760FF05460E4650465946424631
:10088000FFF74AFF084305D0012004E0204639461F
:10089000BDE8F08D0020054346EAE0762C4337435F
:1008A0000A986305E40AA0EB08000022FD0A44EA66
:1008B00047540A3002D500200146E9E70105101926
:1008C0006941DDE9084500196941BDE8F04DA2E73D
:1008D00070B521F0004303430CD0C1F30A55002446
:1008E000D5EB040564EB0403D617AD1AB34102DB64
:1008F0000020014670BD201841EB025170BDC1F3CC
:100900000A52C1F3130140F2FF3341F480119A42BD
:1009100002DA00200146704740F233439A42A2F2C5
:10092000334202DC5242FFF706BFFFF7F5BE00007C
:1009300030B5041E71F1000404DB4FF00044404266
:1009400064EB0101141E73F1000405DB1C464FF03B
:100950000043524263EB0403994208BF904230BD0A
:10096000064C074D06E0E06840F0010394E80700FC
:1009700098471034AC42F6D3FFF70AFCF0AB0008FE
:1009800010AC000800487047080000202DE9F04135
:100990000646FFF7F7FF8046454613E016B1E068CC
:1009A000B0420ED120682860D4E90101D8F8007067
:1009B0008847204609F0E8FED8F80000B842EBD19D
:1009C00000E025462C68002CE8D1BDE8F0812DE937
:1009D000F04D00231A461B1A8A4103DB0020014612
:1009E000BDE8F08DC1F30A52C1F3130141F4801543
:1009F0004FF0000BD10702D100186D41521E0027A5
:100A0000044640F2FF11384601EB620A3E4680463A
:100A1000024600204FF48011FFF78DFEC21971418C
:100A2000BB1846EB0100B4EB030C75EB000C04D3D0
:100A3000E41A65EB000517460E46241908F101007B
:100A40006D4180463428E3DDF91946EB0600091BA9
:100A5000A84103D24FF0FF32134601E000221346B3
:100A60001BEB070046EB0A51BDE8F04DFFF7D3BE84
:100A700070470000FFE7FEE780B502F0DBF900F009
:100A800029F840F2D470C2F2000000F065FE58B1BF
:100A9000FFE740F26050C2F200004AF6F821C0F6CB
:100AA000000105F0CBF9FFE740F2D470C2F200007C
:100AB000022100F06DFA58B1FFE740F26050C2F237
:100AC00000004AF6D421C0F6000105F0B7F9FFE7AF
:100AD00080BD000080B58AB00021059106910120FB
:100AE00007900091019102910391049108900E20CA
:100AF000099040F2D470C2F20000694600F02AFB6F
:100B000058B1FFE740F26050C2F200004AF6AC2153
:100B1000C0F6000105F092F9FFE70AB080BD0000C1
:100B200080B584B002900298031D40F2D470C2F2E6
:100B3000000040F24052C2F20002002100F0DCFB53
:100B400020B1FFE700208DF80F0030E040F2405068
:100B5000C2F200000169029AD170C068022804D173
:100B6000FFE702990120887003E002990020887055
:100B7000FFE740F24050C2F2000001900068029985
:100B8000088040F26050C2F200004AF63B31C0F6E5
:100B9000000105F053F9029B18889978DA7804333C
:100BA00005F05EF8019800698DF80F00FFE79DF8E9
:100BB0000F0004B080BD000080B58AB0089000200E
:100BC0000090079006900590049003900290019089
:100BD00008990988029104900898807818B1FFE775
:100BE0000220059002E000200590FFE70898C078F9
:100BF000069000208DF81C000898021D40F2D47069
:100C0000C2F2000002A901AB00F0ECF920B1FFE74D
:100C100000208DF8270015E040F26050C2F200007D
:100C20004AF61C31C0F6000105F008F9BDF80800CD
:100C3000089B9978069A043305F012F801208DF884
:100C40002700FFE79DF827000AB080BD82B08DF82D
:100C500007009DF8071040F2CA73C2F200031A7829
:100C6000501C187040F2D060C2F20000815400782D
:100C7000552807D0FFE740F2CA71C2F200010020F8
:100C800008704EE040F2CA70C2F2000000780A28F4
:100C900001DCFFE745E040F2D060C2F2000040789E
:100CA00001460091512808D0FFE70098522813D040
:100CB000FFE7009853281ED02CE040F2D061C2F22A
:100CC0000001D1F80200D1F8062040F61C11C2F252
:100CD00000014A6008601DE040F2D061C2F20001EC
:100CE000D1F80200D1F8062040F62C11C2F2000122
:100CF0004A6008600EE040F2D061C2F20001D1F813
:100D00000200D1F8062040F62411C2F200014A6028
:100D10000860FFE740F2CA71C2F2000100200870CB
:100D2000FFE702B0704700007047000080B598B040
:100D30001390129102200F9000208DF83B008DF847
:100D40003A0040F2A860C2F2000000886FF39F30C2
:100D5000ADF84600BDF8460001381090FFE7109846
:100D6000002800F1DF80FFE7109940F2E050C2F266
:100D70000000405C202800F0C380FFE7109940F29B
:100D8000E050C2F20000405C2D2861D0FFE71099CE
:100D900040F2E050C2F20000405C2E2858D0FFE73D
:100DA000BDF846001099401A9DF83B10411A9DF875
:100DB0003A00C04308440A21179116901798FFF78C
:100DC00036FC41EC100B8DED040B1698FFF72FFC51
:100DD0009DED040B41EC110B08F056F98DED060B5F
:100DE000109940F2E050C2F20000405C3038FFF74A
:100DF0001EFC41EC100B8DED080B12980D900F9915
:100E00000C9150F82100FFF742FC9DED061B9DED73
:100E1000080B41EC120B8DED0A2B51EC110B53EC2E
:100E2000102BFFF7EDFA9DED0A0B41EC110B51EC85
:100E3000110B53EC102BFFF73CFA41EC100B51EC6B
:100E4000100BFFF737FC0C9A0D9941F8220056E081
:100E5000109940F2E050C2F20000405C2D280BD106
:100E6000FFE712980F9900EB810090ED000AB1EEB8
:100E7000400A80ED000A41E0BDF846001099411A91
:100E80009DF83B00C04308448DF83A0012980F9932
:100E900050F82100FFF7FBFB41EC100B8DED020B2E
:100EA0009DF83A0040420A21159114901598FFF7D9
:100EB000BEFB41EC100B8DED000B1498FFF7B7FB58
:100EC0009DED000B41EC110B08F0DEF89DED021BCF
:100ED00051EC110B53EC102BFFF792FA41EC100B75
:100EE00051EC100BFFF7E6FB12990F9A41F8220024
:100EF0009DF83A0001308DF83A00FFE7FFE70CE07B
:100F00000F9801380F90BDF846001099401A8DF8DF
:100F10003B0000208DF83A00FFE7FFE7109801380A
:100F200010901CE713984AF66231C0F6000104F0F5
:100F300071FF00201090FFE7109802280EDCFFE7F9
:100F400013981299109A01EB820191ED000A04F0B6
:100F500037FFFFE7109801301090EDE7FFE7139897
:100F60000068006800F040010120B0EB911F01D043
:100F7000FFE7F4E74AF65D30C0F6000008F046F8F7
:100F800040F2A861C2F200010020088018B080BDC4
:100F900084B002900191029890F820008DF803002F
:100FA0009DF80300012805D0FFE79DF80300022803
:100FB0000AD1FFE7019A0298016848691043486125
:100FC00000208DF80F0008E00299486A40F4802064
:100FD000486201208DF80F00FFE79DF80F0004B074
:100FE0007047000088B0069005910492039306981C
:100FF00090F820008DF8070006980068806800903F
:101000000598806808B9FFE700E0FFE79DF8070052
:10101000012806D0FFE79DF80700022840F08D80E8
:10102000FFE79DF80300400700280CD4FFE79DF878
:1010300003000007002806D4FFE79DF80300C00660
:10104000002871D5FFE70098C0F301600290029874
:10105000032809D3FFE70699486A40F40000486274
:1010600001208DF81F0071E002990120884003994A
:1010700008600598806868B9FFE705980168C0684E
:1010800040EA415006990968029A01EB0211C1F841
:1010900080010EE005994A688868C96840EAC20084
:1010A000084306990968029A01EB0211C1F8800110
:1010B000FFE70598006906990968029A01EB021199
:1010C000C1F884010598007D01280CD1FFE706983E
:1010D0000068029900EB0111D1F8840140F480709E
:1010E000C1F88401FFE70498406806990968029AEC
:1010F00001EB0211C1F88C01049800680699096897
:10110000029A01EB0211C1F8880106980068029961
:1011100000EB0111D1F8800140F00100C1F880011D
:1011200000208DF81F0011E00699486A40F4001075
:10113000486201208DF81F0008E00699486A40F4D3
:101140008020486201208DF81F00FFE79DF81F00F6
:1011500008B0704786B0049003910498006801902D
:10116000049890F820008DF803009DF803000128F2
:1011700006D0FFE79DF80300022840F0B080FFE7AB
:1011800046F20040C4F2000001900199D1F800023B
:1011900040F00100C1F800020199D1F8000220F4EA
:1011A0007C50C1F800020398426A0199D1F800020C
:1011B00040EA0220C1F800020398406900F01F01D4
:1011C000012088400290029A0199D1F81C029043B4
:1011D000C1F81C020398C069F0B9FFE7029A0199AF
:1011E000D1F80C029043C1F80C02039A9088D168A0
:1011F000526940EA0140019901EBC201C1F8400285
:10120000039A10889168526940EA0140019901EB04
:10121000C201C1F84402FFE70398C06901281ED14A
:10122000FFE7029A0199D1F80C021043C1F80C02B1
:10123000039A90881168526940EA0140019901EBD4
:10124000C201C1F84002039A90899168526940EA4C
:101250000140019901EBC201C1F84402FFE7039884
:10126000806940B9FFE7029A0199D1F804029043DE
:10127000C1F8040207E0029A0199D1F80402104370
:10128000C1F80402FFE70398006940B9FFE7029A3A
:101290000199D1F814029043C1F8140207E0029AB0
:1012A0000199D1F814021043C1F81402FFE7039822
:1012B000006A012808D1FFE7029A0199D1F81C02BF
:1012C0001043C1F81C02FFE70199D1F8000220F099
:1012D0000100C1F8000200208DF8170008E0049911
:1012E000486A40F48020486201208DF81700FFE72B
:1012F0009DF8170006B0704786B0049003910292E3
:101300000193049890F820008DF803009DF80300E5
:10131000012806D0FFE79DF80300022840F0D7809F
:10132000FFE7039880B9FFE704980068C06880076A
:1013300048B9FFE70499486A40F400104862012068
:101340008DF81700CCE00FE0049800680069800772
:1013500048B9FFE70499486A40F400104862012048
:101360008DF81700BCE0FFE704980068039900EBD4
:101370000110D0F8B00100F00400029988600298D2
:10138000806858B9FFE704980068039900EB0110E2
:10139000D0F8B001400D029908600AE00498006896
:1013A000039900EB0110D0F8B001C0080299486021
:1013B000FFE704980068039900EB0110D0F8B00132
:1013C000C0F340000299C86004980068039900EBDC
:1013D0000110D0F8B40100F00F00029908610498E0
:1013E0000068039900EB0110D0F8B40180B2000A44
:1013F0000299886104980068039900EB0110D0F805
:10140000B401000C0299486104980068039900EB4C
:101410000110D0F8B8010199087004980068039988
:1014200000EB0110D0F8B801000A01994870049847
:101430000068039900EB0110D0F8B801000C019985
:10144000887004980068039900EB0110D0F8B80187
:10145000000E0199C87004980068039900EB011010
:10146000D0F8BC010199087104980068039900EB59
:101470000110D0F8BC01000A019948710498006875
:10148000039900EB0110D0F8BC01000C01998871A0
:1014900004980068039900EB0110D0F8BC01000E1D
:1014A0000199C871039838B9FFE704980168C868C2
:1014B00040F02000C86006E004980168086940F028
:1014C00020000861FFE700208DF8170008E004996C
:1014D000486A40F48020486201208DF81700FFE739
:1014E0009DF8170006B0704780B584B0029002984E
:1014F00020B9FFE701208DF80F00E0E0029890F896
:10150000200020B9FFE7029800F0DEF8FFE702981C
:101510000168086820F00200086000F069FB019093
:10152000FFE70298006840688007002815D5FFE7AC
:1015300000F05EFB0199401A0B280DD3FFE70299DA
:10154000486A40F4003048620299052081F8200082
:1015500001208DF80F00B2E0E3E702980168086807
:1015600040F00100086000F043FB0190FFE70298A3
:1015700000684068C007A8B9FFE700F039FB01998F
:10158000401A0B280DD3FFE70299486A40F4003057
:1015900048620299052081F8200001208DF80F0093
:1015A0008DE0E4E70298007E012807D1FFE702986A
:1015B0000168086840F08000086006E00298016851
:1015C000086820F080000860FFE70298407E01284C
:1015D00007D1FFE702980168086840F04000086002
:1015E00006E002980168086820F040000860FFE704
:1015F0000298807E012807D1FFE7029801680868F9
:1016000040F02000086006E002980168086820F0B9
:1016100020000860FFE70298C07E012807D1FFE79D
:1016200002980168086820F01000086006E002983F
:101630000168086840F010000860FFE70298007F2A
:10164000012807D1FFE702980168086840F0080008
:10165000086006E002980168086820F00800086049
:10166000FFE70298407F012807D1FFE70298016851
:10167000086840F00400086006E002980168086805
:1016800020F004000860FFE7029B19685A68986818
:10169000D3F80CC040EA0C00D3F810C040EA0C00AC
:1016A0005B691843013A1043C861029900204862FF
:1016B000029A012182F820108DF80F00FFE79DF8B3
:1016C0000F0004B080BD000080B588B007900020F6
:1016D000069005900490039002900798006846F2E7
:1016E0000041C4F20001884233D1FFE7FFE7002048
:1016F000019043F64000C4F20200016841F000711D
:101700000160006800F0007001900198FFE7FFE7BA
:101710000020009043F63000C4F20200016841F05E
:1017200001010160006800F0010000900098FFE7EF
:101730004FF4C050029002200390012104910590C3
:10174000092006900020C4F2020002A900F06CF803
:10175000FFE708B080BD000080B584B00290029819
:1017600090F8200001282FD1FFE70299022081F88C
:10177000200002980168086820F00100086000F06D
:1017800037FA0190FFE7029800684068C007A8B1E7
:10179000FFE700F02DFA0199401A0B280DD3FFE75F
:1017A0000299486A40F4003048620299052081F8A5
:1017B000200001208DF80F000FE0E4E702990020DF
:1017C00048628DF80F0008E00299486A40F4002052
:1017D000486201208DF80F00FFE79DF80F0004B06C
:1017E00080BD000082B00090009890F8350002287B
:1017F00007D0FFE700998020486501208DF8070099
:101800000EE00099052081F835000098016808680D
:1018100020F001000860FFE700208DF80700FFE7D7
:101820009DF8070002B070478EB00D900C9100201B
:101830000A90099008900B90FFE70B980F2800F290
:10184000CD81FFE70B99012088400A900C98006831
:101850000A990840099009980A99884240F0B9818C
:10186000FFE70C984068022805D0FFE70C98406815
:10187000122826D1FFE70D980B996FF0030202EAB8
:1018800051010844006A08900B9800F0070081009D
:101890000F2000FA01F10898884308900C9800691D
:1018A0000B9901F00701890000FA01F1089808433B
:1018B000089008980D990B9B02EA530211440862A4
:1018C000FFE70D98006808900B984100032000FA8C
:1018D00001F10898884308900C98406800F00300D4
:1018E0000B99490000FA01F10898084308900898FC
:1018F0000D9908600C98406801280FD0FFE70C98FC
:10190000406802280AD0FFE70C984068112805D0EB
:10191000FFE70C98406812282FD1FFE70D988068E8
:1019200008900B984100032000FA01F108988843C1
:1019300008900C98C0680B99490000FA01F10898CA
:101940000843089008980D9988600D9840680890A1
:101950000B99012000FA01F10898884308900C982F
:101960004068C0F300100B9900FA01F10898084391
:10197000089008980D994860FFE70D98C068089096
:101980000B984100032000FA01F108988843089061
:101990000C9880680B99490000FA01F108980843F7
:1019A000089008980D99C8600C98C079C006002866
:1019B00040F10E81FFE7FFE70020079043F6440067
:1019C000C4F20200016841F480410160006800F443
:1019D000804007900798FFE70B9820F0030043F63C
:1019E0000801C4F20101405808900B9800F0030070
:1019F00081000F2000FA01F10898884308900D98A3
:101A00000021C4F20201884203D1FFE700200690C2
:101A10005EE00D9840F20041C4F20201884203D119
:101A2000FFE70120059050E00D9840F60001C4F258
:101A30000201884203D1FFE70220049042E00D98A2
:101A400040F60041C4F20201884203D1FFE70320BF
:101A5000039034E00D9841F20001C4F20201884283
:101A600003D1FFE70420029026E00D9841F20041E7
:101A7000C4F20201884203D1FFE70520019018E07B
:101A80000D9841F60001C4F20201884203D1FFE73C
:101A9000062000900AE00D9941F60042C4F20202CD
:101AA0000820914208BF07200090FFE700980190AE
:101AB000FFE701980290FFE702980390FFE7039881
:101AC0000490FFE704980590FFE705980690FFE76C
:101AD0000698C0B20B9901F00301890000FA01F1E8
:101AE00008980843089008980B9921F0030143F6E1
:101AF0000802C4F20102885043F60040C4F201001B
:101B00000068089009990898884308900C98807993
:101B1000C00728B1FFE70999089808430890FFE734
:101B2000089843F60041C4F20101086043F60440FE
:101B3000C4F2010000680890099908988843089049
:101B40000C9880798007002805D5FFE70999089847
:101B500008430890FFE7089843F60441C4F20101E6
:101B6000086043F60840C4F2010000680890099933
:101B70000898884308900C988079C006002805D5FD
:101B8000FFE70999089808430890FFE7089843F68B
:101B90000841C4F20101086043F60C40C4F20100A0
:101BA0000068089009990898884308900C988079F3
:101BB0008006002805D5FFE7099908980843089092
:101BC000FFE7089843F60C41C4F201010860FFE703
:101BD000FFE7FFE70B9801300B902EE60EB0704741
:101BE00042F20000CEF204000068000C70470000D2
:101BF00043F23C50C2F201000068704780B543F6E2
:101C00000041C4F20201086840F4007008600868EE
:101C100040F480600860052000F066F80F2000F0B6
:101C200005F800F03BF8002080BD000080B582B0D0
:101C3000009040F2A800C2F20000006840F2C0012B
:101C4000C2F200010A784FF47A71B1FBF2F1B0FBF5
:101C5000F1F000F04FFD20B1FFE701208DF8070003
:101C600018E000980F280DD8FFE700994FF0FF30DB
:101C7000002200F01FF8009840F2C401C2F20001F7
:101C8000086003E001208DF8070003E000208DF8D4
:101C90000700FFE79DF8070002B080BD7047000015
:101CA00080B582B08DF807009DF9070003F0BEFDF6
:101CB00002B080BD80B586B08DF817000491039204
:101CC0000020029003F0CAFD02909DF917000190D8
:101CD00002980499039A01F02BF90146019803F048
:101CE000C5FD06B080BD000080B582B001900198AE
:101CF00003F0DEFD02B080BD80B584B0029001919A
:101D0000029820B9FFE701208DF80F001DE101982E
:101D100043F60041C4F20201096801F00F01884254
:101D200012D9FFE7019943F60040C4F202000170A6
:101D3000006800F00F000199884204D0FFE70120FD
:101D40008DF80F0001E1FFE7029800788007002876
:101D50002AD5FFE7029800784007002809D5FFE759
:101D600043F60801C4F20201086840F4E05008603C
:101D7000FFE7029800780007002809D5FFE743F63F
:101D80000801C4F20201086840F460400860FFE7FF
:101D900043F60801C4F20201086820F0F000029A3C
:101DA000926810430860FFE702980078C007002897
:101DB0006ED0FFE702984068012811D1FFE743F693
:101DC0000000C4F20200006800F400310020B0EB13
:101DD000514F04D1FFE701208DF80F00B5E02CE052
:101DE00002984068022805D0FFE70298406803285F
:101DF00011D1FFE743F60000C4F20200006800F0D2
:101E000000710020B0EB516F04D1FFE701208DF885
:101E10000F009AE010E043F60000C4F202000068F0
:101E200000F002010020B0EB510F04D1FFE70120C8
:101E30008DF80F0089E0FFE7FFE743F60801C4F2E1
:101E40000201086820F00300029A526810430860FB
:101E5000FFF7CEFE0090FFE743F60800C4F2020051
:101E6000006800F00C0002994968B0EB810F0ED0B9
:101E7000FFE7FFF7BDFE0099401A41F28931884221
:101E800004D3FFE703208DF80F005EE0E4E7FFE7EF
:101E9000019843F60041C4F20201096801F00F0104
:101EA000884212D2FFE7019943F60040C4F20200D3
:101EB0000170006800F00F000199884204D0FFE72C
:101EC00001208DF80F0040E0FFE7029800784007FE
:101ED00000280CD5FFE743F60801C4F202010868A8
:101EE00020F4E050029AD26810430860FFE702989D
:101EF0000078000700280DD5FFE743F60801C4F27B
:101F00000201086820F46040029A126940EAC200A7
:101F10000860FFE700F048F843F60801C4F2020148
:101F20000968C9B20A094AF64811C0F60001895C7D
:101F3000C84040F2A801C2F2000108600F20FFF77C
:101F400075FE00208DF80F00FFE79DF80F0004B02C
:101F500080BD000040F2A800C2F200000068704797
:101F600080B5FFF7F7FF43F60801C4F202010968E4
:101F7000C1F382224AF65811C0F60001895CC840BC
:101F800080BD000080B5FFF7E5FF43F60801C4F20D
:101F90000201096889B24A0B4AF65811C0F60001DD
:101FA000895CC84080BD000080B586B000200590E7
:101FB00004900390029043F60800C4F20200006807
:101FC00000F00C000146019140B1FFE701980428A0
:101FD0000AD0FFE7019808280CD04FE042F20040F9
:101FE000C0F2F40002904FE041F20020C0F27A000B
:101FF000029049E043F60400C4F20200016801F0D7
:102000003F01059100684002002813D5FFE743F621
:102010000400C4F202000068C0F3881041F20021FD
:10202000C0F27A01A0FB0101059A0023FEF7CCF86B
:10203000049012E043F60400C4F202000068C0F30A
:10204000881042F20041C0F2F401A0FB0101059AA0
:102050000023FEF7B9F80490FFE743F60400C4F24A
:102060000200006800F44031022000EBD130039000
:1020700004980399B0FBF1F0029005E042F20040B1
:10208000C0F2F4000290FFE7029806B080BD0000A5
:1020900080B586B00490049820B9FFE701208DF840
:1020A000170009E304980078C007002800F0A58015
:1020B000FFE743F60800C4F20200006800F00C00DD
:1020C000042813D0FFE743F60800C4F202000068BA
:1020D00000F00C0008281ED1FFE743F60400C4F20C
:1020E000020000684002002815D5FFE743F6000013
:1020F000C4F20200006800F400310020B0EB514F40
:1021000008D0FFE70498406820B9FFE701208DF868
:102110001700D1E270E0FFE704984068B0F5803F17
:1021200009D1FFE743F60001C4F20201086840F458
:102130008030086020E004984068B0F5A02F0DD1F1
:10214000FFE743F60001C4F20201086840F4802072
:102150000860086840F4803008600CE043F6000135
:10216000C4F20201086820F480300860086820F496
:1021700080200860FFE7FFE7FFE704984068E8B1C8
:10218000FFE7FFF735FD0390FFE743F60000C4F2D9
:102190000200006800F400310020B0EB514F0CD178
:1021A000FFE7FFF725FD0399401A652804D3FFE7F1
:1021B00003208DF817007FE2E7E71CE0FFF718FD2A
:1021C0000390FFE743F60000C4F20200006800F449
:1021D00000310020B0EB514F0CD0FFE7FFF708FDB6
:1021E0000399401A652804D3FFE703208DF81700F0
:1021F00062E2E7E7FFE7FFE7FFE704980078800780
:10220000002840F19680FFE743F60800C4F2020080
:10221000006810F00C0F13D0FFE743F60800C4F27B
:102220000200006800F00C0008282CD1FFE743F6FC
:102230000400C4F2020000684002002823D4FFE733
:1022400043F60000C4F20200006800F00201002022
:10225000B0EB510F09D0FFE70498C068012804D003
:10226000FFE701208DF8170026E243F60001C4F2D3
:102270000201086820F0F800049A126940EAC200DE
:102280000860FFE754E00498C06870B3FFE70021DE
:10229000C4F2472101200860FFF7AAFC0390FFE782
:1022A00043F60000C4F20200006800F002010020C2
:1022B000B0EB510F0CD1FFE7FFF79AFC0399401ADE
:1022C000032804D3FFE703208DF81700F4E1E7E7C4
:1022D00043F60001C4F20201086820F0F800049AF5
:1022E000126940EAC200086021E00021C4F24721DF
:1022F00000200860FFF77CFC0390FFE743F6000036
:10230000C4F20200006800F002010020B0EB510F9F
:102310000CD0FFE7FFF76CFC0399401A032804D3A5
:10232000FFE703208DF81700C6E1E7E7FFE7FFE7C7
:10233000FFE704980078000700284BD5FFE70498D2
:10234000406918B3FFE740F68061C4F247210120DD
:102350000860FFF74DFC0390FFE743F67400C4F2FA
:102360000200006800F002010020B0EB510F0CD118
:10237000FFE7FFF73DFC0399401A032804D3FFE76A
:1023800003208DF8170097E1E7E722E040F680612F
:10239000C4F2472100200860FFF72AFC0390FFE702
:1023A00043F67400C4F20200006800F0020100204D
:1023B000B0EB510F0CD0FFE7FFF71AFC0399401A5E
:1023C000032804D3FFE703208DF8170074E1E7E743
:1023D000FFE7FFE7049800784007002840F1CE802F
:1023E000FFE700208DF80B0043F64000C4F2020026
:1023F0000068C000002815D4FFE7FFE70020019027
:1024000043F64000C4F20200016841F080510160CF
:10241000006800F0805001900198FFE701208DF8DE
:102420000B00FFE747F20000C4F200000068C0059F
:10243000002822D4FFE747F20001C4F20001086837
:1024400040F480700860FFF7D3FB0390FFE747F28A
:102450000000C4F200000068C00500280CD4FFE7AB
:10246000FFF7C6FB0399401A032804D3FFE70320B4
:102470008DF8170020E1EAE7FFE7FFE7049880689E
:10248000012809D1FFE743F67001C4F20201086890
:1024900040F0010008601FE00498806805280DD115
:1024A000FFE743F67001C4F20201086840F004003F
:1024B0000860086840F0010008600CE043F6700115
:1024C000C4F20201086820F001000860086820F0EA
:1024D00004000860FFE7FFE7FFE704988068F8B1B1
:1024E000FFE7FFF785FB0390FFE743F67000C4F2B8
:1024F0000200006800F002010020B0EB510F0ED185
:10250000FFE7FFF775FB0399401A41F289318842D2
:1025100004D3FFE703208DF81700CDE0E5E71EE0C8
:10252000FFF766FB0390FFE743F67000C4F202007A
:10253000006800F002010020B0EB510F0ED0FFE761
:10254000FFF756FB0399401A41F28931884204D3C0
:10255000FFE703208DF81700AEE0E5E7FFE79DF801
:102560000B00012809D1FFE743F64001C4F2020144
:10257000086820F080500860FFE7FFE70498806952
:10258000002800F09580FFE743F60800C4F202003F
:10259000006800F00C00082800F08580FFE7049830
:1025A000806902285CD1FFE76021C4F24721002046
:1025B0000860FFF71DFB0390FFE743F60000C4F23D
:1025C0000200006800F000710020B0EB516F0CD0E9
:1025D000FFE7FFF70DFB0399401A032804D3FFE739
:1025E00003208DF8170067E0E7E70499C869D1F880
:1025F00020C04B6A8A6A40EA0C0040EA8310D2038A
:102600004FF6FF739A43A2F580321043C96A40EA3D
:10261000016043F60401C4F2020108606021C4F2C3
:10262000472101200860FFF7E3FA0390FFE743F634
:102630000000C4F20200006800F000710020B0EB5E
:10264000516F0CD1FFE7FFF7D3FA0399401A032823
:1026500004D3FFE703208DF817002DE0E7E721E022
:102660006021C4F2472100200860FFF7C1FA0390FF
:10267000FFE743F60000C4F20200006800F00071BA
:102680000020B0EB516F0CD0FFE7FFF7B1FA0399D0
:10269000401A032804D3FFE703208DF817000BE04E
:1026A000E7E7FFE703E001208DF8170004E0FFE70C
:1026B00000208DF81700FFE79DF8170006B080BDD9
:1026C00081B000900098042809D1FFE74EF2100174
:1026D000CEF20001086840F00400086008E04EF205
:1026E0001001CEF20001086820F004000860FFE746
:1026F00001B0704780B582B00190019800F0DAFD1A
:1027000002B080BD81B0009001B0704783B00290EC
:10271000002001900090029890F8390001900298F2
:1027200090F83A0000909DF804009DF800100843CE
:1027300003B0704780B586B00590059800680068C2
:10274000049005980068C068039005980068406987
:102750000290002001900090049800F00F0001907A
:10276000019888B9FFE79DF81000800600280AD577
:10277000FFE79DF80C008006002804D5FFE70598C8
:1027800000F094FED2E0FFE70198002800F0AE8050
:10279000FFE79DF80800C00738B9FFE7BDF80C0057
:1027A00010F4907F00F0A280FFE79DF81000C007B2
:1027B00058B1FFE79DF80D00C00730B1FFE705995C
:1027C000C86B40F00100C863FFE79DF810004007A8
:1027D00000280BD5FFE79DF80800C00730B1FFE7E0
:1027E0000599C86B40F00200C863FFE79DF8100030
:1027F000800700280BD5FFE79DF80800C00730B11F
:10280000FFE70599C86B40F00400C863FFE79DF837
:102810001000000700280BD5FFE79DF80800C0074F
:1028200030B1FFE70599C86B40F00800C863FFE7C7
:102830000598C06B002858D0FFE79DF8100080066F
:1028400000280AD5FFE79DF80C008006002804D573
:10285000FFE7059800F02AFEFFE705980068406949
:10286000C0F3801000900598C06B0007002803D4C7
:10287000FFE7009888B3FFE7059800F0EFFD0598A3
:10288000006840694006002822D5FFE705980168E6
:10289000486920F0400048610598406B98B1FFE717
:1028A0000598416B43F23D40C0F60000086505986D
:1028B000406BFEF797FF28B1FFE70598406B016D6D
:1028C0008847FFE703E00598FFF71CFFFFE703E0F9
:1028D0000598FFF717FFFFE706E00598FFF712FFDF
:1028E00005990020C863FFE7FFE71FE09DF810008F
:1028F000000600280AD5FFE79DF80C000006002816
:1029000004D5FFE7059801F04DF80FE09DF81000A1
:10291000400600280AD5FFE79DF80C004006002875
:1029200004D5FFE7059800F0ADFDFFE706B080BDD8
:1029300080B582B00090009820B9FFE701208DF8A3
:1029400007003EE00098806908B1FFE700E0FFE77C
:10295000009890F8390040B9FFE70099002081F80D
:102960003800009800F032F8FFE70099242081F841
:10297000390000980168C86820F40050C8600098C9
:1029800000F00CFE00980168086920F4904008618E
:1029900000980168486920F02A00486100980168A1
:1029A000C86840F40050C86000990020C863009ACD
:1029B000202182F83910009A82F83A108DF8070029
:1029C000FFE79DF8070002B080BD000080B590B021
:1029D0000F900F98006841F20001C4F20101884293
:1029E00045D1FFE7FFE70020099043F63000C4F22D
:1029F0000200016841F001010160006800F001007F
:102A000009900998FFE7FFE70020089043F644008B
:102A1000C4F20200016841F010010160006800F09A
:102A2000100008900898FFE74FF400700A90022009
:102A30000B9001210C910D9007200E900020C4F204
:102A4000020003900AA90491FEF7EEFE0398049990
:102A50004FF480620A92FEF7E7FE25200590FFF70B
:102A60001FF9059803221146FFF724F9FFE70F9895
:102A7000006844F20041C4F20001884243D1FFE7FC
:102A8000FFE70020079043F63000C4F2020001681F
:102A900041F001010160006800F001000790079813
:102AA000FFE7FFE70020069043F64000C4F2020073
:102AB000016841F400310160006800F400300690C4
:102AC0000698FFE704200A9002200B9001210C9148
:102AD0000D9007200E900020C4F2020000900AA979
:102AE0000191FEF7A1FE0098019908220A92FEF7D3
:102AF0009BFE26200290FFF7D3F80298032211468E
:102B0000FFF7D8F8FFE710B080BD000084B0029056
:102B10000191ADF80220029890F83A0020284AD19D
:102B2000FFE7019820B1FFE7BDF8020020B9FFE7F9
:102B300001208DF80F0042E0FFE7029890F838007E
:102B4000012804D1FFE702208DF80F0037E0029939
:102B5000012081F83800FFE7FFE7019802998862B9
:102B6000BDF8020002998885BDF802000299C88567
:102B700002990020C8630299222081F83A00FFE7F9
:102B80000299002081F83800FFE702980168C868C0
:102B900040F48070C86002980168486940F0010004
:102BA000486102980168C86840F02000C8600020B1
:102BB0008DF80F0003E002208DF80F00FFE79DF86D
:102BC0000F0004B07047000080B582B001900198FA
:102BD000006841F20001C4F2010188425FD1FFE7C1
:102BE00040F2A860C2F2000000880004002855D41A
:102BF000FFE740F2A860C2F200000088400400280D
:102C000019D5FFE740F2CB70C2F2000000780A2825
:102C100007D0FFE740F2A861C2F20001002008805F
:102C200008E040F2A861C2F20001088840F40040C8
:102C30000880FFE731E040F2CB70C2F2000000787C
:102C40000D2809D1FFE740F2A861C2F2000108880F
:102C500040F4804008801FE040F2CB70C2F20000D8
:102C6000017840F2A860C2F2000003886FF39F333E
:102C700040F2E052C2F20002D154018801310180D9
:102C80000088C82807DBFFE740F2A861C2F2000114
:102C900000200880FFE7FFE7FFE7FFE711E001986A
:102CA000006844F20041C4F20001884208D1FFE705
:102CB00040F2CC70C2F200000078FDF7C7FFFFE7DA
:102CC000FFE702B080BD000080B588B00690059196
:102CD000ADF81220039300200190069890F8390077
:102CE000202840F09980FFE7059820B1FFE7BDF864
:102CF000120020B9FFE701208DF81F0090E0FFE7E8
:102D0000069890F83800012804D1FFE702208DF8DA
:102D10001F0085E00699012081F83800FFE7FFE7F2
:102D200006990020C8630699212081F83900FEF732
:102D30005FFF0190BDF8120006998884BDF812006B
:102D40000699C884FFE70698C08C002847D0FFE7A3
:102D50000699C88C0138C88406988068B0F5805FF1
:102D600025D1FFE70698019B03996A4611608021EF
:102D7000002200F067FE20B1FFE703208DF81F005E
:102D80004EE005980290029800886FF35F20069944
:102D9000096848600698006920B9FFE70598023085
:102DA000059003E0059801300590FFE716E00698CE
:102DB000019B03996A4611608021002200F042FEC7
:102DC00020B1FFE703208DF81F0029E00598411C82
:102DD00005910078069909684860FFE7B3E706980F
:102DE000019B03996A4611604021002200F02AFEEF
:102DF00020B1FFE703208DF81F0011E00699202085
:102E000081F83900FFE70699002081F83800FFE7D4
:102E100000208DF81F0003E002208DF81F00FFE75F
:102E20009DF81F0008B080BD81B0009001B07047D0
:102E3000FFE7FEE710B588B040F2D470C2F20000A0
:102E400046F20041C4F2000101600199029A039B1D
:102E5000DDF810C0DDF814E0069C8461C0F814E0D1
:102E6000C0F810C0C360826041600799C16103214E
:102E7000416000218160C1604FF4C02202614FF4C3
:102E8000A00242610176417681760122C276017705
:102E90004177FEF729FB08B010BD0000FFE7FEE711
:102EA00080B582B00190019A40F2FC70C2F200003D
:102EB000012101F079FC02B080BD000080B582B034
:102EC0000190019A40F61C00C2F20000012101F0BD
:102ED0006BFC02B080BD000080B582B00190019A09
:102EE00040F63C00C2F20000012101F05DFC02B09E
:102EF00080BD00007047000080B584B0ADF80E00C2
:102F00008DF80D100020ADF800008DF802000220B1
:102F10008DF803009DF80D008DF804009DF80E005B
:102F20008DF805006846FDF747FE04B080BD00003F
:102F300088B0079006910592079800F0070004906A
:102F40000498C0F10700052803D3FFE7042001908F
:102F500004E00498C0F107000190FFE70198039096
:102F600004980430062803D8FFE70020009003E00F
:102F7000049803380090FFE70098029006980399A0
:102F8000012202FA01F101390840029B984005999B
:102F90009A40013A1140084308B070470000000011
:102FA000EFF30980BFF36F8F154B1A681EF0100FF7
:102FB00008BF20ED108A20E9F04F10602DE90900CC
:102FC0004FF0500080F31188BFF34F8FBFF36F8F26
:102FD00004F082FD4FF0000080F31188BDE8090085
:102FE00019680868B0E8F04F1EF0100F08BFB0EC89
:102FF000108A80F30988BFF36F8F704700BF00BF4E
:10300000A008002080B586B08DF816008DF8151048
:10301000049200200390029001909DF8152040F248
:10302000A001C2F2000101EB420131F8021C9DF83F
:1030300016201144ADF804108DF806009DF8150017
:10304000013801460091032834D80099DFE801F0E7
:10305000020D142702208DF8070004988DF808004F
:103060000498000A8DF8090024E001208DF807007B
:1030700004988DF808001DE004208DF807000498DE
:103080008DF808000498000A8DF80900BDF81200B8
:103090008DF80A009DF813008DF80B000AE002205D
:1030A0008DF8070004988DF808000498000A8DF840
:1030B0000900FFE701A8FDF77FFD20B1FFE7012030
:1030C0008DF8170003E000208DF81700FFE79DF84A
:1030D000170006B080BD000080B586B08DF81600E0
:1030E000ADF814108DF81320039300200290019086
:1030F00000909DF8161001F5C061ADF800108DF834
:10310000020008208DF803009DF813008DF80700D9
:103110009DF815008DF80600BDF814008DF8050027
:1031200023208DF804009DF80F008DF80B00BDF8EA
:103130000E008DF80A000398000A8DF80900039824
:103140008DF808006846FDF737FD20B1FFE7012044
:103150008DF8170003E000208DF81700FFE79DF8B9
:10316000170006B080BD0000000000000000000055
:10317000074B19680868B0E8F04F80F30988BFF37F
:103180006F8F4FF0000080F31188704700BF00BFC1
:10319000A008002080B582B001900091019803F052
:1031A00085FE009803F0A4FE02B080BD80B598B003
:1031B000179016911592149300208DF84F00FFE799
:1031C0000020019043F64000C4F20200016841F083
:1031D00080510160006800F0805001900198FFE785
:1031E000FFE70020009047F20000C4F200000168F1
:1031F00041F480410160006800F480400090009834
:10320000FFE7012007904FF48030089002200D90D6
:103210004FF480000E9016980F9017981090159804
:1032200011901498129007A8FEF732FF8DF84F0006
:103230009DF84F0010B1FFE7FFE7FEE70F20029077
:1032400002200390002004904FF4A05005904FF40A
:103250008050069002A80521FEF74EFD8DF84F0024
:103260009DF84F0010B1FFE7FFE7FEE7FEF7B8FC5F
:1032700041F20101884209D1FFE743F60041C4F25F
:103280000201086840F480700860FFE718B080BD54
:1032900080B584B08020ADF8040000208DF80600D1
:1032A00001218DF807108DF8080001A8FDF784FCB6
:1032B00004B080BD80B582B0009000980138B0F1B4
:1032C000807F03D3FFE70120019019E000980138C7
:1032D0004EF21401CEF2000108604FF0FF300F21D2
:1032E00002F0C4FA4EF21801CEF20001002008608C
:1032F0004EF21002CEF20002072111600190FFE7AA
:10330000019802B080BD000080B505F07FFA012869
:1033100003D0FFE704F0CCFEFFE780BD4EF68851F6
:10332000CEF20001086840F47000086043F6000225
:10333000C4F20202106840F00100106043F6080178
:10334000C4F202010020086011684FF6FF73CFF647
:10335000F6631940116043F60403C4F2020343F21A
:103360001001C2F200411960116821F4802111603E
:1033700043F60C01C4F2020108604EF60851CEF289
:1033800000014FF0006008607047000080B58AB00F
:103390008DF827008DF826100020089007900690E1
:1033A00005900490039002909DF8261040F2AC0026
:1033B000C2F2000000EB410030F8020C9DF827102B
:1033C0000844ADF8180001208DF81A009DF8260079
:1033D000013801460191032814D80199DFE801F072
:1033E00002060A0E02208DF81B000BE004208DF867
:1033F0001B0007E004208DF81B0003E002208DF87D
:103400001B00FFE706A8FDF7D7FB98B1FFE70A20EE
:1034100002F062FB03A8FDF783FB50B1FFE7BDF8A4
:103420000C00BDF81810884203D1FFE70498029001
:10343000FFE7FFE702980AB080BD000080B582B0C8
:1034400001900198806B009000990020C885009938
:10345000C8840098FFF756F902B080BD81B0009093
:1034600000980168C86820F49070C86000980168EE
:10347000486920F0010048610099202081F83A0055
:1034800001B0704780B582B0019001980168C868AA
:1034900020F04000C8600199202081F8390001988F
:1034A000FFF7C2FC002002B080BD000080B584B0F0
:1034B0000290029890F83A00222866D1FFE702981D
:1034C0008068B0F5805F1FD1FFE70298806A0190A5
:1034D0000298006960B9FFE70298006840686FF3DE
:1034E0005F20019908800299886A023088620AE0A8
:1034F000029800684068C0B2019908800299886A01
:1035000001308862FFE718E00298006948B9FFE7D8
:10351000029800684068029B996A4A1C9A62087087
:103520000AE002980068406800F07F00029B996AF8
:103530004A1C9A620870FFE7FFE70299C88D0138BC
:10354000C8850004E8B9FFE702980168C86820F060
:103550002000C86002980168C86820F48070C860C4
:1035600002980168486920F0010048610299202012
:1035700081F83A000298FFF727FB00208DF80F0032
:1035800007E000208DF80F0003E002208DF80F0007
:10359000FFE79DF80F0004B080BD0000B0B59EB0FD
:1035A0001D901D980068006920F440501D9A116814
:1035B000D268104308611D9988680B694A69C96916
:1035C0001843104308431C901D980068C06849F2D6
:1035D0000C6188431C9908431D990968C8601D98AF
:1035E0000068406920F440701D9A11689269104388
:1035F00048611D98C069B0F5004F40F0EA80FFE7D0
:103600001D98006841F20001C4F20101884209D00E
:10361000FFE71D98006841F20041C4F201018842B1
:103620006BD1FFE7FEF7AEFC1921179148431D99B6
:1036300049684900B0FBF1F048F21F51C5F2EB11A7
:103640001991A0FB01016FF00F0000EA51001690E4
:10365000FEF798FC179948431D9949684900B0FB4B
:10366000F1F01590FEF78EFCDDF854C0179B199A07
:103670000146169859431D9B5B685B00B1FBF3F153
:10368000A1FB0231490964231A9301FB13C33221C0
:10369000189101EBC301A1FB0212F82101EA5211BA
:1036A00000EB41001B90FEF76DFC179948431D99F4
:1036B00049684900B0FBF1F4FEF764FCDDF85CC03A
:1036C000189A199BDDF868E001461B9801FB0CFC79
:1036D0001D9D29686D686D00BCFBF5FCACFB035CAF
:1036E0004FEA5C1C0CFB1E4C02EBCC02A2FB03322B
:1036F000C2F34212104488606AE0FEF731FC1921DF
:10370000109148431D9949684900B0FBF1F048F217
:103710001F51C5F2EB111291A0FB01016FF00F00D8
:1037200000EA51000F90FEF71BFC109948431D99C9
:1037300049684900B0FBF1F00E90FEF711FCDDF88E
:1037400038C0109B129A01460F9859431D9B5B6825
:103750005B00B1FBF3F1A1FB023149096423139330
:1037600001FB13C33221119101EBC301A1FB021232
:10377000F82101EA521100EB41001490FEF7F0FB32
:10378000109948431D9949684900B0FBF1F4FEF7D0
:10379000E7FBDDF840C0119A129BDDF84CE00146D2
:1037A000149801FB0CFC1D9D29686D686D00BCFB25
:1037B000F5FCACFB035C4FEA5C1C0CFB1E4C02EB03
:1037C000CC02A2FB0332C2F3421210448860FFE72E
:1037D000E6E01D98006841F20001C4F20101884250
:1037E00009D0FFE71D98006841F20041C4F20101D1
:1037F00088426AD1FFE7FEF7C5FB192109914843CA
:103800001D9949688900B0FBF1F048F21F51C5F2DB
:10381000EB110B91A0FB01016FF00F0000EA5100CA
:103820000890FEF7AFFB099948431D994968890044
:10383000B0FBF1F00790FEF7A5FBDDF81CC0099B7B
:103840000B9A0146089859431D9B5B689B00B1FB8E
:10385000F3F1A1FB0231490964230C9301FB13C36B
:1038600032210A9101EB0311A1FB0212F02101EABE
:10387000521108440D90FEF785FB099948431D99A4
:1038800049688900B0FBF1F4FEF77CFBDDF824C049
:103890000A9A0B9BDDF830E001460D9801FB0CFC09
:1038A0001D9D29686D68AD00BCFBF5FCACFB035C9D
:1038B0004FEA5C1C0CFB1E4C02EB0C12A2FB033209
:1038C000C2F343121044886069E0FEF749FB1921F6
:1038D000029148431D9949688900B0FBF1F048F214
:1038E0001F51C5F2EB110491A0FB01016FF00F0015
:1038F00000EA51000190FEF733FB029948431D99FD
:1039000049688900B0FBF1F00090FEF729FBDDF873
:1039100000C0029B049A0146019859431D9B5B68B5
:103920009B00B1FBF3F1A1FB02314909642305932C
:1039300001FB13C33221039101EB0311A1FB02121E
:10394000F02101EA521108440690FEF709FB0299A2
:1039500048431D9949688900B0FBF1F4FEF700FB6C
:10396000DDF808C0039A049BDDF814E001460698D0
:1039700001FB0CFC1D9D29686D68AD00BCFBF5FCCE
:10398000ACFB035C4FEA5C1C0CFB1E4C02EB0C1204
:10399000A2FB0332C2F3431210448860FFE7FFE743
:1039A0001EB0B0BD83B00190019890F83900212875
:1039B00040D1FFE701988068B0F5805F19D1FFE73B
:1039C0000198006A0090009800886FF35F200199C9
:1039D000096848600198006928B9FFE70199086AF9
:1039E0000230086204E00199086A01300862FFE7CA
:1039F00008E0019A106A411C116200780199096877
:103A00004860FFE70199C88C0138C884000468B990
:103A1000FFE701980168C86820F08000C86001983D
:103A20000168C86840F04000C860FFE700208DF8DA
:103A30000B0003E002208DF80B00FFE79DF80B0060
:103A400003B0704780B586B0DDF820C004900391C4
:103A50008DF80B200193FFE7049800680068039934
:103A60000840401AB0FA80F040099DF80B108842D7
:103A70002ED1FFE70898013048B3FFE7089840B11E
:103A8000FFE7FEF7B5F80199401A089988421DD959
:103A9000FFE704980168C86820F4D070C8600498F3
:103AA0000168486920F0010048610499202081F8EC
:103AB0003900049981F83A00FFE70499002081F861
:103AC0003800FFE703208DF8170005E0FFE7C3E7A4
:103AD00000208DF81700FFE79DF8170006B080BDA5
:103AE00080B582B000200090019040F26050C2F298
:103AF0000000FEF71FFE00980190FFE740F26050C3
:103B0000C2F20000FEF702FE20280AD0FFE701986B
:103B1000013001900198B0F1FF3F01D9FFE700E0CB
:103B2000ECE700200190FFE740F26050C2F2000095
:103B300040F2CB71C2F200010122FEF7E7FF50B163
:103B4000FFE70198013001900198B0F1FF3F01D9E2
:103B5000FFE700E0E8E702B080BD000080B582B07A
:103B60000020019040F2A050C2F20000FEF7E2FDFA
:103B7000FFE740F2A050C2F20000FEF7C7FD202888
:103B80000AD0FFE70198013001900198B0F1FF3FA2
:103B900001D9FFE700E0ECE700200190FFE740F2E9
:103BA000A050C2F2000040F2CC71C2F2000101222A
:103BB000FEF7ACFF50B1FFE701980130019001988A
:103BC000B0F1FF3F01D9FFE700E0E8E740F2A05085
:103BD000C2F2000002686FF02001116001686FF00E
:103BE0000800086002B080BDFFE7FEE780B5AAB01C
:103BF00026900020219020901F908DF88B00FFE7E9
:103C00009DF88B0002282EDCFFE79DF88B3040F2F8
:103C1000B860C2F2000050F8231040F2C462C2F251
:103C2000000242F8231026999DF88B2051F82210AB
:103C300040F82210269A9DF88B1002EB810292ED3B
:103C4000000A00EB810090ED001A30EE410A23A833
:103C500000EB810080ED000AFFE79DF88B0001304A
:103C60008DF88B00CCE700200121FFF745F926985D
:103C7000006829909DED290AB0EEC00AB7EE001A3F
:103C8000B4EE410AF1EE10FA10DCFFE72698406826
:103C900028909DED280AB0EEC00AB7EE001AB4EEE7
:103CA000410AF1EE10FA40F3A281FFE7269890ED69
:103CB000003ADDED233A40F2B860C2F20000129003
:103CC00090ED006A40F2C460C2F200001390D0EDA3
:103CD000006A40F27810C2F2000014909FEDCB0A07
:103CE0008DED1C0ADFEDCA0ACDED150AFBEE041AB4
:103CF000CDED161A9FEDC72A8DED172ADFEDC62AE6
:103D0000CDED182AF3EE0E4ACDED194AB2EE0E5A59
:103D10008DED1A5AF3EE045ACDED1B5AB0EE651A2A
:103D2000B0EE654A00F0F8FE129A13991498DDED92
:103D3000150ADDED161A9DED172ADDED182ADDEDC9
:103D4000194A9DED1A5ADDED1B5AB0EE401A9DED51
:103D50001C0ABDEEC11A8DED1E1A269B93ED013A89
:103D6000DDED243A92ED016AD1ED016AB0EE651AFB
:103D7000B0EE654A00F0D0FEBDEEC00A8DED1D0A22
:103D8000269890ED000AB5EE400AF1EE10FA24DD17
:103D9000FFE7269890ED010AB5EE400AF1EE10FA21
:103DA0001BDDFFE71E98FCF740FA11901D98FCF709
:103DB0003CFA01461198884204DBFFE71E98404216
:103DC000109003E01D9840421090FFE710981F905C
:103DD0001E991D98401A209072E0269890ED000AD6
:103DE000B5EE400AF1EE10FA24DDFFE7269890EDDB
:103DF000010AB5EE400AF1EE10FA1BDAFFE71E9950
:103E00001D98401A1F901E98FCF70FFA0F901D98EE
:103E1000FCF70BFA01460F98884204DBFFE71E9877
:103E200040420E9003E01D9840420E90FFE70E982E
:103E3000209044E0269890ED000AB5EE400AF1EE9D
:103E400010FA22DAFFE7269890ED010AB5EE400A53
:103E5000F1EE10FA19DDFFE71E981D99401A1F9028
:103E60001E98FCF7E2F90D901D98FCF7DEF901466B
:103E70000D98884203DBFFE71E980C9002E01D9826
:103E80000C90FFE70C98209018E01E98FCF7CDF9F5
:103E90000B901D98FCF7C9F901460B98884203DB8B
:103EA000FFE71E980A9002E01D980A90FFE70A9823
:103EB0001F901E981D99401A2090FFE7FFE7FFE72B
:103EC00040F61C00C2F20000099000F03DFC40F6F4
:103ED0003C00C2F2000000F037FC09991F988A6884
:103EE0004AF25031CFF6FD71891A88420CDCFFE7A7
:103EF00040F61C00C2F2000081684AF25030CFF652
:103F0000FD70401A08901FE01F9840F61C01C2F295
:103F100000018A6845F6B041C0F20201891A884260
:103F20000CDBFFE740F61C00C2F20000816845F69A
:103F3000B040C0F20200401A079002E01F980790BC
:103F4000FFE707980890FFE708981F90209840F631
:103F50003C01C2F200018A684AF25031CFF6FD718D
:103F6000891A88420CDCFFE740F63C00C2F20000F0
:103F700081684AF25030CFF6FD70401A06901FE07B
:103F8000209840F63C01C2F200018A6845F6B04133
:103F9000C0F20201891A88420CDBFFE740F63C00C0
:103FA000C2F20000816845F6B040C0F20200401A3B
:103FB000059002E020980590FFE705980690FFE73E
:103FC000069820901F9A40F61C00C2F200000021C3
:103FD000049100F0E9FB0499209A40F63C00C2F2FB
:103FE000000000F0E1FB04981F902090FFE7269866
:103FF000806827909DED270AB0EEC00AB7EE001A40
:10400000B4EE410AF1EE10FA62DD07E00000F04282
:104010000000F0C20000C8420000C843269890ED9E
:10402000023ADDED253A40F2B860C2F2000090EDB0
:10403000026A40F2C460C2F20000D0ED026A40F2AF
:104040007810C2F200009FED230ADFED230AB3EEE1
:10405000041A9FED222ADFED222ABAEE045AFBEE63
:10406000045AF0EE651AB0EE454AF0EE654A00F0EB
:1040700053FDBDEEC00A8DED210A21984AF2503160
:10408000CFF6FD71884206DCFFE74AF25030CFF6EA
:10409000FD70039013E0219845F6B041C0F2020193
:1040A000884206DBFFE745F6B040C0F2020002900E
:1040B00002E021980290FFE702980390FFE703983F
:1040C000219000200190FEF7EBFE01982190FFE780
:1040D0002AB080BD0000F0420000F0C2000048C2DB
:1040E0000000C8C280B501F001FC01F03BFC01F00A
:1040F0005DFC80BD80B501F005FC01F03FFC01F0E6
:104100005FFC01F075FC01F08BFC01F09FFC80BDB1
:1041100080B501F00FFC80BD80B592B01190FFE733
:10412000FFE740F2B400C2F2000090ED000A012067
:10413000B7EE001AB4EE410AF1EE10FA039021DC5A
:10414000FFE740F2B400C2F2000090ED010A012046
:10415000B7EE001AB4EE410AF1EE10FA039011DC4A
:10416000FFE740F2B400C2F2000090ED020AB7EEA1
:10417000001A0020B4EE410AF1EE10FAC8BF012087
:104180000390FFE70398C007002800F0C280FFE714
:1041900040F24810C2F2000000686A460021116037
:1041A000032101231A4603F0F9FD032840F0AD80F6
:1041B000FFE7002009900890079006900590049072
:1041C0008DF82B00FFE79DF82B0002285DDCFFE750
:1041D00040F24010C2F2000000689DF82B2007A9B1
:1041E00001EB82010022029204F068F9029A9DF824
:1041F0002B300EA941F8230040F2AC60C2F200005F
:1042000000689DF82B3004A901EB830104F056F9F6
:1042100001469DF82B200BA840F822109DF82B108A
:1042200050F82100012829D1FFE79DF82B100EA896
:1042300050F82100012821D1FFE740F26050C2F27E
:1042400000004AF62521C0F6000101F0F7FD9DF8B7
:104250002B1007A800EB810090ED000A04A800EBEA
:10426000810090ED001A30EE410A40F2B400C2F233
:10427000000000EB810080ED000AFFE7FFE79DF8FA
:104280002B0001308DF82B009DE702F015FF9DED0E
:10429000070A9FED201AB4EE410AF1EE10FA1EDC77
:1042A000FFE79DED080A9FED1B1AB4EE410AF1EEFF
:1042B00010FA14DCFFE79DED070A9FED171AB4EE24
:1042C000410AF1EE10FA0ADBFFE79DED080A9FEDC7
:1042D000121AB4EE410AF1EE10FA08DAFFE70020F4
:1042E0000190FEF7EBFD0198FEF7F6FD0AE040F2C3
:1042F000B400C2F20000FFF779FC0020022103F0B5
:10430000E5F9FFE702F004FFFFE7022003F034F8CD
:1043100007E705E700007042000070C280B586B074
:10432000059002F0C9FE40F24410C2F20000694656
:10433000486003200490086044F2BD30C0F60000DD
:104340004AF67B21C0F6000196220023039304F075
:104350000DFA039B40F2B460C2F200006946486067
:104360000220086044F21910C0F600004AF6A121AC
:10437000C0F600014FF4007204F0F8F9039B0498B2
:1043800040F2B062C2F2000269464A60086044F23C
:10439000ED40C0F600004AF68821C0F600014FF457
:1043A000807204F0E3F940F25C50C2F20000006851
:1043B00003F01AF802F0ACFE06B080BD80B58AB0FA
:1043C00009900020ADF82200FFE702F075FE40F2F0
:1043D000A860C2F200000088000400285AD5FFE758
:1043E0000020009003900290019040F26050C2F2D1
:1043F000000001A9FCF79AFC00988DF81300FFE774
:104400009DF8130002281ADCFFE740F24010C2F2C8
:10441000000000689DF8132001A901EB8201002330
:104420001A4603F035FF9DF8132005A941F8220034
:10443000FFE79DF8130001308DF81300E0E70598C1
:1044400001281BD1FFE70698012817D1FFE707983D
:10445000012813D1FFE740F26050C2F200004AF693
:10446000DE11C0F6000101F0E9FC40F24810C2F292
:1044700000000068012103F003FC0AE040F26050F4
:10448000C2F200004AF69D11C0F6000101F0D6FC10
:10449000FFE725E0BDF822000130ADF82200BDF8AD
:1044A00022004BF65002C0F21E5245F62941CCF2D2
:1044B0008F2100FB01204FEAF0004AF61461C0F2A0
:1044C000471188420BD8FFE740F26050C2F200006B
:1044D0004AF64A21C0F6000101F0B0FCFFE7FFE711
:1044E00002F016FE022002F047FF6EE780B596B09C
:1044F0001590FFE702F0E0FD40F24810C2F2000024
:104500000068002103F074FB01286ED1FFE7002052
:104510008DF83B00FFE79DF83B00022832DCFFE707
:104520009DF83B0040F62411C2F2000131F9101051
:1045300000EE101AB8EEC00A9FED641A80EE010A70
:104540009FED631A20EE010A12A901EB800080EDB5
:10455000000A40F2AC60C2F2000000689DF83B2007
:1045600001EB820100231A4603F092FE9DF83B20E6
:104570000FA941F82200FFE79DF83B0001308DF8BC
:104580003B00C8E70F98012823D1FFE710980128C6
:104590001FD1FFE7119801281BD1FFE740F26050BF
:1045A000C2F200004AF60121C0F6000101F046FC0B
:1045B00040F24810C2F200000068022103F060FBE4
:1045C00040F2B460C2F200000068042103F07EF8FB
:1045D0000AE040F26050C2F200004AF6BD11C0F697
:1045E000000101F02BFCFFE7FFE74AF66010C0F680
:1045F000000004F00BFD40F62411C2F20001B1F9F5
:104600000000B1F902200492B1F90410089100EE03
:10461000100AB8EEC00A9FED2D1A8DED061A80EE35
:10462000010A9FED2B1A8DED071A20EE010A10EEFC
:10463000100AFCF72CF89DED062A9DED071A02469C
:10464000049805920A46059942EC101B8DED0C0B5F
:1046500000EE100AB8EEC00A80EE020A20EE010A4F
:1046600010EE100AFCF713F89DED062A9DED071ACF
:104670000246089809920A46099942EC101B8DEDF2
:104680000A0B00EE100AB8EEC00A80EE020A20EE15
:10469000010A10EE100AFBF7FAFF9DED0A1B9DEDD3
:1046A0000C0B41EC120B684680ED022B80ED001BD9
:1046B00053EC102B4AF68610C0F6000004F0A6FC5E
:1046C00002F026FD642002F057FE13E700000047C9
:1046D0000000344381B0009000980021C4F2201102
:1046E00001604FF0804141600021C4F248218160A7
:1046F0000022C4F27A42C2600021016141618161FD
:10470000C161026248F20002C4F23B52426281621D
:1047100001B0704781B00090009801B07047000070
:1047200080B582B0019001980090FEF7B1FD00982D
:10473000062100F059F8FEF7ABFD00980F2100F0BC
:1047400053F802B080BD000080B584B00390039898
:10475000019000780321FEF719FE0199886040F26C
:104760006050C2F2000002904AF68331C0F60001A8
:1047700001F050FB01990298097801F0C7FA0298FC
:104780004AF68E31C0F6000101F044FB019902980F
:10479000896801F0BBFA02984AF69B11C0F6000145
:1047A00001F038FB04B080BD80B584B003908DF873
:1047B0000B10019203980090FFF7B2FF00989DF84C
:1047C0000B10019A00F028F80098007F28B1FFE74D
:1047D00000983F2100F008F804E000987F2100F0E5
:1047E00003F8FFE704B080BD80B584B00390ADF856
:1047F0000A1003980190FFE701980078BDF80A209D
:104800000121FEF7FFFB012804D0FFE7022001F0A1
:1048100063F9F1E704B080BD80B584B003908DF8F2
:104820000B1001920398009040F26050C2F2000019
:104830004AF6A831C0F6000101F000FB009901988A
:1048400048609DF80B000877FFE7009908784B68EF
:1048500046F27A010022FEF73FFC012804D0FFE770
:10486000022001F039F9F0E704B080BD80B584B0D2
:1048700084460B98DDF828E0DDF824E0DDF820E040
:10488000DDF81CE0DDF818E0CDF80CC08DF80B1059
:104890008DF80A2001938DF8030003989DF80B1002
:1048A00001709DF80A10417001994160069981607C
:1048B0000799C16008990161099941610A9981616B
:1048C0009DF80310017704B080BD000088B0079008
:1048D0000798009000200690FFE70698062816DC4F
:1048E000FFE70099069801EB80020020C2F80C0156
:1048F000069A01EB8202C2F82801069A01EB8201B6
:10490000C1F84401FFE7069801300690E5E7002072
:104910000590FFE70598012800F3A680FFE70098BF
:10492000059900EB8100D0F8E000013008B9FFE7FD
:1049300096E000200490FFE70498012800F38F80A0
:10494000FFE70098049900EB8100D0F8E8000130FF
:1049500000287ED0FFE7009800F1E801049A51F8A2
:104960002220C2EBC20200EB820300F1E002DDF87C
:1049700014C052F82CC003EB8C03D3F87C31033302
:104980000393049B51F82330C3EBC30300EB830371
:10499000DDF814C052F82CC003EB8C03D3F840327E
:1049A00003330293049B51F82310C1EBC10100EBC8
:1049B0008101059B52F8232001EB8201D1F80413F9
:1049C00003310191039900EB810393ED431A00F148
:1049D000D002059902EB810191ED000A00F1D801A6
:1049E000DDF810C001EB8C0C9CED002A20EE020AD1
:1049F00030EE010A83ED430A029B00EB830393ED43
:104A00004A1ADDF814C002EB8C0C9CED000ADDF8AC
:104A100010C001EB8C0C9CED002A20EE020A30EE57
:104A2000010A83ED4A0A019B00EB830090ED511AC5
:104A3000059B02EB830292ED000A049A01EB8201CE
:104A400091ED002A20EE020A30EE010A80ED510AB3
:104A500000E000E0FFE70498013004906CE7FFE716
:104A600005980130059055E708B070470000000038
:104A700080B58AB009908DED080ACDED070A8DED5D
:104A8000061A9DED060A9DED071A8DED011A30EE0E
:104A9000410A10EE100AFBF7FAFD41EC100B51EC45
:104AA000100B9FED190B53EC102BFBF7A9FC9DEDA0
:104AB000011A41EC100B8DED020B9DED080A30EE52
:104AC000410A10EE100AFBF7E2FD9DED020B41ECEE
:104AD000110B53EC112B51EC100BFBF703FD41ECC8
:104AE000100B51EC100B9FED0A0B53EC102BFBF746
:104AF000E0FB41EC100B51EC100BFBF7DBFD0590DC
:104B00009DED050A0AB080BD0000000000001840BD
:104B100000000000000008C080B598B014908DED32
:104B2000130ACDED120A8DED111ACDED101A8DED8F
:104B30000F2ACDED0E2A8DED0D3ACDED0C3A8DED0F
:104B40000B4ACDED0A4A8DED095ACDED085A8DED8F
:104B5000076ACDED066A149801909DED0D1A90ED4F
:104B6000330A30EE010A80ED330A9DED130ADDEDC4
:104B7000120A9DED0D1AFFF77BFF019880ED310AB7
:104B80009DED110ADDED100A9DED0C1AFFF770FF87
:104B9000019880ED320A90ED310AD0ED320A00F032
:104BA000A9F80198FFF792FE019800F021FA019808
:104BB0009DED0F0ADDED0E0A90ED271A00F0F6F9D3
:104BC000019880ED2B0A9DED0B0ADDED0A0A90EDB0
:104BD000281A00F0EBF9019880ED2C0A9DED090AE6
:104BE000DDED080A90ED291A00F0E0F9019981ED58
:104BF0002D0A0020C1F8A400C1F8A000C1F89C0053
:104C000091ED240A91ED2B1A30EE010A81ED240A70
:104C100091ED250A91ED2C1A30EE010A81ED250A5D
:104C200091ED260A91ED2D1A30EE010A81ED260A4A
:104C3000C1F8AC00C1F8B000C1F8B4000D98FBF7A2
:104C400026FD0246019800920A46009942EC101B8C
:104C50008DED040B0D9917919DED170AB0EEC00A6A
:104C60008DED0D0A079916919DED160AB0EEC00A5A
:104C70008DED070A069915919DED150AB0EEC00A53
:104C80008DED060A9DED0D2A9DED073A33EE030AE0
:104C900032EE400A9DED061A30EE015A90ED241ACC
:104CA00090ED254A90ED260A24EE054A21EE021ADF
:104CB00031EE041A32EE432A20EE020A30EE010AE7
:104CC0008DED030A0398FBF7E2FC0246019802927D
:104CD0000A46029942EC101B9DED041B00F0CCF932
:104CE00000EE100AB8EEC00A8DED030A9DED030A2E
:104CF00018B080BD86B005908DED040ACDED030A95
:104D0000059800909DED040A90ED011AB4EE410A59
:104D1000F1EE10FA67DDFFE700989DED040A90EDD3
:104D2000071AB4EE410AF1EE10FA5CDAFFE7002050
:104D30000290FFE70099029809680239884251DA27
:104D4000FFE700989DED040A029900EB810090EDC9
:104D5000011AB4EE410AF1EE10FA3EDBFFE70098CB
:104D60009DED040A029900EB810090ED021AB4EE69
:104D7000410AF1EE10FA30DCFFE700999DED040ADC
:104D8000081D029A00EB820292ED001A92ED012AB0
:104D900030EE420A31EE421A80EE010A81ED340A09
:104DA0009DED040A029A00EB820090ED002A90ED3E
:104DB000011A30EE410A31EE421A80EE010AB7EED6
:104DC000001A30EE010A81ED350A0298C1F8E000C0
:104DD00002980130C1F8E40004E0FFE702980130D6
:104DE0000290A7E736E000989DED040A90ED011AC5
:104DF000B4EE410AF1EE10FA0FDCFFE700994FF034
:104E00007E50C1F8D0000020C1F8D400C1F8E00005
:104E10004FF0FF30C1F8E4001BE000989DED040A5C
:104E200090ED071AB4EE410AF1EE10FA10DBFFE73D
:104E300000994FF07E50C1F8D0000020C1F8D40096
:104E40000620C1F8E0004FF0FF30C1F8E400FFE7B2
:104E5000FFE7FFE700989DED030A90ED081AB4EE16
:104E6000410AF1EE10FA68DDFFE700989DED030AB4
:104E700090ED0E1AB4EE410AF1EE10FA5DDAFFE79A
:104E800000200190FFE700990198096802398842E3
:104E900052DAFFE700989DED030A019900EB8100CB
:104EA00090ED081AB4EE410AF1EE10FA3FDBFFE78D
:104EB00000989DED030A019900EB810090ED091A1D
:104EC000B4EE410AF1EE10FA31DCFFE700999DEDF6
:104ED000030A01F12000019A00EB820292ED001A10
:104EE00092ED012A30EE420A31EE421A80EE010ABA
:104EF00081ED360A9DED030A019A00EB820090EDE8
:104F0000002A90ED011A30EE410A31EE421A80EE8D
:104F1000010AB7EE001A30EE010A81ED370A019856
:104F2000C1F8E80001980130C1F8EC0004E0FFE7A7
:104F3000019801300190A6E736E000989DED030A44
:104F400090ED081AB4EE410AF1EE10FA0FDCFFE71B
:104F500000994FF07E50C1F8D8000020C1F8DC0065
:104F6000C1F8E8004FF0FF30C1F8EC001BE00098FA
:104F70009DED030A90ED0E1AB4EE410AF1EE10FA1F
:104F800010DBFFE700994FF07E50C1F8D8000020F9
:104F9000C1F8DC000620C1F8E8004FF0FF30C1F88E
:104FA000EC00FFE7FFE7FFE706B0704785B004902D
:104FB0008DED030ACDED020A8DED011A9DED030A78
:104FC0009DED021A30EE410A9DED012AB0EE083A3D
:104FD00032EE032A20EE020AB1EE082A80EE020A1F
:104FE00030EE010A8DED000A9DED000A05B0704714
:104FF00083B002900298009000200190FFE7009992
:10500000019809680139884233DAFFE7009801996D
:1050100000EB810191ED0F0A91ED432A90ED271AE3
:1050200020EE020A30EE010A80ED270A019900EB1A
:10503000810191ED160A91ED4A2A90ED281A20EE91
:10504000020A30EE010A80ED280A019900EB810185
:1050500091ED1D0A91ED512A90ED291A20EE020AD8
:1050600030EE010A80ED290AFFE701980130019036
:10507000C5E703B07047000080B58AB009908DED98
:10508000060B8DED041B00200390029004980599F7
:105090009FED2D0B53EC102BFBF7AEFA18B9FFE781
:1050A0000120029002E000200290FFE70698079995
:1050B0009FED250B53EC102BFBF783FA18BBFFE792
:1050C0009DED060B51EC100B9FED250B53EC102BB7
:1050D000FBF708FA41EC100B8DED000B0298FBF783
:1050E000A6FA9DED001B41EC100B51EC110B53EC9B
:1050F000102BFBF7DEF841EC100B51EC100BFBF71B
:10510000A7FA03901BE09DED060B51EC100B9FEDF1
:10511000100B53EC102BFBF7E5F941EC100B51ECA5
:10512000100B9FED0D0B53EC102BFBF7C2F841EC6D
:10513000100B51EC100BFBF78BFA0390FFE7039871
:105140000AB080BD00BF00BF0000000000000000EA
:105150009A9999999999B93F000000000000F0BF11
:10516000F6285C8FC2F5E03FB0B581B000900098A2
:105170000821016040F21401C2F200010A684B6884
:10518000D1F808C0D1F80CE00C694D698561446123
:10519000C0F810E0C0F80CC0836042608969C1614A
:1051A00040F23001C2F200010A684B68D1F808C031
:1051B000D1F80CE00C694D6945630463C0F82CE03C
:1051C000C0F828C0436202628969816340F24C01E1
:1051D000C2F200010A684B68D1F808C0D1F80CE0AF
:1051E0000C694D690565C464C0F848E0C0F844C066
:1051F0000364C2638969416540F26801C2F200013B
:105200000A684B68D1F808C0D1F80CE00C694D6908
:10521000C5668466C0F864E0C0F860C0C365826596
:105220008969016740F28401C2F200010A684B6893
:10523000D1F808C0D1F80CE00C694D69C0F888506D
:10524000C0F88440C0F880E0C0F87CC08367426743
:105250008969C0F88C1040F2D001C2F200010A68DE
:105260004B68D1F808C0D1F80CE00C694D69C0F862
:105270000451C0F80041C0F8FCE0C0F8F8C0C0F824
:10528000F430C0F8F0208969C0F8081140F2EC0150
:10529000C2F200010A684B68D1F808C0D1F80CE0EE
:1052A0000C694D69C0F82051C0F81C41C0F818E1E4
:1052B000C0F814C1C0F81031C0F80C218969C0F8D9
:1052C000241140F20811C2F200010A684B68D1F8BB
:1052D00008C0D1F80CE00C694D69C0F83C51C0F829
:1052E0003841C0F834E1C0F830C1C0F82C31C0F802
:1052F00028218969C0F8401140F22411C2F200014E
:105300000A684B68D1F808C0D1F80CE00C694D6907
:10531000C0F85851C0F85441C0F850E1C0F84CC131
:10532000C0F84831C0F844218969C0F85C116FF0B9
:105330000201C0F860116FF00101C0F864114FF074
:10534000FF31C0F868110021C0F86C110122C0F8CB
:1053500070210222C0F874210322C0F87821D0F80D
:105360007821C0F87C21D0F87821C0F88021D0F8CD
:105370007821C0F88421D0F87821C0F88821D0F8AD
:105380007421C0F88C21D0F86C21C0F89021D0F89D
:105390006C21C0F89421D0F87821C0F89821D0F879
:1053A0007821C0F89C21D0F87821C0F8A021D0F84D
:1053B0007421C0F8A421D0F87421C0F8A821D0F835
:1053C0006C21C0F8AC21D0F86C21C0F8B021D0F825
:1053D0007821C0F8B421D0F87421C0F8B821D0F8F1
:1053E0007421C0F8BC21D0F87021C0F8C021D0F8D9
:1053F0006C21C0F8C421D0F86821C0F8C821D0F8C9
:105400006421C0F8CC21D0F87421C0F8D021D0F8A4
:105410007421C0F8D421D0F87021C0F8D821D0F878
:105420006C21C0F8DC21D0F86821C0F8E021D0F868
:105430006421C0F8E421D0F86421C0F8E821D0F854
:105440007021C0F8EC21D0F87021C0F8F021D0F81C
:105450006C21C0F8F421D0F86421C0F8F821D0F80C
:105460006421C0F8FC21D0F86421C0F80022D0F8F3
:105470006021C0F80422D0F86C21C0F80822D0F8CE
:105480006C21C0F80C22D0F86C21C0F81022D0F8A2
:105490006421C0F81422D0F86021C0F81822D0F896
:1054A0006021C0F81C22D0F86021C0F82022D0F87A
:1054B0006C21C0F82422D0F86821C0F82822D0F846
:1054C0006021C0F82C22D0F86021C0F83022D0F83A
:1054D0006021C0F83422D0F86021C0F83822D0F81A
:1054E0006021C0F83C22D0F87821C0F84022D0F8E2
:1054F0007821C0F84422D0F87821C0F84822D0F8AA
:105500007821C0F84C22D0F87421C0F85022D0F88D
:105510006C21C0F85422D0F86C21C0F85822D0F881
:105520007821C0F85C22D0F87821C0F86022D0F849
:105530007821C0F86422D0F87421C0F86822D0F82D
:105540007421C0F86C22D0F86C21C0F87022D0F819
:105550006C21C0F87422D0F87821C0F87822D0F8F5
:105560007421C0F87C22D0F87421C0F88022D0F8D1
:105570007021C0F88422D0F86C21C0F88822D0F8BD
:105580006821C0F88C22D0F86421C0F89022D0F8AD
:105590007421C0F89422D0F87421C0F89822D0F871
:1055A0007021C0F89C22D0F86C21C0F8A022D0F85D
:1055B0006821C0F8A422D0F86421C0F8A822D0F84D
:1055C0006421C0F8AC22D0F87021C0F8B022D0F825
:1055D0007021C0F8B422D0F86C21C0F8B822D0F8FD
:1055E0006421C0F8BC22D0F86421C0F8C022D0F8F1
:1055F0006421C0F8C422D0F86021C0F8C822D0F8D5
:105600006C21C0F8CC22D0F86C21C0F8D022D0F8A0
:105610006C21C0F8D422D0F86421C0F8D822D0F888
:105620006021C0F8DC22D0F86021C0F8E022D0F878
:105630006021C0F8E422D0F86C21C0F8E822D0F84C
:105640006821C0F8EC22D0F86021C0F8F022D0F830
:105650006021C0F8F422D0F86021C0F8F822D0F818
:105660006021C0F8FC22D0F86021C0F80023D0F8F7
:105670007821C0F80423D0F87821C0F80823D0F8A6
:105680007821C0F80C23D0F87821C0F81023D0F886
:105690007421C0F81423D0F86C21C0F81823D0F876
:1056A0006C21C0F81C23D0F87821C0F82023D0F852
:1056B0007821C0F82423D0F87821C0F82823D0F826
:1056C0007421C0F82C23D0F87421C0F83023D0F80E
:1056D0006C21C0F83423D0F86C21C0F83823D0F8FE
:1056E0007821C0F83C23D0F87421C0F84023D0F8CA
:1056F0007421C0F84423D0F87021C0F84823D0F8B2
:105700006C21C0F84C23D0F86821C0F85023D0F8A1
:105710006421C0F85423D0F87421C0F85823D0F87D
:105720007421C0F85C23D0F87021C0F86023D0F851
:105730006C21C0F86423D0F86821C0F86823D0F841
:105740006421C0F86C23D0F86421C0F87023D0F82D
:105750007021C0F87423D0F87021C0F87823D0F8F5
:105760006C21C0F87C23D0F86421C0F88023D0F8E5
:105770006421C0F88423D0F86421C0F88823D0F8CD
:105780006021C0F88C23D0F86C21C0F89023D0F8A9
:105790006C21C0F89423D0F86C21C0F89823D0F87D
:1057A0006421C0F89C23D0F86021C0F8A023D0F871
:1057B0006021C0F8A423D0F86021C0F8A823D0F855
:1057C0006C21C0F8AC23D0F86821C0F8B023D0F821
:1057D0006021C0F8B423D0F86021C0F8B823D0F815
:1057E0006021C0F8BC23D0F86021C0F8C023D0F8F5
:1057F0006021C0F8C423C0F89010C0F89410C0F81D
:105800009810C0F8B810C0F89C10C0F8A010C0F8EC
:10581000A410C0F8A810C0F8CC1001B0B0BD0000B2
:1058200081B00090009801B07047000081B08DF801
:1058300003009DF9030000280ED4FFE79DF9031033
:1058400001F01F02012090404A094EF20011CEF2F1
:10585000000141F82200FFE701B070474EF60C50FE
:10586000CEF200000068C0F30220704782B08DF8CD
:10587000070000919DF9070000280AD4FFE700986F
:1058800000019DF907104EF20042CEF2000288544A
:105890000BE0009800019DF8071001F00F014EF693
:1058A0001452CEF200028854FFE702B070470000A5
:1058B00083B00290029800F0070000904EF60C5161
:1058C000CEF200010868019001984FF6FF021040E7
:1058D00001900198009A40EA02200022C0F2FA5298
:1058E000104301900198086003B0704780B5032011
:1058F0000421002202F0FAFB40F24011C2F2000142
:10590000086080BD80B586B068460122426142F2DF
:1059100010710161C1600023836040F6B8314160BD
:10592000036040F61C00C2F200001146FEF79EFF25
:1059300006B080BD80B586B068460122426142F261
:1059400010710161C1600023836040F6B83141608D
:10595000036040F67C00C2F200000321FEF786FFE0
:1059600006B080BD80B503200421002202F0BEFBFA
:1059700040F2AC61C2F20001086080BD80B586B023
:1059800068460122426142F210710161C160002348
:10599000836040F6B8314160036040F63C00C2F2DB
:1059A00000000221FEF762FF06B080BD80B502F064
:1059B00051F940F24811C2F20001086080BD0000B8
:1059C00080B586B068460122426142F210710161E1
:1059D000C1600023836040F6B8314160036040F24B
:1059E000FC70C2F200000321FEF740FF06B080BD4C
:1059F00080B586B068460122426142F210710161B1
:105A0000C1600023836040F6B8314160036040F616
:105A10005C00C2F200000421FEF728FF06B080BD42
:105A200080B582B040F27810C2F200000190FFF71A
:105A30009BFB019945F62100C0F6000040F20002F0
:105A4000C0F60002FAF730FC02B080BD80B582B02B
:105A500040F24C10C2F200000190FEF73BFE0199AB
:105A600044F21570C0F6000040F20002C0F60002D9
:105A7000FAF71AFC02B080BD80B582B08DF807003D
:105A80000420FCF71DFE9DF8070040F2D071C2F221
:105A9000000108609DF80700009000984FF47A71AB
:105AA0004843009040F2CE71C2F20001012008800C
:105AB0004EF21001CEF20001086840F002000860CA
:105AC00000984EF21402CEF200021060086840F016
:105AD0000100086002B080BD80B582B0ADF806005C
